:02000002B0004C
:1040000000400B0030600B00000006000D000502B0
:0840100004010410000000008F
:04401800785C0B00C5
:1040200009480A49884208B505D0094A824202D0A7
:10403000121A01F06FFD0748074A0021121A01F019
:1040400077FD014808BD00BFF4E50320985F0B0031
:1040500064E6032064E60320EDE7032070B5074E15
:10406000074C00F075FDA41BA4080025AC4200D14C
:1040700070BD56F8043B98470135F7E7445F0B00E5
:10408000685F0B0000F0E2B808B500F0EDF8BDE89D
:10409000084000F015BD00F0FFBA00F0FDBA00F0D6
:1040A00003BB0078B0FA80F0400970470123037029
:1040B0007047704710B504210446FFF7F0FF204613
:1040C00010BD0EB403B503AB012153F8042B0193CB
:1040D00000F0CBFB02B05DF804EB03B070470000CA
:1040E00010B5064C236833B90420FFF7D4FF08B19C
:1040F000034B03602060206810BD00BF70E6032002
:10410000D45C0B0038B500F02FFE4FF4E13100F025
:104110001BFE01F075F84FF4E13100F0EDFE00F008
:1041200023FE00F015FE10B900F0A6FAF7E700F044
:104130001BFE00F00DFE00F017FE134900F06DFBB2
:1041400001F05EF803681B69984718B90A2000F06F
:104150008BFCF5E701F054F800F070FC0B4D85ED99
:10416000000A00F001FE0446286801F013FA024636
:104170000B4620460649FFF7A4FF064B012118888D
:1041800000F0F8FF012038BD8C5C0B006CE60320CA
:10419000A05C0B00F4E503202DE9F041254E3468C6
:1041A000012C26D0022C39D0ACB901F029F800F04E
:1041B000E1FB214F386000F0D7FD3D68002D8046BF
:1041C0000BDA2D2100F01AFB69420A22404600F06A
:1041D0002EFB3B681BB9002408E02946F5E700F0F8
:1041E000C3FD164900F019FB012333602046BDE8EA
:1041F000F08101F005F800F0BDFB0F4B044618609C
:104200000028E8D100F0B0FD0D49FFF75AFF0D4B33
:104210000121188800F0BFFF0223E6E700F0A4FDAB
:10422000094900F0FAFA074B0021188800F0B3FFA3
:104230000124DBE768E6032064E60320B65C0B009C
:10424000BE5C0B00F4E50320C65C0B0008B500F073
:104250003BF800F04BF800F087FDBDE8084001494D
:1042600000F0DBBADC5C0B0010B500F02DF800F0BC
:104270004BF8054C0028206005DD00F075FD226834
:104280000249FFF71EFF10BD80E60320F65C0B001D
:1042900010B5074B074A9A600024C3E90044032085
:1042A00000F05EF921460120BDE8104000F068B939
:1042B00074E603200000FFFF704710B50421044698
:1042C000FFF7EDFE204610BD10B5064C236833B94C
:1042D0000420FFF7E0FE08B1034B03602060206874
:1042E00010BD00BF8CE60320345D0B0008B5FFF75E
:1042F000F7FEFFF707FF00F037FDBDE80840014972
:1043000000F08BBA0B5D0B0008B5FFF7E9FEFFF775
:1043100043FF38B1044A136801331360034B186834
:104320000130186008BD00BF84E6032088E6032042
:1043300008B5024B1B689B68019308BD6802030027
:1043400008B5024B1B68DB68019308BD68020300D7
:1043500008B5024B1B689B68019308BD2C02030043
:1043600008B5024B1B68DB68019308BD2C020300F3
:1043700008B5024B1B681B69019308BD2C020300A2
:1043800008B5024B1B685B68019308BD1802030067
:1043900008B5024B1B685B69019308BD1802030056
:1043A00008B5024B1B685B6C019308BD4802030013
:1043B00008B5024B1B685B69019308BD64020300EA
:1043C00008B5024B1B68DB68019308BD3C02030083
:1043D00008B5024B1B681B69019308BD3C02030032
:1043E00008B5024B1B685B69019308BD3C020300E2
:1043F00008B5024B1B689B69019308BD3C02030092
:1044000008B5024B1B68DB69019308BD3C02030041
:1044100008B5024B1B681B6A019308BD3C020300F0
:1044200008B5024B1B689B6A019308BD3C02030060
:1044300008B5024B1B68DB6A019308BD3C02030010
:1044400008B5024B1B681B6C019308BD3C020300BE
:1044500008B5024B1B681B6A019308BD28020300C4
:1044600008B5024B1B685B6A019308BD2802030074
:1044700008B5024B1B689B6A019308BD2802030024
:1044800008B5024B1B68DB6A019308BD28020300D4
:1044900008B5024B1B681B6B019308BD2802030083
:1044A00008B5024B1B685B6B019308BD2802030033
:1044B00008B5024B1B681B6C019308BD2802030062
:1044C00008B5024B1B68DB69019308BD300203008D
:1044D00008B5024B1B681B6A019308BD300203003C
:1044E00008B5024B1B681B68019308BD4C02030012
:1044F00008B5024B1B685B68019308BD4C020300C2
:1045000008B5024B1B681B69019308BD4C020300F0
:1045100008B5024B1B685B69019308BD4C020300A0
:1045200008B5024B1B689B69019308BD4C02030050
:1045300008B5024B1B68DB69019308BD4C02030000
:1045400008B5024B1B681B6A019308BD4C020300AF
:1045500008B5024B1B689B6A019308BD4C0203001F
:1045600008B5024B1B685B68019308BD200203007D
:1045700008B5024B1B685B69019308BD200203006C
:1045800008B5024B1B68DB6A019308BD20020300DB
:1045900008B5034B1B68D3F88830019308BD0000B1
:1045A0002002030008B5034B1B68D3F89430019335
:1045B00008BD00002002030008B5024B1B685B68C1
:1045C000019308BD4002030008B5024B1B689B68BD
:1045D000019308BD4002030008B5024B1B68DB686D
:1045E000019308BD4002030008B5024B1B681B691C
:1045F000019308BD4002030008B5024B1B685B69CC
:10460000019308BD4002030008B5024B1B689B697B
:10461000019308BD4002030008B5024B1B68DB692B
:10462000019308BD4002030008B5024B1B681B6ADA
:10463000019308BD4002030008B5024B1B681B6BC9
:10464000019308BD4002030008B5024B1B685B6B79
:10465000019308BD4002030008B5024B1B681B6CA8
:10466000019308BD4002030008B5024B1B685B6C58
:10467000019308BD4002030008B5024B1B689B680C
:10468000019308BD4402030008B5024B1B68DB6BB5
:10469000019308BD4402030008B5024B1B681B6868
:1046A000019308BD1C02030008B5024B1B685B6840
:1046B000019308BD1C02030008B5024B1B685B6A2E
:1046C000019308BD1C02030008B5024B1B681B6C5C
:1046D000019308BD1C02030008B5024B1B685B6C0C
:1046E000019308BD1C020300002240681146FFF739
:1046F0009BBF002240681146FFF7A6BF406800221A
:10470000FFF79ABF4068002281F00101FFF784BFE4
:10471000002340681A461946FFF776BF0023406819
:104720001A461946FFF768BF002240681146FFF796
:104730005BBF002240681146FFF746BF4068002279
:104740000221FFF749BF002340681A46FFF734BF34
:10475000024B03225A60024A1A60704790E6032017
:10476000445D0B0010B5044608462170FFF7A8FE13
:1047700000236360204610BD054B02221A60054BE2
:10478000054A9A600020C3E90000FFF7E9BE00BFB8
:10479000A4E6032098E603200000FFFF0248002360
:1047A0000360FFF7FDBD00BFA8E60320F8B506468D
:1047B0000D468F180024BD420CD0336815F8011B3C
:1047C0009B6830469847031E01DB1C44F3E7002C2E
:1047D00008BF1C462046F8BD13B50446084659B12B
:1047E000019101F0DBF923680199DB68024620465C
:1047F00002B0BDE81040184702B010BD03689B68C6
:10480000184738B50D210546FFF7F8FF0A21044681
:104810002846FFF7F3FF204438BD38B50546FFF7BB
:10482000DBFF04462846FFF7ECFF204438BD30B5D7
:104830008BB00023012A8DF8243098BF0A2209ACDE
:104840000D46B1FBF2F101FB125303F0FF03092BFC
:1048500094BF30333733DBB2AA4204F8013DEFD9BD
:104860002146FFF7B9FF0BB030BD2DE9F04186B00E
:1048700000AF05460E46381D142114463B60FFF775
:104880001BFF13280ED8391D2846FFF7A5FF044645
:104890001EB12846FFF7B5FF044420461837BD4631
:1048A000BDE8F08100F1080323F00703E846ADEB13
:1048B000030D2246411C3B686846FFF7FDFE694632
:1048C0002846FFF789FF0446C546E1E710B50446D0
:1048D000FFF75EFDE060236820469B69984700284B
:1048E00008DAFFF755FDE368C01AA3689842F2D3CF
:1048F0004FF0FF3010BD10B504462046FFF7E6FF2D
:1049000000280ADB2D2808D0A0F13003092B04D998
:10491000236820465B699847EFE710BD2DE9F04119
:1049200005460E46FFF7E7FF00284FF000041CDBAA
:1049300027464FF00A08864208D02D2818D0A0F14B
:104940003003092B02D808FB0404303C2B682846AE
:104950005B6998472846FFF7B9FFA0F13003092BA0
:10496000E9D98642F2D007B164422046BDE8F08121
:104970000127EBE70121FFF7D1BF00000000000095
:104980002DE9F84F2DED028B05460E46FFF7B3FFDC
:10499000002847DB0FF29C09D9E900890024B7EE13
:1049A000008A2746A2464FF00A0B864217D02D28D0
:1049B00033D02E2834D0A0F13003092B0FD80BFBB5
:1049C0000404303C5FB118EE100A00F0E3FD4246EB
:1049D0004B4600F037FE01F047F808EE100A2B684E
:1049E00028465B6998472846FFF770FFA0F130031F
:1049F000092BDAD92E28D8D08642F0D0BAF1000F90
:104A000000D0644207EE904AB8EEE70A0FB120EEFC
:104A1000080ABDEC028BBDE8F88F4FF0010ADEE713
:104A20000127DCE79FED020AF3E700BFAFF3008048
:104A3000000000009A9999999999B93F0121FFF7CF
:104A40009FBF0000014B024A1A607047ACE603208A
:104A5000785D0B00024B1A68024B1A60704700BF6A
:104A6000F8E50320B0E603200021FFF781BD000038
:104A7000014B00229A607047B4E60320014B186096
:104A8000704700BFFCE5032008B50B4B43B100F0B5
:104A90006BF903681B699847002801DDAFF30080BC
:104AA000064B43B100F0ACFB03681B699847002834
:104AB00001DDAFF3008008BD000000000000000031
:104AC00008B5FFF7E1FFFFF763FC014B186008BD75
:104AD00040E703200548064A064908B5121A01F0C6
:104AE00019F8054B054A1A6008BD00BF00F4032001
:104AF00004F40320945F0B0000F403201E1C279A8B
:104B000007B5002300931A466FF07701FFF74AFDBF
:104B100003B05DF804FB000007B543880A2B08D0FA
:104B2000502B0BD1094B1B684BB103B05DF804EB64
:104B30001847FFF7E5FF03B05DF804FB002300937F
:104B40001A466FF07701FFF72DFDF4E7C8E6032062
:104B500010B512480021FFF7BFFD114B1A68114B29
:104B60009A42114B0CBF012200221A7001D0FFF7AC
:104B7000B1FFFFF705FC044600F0E2FF0B4B13B159
:104B80002046AFF3008000210848FFF77DFDBDE817
:104B9000104007480021FFF7FBBC00BF7D4A0B0017
:104BA00000F403201E1C279AC4E603200000000026
:104BB000194B0B00704710B518210446FFF76FFA28
:104BC000204610BDF0B5037D062B8DB00E4600F1DA
:104BD00004074FF0000412D000F1080515F8011D7C
:104BE0000A223046FFF723FEAF42044419D0002CBE
:104BF000F4D02E213046FFF701FE0444EEE72F23C8
:104C00006A4639460A208DF80040FFF7D1FB684616
:104C100000F0C4FF33680246DB68694630469847B7
:104C2000044620460DB0F0BD10B5054B04461122D8
:104C300040F8043B002100F07BFF204610BD00BF80
:104C4000A05D0B000346074A10B543F8042B01F1A1
:104C5000100251F8044B43F8044B9142F9D10A7801
:104C60001A7010BDA05D0B0010B59DF8084044EA15
:104C7000032343EA024242EA0161042341600375CF
:104C800010BD000007B5064B0360CB7800938B780E
:104C90004A780978FFF7E8FF03B05DF804FB00BF2E
:104CA000A05D0B00417470477047704708B5002144
:104CB000007CFFF735FC40EAE07008BD08B5012133
:104CC000007CFFF72DFC40EAE07008BD08B5007CD1
:104CD000FFF71EFC20EAE07008BD08B5007CFFF776
:104CE0000FFC20EAE07008BD13B50446007C01917A
:104CF000FFF70EFC0028019901DC607C20B1207CCC
:104D0000FFF716FC20EAE07002B010BD007CFFF750
:104D100017BC10B514210446FFF7C1F9204610BD99
:104D200010B54FF47A73044608460021C4E9011314
:104D3000044B23600123207463741146FFF7D0FBFA
:104D4000204610BDB45D0B00007C0022FFF7D0BBF5
:104D5000007CFFF7FDBB10B514220446002100F0D3
:104D6000E7FE204610BD000010B50F4C88B003A828
:104D7000FFF7F1FF2178BFF35B8F11F001010FD135
:104D800020460191FFF78DF9019948B103AA074820
:104D9000FFF7C6FF2046FFF789F9054800F0B4FE8B
:104DA000024808B010BD00BFCCE60320D0E60320C7
:104DB000A94C0B00002240681146FFF715BC0022E9
:104DC00040681146FFF730BC002240681146FFF7EB
:104DD0003BBC40680022FFF72FBC4068002281F0F6
:104DE0000101FFF719BC002340681A461946FFF776
:104DF0000BBC002340681A461946FFF7FDBB002292
:104E000040681146FFF7E0BB406800220221FFF72F
:104E1000E3BB002340681A46FFF7CEBB084B10B532
:104E2000282422461846002100F082FE054B04800B
:104E30004FF0FF32426004225A60034A1A6010BDEC
:104E4000ECE60320E4E60320E45D0B0070474174C8
:104E5000704708B5007CFFF7E3FA20EAE07008BD70
:104E600008B5007CFFF7B4FA20EAE07008BD08B589
:104E7000007CFFF7BDFA40EAE07008BD08B5007C91
:104E8000FFF7AEFA40EAE07008BD007CFFF7B8BA61
:104E900037B5457C04462DB1207C03B0BDE83040D9
:104EA000FFF78EBA007C0191FFF7BAFA002801994A
:104EB000F2DC284603B030BD10B514210446FFF7DC
:104EC000EEF8204610BD000010B54FF47A7304468A
:104ED000084611460022C4E90123044B2360012344
:104EE00020746374FFF7ACFA204610BD205E0B00FF
:104EF000007C0023FFF79CBA0022FFF7F9BF704740
:104F0000F8B5064615460C468F18BC4206D03368E5
:104F100014F8011B9B6830469847F6E72846F8BD11
:104F2000007C0022FFF794BA007C0021FFF798BABA
:104F3000007C0021FFF79CBA007C0021FFF7A0BA9B
:104F4000007C0021FFF7A4BA10B514210446FFF736
:104F5000A6F8204610BD000038B5044615464FF4AB
:104F60007A730022C4E90123094B217408462360A7
:104F70002946FFF79DFABF3008D16B69DB0705D5DD
:104F80006868FFF791FBE868FFF78EFB204638BDA5
:104F9000505E0B00002340681A46FFF70DBB4068C7
:104FA00000220221FFF718BB002240681146FFF7DC
:104FB0000BBB002240681146FFF716BB0023406878
:104FC0001A461946FFF718BB002340681A461946CF
:104FD000FFF71ABB40680021FFF73EBB4068002185
:104FE000FFF742BB4068002281F00101FFF714BBCC
:104FF00040680022FFF720BB002240681146FFF7FF
:1050000023BB002240681146FFF70EBB2DE9F04399
:1050100095B014460D460746FFF706FE00211C22F8
:105020000DA8009100F084FD40230C9320466B46B0
:105030000CAA0021FFF784F9044600284BD1024650
:1050400001216868FFF7D0FA02218046224668688D
:10505000FFF7CAFA009E81462146002E3BD0002968
:1050600039D17368022B03D00A2B11D0F669F4E70B
:10507000B8F1000FFAD0716906A8043107ADFFF747
:1050800001FE0FCD3C1D0FC42B6823704146EDE798
:10509000B9F1000FEAD07469102201A800F048FDB0
:1050A00006238DF8143001AD04F108031834186894
:1050B00059682A4603C20833A3421546F7D101A90D
:1050C00006A807ADFFF7BEFD0FCD3C1D0FC42B6832
:1050D00023704946CAE70098FFF72AF9384615B009
:1050E000BDE8F083024B034A1A6000225A60704701
:1050F00014E70320785E0B00232813B502D90020A3
:1051000002B010BDA0F10B03022B1AD8174C217866
:10511000BFF35B8F11F001010BD120460191FEF727
:10512000C0FF019928B11248FFF71CFB2046FEF78B
:10513000BDFF0F4B1878FFF7CBF90028DFD1012016
:10514000DEE7012809D800F09BF80021007CFFF77A
:10515000A7F980F00100C0B2D2E709380128EED8E3
:1051600000F04EF8007CFFF753F9F2E71CE703204C
:1051700020E70320232838B504460D460AD8FF2926
:1051800008D0FFF7B9FF28B129462046BDE83840CE
:10519000FFF7DEB838BD38B504460D46FFF7E0F836
:1051A000FF2810D0062804D84D2323FA00F0C307A7
:1051B00009D42046FFF7A0FF28B129462046BDE8C4
:1051C0003840FFF7D5B838BD7047000038B5044601
:1051D00014252A46002100F0ABFC25804025074914
:1051E00025812846258200F06FF804496060284632
:1051F00000F06AF8E060204638BD00BFAC5E0B00EE
:1052000030B50E4D2978BFF35B8F11F0010487B0E4
:1052100011D12846FEF745FF68B101A8FFF7D6FF78
:1052200001AA21460648FFF74FFE2846FEF73EFF3B
:10523000044800F069FC024807B030BD28E70320AD
:105240002CE70320C9510B007047000038B50A4B0A
:1052500003600123044643610849202000F034F82C
:10526000202560600549A560284600F02DF8C4E9B6
:105270000305204638BD00BF18000100AC5E0B00DE
:1052800030B50E4D2978BFF35B8F11F0010487B064
:1052900011D12846FEF705FF68B16846FFF7D6FF33
:1052A0006A4621460648FFF757FE2846FEF7FEFEEF
:1052B000044800F029FC024807B030BD44E7032051
:1052C00048E7032049520B00FEF7E7BE81F000419A
:1052D00002E000BF83F0004330B54FEA41044FEADB
:1052E000430594EA050F08BF90EA020F1FBF54EA76
:1052F000000C55EA020C7FEA645C7FEA655C00F012
:10530000E2804FEA5454D4EB5555B8BF6D420CDDE2
:105310002C4480EA020281EA030382EA000083EA65
:10532000010180EA020281EA0303362D88BF30BD05
:1053300011F0004F4FEA01314FF4801C4CEA11315B
:1053400002D0404261EB410113F0004F4FEA0333BA
:105350004CEA133302D0524263EB430394EA050F45
:1053600000F0A780A4F10104D5F1200E0DDB02FAB4
:105370000EFC22FA05F2801841F1000103FA0EF248
:10538000801843FA05F359410EE0A5F120050EF10E
:10539000200E012A03FA0EFC28BF4CF0020C43FA3F
:1053A00005F3C01851EBE37101F0004507D54FF04C
:1053B000000EDCF1000C7EEB00006EEB0101B1F59C
:1053C000801F1BD3B1F5001F0CD349085FEA3000E2
:1053D0004FEA3C0C04F101044FEA445212F5800FED
:1053E00080F09A80BCF1004F08BF5FEA500C50F18A
:1053F000000041EB045141EA050130BD5FEA4C0C6D
:10540000404141EB0101013C28BFB1F5801FE9D2C9
:1054100091F0000F04BF01460020B1FA81F308BFEC
:105420002033A3F10B03B3F120020CDA0C3208DDB8
:1054300002F1140CC2F10C0201FA0CF021FA02F193
:105440000CE002F11402D8BFC2F1200C01FA02F103
:1054500020FA0CFCDCBF41EA0C019040E41AA2BF28
:1054600001EB0451294330BD6FEA04041F3C1CDAF0
:105470000C340EDC04F11404C4F1200220FA04F010
:1054800001FA02F340EA030021FA04F345EA0301BA
:1054900030BDC4F10C04C4F1200220FA02F001FA7C
:1054A00004F340EA0300294630BD21FA04F02946FE
:1054B00030BD94F0000F83F4801306BF81F4801197
:1054C0000134013D4EE77FEA645C18BF7FEA655C0A
:1054D00029D094EA050F08BF90EA020F05D054EADC
:1054E000000C04BF1946104630BD91EA030F1EBFE1
:1054F0000021002030BD5FEA545C05D140004941E5
:1055000028BF41F0004130BD14F580043CBF01F5D7
:10551000801130BD01F0004545F0FE4141F47001BD
:105520004FF0000030BD7FEA645C1ABF1946104698
:105530007FEA655C1CBF0B46024650EA013406BF99
:1055400052EA033591EA030F41F4002130BD00BF58
:1055500090F0000F04BF0021704730B54FF4806415
:1055600004F132044FF000054FF0000150E700BF96
:1055700090F0000F04BF0021704730B54FF48064F5
:1055800004F1320410F0004548BF40424FF00001E2
:105590003EE700BF42004FEAE2014FEA31014FEA25
:1055A00002701FBF12F07F4393F07F4F81F0605174
:1055B000704732F07F4208BF704793F07F4F04BFBF
:1055C00041F40021704730B54FF4607401F000459C
:1055D00021F000411CE700BF50EA010208BF7047FC
:1055E00030B54FF000050AE050EA010208BF7047ED
:1055F00030B511F0004502D5404261EB41014FF456
:10560000806404F132045FEA915C3FF4D8AE4FF05D
:1056100003025FEADC0C18BF03325FEADC0C18BF40
:10562000033202EBDC02C2F1200300FA03FC20FA91
:1056300002F001FA03FE40EA0E0021FA02F11444DE
:10564000BDE600BF70B54FF0FF0C4CF4E06C1CEAF7
:1056500011541DBF1CEA135594EA0C0F95EA0C0F68
:1056600000F0DEF82C4481EA030621EA4C5123EADB
:105670004C5350EA013518BF52EA033541F480110A
:1056800043F4801338D0A0FB02CE4FF00005E1FBBD
:1056900002E506F00042E0FB03E54FF00006E1FB07
:1056A00003569CF0000F18BF4EF0010EA4F1FF044A
:1056B000B6F5007F64F5407404D25FEA4E0E6D418A
:1056C00046EB060642EAC62141EA55514FEAC5209B
:1056D00040EA5E504FEACE2EB4F1FD0C88BFBCF517
:1056E000E06F1ED8BEF1004F08BF5FEA500E50F1C8
:1056F000000041EB045170BD06F0004646EA01018E
:1057000040EA020081EA0301B4EB5C04C2BFD4EBBF
:105710000C0541EA045170BD41F480114FF0000EB8
:10572000013C00F3AB8014F1360FDEBF002001F026
:10573000004170BDC4F10004203C35DA0C341BDCA0
:1057400004F11404C4F1200500FA05F320FA04F072
:1057500001FA05F240EA020001F0004221F00041A6
:1057600010EBD37021FA04F642EB06015EEA430E19
:1057700008BF20EAD37070BDC4F10C04C4F1200549
:1057800000FA04F320FA05F001FA04F240EA0200FC
:1057900001F0004110EBD37041F100015EEA430ECD
:1057A00008BF20EAD37070BDC4F1200500FA05F2ED
:1057B0004EEA020E20FA04F301FA05F243EA02036C
:1057C00021FA04F001F0004121FA04F220EA02007B
:1057D00000EBD3705EEA430E08BF20EAD37070BDC1
:1057E00094F0000F0FD101F00046400041EB0101A1
:1057F00011F4801F08BF013CF7D041EA060195F083
:10580000000F18BF704703F00046520043EB03033C
:1058100013F4801F08BF013DF7D043EA0603704729
:1058200094EA0C0F0CEA135518BF95EA0C0F0CD034
:1058300050EA410618BF52EA4306D1D181EA03017A
:1058400001F000414FF0000070BD50EA410606BF74
:105850001046194652EA430619D094EA0C0F02D1B9
:1058600050EA013613D195EA0C0F05D152EA0336FE
:105870001CBF104619460AD181EA030101F000411C
:1058800041F0FE4141F470014FF0000070BD41F065
:10589000FE4141F4780170BD70B54FF0FF0C4CF43F
:1058A000E06C1CEA11541DBF1CEA135594EA0C0F5E
:1058B00095EA0C0F00F0A7F8A4EB050481EA030EAB
:1058C00052EA03354FEA013100F088804FEA033392
:1058D0004FF0805545EA131343EA12634FEA022260
:1058E00045EA111545EA10654FEA00260EF0004121
:1058F0009D4208BF964244F1FD0404F5407402D273
:105900005B084FEA3202B61A65EB03055B084FEA03
:1059100032024FF480104FF4002CB6EB020E75EB00
:10592000030E22BFB61A754640EA0C005B084FEA28
:105930003202B6EB020E75EB030E22BFB61A7546A5
:1059400040EA5C005B084FEA3202B6EB020E75EBF0
:10595000030E22BFB61A754640EA9C005B084FEA68
:105960003202B6EB020E75EB030E22BFB61A754675
:1059700040EADC0055EA060E18D04FEA051545EA64
:1059800016754FEA06164FEAC30343EA52734FEA0D
:10599000C2025FEA1C1CC0D111F4801F0BD141EA86
:1059A00000014FF000004FF0004CB6E711F4801FEB
:1059B00004BF01430020B4F1FD0C88BFBCF5E06FCB
:1059C0003FF6AFAEB5EB030C04BFB6EB020C5FEADB
:1059D000500C50F1000041EB045170BD0EF0004E30
:1059E0004EEA113114EB5C04C2BFD4EB0C0541EA62
:1059F000045170BD41F480114FF0000E013C90E65F
:105A000045EA060E8DE60CEA135594EA0C0F08BF22
:105A100095EA0C0F3FF43BAF94EA0C0F0AD150EA21
:105A200001347FF434AF95EA0C0F7FF425AF1046B4
:105A300019462CE795EA0C0F06D152EA03353FF4DC
:105A4000FDAE1046194622E750EA410618BF52EA59
:105A500043067FF4C5AE50EA41047FF40DAF52EA2D
:105A600043057FF4EBAE12E74FEA4102B2F1E043A7
:105A700024BFB3F5001CDCF1FE5C0DD901F0004C35
:105A80004FEAC0024CEA5070B2F1004F40EB830085
:105A900008BF20F00100704711F0804F21D113F1B1
:105AA0003872BCBF01F00040704741F480114FEAEA
:105AB0005252C2F11802C2F1200C10FA0CF320FA73
:105AC00002F018BF40F001004FEAC1234FEAD32390
:105AD00003FA0CFC40EA0C0023FA02F34FEA4303FA
:105AE000CCE77FEA625307D150EA01331EBF4FF083
:105AF000FE4040F44000704701F0004040F0FE409E
:105B000040F40000704700BF002301461A461846C3
:105B100000F04CB80A44914200F1FF3300D17047C5
:105B200010B511F8014B03F8014F9142F9D110BDA6
:105B300002440346934200D1704703F8011BF9E782
:105B400038B5104B1D68AB6B0446B3B91820FEF78F
:105B5000A3FD0246A86320B90B4B0C484221FEF777
:105B6000B3FD0B490B4BC0E900130B4B83600B23B8
:105B7000838100210120C2E90401AB6B00221C617A
:105B80005A6138BDFCE50320AD5E0B00C45E0B001E
:105B90000E33CDAB34126DE6ECDE0500034613F890
:105BA000012B002AFBD1181A013870472DE9F84360
:105BB000DFF8B8800646D8F800001F460D4691462B
:105BC00000F056F8254B1C6834B9254C1C60254B59
:105BD00013B11B68C4F8883063681F2B07DDD8F841
:105BE000000000F047F84FF0FF30BDE8F8834EB3F7
:105BF000D4F8880088B91C4B23B9D8F8000000F00D
:105C000038F8F0E74FF48470FEF746FD0028F4D032
:105C10000023C0E94033C4F88800636840F823904B
:105C200001229A4000EB8301D0F800311343C0F801
:105C30000031022EC1F8807002BFD0F80431134346
:105C4000C0F804316368D8F800005A1C023362605F
:105C500044F8235000F00EF80020C6E7E8E70320E0
:105C60005CE703200000000099460B0060E603207B
:105C7000704770477047000021400B005D400B00EB
:105C800085400B0089400B000000000053657269DD
:105C9000616C20697320636F6E6E65637465640068
:105CA000426173656C696E652076616C756520690B
:105CB000733A2025660057414954494E47005345E1
:105CC0004E53494E4700444F4E450000000000002F
:105CD00000000000B3400B00B5400B00566568693A
:105CE000636C6520436F756E74657220496E6974CC
:105CF00069617465640025642056656869636C6534
:105D000073204465746563746564004D6167536511
:105D10006E736F7220696E7374616E636520696E55
:105D2000697469616C697A65642E00000000000086
:105D300000000000B9420B00BB420B000000000055
:105D40000000000047470B003D470B0033470B00A6
:105D500029470B001D470B0011470B00D54F0B00C7
:105D6000DD4F0B0005470B00FD460B00F3460B0013
:105D7000E9460B000D500B006170700025592D2570
:105D80006D2D25645425483A254D3A2553257A0032
:105D900061736374696D650000000000000000001D
:105DA000C54B0B00B54B0B00B74B0B0000000000C0
:105DB00000000000AB4C0B00134D0B00E94C0B0036
:105DC000AD470B00DB4C0B00AD4C0B00BD4C0B008A
:105DD0000D4D0B00CD4C0B00A54C0B00000000003E
:105DE00000000000134E0B00094E0B00FF4D0B008E
:105DF000B54D0B00F34D0B00E74D0B00D54F0B00DD
:105E0000DD4F0B00DB4D0B00D34D0B00C94D0B00DC
:105E1000BF4D0B000D500B00000000000000000003
:105E20004D4E0B00B94E0B00914E0B00AD470B00D1
:105E3000614E0B007D4E0B006F4E0B008B4E0B0026
:105E40004F4E0B00534E0B000000000000000000FE
:105E5000FF4E0B00494F0B00214F0B00014F0B0071
:105E6000294F0B00314F0B00394F0B00414F0B00F6
:105E70000000000000000000954F0B009F4F0B003A
:105E8000A94F0B00B34F0B00BD4F0B00C94F0B00C8
:105E9000D54F0B00DD4F0B00E54F0B00F14F0B0012
:105EA000F94F0B0003500B000D500B0000524545FD
:105EB0004E54206D616C6C6F632073756363656510
:105EC000646564002F6D6E742F776F726B737061F1
:105ED00063652F776F726B73706163652F47434300
:105EE0002D31302D706970656C696E652F6A656E35
:105EF0006B696E732D4743432D31302D706970658A
:105F00006C696E652D34385F323032303131323465
:105F10005F313630363138303634312F7372632F7B
:105F20006E65776C69622F6E65776C69622F6C693C
:105F300062632F7374646C69622F72616E642E6386
:105F40000000000091420B0051470B0079470B0005
:105F50009D470B00454A0B00554A0B00714A0B0048
:105F60001D4E0B00E5500B0000000000000000007B
:105F7000040000001400000003000000474E55001C
:105F80009EA2D662D046D1BE8CDEB8582F6663D4AE
:045F90008BA29B1431
:045F94000000000009
:105F980007000000905D0B0000E6032000000000F1
:105FA80000000000000000000000000000000000E9
:105FB80000000000000000000000000000000000D9
:105FC80000000000000000000000000000000000C9
:105FD80000000000000000000000000000000000B9
:105FE80000000000000000000000000000000000A9
:105FF800000000000000000000000000ECE70320A3
:10600800FFFFFFFF00000102030405060708090A55
:106018000B0C0D0E0F101112131415161718191A50
:086028001B1C1D1E1F20280097
:046030007856341258
:04000003B0004020E9
:00000001FF
