:02000002B0004C
:1040000000400B00906A0B00000006000D00050246
:0840100004010410000000008F
:044018009C660B0097
:1040200009480A49884208B505D0094A824202D0A7
:10403000121A02F05BFA0748074A0021121A02F02E
:1040400063FA014808BD00BFB4E50320F8690B001E
:1040500024E6032024E60320EDE7032070B5074E95
:10406000074C00F0B1FFA41BA4080025AC4200D10E
:1040700070BD56F8043B98470135F7E79C690B0083
:10408000C4690B0000F05EB908B500F07DF9BDE829
:10409000084000F051BF00F007BC00F005BC00F084
:1040A0000BBC0078B0FA80F0400970470123037020
:1040B0007047704710B504210446FFF7F0FF204613
:1040C00010BD000010B5064C236833B90420FFF77B
:1040D000E2FF08B1034B03602060206810BD00BF01
:1040E00070E60320FC660B0030B53D4B89B01888A4
:1040F000012101F027FD01F00BFB4FF4E13101F04C
:10410000F7FA01F065FD4FF4E13101F0C9FB01F070
:10411000FFFA01F0F1FA10B900F0A6FBF7E701F0A1
:10412000F7FA01F0E9FA01F053FD03681B699847BB
:1041300018B90A2000F0D4FEF5E74FF47A7000F0C9
:10414000CFFE01F045FD0D22014604A800F09EFEC1
:1041500004A800F08FFC01F03BFD00F031FE01F0FF
:1041600037FD00F02DFE1F4C1F4D206001F030FD8B
:1041700000F026FE286001F02BFD00F083FE1B4BB3
:1041800010EE100A83ED000A01F0F0FECDE9000107
:104190002B682268164904A800F014FD154B049AF8
:1041A0001B788DF8003014493C2302A801F06AF80E
:1041B000039C7CB16368013B63605BB92368204664
:1041C0009B689847A368013BA3601BB923682046FE
:1041D000DB68984704A800F04DFC09B030BD00BF73
:1041E000B4E503206CE6032028E6032068E60320FC
:1041F000B0660B0060E60320DF660B002DE9F84F88
:10420000DFF8F0A0DAF80050002D47D101F0E0FC13
:1042100000F0D6FDDFF8E090DFF8E080C9F800009C
:1042200001F0D6FC00F0CCFD01F0D2FC00F0C8FD9E
:1042300001F0CEFC00F026FE01F0CAFC00F022FEE8
:1042400088ED000A01F0C4FC00F01CFE244F254E4E
:1042500087ED000A01F0BCFC00F014FE224C86ED54
:10426000000A01F0B5FC00F00DFE2168DFF890B007
:1042700001298BED000A13D0022927D071B9D9F892
:104280000020012A0AD1194BD8F8001019603968AA
:1042900059603168996083ED030A2260BDE8F88FA8
:1042A000134B188801F05FFCD9F80030002BF5D1D2
:1042B0000E4BD8F800201A613A685A6132689A6148
:1042C000DBF80020DA6102232360E7E7084B294688
:1042D000188801F048FC0123CAF800302560DDE7AA
:1042E00050E6032054E603205CE603202CE603207E
:1042F000B4E5032058E6032024E603204CE603201F
:1043000064E60320034B1A680020012A04BF1860EA
:104310000148704758E603202CE60320014B002299
:104320001A70704760E6032013B5054B1B788DF8B3
:1043300000303C23044600F0A5FF204602B010BD2B
:1043400080E6032008B5FFF7BDFEFFF7CDFE00F0C5
:10435000B5F8BDE8084000F0C3B838B504680546B4
:104360007CB16368013B63605BB9236820469B684E
:104370009847A368013BA3601BB923682046DB680C
:104380009847284638BD000010B58EB0FFF79AFE5A
:10439000FFF7B8FF0446FFF795FEFFF72FFF002C4D
:1043A00061D0E06801F0E2FD02460B46A068CDE96D
:1043B000062301F0DBFDCDE90401606801F0D6FDC4
:1043C000CDE90201206801F0D1FDDDE90623CDE948
:1043D000000126490AA800F0F5FB0A9A244908A81A
:1043E000FFF7A2FF09A8FFF7B8FF0AA800F042FBF9
:1043F000E06901F0BBFD02460B46A069CDE906234A
:1044000001F0B4FDCDE90401606901F0AFFDCDE933
:104410000201206901F0AAFDDDE90623CDE90001D2
:1044200012490AA800F0CEFB0A9A124908A8FFF721
:104430007BFF09A8FFF791FF0AA800F01BFB00F023
:104440003DF800F04FF80A2201460AA800F083FB6D
:104450000A9A094908A8FFF767FF09A8FFF77DFF37
:104460000AA800F007FB0EB010BD00BF04670B00E8
:1044700033670B0045670B0057670B0010B5084BFF
:10448000084A00241C70084B0120C3E900449A60CC
:1044900000F04EF921460120BDE8104000F058B967
:1044A00080E603200000FFFF74E60320704710B58C
:1044B00004210446FFF7F3FD204610BD10B5064C5D
:1044C000236833B90420FFF7E6FD08B1034B03600E
:1044D0002060206810BD00BF8CE6032070670B00D1
:1044E00070470000044A136801331360034B1868D7
:1044F00001301860704700BF84E6032088E603207F
:1045000008B5024B1B689B68019308BD6802030055
:1045100008B5024B1B68DB68019308BD6802030005
:1045200008B5024B1B689B68019308BD2C02030071
:1045300008B5024B1B68DB68019308BD2C02030021
:1045400008B5024B1B681B69019308BD2C020300D0
:1045500008B5024B1B685B68019308BD1802030095
:1045600008B5024B1B685B69019308BD1802030084
:1045700008B5024B1B685B6C019308BD4802030041
:1045800008B5024B1B685B69019308BD6402030018
:1045900008B5024B1B68DB68019308BD3C020300B1
:1045A00008B5024B1B681B69019308BD3C02030060
:1045B00008B5024B1B685B69019308BD3C02030010
:1045C00008B5024B1B689B69019308BD3C020300C0
:1045D00008B5024B1B68DB69019308BD3C02030070
:1045E00008B5024B1B681B6A019308BD3C0203001F
:1045F00008B5024B1B689B6A019308BD3C0203008F
:1046000008B5024B1B68DB6A019308BD3C0203003E
:1046100008B5024B1B681B6C019308BD3C020300EC
:1046200008B5024B1B681B6A019308BD28020300F2
:1046300008B5024B1B685B6A019308BD28020300A2
:1046400008B5024B1B689B6A019308BD2802030052
:1046500008B5024B1B68DB6A019308BD2802030002
:1046600008B5024B1B681B6B019308BD28020300B1
:1046700008B5024B1B685B6B019308BD2802030061
:1046800008B5024B1B681B6C019308BD2802030090
:1046900008B5024B1B68DB69019308BD30020300BB
:1046A00008B5024B1B681B6A019308BD300203006A
:1046B00008B5024B1B681B68019308BD4C02030040
:1046C00008B5024B1B685B68019308BD4C020300F0
:1046D00008B5024B1B681B69019308BD4C0203001F
:1046E00008B5024B1B685B69019308BD4C020300CF
:1046F00008B5024B1B689B69019308BD4C0203007F
:1047000008B5024B1B68DB69019308BD4C0203002E
:1047100008B5024B1B681B6A019308BD4C020300DD
:1047200008B5024B1B689B6A019308BD4C0203004D
:1047300008B5024B1B685B68019308BD20020300AB
:1047400008B5024B1B685B69019308BD200203009A
:1047500008B5024B1B68DB6A019308BD2002030009
:1047600008B5024B1B68DB6C019308BD20020300F7
:1047700008B5024B1B685B6D019308BD2002030066
:1047800008B5034B1B68D3F88830019308BD0000BF
:104790002002030008B5034B1B68D3F89430019343
:1047A00008BD00002002030008B5024B1B685B68CF
:1047B000019308BD4002030008B5024B1B689B68CB
:1047C000019308BD4002030008B5024B1B68DB687B
:1047D000019308BD4002030008B5024B1B681B692A
:1047E000019308BD4002030008B5024B1B685B69DA
:1047F000019308BD4002030008B5024B1B689B698A
:10480000019308BD4002030008B5024B1B68DB6939
:10481000019308BD4002030008B5024B1B681B6AE8
:10482000019308BD4002030008B5024B1B681B6BD7
:10483000019308BD4002030008B5024B1B685B6B87
:10484000019308BD4002030008B5024B1B681B6CB6
:10485000019308BD4002030008B5024B1B685B6C66
:10486000019308BD4002030008B5024B1B689B681A
:10487000019308BD4402030008B5024B1B685B6945
:10488000019308BD4402030008B5024B1B681B6A74
:10489000019308BD4402030008B5024B1B68DB6BA3
:1048A000019308BD4402030008B5024B1B681B6856
:1048B000019308BD1C02030008B5024B1B685B682E
:1048C000019308BD1C02030008B5024B1B689B68DE
:1048D000019308BD1C02030008B5024B1B685B6A0C
:1048E000019308BD1C02030008B5024B1B68DB6A7C
:1048F000019308BD1C02030008B5024B1B681B6B2B
:10490000019308BD1C02030008B5024B1B681B6C19
:10491000019308BD1C02030008B5024B1B685B6CC9
:10492000019308BD1C020300002240681146FFF7F6
:1049300073BF002240681146FFF77EBF4068002227
:10494000FFF772BF4068002281F00101FFF75CBFF2
:10495000002340681A461946FFF74EBF00234068FF
:104960001A461946FFF740BF002240681146FFF77C
:1049700033BF002240681146FFF71EBF4068002287
:104980000221FFF721BF002340681A46FFF70CBF42
:10499000024B03225A60024A1A60704790E60320D5
:1049A00080670B0010B5044608462170FFF770FEC3
:1049B00000236360204610BD054B02221A60054BA0
:1049C000054A9A600020C3E90000FFF7B1BE00BFAE
:1049D000A4E6032098E603200000FFFF10B504467C
:1049E00001F0EDFD013823182046834206D90278F4
:1049F000197800F8011B03F80129F6E710BD70B51E
:104A00000C46911E22291DD8254630B92344302258
:104A10009D4210D205F8012BFAE7B0FBF2F602FB3B
:104A20001600C1B2092894BF30315731C9B205F818
:104A3000011B3046E9E7002320462B70FFF7CEFF2D
:104A4000204670BD0020FCE738B5031E0C46154615
:104A50000EDAB3F1004F4FF02D0214BF5842184642
:104A600001230A702A461944FFF7C9FF204638BDC2
:104A70000123F9E710B504460068FFF71DFF204643
:104A800010BD10B50446006808B1FFF715FF0023FC
:104A9000C4E90133236010BD38B504460D460068F3
:104AA0000131FFF711FF10B1C4E90005012038BD45
:104AB00010B50368044623B143688B4201D301203B
:104AC00010BD2046FFF7E8FF0028F9D0A368002BAF
:104AD000F5D122681370F2E737B50D461146019201
:104AE0000446FFF7E5FF019A28B92046FFF7C9FF02
:104AF000204603B030BDA2602946206801F0F6FCD4
:104B00002268A3680021D154F2E7002313B5C0E95D
:104B1000003304468360037341B10846019101F0FC
:104B20004EFD019902462046FFF7D6FF204602B00F
:104B300010BD13B5044659B10846019101F03FFD7F
:104B4000019902462046FFF7C7FF204602B010BD7C
:104B5000FFF797FFF9E710B504468AB00023C4E9D0
:104B60000033A3602373084601A9FFF76DFF01A975
:104B70002046FFF7DEFF20460AB010BD70B505469F
:104B80000E4609B9002070BD6AB1846814442146FC
:104B9000FFF78EFF0028F5D02868AB68314618442F
:104BA00001F0E8FCAC600120EDE707B500238DF8CB
:104BB0000410012201A98DF80530FFF7DFFF03B0D3
:104BC0005DF804FB0EB470B587B00BAD044655F824
:104BD000042B01922B46052104A80395FFF77CFEC8
:104BE0000B4906462046FFF790FF31462046FFF767
:104BF0005FFF206830B1019A03952B46711CFFF7C7
:104C00006BFEA060204607B0BDE8704003B070475F
:104C100044670B0010B58368044613B103220146B4
:104C20009847204610BD13B50B460246D0E9000157
:104C30006C4684E8030093E8030082E8030094E8EC
:104C4000030083E8030002B010BD00000248002307
:104C50000360FFF78DBC00BFA8E60320F8B5064649
:104C60000D468F180024BD420CD0336815F8011B87
:104C70009B6830469847031E01DB1C44F3E7002C79
:104C800008BF1C462046F8BD13B50446084659B176
:104C9000019101F094FC23680199DB6802462046EB
:104CA00002B0BDE81040184702B010BD03689B6811
:104CB000184730B58BB00023012A8DF8243098BFF7
:104CC0000A2209AC0D46B1FBF2F101FB125303F0CD
:104CD000FF03092B94BF30333733DBB2AA4204F809
:104CE000013DEFD92146FFF7CFFF0BB030BD10B526
:104CF0000446FFF735FCE060236820465B6998476F
:104D0000002808DAFFF72CFCE368C01AA368984271
:104D1000F2D34FF0FF3010BD10B50446FFF720FC72
:104D2000E060236820469B699847002808DAFFF76F
:104D300017FCE368C01AA3689842F2D34FF0FF3023
:104D400010BD10B504462046FFF7E6FF00280ADB39
:104D50002D2808D0A0F13003092B04D92368204660
:104D60005B699847EFE710BD2DE9F04105460E4617
:104D7000FFF7E7FF00284FF000041CDB27464FF049
:104D80000A08864208D02D2818D0A0F13003092B3C
:104D900002D808FB0404303C2B6828465B6998471E
:104DA0002846FFF7B9FFA0F13003092BE9D9864265
:104DB000F2D007B164422046BDE8F0810127EBE75D
:104DC0000121FFF7D1BF00002DE9F84F2DED028B37
:104DD00005460E46FFF7B5FF002847DB0FF29C099A
:104DE000D9E900890024B7EE008A2746A2464FF091
:104DF0000A0B864217D02D2833D02E2834D0A0F1AC
:104E00003003092B0FD80BFB0404303C5FB118EEC4
:104E1000100A01F0ABF842464B4601F0FFF801F0F2
:104E20000FFB08EE100A2B6828465B699847284656
:104E3000FFF772FFA0F13003092BDAD92E28D8D062
:104E40008642F0D0BAF1000F00D0644207EE904ADB
:104E5000B8EEE70A0FB120EE080ABDEC028BBDE800
:104E6000F88F4FF0010ADEE70127DCE79FED020A29
:104E7000F3E700BFAFF30080000000009A99999912
:104E80009999B93F0121FFF79FBF000070B50D460A
:104E9000094904461646FFF738FE2846FFF727FF64
:104EA000002806DB864204D0C1B22046FFF77DFE13
:104EB000F3E7204670BD00BF44670B00014B024A78
:104EC0001A607047ACE60320B4670B00024B1A6807
:104ED000024B1A60704700BFB8E50320B0E603201C
:104EE0000021FFF72DBC0000014B00229A607047A3
:104EF000B4E60320014B1860704700BFBCE50320F7
:104F000008B50B4B43B100F003FC03681B699847DD
:104F1000002801DDAFF30080064B43B100F058FEDE
:104F200003681B699847002801DDAFF3008008BDC6
:104F3000000000000000000008B5FFF7E1FFFFF7E8
:104F40000FFB014B186008BD40E703200548064AE7
:104F5000064908B5121A01F0C9FA054B054A1A604C
:104F600008BD00BF00F4032004F40320F4690B0023
:104F700000F403201E1C279A07B5002300931A464D
:104F80006FF07701FFF706FC03B05DF804FB00004B
:104F900007B543880A2B08D0502B0BD1094B1B684F
:104FA0004BB103B05DF804EB1847FFF7E5FF03B022
:104FB0005DF804FB002300931A466FF07701FFF7BA
:104FC000E9FBF4E7C8E6032010B512480021FFF71B
:104FD000A3FC114B1A68114B9A42114B0CBF0122D2
:104FE00000221A7001D0FFF7B1FFFFF7B1FA0446B3
:104FF00001F092FA0B4B13B12046AFF30080002171
:105000000848FFF749FCBDE8104007480021FFF7BA
:10501000B7BB00BFF54E0B0000F403201E1C279AFF
:10502000C4E6032000000000914F0B0070470020F1
:10503000704710B510210446FFF731F8204610BD27
:1050400008B5FFF7F6FF08BD30B500224FF69C7497
:10505000026084808D888C800C68858004600A6082
:1050600030BD10B504460068FFF726FC204610BD91
:1050700038B5C468F4B12378022B03D104F10C00D5
:10508000FFF7EFFF656835B12846FFF7C3FD102134
:105090002846FFF704F8A56835B12846FFF7BAFDA2
:1050A00010212846FEF7FBFF20461421BDE83840BA
:1050B000FEF7F5BF38BD0B6803604B68436013B162
:1050C0005A6801325A60704737B5044668460D4643
:1050D000FFF7F1FF009B019A23606260002301A8A3
:1050E00001930093FFF739F935B1281DFFF735F922
:1050F00008212846FEF7D3FF204603B030BD826862
:1051000010B50AB900F0CAFDBDE81040C3681847E1
:1051100008B5006800F11001FFF7F1FF08BD8268D3
:1051200010B50AB900F0BAFDBDE81040C3681847D1
:1051300008B5006800F11001FFF7F1FF08BD00009D
:1051400038B500230446036010200D46FEF7A3FF88
:1051500028B10123C0E90133024B0360C560206020
:10516000204638BDDC670B0038B5002383608B68B0
:1051700004460D462BB102229847EB68E360AB680A
:10518000A360204638BD0000F0B589B004686846C9
:10519000FFF75AFF4FF00203D4E84F2F002A03D144
:1051A000C4E8413F0029F7D125D104F10C05694637
:1051B0002846FFF749FFBFF35B8F01236370002090
:1051C00004F10803BFF35B8F53E8006F43E800026C
:1051D000002AF9D1BFF35B8F6EB1FFF7C1FA78B146
:1051E00029463046FFF78BFF3046FFF713FD1021AD
:1051F0003046FEF754FF6846FFF733FF09B0F0BDB5
:10520000314602A8FFF7B0FFE068B4F9105008B1CA
:1052100001F0B8F906901020ADF81C50FEF73BFFE6
:105220000546E8B1002787601820FEF734FF0446E2
:1052300088B10146876002A8FFF7F5FC049BA268CD
:10524000A360059B049206A9E268E36004F11000E4
:105250000592FFF7F9FE084BEB60084B2C60AB6042
:1052600006A8FFF7FEFE02A8FFF7D4FC002229469D
:105270000348FFF77DFAB7E711510B0095530B0078
:10528000A7580B002DE9F04F8BB005469DF850A0B4
:105290000F4690469946FFF7EFFA07AE834638BBB4
:1052A0004FF62E73059005A93046ADF81830FFF77C
:1052B000CBFE1420FEF7EFFE044648B10223037034
:1052C0000123C0E901BB437031460C30FFF7BCFE3F
:1052D0002846214640F8044BFFF732FF3046FFF7DF
:1052E000C0FE05A8FFF7BDFE28460BB0BDE8F08F55
:1052F0000C2300241420CDE908440793FEF7CBFECD
:10530000014618B1C0E901440470447004A8039137
:10531000FFF716FF1E4B08930820FEF7BCFE04465D
:1053200010B103A9FFF7C7FE00965FFA8AF34A4659
:10533000414638460994FFF7A7FAB8B9039B5B7852
:1053400003F0FF0293B94FF69C7305A903A80592D9
:10535000ADF81830FFF718FF05A8FFF782FE05A883
:105360000999FFF7B1FE06A8FEF7F7FF03A905A804
:10537000FFF7A1FE059B069A2B606A60002306A832
:1053800006930593FEF7E9FF04A8FEF7E6FFABE7F7
:1053900011540B00012AF8B5054603D10B680360D0
:1053A0000020F8BD022A10D0032AF9D10468002C8D
:1053B000F6D004F11000FFF754FE2046FFF72AFC58
:1053C00018212046FEF76BFEEAE718200E68FEF76C
:1053D00062FE044650B13146FFF7C6FE3069B6F9A9
:1053E000147008B101F0CEF82061A7822C60D7E7D5
:1053F00038B5002383608B6804460D462BB102222A
:105400009847EB68E360AB68A360204638BD0000B6
:10541000F0B589B004460D4601A81146FFF754FEC9
:10542000A4B124B21DB1284601F0ACF8054601A88C
:1054300003A90395ADF81040FFF7A6FE03A8FFF7F8
:1054400010FE02A8FEF789FF09B0F0BD019D0123FF
:10545000D5E84F2F002A03D1C5E8413F0029F7D1F5
:10546000EFD12B73BFF35B8F6B702B1DBFF35B8F83
:1054700053E8006F43E80042002AF9D1BFF35B8F85
:10548000002EDED02046FFF76BF9074660B105F12C
:105490000C013046FFF743FE3046FFF7BBFB1021FF
:1054A0003046FEF7FCFDCCE7314603A8FFF7A0FF2E
:1054B0002B7B8DF81C301020FEF7EDFD0546D0B19A
:1054C00087601420FEF7E7FD044678B18760014647
:1054D00003A8FFF7A8FB059BA268A360069B0592A3
:1054E000E268E3609DF81C3006922374064BEB6083
:1054F000064B2C60AB6003A8FFF78CFB002229460B
:105500000348FFF735F9C7E731510B0015550B007C
:10551000A7580B00012A70B5044603D10B6803603D
:10552000002070BD022A0CD0032AF9D10468002C97
:10553000F6D02046FFF76EFB14212046FEF7AFFDA4
:10554000EEE714200E68FEF7A6FD054620B13146B1
:10555000FFF74EFF337C2B742560E1E7704710B5F1
:1055600018210446FEF79BFD204610BDF0B5037DD3
:10557000062B8DB00E4600F104074FF0000412D048
:1055800000F1080515F8011D0A223046FFF791FBCE
:10559000AF42044419D0002CF4D02E213046FFF73E
:1055A00085FB0444EEE72F236A4639460A208DF82E
:1055B0000040FEF7E5FF684601F001F83368024657
:1055C000DB68694630469847044620460DB0F0BD7A
:1055D00010B5054B0446112240F8043B002100F0B1
:1055E00093FF204610BD00BFF8670B000346074A33
:1055F00010B543F8042B01F1100251F8044B43F8A5
:10560000044B9142F9D10A781A7010BDF8670B006B
:1056100010B59DF8084044EA032343EA024242EAF7
:10562000016104234160037510BD000007B5064BFE
:105630000360CB7800938B784A780978FFF7E8FF0E
:1056400003B05DF804FB00BFF8670B0041747047BE
:105650007047704708B50021007CFFF749F840EA21
:10566000E07008BD08B50121007CFFF741F840EA71
:10567000E07008BD08B5007CFFF732F820EAE07062
:1056800008BD08B5007CFFF723F820EAE07008BDEC
:1056900013B50446007C0191FFF722F80028019918
:1056A00001DC607C20B1207CFFF72AF820EAE07062
:1056B00002B010BD007CFFF72BB810B514210446D2
:1056C000FEF7EDFC204610BD10B54FF47A7304468A
:1056D00008460021C4E90113044B23600123207410
:1056E00063741146FEF7E4FF204610BD0C680B0002
:1056F000007C0022FEF7E4BF007CFFF711B810B574
:1057000014220446002100F0FFFE204610BD0000D8
:1057100010B50F4C88B003A8FFF7F1FF2178BFF355
:105720005B8F11F001010FD120460191FEF7B9FC0A
:10573000019948B103AA0748FFF7C6FF2046FEF7C4
:10574000B5FC054800F0CCFE024808B010BD00BF13
:10575000CCE60320D0E6032051560B00002240681F
:105760001146FFF739B8002240681146FFF754B8D8
:10577000002240681146FFF75FB840680022FFF73B
:1057800053B84068002281F00101FFF73DB80023C3
:1057900040681A461946FFF72FB8002340681A469A
:1057A0001946FFF721B8002240681146FFF704B8F8
:1057B000406800220221FFF707B8002340681A461C
:1057C000FEF7F2BF084B10B52824224618460021E8
:1057D00000F09AFE054B04804FF0FF324260042235
:1057E0005A60034A1A6010BDECE60320E4E6032089
:1057F0003C680B0070474174704708B5007CFEF7A9
:10580000F7FE20EAE07008BD08B5007CFEF7C8FE90
:1058100020EAE07008BD08B5007CFEF7D1FE40EA42
:10582000E07008BD08B5007CFEF7C2FE40EAE070FB
:1058300008BD007CFEF7CCBE37B5457C04462DB1D3
:10584000207C03B0BDE83040FEF7A2BE007C019191
:10585000FEF7CEFE00280199F2DC284603B030BDE9
:1058600010B514210446FEF71AFC204610BD0000B6
:1058700010B54FF47A730446084611460022C4E975
:105880000123044B2360012320746374FEF7C0FEE0
:10589000204610BD78680B00007C0023FEF7B0BEE8
:1058A0000022FFF7F9BF10B5836804460BB900F07A
:1058B000F5F9C3689847A3681BB103222146204627
:1058C000984720461021BDE81040FEF7E8BB70471E
:1058D000F8B5064615460C468F18BC4206D033680C
:1058E00014F8011B9B6830469847F6E72846F8BD38
:1058F000007C0022FEF794BE007C0021FEF798BEDB
:10590000007C0021FEF79CBE007C0021FEF7A0BEBB
:10591000007C0021FEF7A4BE10B514210446FEF75A
:10592000BEFB204610BD000038B5044615464FF4B6
:105930007A730022C4E90123094B217408462360CD
:105940002946FEF79DFEBF3008D16B69DB0705D500
:105950006868FEF7B1FFE868FEF7AEFF204638BD85
:10596000A8680B00002340681A46FEF71DBF406878
:1059700000220221FEF728BF002240681146FEF7F0
:105980001BBF002240681146FEF726BF0023406877
:105990001A461946FEF728BF002340681A461946E2
:1059A000FEF72ABF40680021FEF74EBF4068002185
:1059B000FEF752BF4068002281F00101FEF724BFCC
:1059C00040680022FEF730BF002240681146FEF713
:1059D00033BF002240681146FEF71EBF2DE9F04399
:1059E00095B014460D460746FFF7F2FD00211C2234
:1059F0000DA8009100F088FD40230C9320466B46D3
:105A00000CAA0021FEF784FD044600284BD1024673
:105A100001216868FEF7E0FE0221804622466868A0
:105A2000FEF7DAFE009E81462146002E3BD000297B
:105A300039D17368022B03D00A2B11D0F669F4E731
:105A4000B8F1000FFAD0716906A8043107ADFFF76D
:105A5000EDFD0FCD3C1D0FC42B6823704146EDE7D3
:105A6000B9F1000FEAD07469102201A800F04CFDD2
:105A700006238DF8143001AD04F1080318341868BA
:105A800059682A4603C20833A3421546F7D101A933
:105A900006A807ADFFF7AAFD0FCD3C1D0FC42B686C
:105AA00023704946CAE70098FEF72AFD384615B02C
:105AB000BDE8F083024B034A1A6000225A60704727
:105AC00014E70320D0680B00232813B502D9002067
:105AD00002B010BDA0F10B03022B1AD8174C21788D
:105AE000BFF35B8F11F001010BD120460191FEF74E
:105AF000D8FA019928B11248FEF754FF2046FEF764
:105B0000D5FA0F4B1878FEF7CBFD0028DFD1012026
:105B1000DEE7012809D800F09BF80021007CFEF7A1
:105B2000A7FD80F00100C0B2D2E709380128EED805
:105B300000F04EF8007CFEF753FDF2E71CE703206F
:105B400020E70320232838B504460D460AD8FF294C
:105B500008D0FFF7B9FF28B129462046BDE83840F4
:105B6000FEF7DEBC38BD38B504460D46FEF7E0FC56
:105B7000FF2810D0062804D84D2323FA00F0C307CD
:105B800009D42046FFF7A0FF28B129462046BDE8EA
:105B90003840FEF7D5BC38BD7047000038B5044624
:105BA00014252A46002100F0AFFC25804025074936
:105BB00025812846258200F06FF804496060284658
:105BC00000F06AF8E060204638BD00BF04690B00B1
:105BD00030B50E4D2978BFF35B8F11F0010487B00B
:105BE00011D12846FEF75DFA68B101A8FFF7D6FF8C
:105BF00001AA21460648FFF73BFE2846FEF756FA63
:105C0000044800F06DFC024807B030BD28E70320CF
:105C10002CE70320995B0B007047000038B50A4B56
:105C200003600123044643610849202000F034F852
:105C3000202560600549A560284600F02DF8C4E9DC
:105C40000305204638BD00BF1800010004690B00A1
:105C500030B50E4D2978BFF35B8F11F0010487B08A
:105C600011D12846FEF71DFA68B16846FFF7D6FF46
:105C70006A4621460648FFF757FE2846FEF716FA01
:105C8000044800F02DFC024807B030BD44E7032073
:105C900048E70320195C0B00FEF7FFB908B5FEF7D3
:105CA00023FE000081F0004102E000BF83F00043CA
:105CB00030B54FEA41044FEA430594EA050F08BFA7
:105CC00090EA020F1FBF54EA000C55EA020C7FEA6B
:105CD000645C7FEA655C00F0E2804FEA5454D4EBE8
:105CE0005555B8BF6D420CDD2C4480EA020281EAB2
:105CF000030382EA000083EA010180EA020281EAEA
:105D00000303362D88BF30BD11F0004F4FEA01313B
:105D10004FF4801C4CEA113102D0404261EB41014A
:105D200013F0004F4FEA03334CEA133302D05242D0
:105D300063EB430394EA050F00F0A780A4F101048C
:105D4000D5F1200E0DDB02FA0EFC22FA05F28018C6
:105D500041F1000103FA0EF2801843FA05F35941AC
:105D60000EE0A5F120050EF1200E012A03FA0EFC2B
:105D700028BF4CF0020C43FA05F3C01851EBE37155
:105D800001F0004507D54FF0000EDCF1000C7EEB72
:105D900000006EEB0101B1F5801F1BD3B1F5001FB0
:105DA0000CD349085FEA30004FEA3C0C04F10104CF
:105DB0004FEA445212F5800F80F09A80BCF1004FF8
:105DC00008BF5FEA500C50F1000041EB045141EA7A
:105DD000050130BD5FEA4C0C404141EB0101013C43
:105DE00028BFB1F5801FE9D291F0000F04BF014632
:105DF0000020B1FA81F308BF2033A3F10B03B3F104
:105E000020020CDA0C3208DD02F1140CC2F10C0293
:105E100001FA0CF021FA02F10CE002F11402D8BFF1
:105E2000C2F1200C01FA02F120FA0CFCDCBF41EABD
:105E30000C019040E41AA2BF01EB0451294330BD8C
:105E40006FEA04041F3C1CDA0C340EDC04F1140469
:105E5000C4F1200220FA04F001FA02F340EA030040
:105E600021FA04F345EA030130BDC4F10C04C4F186
:105E7000200220FA02F001FA04F340EA0300294666
:105E800030BD21FA04F0294630BD94F0000F83F4B0
:105E9000801306BF81F480110134013D4EE77FEA93
:105EA000645C18BF7FEA655C29D094EA050F08BFDF
:105EB00090EA020F05D054EA000C04BF19461046C0
:105EC00030BD91EA030F1EBF0021002030BD5FEA04
:105ED000545C05D14000494128BF41F0004130BD2C
:105EE00014F580043CBF01F5801130BD01F0004580
:105EF00045F0FE4141F470014FF0000030BD7FEAF3
:105F0000645C1ABF194610467FEA655C1CBF0B46ED
:105F1000024650EA013406BF52EA033591EA030F04
:105F200041F4002130BD00BF90F0000F04BF0021FC
:105F3000704730B54FF4806404F132044FF000052F
:105F40004FF0000150E700BF90F0000F04BF0021A8
:105F5000704730B54FF4806404F1320410F000450E
:105F600048BF40424FF000013EE700BF42004FEA09
:105F7000E2014FEA31014FEA02701FBF12F07F4386
:105F800093F07F4F81F06051704732F07F4208BF3D
:105F9000704793F07F4F04BF41F40021704730B544
:105FA0004FF4607401F0004521F000411CE700BF90
:105FB00050EA010208BF704730B54FF000050AE013
:105FC00050EA010208BF704730B511F0004502D514
:105FD000404261EB41014FF4806404F132045FEA16
:105FE000915C3FF4D8AE4FF003025FEADC0C18BFBF
:105FF00003325FEADC0C18BF033202EBDC02C2F1B1
:10600000200300FA03FC20FA02F001FA03FE40EA42
:106010000E0021FA02F11444BDE600BF70B54FF046
:10602000FF0C4CF4E06C1CEA11541DBF1CEA135524
:1060300094EA0C0F95EA0C0F00F0DEF82C4481EA8C
:10604000030621EA4C5123EA4C5350EA013518BFAC
:1060500052EA033541F4801143F4801338D0A0FB99
:1060600002CE4FF00005E1FB02E506F00042E0FB46
:1060700003E54FF00006E1FB03569CF0000F18BF4C
:106080004EF0010EA4F1FF04B6F5007F64F54074F4
:1060900004D25FEA4E0E6D4146EB060642EAC62187
:1060A00041EA55514FEAC52040EA5E504FEACE2EF4
:1060B000B4F1FD0C88BFBCF5E06F1ED8BEF1004FF7
:1060C00008BF5FEA500E50F1000041EB045170BD73
:1060D00006F0004646EA010140EA020081EA0301B7
:1060E000B4EB5C04C2BFD4EB0C0541EA045170BDB3
:1060F00041F480114FF0000E013C00F3AB8014F12D
:10610000360FDEBF002001F0004170BDC4F1000475
:10611000203C35DA0C341BDC04F11404C4F12005F6
:1061200000FA05F320FA04F001FA05F240EA020051
:1061300001F0004221F0004110EBD37021FA04F687
:1061400042EB06015EEA430E08BF20EAD37070BD41
:10615000C4F10C04C4F1200500FA04F320FA05F0A0
:1061600001FA04F240EA020001F0004110EBD370A2
:1061700041F100015EEA430E08BF20EAD37070BD12
:10618000C4F1200500FA05F24EEA020E20FA04F3EB
:1061900001FA05F243EA020321FA04F001F000419A
:1061A00021FA04F220EA020000EBD3705EEA430E0B
:1061B00008BF20EAD37070BD94F0000F0FD101F03A
:1061C0000046400041EB010111F4801F08BF013C73
:1061D000F7D041EA060195F0000F18BF704703F0B1
:1061E0000046520043EB030313F4801F08BF013D38
:1061F000F7D043EA0603704794EA0C0F0CEA1355F4
:1062000018BF95EA0C0F0CD050EA410618BF52EAAD
:106210004306D1D181EA030101F000414FF00000B3
:1062200070BD50EA410606BF1046194652EA4306C1
:1062300019D094EA0C0F02D150EA013613D195EA35
:106240000C0F05D152EA03361CBF104619460AD17D
:1062500081EA030101F0004141F0FE4141F4700187
:106260004FF0000070BD41F0FE4141F4780170BD77
:1062700070B54FF0FF0C4CF4E06C1CEA11541DBFDC
:106280001CEA135594EA0C0F95EA0C0F00F0A7F8DE
:10629000A4EB050481EA030E52EA03354FEA01310B
:1062A00000F088804FEA03334FF0805545EA13131E
:1062B00043EA12634FEA022245EA111545EA1065E6
:1062C0004FEA00260EF000419D4208BF964244F17D
:1062D000FD0404F5407402D25B084FEA3202B61A9C
:1062E00065EB03055B084FEA32024FF480104FF470
:1062F000002CB6EB020E75EB030E22BFB61A7546E4
:1063000040EA0C005B084FEA3202B6EB020E75EB76
:10631000030E22BFB61A754640EA5C005B084FEADE
:106320003202B6EB020E75EB030E22BFB61A7546AB
:1063300040EA9C005B084FEA3202B6EB020E75EBB6
:10634000030E22BFB61A754640EADC0055EA060E77
:1063500018D04FEA051545EA16754FEA06164FEABA
:10636000C30343EA52734FEAC2025FEA1C1CC0D166
:1063700011F4801F0BD141EA00014FF000004FF0F3
:10638000004CB6E711F4801F04BF01430020B4F1B4
:10639000FD0C88BFBCF5E06F3FF6AFAEB5EB030C6C
:1063A00004BFB6EB020C5FEA500C50F1000041EB69
:1063B000045170BD0EF0004E4EEA113114EB5C0436
:1063C000C2BFD4EB0C0541EA045170BD41F4801109
:1063D0004FF0000E013C90E645EA060E8DE60CEA11
:1063E000135594EA0C0F08BF95EA0C0F3FF43BAF2E
:1063F00094EA0C0F0AD150EA01347FF434AF95EAE5
:106400000C0F7FF425AF104619462CE795EA0C0FC8
:1064100006D152EA03353FF4FDAE1046194622E795
:1064200050EA410618BF52EA43067FF4C5AE50EA6F
:1064300041047FF40DAF52EA43057FF4EBAE12E75F
:106440004FEA4102B2F1E04324BFB3F5001CDCF196
:10645000FE5C0DD901F0004C4FEAC0024CEA5070CE
:10646000B2F1004F40EB830008BF20F001007047FD
:1064700011F0804F21D113F13872BCBF01F0004000
:10648000704741F480114FEA5252C2F11802C2F132
:10649000200C10FA0CF320FA02F018BF40F00100B3
:1064A0004FEAC1234FEAD32303FA0CFC40EA0C0065
:1064B00023FA02F34FEA4303CCE77FEA625307D1A2
:1064C00050EA01331EBF4FF0FE4040F440007047D9
:1064D00001F0004040F0FE4040F40000704700BF73
:1064E000002301461A46184600F072B80A44914249
:1064F00000F1FF3300D1704710B511F8014B03F8DC
:10650000014F9142F9D110BD02440346934200D19C
:10651000704703F8011BF9E738B5104B1D68AB6BEA
:106520000446B3B91820FEF7BFF90246A86320B9A4
:106530000B4B0C484221FEF7E7F90B490B4BC0E926
:1065400000130B4B83600B23838100210120C2E9E0
:106550000401AB6B00221C615A6138BDBCE503200D
:1065600005690B001C690B000E33CDAB34126DE6D0
:10657000ECDE0500034611F8012B03F8012B002A7D
:10658000F9D17047024B0146186800F003B800BF0C
:10659000BCE5032037B5044608460D4600F00FF869
:1065A000421C114620460192FEF7A6F9044618B196
:1065B000019A2946FFF79AFF204603B030BD0346F3
:1065C00013F8012B002AFBD1181A0138704700007C
:1065D0002DE9F843DFF8B8800646D8F800001F46DA
:1065E0000D46914600F056F8254B1C6834B9254CF1
:1065F0001C60254B13B11B68C4F8883063681F2BDF
:1066000007DDD8F8000000F047F84FF0FF30BDE894
:10661000F8834EB3D4F8880088B91C4B23B9D8F856
:10662000000000F038F8F0E74FF48470FEF73CF912
:106630000028F4D00023C0E94033C4F88800636820
:1066400040F8239001229A4000EB8301D0F80031FA
:106650001343C0F80031022EC1F8807002BFD0F899
:1066600004311343C0F804316368D8F800005A1CA1
:106670000233626044F8235000F00EF80020C6E7B1
:10668000E8E703205CE7032000000000A9480B00B6
:1066900020E60320704770477047000021400B0040
:1066A0005D400B0085400B0089400B00000000009E
:1066B0005468726573686F6C643A2025642C2052AC
:1066C000657365745468726573686F6C643A2025ED
:1066D000642C20426173656C696E652025660044F8
:1066E000657669636520636F6E6669677572656458
:1066F000000000000000000000000000B3400B009C
:10670000B5400B005B6D61675F524D533A202566C3
:106710002C206D61675F783A2025662C206D6167BB
:106720005F793A2025662C206D61675F7A3A2025D3
:10673000665D0056656869636C65204465746563D1
:10674000746564210056656869636C652052656CE8
:1067500065617365642E00546F74616C20566568C2
:1067600069636C65733A00000000000000000000DF
:10677000AD440B00AF440B0000000000000000001F
:1067800087490B007D490B0073490B0069490B00D9
:106790005D490B0051490B00A5590B00AD590B0089
:1067A00045490B003D490B0033490B0029490B00BB
:1067B000DD590B006170700025592D256D2D256464
:1067C0005425483A254D3A2553257A006173637460
:1067D000696D650000000000000000002D500B00F6
:1067E00033500B0071500B0041500B002F500B0029
:1067F00000000000000000006D550B005D550B000F
:106800005F550B00000000000000000053560B0015
:10681000BB560B0091560B005D4C0B0083560B00D2
:1068200055560B0065560B00B5560B0075560B0000
:106830004D560B000000000000000000BB570B008D
:10684000B1570B00A7570B005D570B009B570B0070
:106850008F570B00A5590B00AD590B0083570B0048
:106860007B570B0071570B0067570B00DD590B006E
:106870000000000000000000F5570B0061580B00FD
:1068800039580B005D4C0B0009580B0025580B00C4
:1068900017580B0033580B00F7570B00FB570B0032
:1068A0000000000000000000CF580B0019590B0039
:1068B000F1580B00D1580B00F9580B0001590B008F
:1068C00009590B0011590B000000000000000000E6
:1068D00065590B006F590B0079590B0083590B0058
:1068E0008D590B0099590B00A5590B00AD590B00A0
:1068F000B5590B00C1590B00C9590B00D3590B00F6
:10690000DD590B00005245454E54206D616C6C6F93
:106910006320737563636565646564002F6D6E74D1
:106920002F776F726B73706163652F776F726B7304
:10693000706163652F4743432D31302D7069706559
:106940006C696E652F6A656E6B696E732D47434384
:106950002D31302D706970656C696E652D34385F2E
:1069600032303230313132345F31363036313830D6
:106970003634312F7372632F6E65776C69622F6EB8
:1069800065776C69622F6C6962632F7374646C69DC
:10699000622F72616E642E63000000001D430B00C5
:1069A0007D440B0091490B00B9490B004D4C0B0085
:1069B000BD4E0B00CD4E0B00E94E0B00C5570B0032
:1069C000B55A0B00000000000000000000000000AD
:1069D000040000001400000003000000474E5500B2
:1069E000F684C4460D485EBAED8C14B04BAB206201
:0469F0004827D185DE
:0469F400000000009F
:1069F80007000000CC670B00C0E503200000000082
:106A0800000000000000000000000000000000007E
:106A1800000000000000000000000000000000006E
:106A2800000000000000000000000000000000005E
:106A3800000000000000000000000000000000004E
:106A4800000000000000000000000000000000003E
:106A5800000000000000000000000000ECE7032038
:106A6800FFFFFFFF00000102030405060708090AEB
:106A78000B0C0D0E0F101112131415161718191AE6
:086A88001B1C1D1E1F2028002D
:046A900078563412EE
:04000003B0004020E9
:00000001FF
