:02000002B0004C
:1040000000400B0070710B00000006000D0005025F
:0840100004010410000000008F
:04401800D86B0B0056
:1040200009480A49884208B505D0094A824202D0A7
:10403000121A02F06DFC0748074A0021121A02F01A
:1040400075FC014808BD00BFB8E50320D8700B001F
:1040500028E6032028E60320EDE7032070B5074E8D
:10406000074C01F0A1F9A41BA4080025AC4200D123
:1040700070BD56F8043B98470135F7E780700B0098
:10408000A8700B0000F0D8BA08B500F035FBBDE809
:10409000084001F041B900F089BD00F087BD00F093
:1040A0008DBD0078B0FA80F040097047012303709D
:1040B0007047704710B504210446FFF7F0FF204613
:1040C00010BD000013B5054B1B788DF800303C2364
:1040D000044601F0EDFA204602B010BD4CE6032084
:1040E0000EB403B503AB012153F8042B019300F088
:1040F000BEFF02B05DF804EB03B0704710B5064C8C
:10410000236833B90420FFF7C6FF08B1034B0360EF
:104110002060206810BD00BF7CE60320AC6C0B0063
:104120002DE9F04F454E356885B0002D5AD101F08C
:104130005DFF0A220146684601F098F8684600F0E3
:1041400023FE01F053FF01F02CF8DFF818A1DFF88F
:104150001891CAF8000001F049FF01F022F8384B2D
:10416000DFF80881186001F041FF01F01AF8354BC3
:10417000354F186001F03AFF01F074F8334B344CBE
:1041800083ED000A01F032FF01F06CF889ED000ABE
:1041900001F02CFF01F066F888ED000A01F026FF1F
:1041A00001F060F887ED000A01F020FF01F05AF8F5
:1041B0002168DFF8BCB001298BED000A15D0022977
:1041C0002AD079B9DAF80020012A0BD1214BD9F88D
:1041D00000101960D8F8001059603968996083EDB3
:1041E000030A226005B0BDE8F08F1B4B188801F070
:1041F000C8FEDAF80030002BF4D1164BD9F80020B5
:104200001A61D8F800205A613A689A61DBF80020F8
:10421000DA6102232360E5E70F4B2946188801F095
:10422000B0FE0E4A25601368013313600C4A136810
:104230000133136001233360D4E700BF44E6032059
:1042400078E6032030E6032040E6032054E603200E
:1042500048E6032058E60320B8E5032028E60320BB
:1042600034E603202CE6032038E603203CE6032056
:1042700050E60320034B1A680020012A04BF18608F
:104280000148704744E6032058E60320054B93EDB0
:10429000000AB5EE400AF1EE10FA08BFBFEE000AC0
:1042A000704700BF54E6032010B5044601F09EFE9F
:1042B000044900F0B4FE2046FFF732FF024B93EDB5
:1042C000000A10BDEC6B0B0054E60320014B18688C
:1042D000704700BF78E60320014B1868704700BFA5
:1042E00030E6032038B5046805467CB16368013BBD
:1042F00063605BB9236820469B689847A368013BCD
:10430000A3601BB923682046DB689847284638BD60
:1043100070B52B4B0121188888B001F021FE01F007
:1043200065FE4FF4E13101F0C9FC01F05FFE036866
:104330001B69984718B90A2000F0C2FFF5E74FF44F
:104340007A7000F0BDFF01F051FE0A22014604A878
:1043500000F08CFF04A800F017FD01F047FE00F00C
:1043600020FF01F043FE00F01CFF164C164D2060AC
:1043700001F03CFE00F015FF286001F037FE00F070
:1043800071FF124E4FF4FA6086ED000A00F098FFBC
:10439000306801F0F9FF2B682268CDE9000104A81C
:1043A0000B4900F0B9FD049A0A4902A8FFF78AFEFA
:1043B00003A8FFF797FF04A800F0E6FC08B070BD63
:1043C000B8E5032078E6032030E6032054E6032016
:1043D000F56B0B00256C0B0030B5642987B00546E2
:1043E0000C461DDC01F002FE22460F49FFF778FE65
:1043F0002846FFF795FE0D4B1C680A22214602A8AD
:1044000000F04DFD029A0A496846FFF75BFE01A8DD
:10441000FFF768FF02A800F0B7FC204607B030BDE8
:104420004FF0FF34F9E700BF316C0B0078E6032052
:104430003D6C0B0030B5642987B005460C461DDC89
:1044400001F0D4FD22460F49FFF74AFE2846FFF748
:1044500067FE0D4B1C680A22214602A800F01FFDD2
:10446000029A0A496846FFF72DFE01A8FFF73AFFB6
:1044700002A800F089FC204607B030BD4FF0FF34A1
:10448000F9E700BF4F6C0B0030E603205B6C0B00BC
:1044900010B50A4C86B021680A2202A800F0FFFC81
:1044A000029A07496846FFF70DFE01A8FFF71AFFB9
:1044B00002A800F069FC206806B010BD34E60320B5
:1044C000736C0B0030B5124B1C6889B00025214677
:1044D0000A2204A81D6000F0E2FC049A0D4902A81B
:1044E000FFF7F0FD03A8FFF7FDFE04A800F04CFC69
:1044F000094B0A491B788DF800302A463C2304A852
:1045000001F0D6F805A8FFF7EDFE204609B030BD52
:1045100028E60320876C0B004CE60320976C0B0009
:10452000014B00221A7070474CE6032008B5FFF7D4
:10453000E5FDBDE80840FFF7A9BE08B5FFF7DEFDC1
:10454000BDE80840FFF7B0BE08B5FFF7D7FDBDE8EE
:104550000840FFF7BBBE38B50546FFF7CFFD044660
:10456000284600F0D3FC01462046BDE83840FFF75E
:1045700033BF08B5FFF7C2FDBDE80840FFF7ACBE8A
:1045800038B50546FFF7BAFD0446284600F0BEFCE4
:1045900001462046BDE83840FFF74CBF08B5FFF79D
:1045A000ADFDBDE80840FFF78DBF08B5FFF7A6FDDC
:1045B000BDE80840FFF76CBF1FB50023CDE901330C
:1045C0000C23ADF80430044B0393022201AB00F03E
:1045D000C5FA05B05DF804FBDD450B0070B50D466E
:1045E0001646804704460420306000F0DFFA286059
:1045F00010B10460002070BD0048FCE7FCFEFFFF26
:1046000037B515460C46804710EE100A01F0BCFE87
:10461000CDE900010820286000F0C8FA03462060B8
:1046200030B16A4603CA18605960002003B030BD3B
:104630000048FBE7FCFEFFFF7FB5FFF75FFDFFF7DC
:1046400067FE1B4D1B491C48039501AB0922002442
:104650000C26CDE90144ADF8046000F07FFA17495B
:104660001748FFF7A9FF17491748FFF7A5FF174994
:104670001748FFF7A1FF17491748FFF79DFFCDE93E
:104680000144164C16491748ADF8046001AB0922E5
:10469000039500F063FA144A1449204600F011FF14
:1046A000134A1449204604B0BDE8704000F009BF29
:1046B00001460B002D450B00DA6C0B0049450B0041
:1046C000EB6C0B0073450B00FD6C0B009D450B0064
:1046D000B46C0B00AB450B00BF6C0B0097540B0088
:1046E0003B450B00CE6C0B00E36C0B0057450B00F9
:1046F000F56C0B0081450B0030B58FB0FFF7FEFC69
:10470000FFF7B8FD0446FFF7F9FCFFF709FD002CA1
:104710005DD0E0682F4D01F037FE02460B46A068E1
:10472000CDE9062301F030FECDE90401606801F017
:104730002BFECDE90201206801F026FEDDE906230B
:10474000CDE900010AA8244900F0E6FB2B780A9A7B
:1047500022498DF8003008A83C2300F0A9FF09A8E1
:10476000FFF7C0FD0AA800F00FFBE06901F00CFEA6
:1047700002460B46A069CDE9062301F005FECDE90E
:104780000401606901F000FECDE90201206901F039
:10479000FBFDDDE90623CDE900010AA80E4900F082
:1047A000BBFB2B780A9A0E498DF8003008A83C23F1
:1047B00000F07EFF09A8FFF795FD0AA800F0E4FAD3
:1047C000FFF79CFC0FB0BDE83040FFF761BE0FB0B3
:1047D00030BD00BF8CE603200D6D0B003C6D0B005F
:1047E0004F6D0B0010B5084B084A00241C70084B95
:1047F0000120C3E900449A6000F014F92146012029
:10480000BDE8104000F01EB98CE603200000FFFF59
:1048100080E6032008B5024B1B689B68019308BD26
:104820006802030008B5024B1B68DB68019308BDF2
:104830006802030008B5024B1B689B68019308BD22
:104840002C02030008B5024B1B68DB68019308BD0E
:104850002C02030008B5024B1B681B69019308BDBD
:104860002C02030008B5024B1B685B68019308BD6E
:104870001802030008B5024B1B685B69019308BD71
:104880001802030008B5024B1B685B6C019308BD5E
:104890004802030008B5024B1B685B69019308BD21
:1048A0006402030008B5024B1B68DB68019308BD76
:1048B0003C02030008B5024B1B681B69019308BD4D
:1048C0003C02030008B5024B1B685B69019308BDFD
:1048D0003C02030008B5024B1B689B69019308BDAD
:1048E0003C02030008B5024B1B68DB69019308BD5D
:1048F0003C02030008B5024B1B681B6A019308BD0C
:104900003C02030008B5024B1B689B6A019308BD7B
:104910003C02030008B5024B1B68DB6A019308BD2B
:104920003C02030008B5024B1B681B6C019308BDD9
:104930003C02030008B5024B1B681B6A019308BDCB
:104940002802030008B5024B1B685B6A019308BD8F
:104950002802030008B5024B1B689B6A019308BD3F
:104960002802030008B5024B1B68DB6A019308BDEF
:104970002802030008B5024B1B681B6B019308BD9E
:104980002802030008B5024B1B685B6B019308BD4E
:104990002802030008B5024B1B681B6C019308BD7D
:1049A0002802030008B5024B1B68DB69019308BDB0
:1049B0003002030008B5024B1B681B6A019308BD57
:1049C0003002030008B5024B1B681B68019308BD49
:1049D0004C02030008B5024B1B681B69019308BD1C
:1049E0004C02030008B5024B1B685B69019308BDCC
:1049F0004C02030008B5024B1B689B69019308BD7C
:104A00004C02030008B5024B1B68DB69019308BD2B
:104A10004C02030008B5024B1B681B6A019308BDDA
:104A20004C02030008B5024B1B685B68019308BD8C
:104A30002002030008B5024B1B685B69019308BDA7
:104A40002002030008B5024B1B68DB6A019308BD16
:104A50002002030008B5024B1B68DB6C019308BD04
:104A60002002030008B5024B1B685B6D019308BD73
:104A70002002030008B5034B1B68D3F8883001936C
:104A800008BD00002002030008B5034B1B68D3F8E3
:104A90009430019308BD00002002030008B5024BCA
:104AA0001B685B68019308BD4002030008B5024B18
:104AB0001B689B68019308BD4002030008B5024BC8
:104AC0001B68DB68019308BD4002030008B5024B78
:104AD0001B681B69019308BD4002030008B5024B27
:104AE0001B685B69019308BD4002030008B5024BD7
:104AF0001B689B69019308BD4002030008B5024B87
:104B00001B68DB69019308BD4002030008B5024B36
:104B10001B681B6A019308BD4002030008B5024BE5
:104B20001B681B6B019308BD4002030008B5024BD4
:104B30001B685B6B019308BD4002030008B5024B84
:104B40001B681B6C019308BD4002030008B5024BB3
:104B50001B685B6C019308BD4002030008B5024B63
:104B60001B681B68019308BD4402030008B5024B93
:104B70001B685B68019308BD4402030008B5024B43
:104B80001B685B69019308BD4402030008B5024B32
:104B90001B681B6A019308BD4402030008B5024B61
:104BA0001B68DB6B019308BD4402030008B5024B90
:104BB0001B681B68019308BD1C02030008B5024B6B
:104BC0001B685B68019308BD1C02030008B5024B1B
:104BD0001B689B68019308BD1C02030008B5024BCB
:104BE0001B685B6A019308BD1C02030008B5024BF9
:104BF0001B68DB6A019308BD1C02030008B5024B69
:104C00001B681B6B019308BD1C02030008B5024B17
:104C10001B68DB6B019308BD1C02030008B5024B47
:104C20001B681B6C019308BD1C02030008B5024BF6
:104C30001B685B6C019308BD1C02030000224068E6
:104C40001146FFF763BF002240681146FFF76EBFB1
:104C500040680022FFF762BF4068002281F0010136
:104C6000FFF74CBF002340681A461946FFF73EBFC6
:104C7000002340681A461946FFF730BF00224068FB
:104C80001146FFF723BF002240681146FFF70EBF11
:104C9000406800220221FFF711BF002340681A4636
:104CA000FFF7FCBE024B03225A60024A1A607047AB
:104CB00090E60320646D0B0010B504460846217091
:104CC000FFF770FE00236360204610BD054B0222F3
:104CD0001A60054B054A9A600020C3E90000FFF7FF
:104CE000A1BE00BFA4E6032098E603200000FFFF5A
:104CF00010B5044601F075FE0138231820468342A2
:104D000006D90278197800F8011B03F80129F6E7A3
:104D100010BD70B50C46911E22291DD8254630B90C
:104D2000234430229D4210D205F8012BFAE7B0FB54
:104D3000F2F602FB1600C1B2092894BF3031573198
:104D4000C9B205F8011B3046E9E7002320462B7065
:104D5000FFF7CEFF204670BD0020FCE738B5031EEC
:104D60000C4615460EDAB3F1004F4FF02D0214BF7A
:104D70005842184601230A702A461944FFF7C9FF12
:104D8000204638BD0123F9E710B504460068FFF757
:104D900015FF204610BD10B50446006808B1FFF7A6
:104DA0000DFF0023C4E90133236010BD38B504466C
:104DB0000D4600680131FFF709FF10B1C4E9000595
:104DC000012038BD10B50368044623B143688B4207
:104DD00001D3012010BD2046FFF7E8FF0028F9D0DD
:104DE000A368002BF5D122681370F2E737B50D46A2
:104DF000114601920446FFF7E5FF019A28B92046C3
:104E0000FFF7C9FF204603B030BDA26029462068E5
:104E100001F07EFD2268A3680021D154F2E700234F
:104E200013B5C0E9003304468360037341B10846FB
:104E3000019101F0D6FD019902462046FFF7D6FF09
:104E4000204602B010BD884210B5044605D00B685C
:104E50002BB18A681946FFF7C9FF204610BDFFF73E
:104E60009AFFFAE710B500230446C0E900338360D7
:104E70000373FFF7E8FF204610BD13B5044659B190
:104E80000846019101F0ADFD019902462046FFF769
:104E9000ADFF204602B010BDFFF77DFFF9E710B56A
:104EA00004468AB00023C4E90033A3602373084694
:104EB00001A9FFF753FF01A92046FFF7DEFF2046B7
:104EC0000AB010BD70B505460E4609B9002070BD88
:104ED0006AB1846814442146FFF774FF0028F5D0B6
:104EE0002868AB683146184401F056FDAC600120DB
:104EF000EDE707B500238DF80410012201A98DF814
:104F00000530FFF7DFFF03B05DF804FB006808B170
:104F100001F0FABC704700000EB470B587B00BAD5D
:104F2000044655F8042B01922B46052104A803954D
:104F3000FFF754FE0B4906462046FFF770FF314647
:104F40002046FFF73FFF206830B1019A03952B46BA
:104F5000711CFFF743FEA060204607B0BDE870401B
:104F600003B070474E6D0B0010B58368044613B153
:104F7000032201469847204610BD13B50B46024652
:104F8000D0E900016C4684E8030093E8030082E85E
:104F9000030094E8030083E8030002B010BD0000A2
:104FA000024800230360FFF76DBC00BFA8E60320A2
:104FB000F8B506460D468F180024BD420CD0336864
:104FC00015F8011B9B6830469847031E01DB1C4403
:104FD000F3E7002C08BF1C462046F8BD13B5044675
:104FE000084659B1019101F0FCFC23680199DB6886
:104FF0000246204602B0BDE81040184702B010BD7E
:1050000003689B68184738B50D210546FFF7F8FF80
:105010000A2104462846FFF7F3FF204438BD38B57F
:105020000546FFF7DBFF04462846FFF7ECFF204468
:1050300038BD30B58BB00023012A8DF8243098BFDD
:105040000A2209AC0D46B1FBF2F101FB125303F049
:10505000FF03092B94BF30333733DBB2AA4204F885
:10506000013DEFD92146FFF7B9FF0BB030BD2DE967
:10507000F04186B000AF05460E46381D1421144697
:105080003B60FFF7ABFD13280ED8391D2846FFF70C
:10509000A5FF04461EB12846FFF7B5FF044420468D
:1050A0001837BD46BDE8F08100F1080323F007037F
:1050B000E846ADEB030D2246411C3B686846FFF70E
:1050C0008DFD69462846FFF789FF0446C546E1E79E
:1050D00010B50446FFF7CEFBE060236820465B690D
:1050E0009847002808DAFFF7C5FBE368C01AA368F1
:1050F0009842F2D34FF0FF3010BD10B50446FFF7D1
:10510000B9FBE060236820469B699847002808DACD
:10511000FFF7B0FBE368C01AA3689842F2D34FF0E0
:10512000FF3010BD10B504462046FFF7E6FF00280B
:105130000ADB2D2808D0A0F13003092B04D92368FD
:1051400020465B699847EFE710BD2DE9F041054621
:105150000E46FFF7E7FF00284FF000041CDB274650
:105160004FF00A08864208D02D2818D0A0F130034D
:10517000092B02D808FB0404303C2B6828465B69E5
:1051800098472846FFF7B9FFA0F13003092BE9D96A
:105190008642F2D007B164422046BDE8F081012783
:1051A000EBE70121FFF7D1BF2DE9F84F2DED028B81
:1051B00005460E46FFF7B6FF002847DB0FF29C09B5
:1051C000D9E900890024B7EE008A2746A2464FF0AD
:1051D0000A0B864217D02D2833D02E2834D0A0F1C8
:1051E0003003092B0FD80BFB0404303C5FB118EEE1
:1051F000100A01F0C9F842464B4601F01DF901F0D2
:105200002DFB08EE100A2B6828465B699847284654
:10521000FFF773FFA0F13003092BDAD92E28D8D07D
:105220008642F0D0BAF1000F00D0644207EE904AF7
:10523000B8EEE70A0FB120EE080ABDEC028BBDE81C
:10524000F88F4FF0010ADEE70127DCE79FED020A45
:10525000F3E700BFAFF30080000000009A9999992E
:105260009999B93F0121FFF79FBF000070B50D4626
:10527000094904461646FFF7D2FD2846FFF728FFE6
:10528000002806DB864204D0C1B22046FFF731FE7B
:10529000F3E7204670BD00BF4E6D0B00014B024A84
:1052A0001A607047ACE60320986D0B00024B1A6839
:1052B000024B1A60704700BFBCE50320B0E6032034
:1052C0000021FFF7B7BB0000014B00229A60704736
:1052D000B4E60320014B1860704700BFC0E503200F
:1052E00008B50B4B43B100F021FC03681B699847DC
:1052F000002801DDAFF30080064B43B100F076FEDD
:1053000003681B699847002801DDAFF3008008BDE2
:10531000000000000000000008B5FFF7E1FFFFF704
:10532000A9FA014B186008BD40E703200548064A6A
:10533000064908B5121A01F0EBFA054B054A1A6046
:1053400008BD00BF00F4032004F40320D4700B0058
:1053500000F403201E1C279A07B5002300931A4669
:105360006FF07701FFF790FB03B05DF804FB0000DE
:1053700007B543880A2B08D0502B0BD1094B1B686B
:105380004BB103B05DF804EB1847FFF7E5FF03B03E
:105390005DF804FB002300931A466FF07701FFF7D6
:1053A00073FBF4E7C8E6032010B512480021FFF7AD
:1053B0003DFC114B1A68114B9A42114B0CBF012254
:1053C00000221A7001D0FFF7B1FFFFF74BFA044635
:1053D00001F0B4FA0B4B13B12046AFF3008000216B
:1053E0000848FFF7DBFBBDE8104007480021FFF746
:1053F00041BB00BFD5520B0000F403201E1C279AAE
:10540000C4E603200000000071530B007047002029
:10541000704710B510210446FEF741FE204610BD2E
:1054200008B5FFF7F6FF08BD30B500224FF69C74B3
:10543000026084808D888C800C68858004600A609E
:1054400030BD10B504460068FFF7B8FB204610BD1C
:1054500038B5C468F4B12378022B03D104F10C00F1
:10546000FFF7EFFF656835B12846FFF77DFD102196
:105470002846FEF714FEA56835B12846FFF774FDEF
:1054800010212846FEF70BFE20461421BDE83840C7
:10549000FEF705BE38BD10B588B004466846FFF774
:1054A000BEFC694604A8FFF7DDFC04A8A04704463B
:1054B00004A8FFF769FC6846FFF766FC204608B0C1
:1054C00010BD1FB50023CDE90201019210241A4638
:1054D00069461846ADF80230ADF80040FFF746FBCC
:1054E00004B010BD0B6803604B68436013B15A6889
:1054F00001325A60704737B5044668460D46FFF7DB
:10550000F1FF009B019A23606260002301A80193D0
:105510000093FEF7E7FE35B1281DFEF7E3FE0821F4
:105520002846FEF7BCFD204603B030BD826810B5AA
:105530000AB900F0C1FDBDE81040C368184708B5BE
:10554000006800F11001FFF7F1FF08BD826810B597
:105550000AB900F0B1FDBDE81040C368184708B5AE
:10556000006800F11001FFF7F1FF08BD38B5002316
:105570000446036010200D46FEF78DFD28B101237F
:10558000C0E90133024B0360C5602060204638BD8E
:10559000C06D0B0038B5002383608B6804460D4650
:1055A0002BB102229847EB68E360AB68A36020460A
:1055B00038BD0000F0B589B004686846FFF734FFD5
:1055C0004FF00203D4E84F2F002A03D1C4E8413F33
:1055D0000029F7D125D104F10C0569462846FFF7CB
:1055E00023FFBFF35B8F01236370002004F10803E6
:1055F000BFF35B8F53E8006F43E80002002AF9D144
:10560000BFF35B8F6EB1FFF725FA78B129463046BC
:10561000FFF78CFF3046FFF7A7FC10213046FEF75E
:105620003EFD6846FFF70DFF09B0F0BD314602A808
:10563000FFF7B0FFE068B4F9105008B101F0B4F919
:1056400006901020ADF81C50FEF725FD0546E8B188
:10565000002787601820FEF71EFD044688B101462A
:10566000876002A8FFF789FC049BA268A360059BE2
:10567000049206A9E268E36004F110000592FFF7C6
:10568000D3FE084BEB60084B2C60AB6006A8FFF71D
:10569000D8FE02A8FFF768FC002229460348FFF75E
:1056A000E1F9B7E73F550B00C1570B00C35C0B0096
:1056B0002DE9F04F8BB005469DF850A00F4690465F
:1056C0009946FFF75BFA07AE834638BB4FF62E7359
:1056D000059005A93046ADF81830FFF7A5FE142057
:1056E000FEF7D9FC044648B1022303700123C0E948
:1056F00001BB437031460C30FFF796FE2846214629
:1057000040F8044BFFF732FF3046FFF79AFE05A83A
:10571000FFF797FE28460BB0BDE8F08F0C2300245E
:105720001420CDE908440793FEF7B5FC014618B1F3
:10573000C0E901440470447004A80391FFF716FF08
:105740001E4B08930820FEF7A6FC044610B103A9DF
:10575000FFF7C8FE00965FFA8AF34A46414638468C
:105760000994FFF713FAB8B9039B5B7803F0FF02C3
:1057700093B94FF69C7305A903A80592ADF81830AC
:10578000FFF718FF05A8FFF75CFE05A80999FFF7CA
:10579000B2FE06A8FEF7A6FD03A905A8FFF7A2FE24
:1057A000059B069A2B606A60002306A80693059362
:1057B000FEF798FD04A8FEF795FDABE73D580B00FA
:1057C000012AF8B5054603D10B6803600020F8BD37
:1057D000022A10D0032AF9D10468002CF6D004F173
:1057E0001000FFF72EFE2046FFF7BEFB18212046D3
:1057F000FEF755FCEAE718200E68FEF74CFC04465D
:1058000050B13146FFF7C6FE3069B6F9147008B1E1
:1058100001F0CAF82061A7822C60D7E738B50023D1
:1058200083608B6804460D462BB102229847EB68D3
:10583000E360AB68A360204638BD0000F0B589B0D6
:1058400004460D4601A81146FFF755FEA4B124B247
:105850001DB1284601F0A8F8054601A803A9039543
:10586000ADF81040FFF7A6FE03A8FFF7EAFD02A877
:10587000FEF738FD09B0F0BD019D0123D5E84F2F9B
:10588000002A03D1C5E8413F0029F7D1EFD12B739E
:10589000BFF35B8F6B702B1DBFF35B8F53E8006F03
:1058A00043E80042002AF9D1BFF35B8F002EDED01F
:1058B0002046FFF7CFF8074660B105F10C013046EE
:1058C000FFF744FE3046FFF74FFB10213046FEF74E
:1058D000E6FBCCE7314603A8FFF7A0FF2B7B8DF852
:1058E0001C301020FEF7D7FB0546D0B1876014208E
:1058F000FEF7D1FB044678B18760014603A8FFF7A5
:105900003CFB059BA268A360069B0592E268E360EE
:105910009DF81C3006922374064BEB60064B2C60FE
:10592000AB6003A8FFF720FB002229460348FFF7DE
:1059300099F8C7E75F550B0041590B00C35C0B009A
:10594000012A70B5044603D10B680360002070BDC6
:10595000022A0CD0032AF9D10468002CF6D0204684
:10596000FFF702FB14212046FEF799FBEEE7142017
:105970000E68FEF790FB054620B13146FFF74EFF5B
:10598000337C2B742560E1E7704710B5182104467D
:10599000FEF785FB204610BDF0B5037D062B8DB0CC
:1059A0000E4600F104074FF0000412D000F1080584
:1059B00015F8011D0A223046FFF73BFBAF420444B5
:1059C00019D0002CF4D02E213046FFF719FB0444E7
:1059D000EEE72F236A4639460A208DF80040FEF78D
:1059E00059FF684600F0FDFF33680246DB686946F0
:1059F00030469847044620460DB0F0BD10B5054B23
:105A00000446112240F8043B002100F08FFF20469D
:105A100010BD00BFDC6D0B000346074A10B543F80C
:105A2000042B01F1100251F8044B43F8044B91424E
:105A3000F9D10A781A7010BDDC6D0B0010B59DF815
:105A4000084044EA032343EA024242EA0161042394
:105A50004160037510BD000007B5064B0360CB78AD
:105A600000938B784A780978FFF7E8FF03B05DF878
:105A700004FB00BFDC6D0B0041747047704770473A
:105A800008B50021007CFEF7B5FF40EAE07008BDD4
:105A900008B50121007CFEF7ADFF40EAE07008BDCB
:105AA00008B5007CFEF79EFF20EAE07008BD08B54F
:105AB000007CFEF78FFF20EAE07008BD13B50446B6
:105AC000007C0191FEF78EFF0028019901DC607CCB
:105AD00020B1207CFEF796FF20EAE07002B010BDF6
:105AE000007CFEF797BF10B514210446FEF7D7FAE5
:105AF000204610BD10B54FF47A73044608460021C5
:105B0000C4E90113044B236001232074637411461C
:105B1000FEF758FF204610BDF06D0B0010B51422A3
:105B20000446002100F002FF204610BD10B50F4CC6
:105B300088B003A8FFF7F2FF2178BFF35B8F11F065
:105B400001010FD120460191FEF7ABFA019948B14E
:105B500003AA0748FFF7CEFF2046FEF7A7FA05483D
:105B600000F0CCFE024808B010BD00BFCCE6032018
:105B7000D0E603207D5A0B00002240681146FEF754
:105B8000A5BF002240681146FEF7C0BF0022406852
:105B90001146FEF7CBBF40680022FEF7BFBF40684A
:105BA000002281F00101FEF7A9BF002340681A46D8
:105BB0001946FEF79BBF002340681A461946FEF7B8
:105BC0008DBF002240681146FEF770BF406800227A
:105BD0000221FEF773BF002340681A46FEF75EBF3E
:105BE000084B10B5282422461846002100F09EFEDE
:105BF000054B04804FF0FF32426004225A60034A92
:105C00001A6010BDECE60320E4E60320206E0B00D2
:105C100070474174704708B5007CFEF773FE20EAB8
:105C2000E07008BD08B5007CFEF744FE20EAE07095
:105C300008BD08B5007CFEF74DFE40EAE07008BDE7
:105C400008B5007CFEF73EFE40EAE07008BD007C2F
:105C5000FEF748BE37B5457C04462DB1207C03B025
:105C6000BDE83040FEF71EBE007C0191FEF74AFE03
:105C700000280199F2DC284603B030BD10B514218C
:105C80000446FEF70CFA204610BD000010B54FF494
:105C90007A730446084611460022C4E90123044BE6
:105CA0002360012320746374FEF73CFE204610BD80
:105CB0005C6E0B00007C0023FEF72CBE0022FFF779
:105CC000F9BF10B5836804460BB900F0F5F9C36855
:105CD0009847A3681BB103222146204698472046D7
:105CE0001021BDE81040FEF7DAB97047F8B5064656
:105CF00015460C468F18BC4206D0336814F8011BB9
:105D00009B6830469847F6E72846F8BD007C00229D
:105D1000FEF710BE007C0021FEF714BE007C0021BF
:105D2000FEF718BE007C0021FEF71CBE007C00219F
:105D3000FEF720BE10B514210446FEF7B0F9204648
:105D400010BD000038B5044615464FF47A730022A2
:105D5000C4E90123094B2174084623602946FEF754
:105D600019FEBF3008D16B69DB0705D56868FEF7FF
:105D700025FFE868FEF722FF204638BD8C6E0B0039
:105D8000002340681A46FEF789BE406800220221BF
:105D9000FEF794BE002240681146FEF787BE00223F
:105DA00040681146FEF792BE002340681A46194625
:105DB000FEF794BE002340681A461946FEF796BEC9
:105DC00040680021FEF7BABE40680021FEF7BEBE63
:105DD0004068002281F00101FEF790BE4068002279
:105DE000FEF79CBE002240681146FEF79FBE0022CF
:105DF00040681146FEF78ABE2DE9F04395B014467F
:105E00000D460746FFF7FAFD00211C220DA8009160
:105E100000F08CFD40230C9320466B460CAA002119
:105E2000FEF700FD044600284BD1024601216868B8
:105E3000FEF74CFE0221804622466868FEF746FEC9
:105E4000009E81462146002E3BD0002939D173683F
:105E5000022B03D00A2B11D0F669F4E7B8F1000F3A
:105E6000FAD0716906A8043107ADFFF7F5FD0FCD33
:105E70003C1D0FC42B6823704146EDE7B9F1000FBC
:105E8000EAD07469102201A800F050FD06238DF8B5
:105E9000143001AD04F108031834186859682A4613
:105EA00003C20833A3421546F7D101A906A807ADDE
:105EB000FFF7B2FD0FCD3C1D0FC42B682370494680
:105EC000CAE70098FEF7A6FC384615B0BDE8F08397
:105ED000024B034A1A6000225A60704714E70320FD
:105EE000B46E0B00232813B502D9002002B010BDF8
:105EF000A0F10B03022B1AD8174C2178BFF35B8F4C
:105F000011F001010BD120460191FEF7CAF8019969
:105F100028B11248FEF7D0FE2046FEF7C7F80F4B17
:105F20001878FEF747FD0028DFD10120DEE70128C1
:105F300009D800F09BF80021007CFEF723FD80F0DB
:105F40000100C0B2D2E709380128EED800F04EF8BF
:105F5000007CFEF7CFFCF2E71CE7032020E70320DC
:105F6000232838B504460D460AD8FF2908D0FFF784
:105F7000B9FF28B129462046BDE83840FEF75ABC93
:105F800038BD38B504460D46FEF75CFCFF2810D03E
:105F9000062804D84D2323FA00F0C30709D420466D
:105FA000FFF7A0FF28B129462046BDE83840FEF79C
:105FB00051BC38BD7047000038B5044614252A4648
:105FC000002100F0B3FC25804025074925812846A3
:105FD000258200F06FF804496060284600F06AF8F6
:105FE000E060204638BD00BFE86E0B0030B50E4DB6
:105FF0002978BFF35B8F11F0010487B011D12846D7
:10600000FEF74FF868B101A8FFF7D6FF01AA2146B5
:106010000648FFF73BFE2846FEF748F8044800F024
:106020006DFC024807B030BD28E703202CE70320B1
:10603000B55F0B007047000038B50A4B03600123C1
:10604000044643610849202000F034F820256060B0
:106050000549A560284600F02DF8C4E9030520464F
:1060600038BD00BF18000100E86E0B0030B50E4DC2
:106070002978BFF35B8F11F0010487B011D1284656
:10608000FEF70FF868B16846FFF7D6FF6A4621466B
:106090000648FFF757FE2846FEF708F8044800F0C8
:1060A0002DFC024807B030BD44E7032048E7032039
:1060B00035600B00FDF7F1BF08B5FEF797FD000056
:1060C00081F0004102E000BF83F0004330B54FEAA9
:1060D00041044FEA430594EA050F08BF90EA020F16
:1060E0001FBF54EA000C55EA020C7FEA645C7FEAA9
:1060F000655C00F0E2804FEA5454D4EB5555B8BFCC
:106100006D420CDD2C4480EA020281EA030382EA3C
:10611000000083EA010180EA020281EA0303362DCE
:1061200088BF30BD11F0004F4FEA01314FF4801CA1
:106130004CEA113102D0404261EB410113F0004FB3
:106140004FEA03334CEA133302D0524263EB43036A
:1061500094EA050F00F0A780A4F10104D5F1200E08
:106160000DDB02FA0EFC22FA05F2801841F1000163
:1061700003FA0EF2801843FA05F359410EE0A5F137
:1061800020050EF1200E012A03FA0EFC28BF4CF068
:10619000020C43FA05F3C01851EBE37101F000451E
:1061A00007D54FF0000EDCF1000C7EEB00006EEB2B
:1061B0000101B1F5801F1BD3B1F5001F0CD34908B5
:1061C0005FEA30004FEA3C0C04F101044FEA44520C
:1061D00012F5800F80F09A80BCF1004F08BF5FEA93
:1061E000500C50F1000041EB045141EA050130BD73
:1061F0005FEA4C0C404141EB0101013C28BFB1F585
:10620000801FE9D291F0000F04BF01460020B1FACF
:1062100081F308BF2033A3F10B03B3F120020CDAA2
:106220000C3208DD02F1140CC2F10C0201FA0CF080
:1062300021FA02F10CE002F11402D8BFC2F1200CE5
:1062400001FA02F120FA0CFCDCBF41EA0C0190409B
:10625000E41AA2BF01EB0451294330BD6FEA0404E4
:106260001F3C1CDA0C340EDC04F11404C4F12002CF
:1062700020FA04F001FA02F340EA030021FA04F3E1
:1062800045EA030130BDC4F10C04C4F1200220FA38
:1062900002F001FA04F340EA0300294630BD21FA76
:1062A00004F0294630BD94F0000F83F4801306BF3C
:1062B00081F480110134013D4EE77FEA645C18BF30
:1062C0007FEA655C29D094EA050F08BF90EA020FC7
:1062D00005D054EA000C04BF1946104630BD91EABF
:1062E000030F1EBF0021002030BD5FEA545C05D1C2
:1062F0004000494128BF41F0004130BD14F5800401
:106300003CBF01F5801130BD01F0004545F0FE4174
:1063100041F470014FF0000030BD7FEA645C1ABFA9
:10632000194610467FEA655C1CBF0B46024650EAE0
:10633000013406BF52EA033591EA030F41F400210C
:1063400030BD00BF90F0000F04BF0021704730B592
:106350004FF4806404F132044FF000054FF0000167
:1063600050E700BF90F0000F04BF0021704730B528
:106370004FF4806404F1320410F0004548BF4042FD
:106380004FF000013EE700BF42004FEAE2014FEA52
:1063900031014FEA02701FBF12F07F4393F07F4F2D
:1063A00081F06051704732F07F4208BF704793F030
:1063B0007F4F04BF41F40021704730B54FF4607443
:1063C00001F0004521F000411CE700BF50EA010246
:1063D00008BF704730B54FF000050AE050EA0102EF
:1063E00008BF704730B511F0004502D5404261EB5F
:1063F00041014FF4806404F132045FEA915C3FF4A0
:10640000D8AE4FF003025FEADC0C18BF03325FEA3C
:10641000DC0C18BF033202EBDC02C2F1200300FAED
:1064200003FC20FA02F001FA03FE40EA0E0021FA12
:1064300002F11444BDE600BF70B54FF0FF0C4CF400
:10644000E06C1CEA11541DBF1CEA135594EA0C0FB2
:1064500095EA0C0F00F0DEF82C4481EA030621EAED
:106460004C5123EA4C5350EA013518BF52EA033528
:1064700041F4801143F4801338D0A0FB02CE4FF0DA
:106480000005E1FB02E506F00042E0FB03E54FF00A
:106490000006E1FB03569CF0000F18BF4EF0010E02
:1064A000A4F1FF04B6F5007F64F5407404D25FEAFE
:1064B0004E0E6D4146EB060642EAC62141EA5551B1
:1064C0004FEAC52040EA5E504FEACE2EB4F1FD0CF3
:1064D00088BFBCF5E06F1ED8BEF1004F08BF5FEA71
:1064E000500E50F1000041EB045170BD06F0004623
:1064F00046EA010140EA020081EA0301B4EB5C04D0
:10650000C2BFD4EB0C0541EA045170BD41F48011C7
:106510004FF0000E013C00F3AB8014F1360FDEBFEC
:10652000002001F0004170BDC4F10004203C35DAC8
:106530000C341BDC04F11404C4F1200500FA05F34B
:1065400020FA04F001FA05F240EA020001F00042EC
:1065500021F0004110EBD37021FA04F642EB060162
:106560005EEA430E08BF20EAD37070BDC4F10C048C
:10657000C4F1200500FA04F320FA05F001FA04F250
:1065800040EA020001F0004110EBD37041F100013C
:106590005EEA430E08BF20EAD37070BDC4F1200547
:1065A00000FA05F24EEA020E20FA04F301FA05F2AF
:1065B00043EA020321FA04F001F0004121FA04F257
:1065C00020EA020000EBD3705EEA430E08BF20EA27
:1065D000D37070BD94F0000F0FD101F00046400061
:1065E00041EB010111F4801F08BF013CF7D041EAE3
:1065F000060195F0000F18BF704703F000465200E7
:1066000043EB030313F4801F08BF013DF7D043EAB7
:106610000603704794EA0C0F0CEA135518BF95EA6D
:106620000C0F0CD050EA410618BF52EA4306D1D1F4
:1066300081EA030101F000414FF0000070BD50EA13
:10664000410606BF1046194652EA430619D094EA9D
:106650000C0F02D150EA013613D195EA0C0F05D187
:1066600052EA03361CBF104619460AD181EA0301DB
:1066700001F0004141F0FE4141F470014FF0000093
:1066800070BD41F0FE4141F4780170BD70B54FF02E
:10669000FF0C4CF4E06C1CEA11541DBF1CEA1355AE
:1066A00094EA0C0F95EA0C0F00F0A7F8A4EB050490
:1066B00081EA030E52EA03354FEA013100F0888087
:1066C0004FEA03334FF0805545EA131343EA126350
:1066D0004FEA022245EA111545EA10654FEA002605
:1066E0000EF000419D4208BF964244F1FD0404F5BE
:1066F000407402D25B084FEA3202B61A65EB03051A
:106700005B084FEA32024FF480104FF4002CB6EBD6
:10671000020E75EB030E22BFB61A754640EA0C0056
:106720005B084FEA3202B6EB020E75EB030E22BF96
:10673000B61A754640EA5C005B084FEA3202B6EBD7
:10674000020E75EB030E22BFB61A754640EA9C0096
:106750005B084FEA3202B6EB020E75EB030E22BF66
:10676000B61A754640EADC0055EA060E18D04FEA24
:10677000051545EA16754FEA06164FEAC30343EAC4
:1067800052734FEAC2025FEA1C1CC0D111F4801F91
:106790000BD141EA00014FF000004FF0004CB6E78A
:1067A00011F4801F04BF01430020B4F1FD0C88BF29
:1067B000BCF5E06F3FF6AFAEB5EB030C04BFB6EB34
:1067C000020C5FEA500C50F1000041EB045170BD27
:1067D0000EF0004E4EEA113114EB5C04C2BFD4EB54
:1067E0000C0541EA045170BD41F480114FF0000ED8
:1067F000013C90E645EA060E8DE60CEA135594EA54
:106800000C0F08BF95EA0C0F3FF43BAF94EA0C0F56
:106810000AD150EA01347FF434AF95EA0C0F7FF4CB
:1068200025AF104619462CE795EA0C0F06D152EA1F
:1068300003353FF4FDAE1046194622E750EA410603
:1068400018BF52EA43067FF4C5AE50EA41047FF414
:106850000DAF52EA43057FF4EBAE12E74FEA410277
:10686000B2F1E04324BFB3F5001CDCF1FE5C0DD9AE
:1068700001F0004C4FEAC0024CEA5070B2F1004FF8
:1068800040EB830008BF20F00100704711F0804FFB
:1068900021D113F13872BCBF01F00040704741F4C0
:1068A00080114FEA5252C2F11802C2F1200C10FAC4
:1068B0000CF320FA02F018BF40F001004FEAC123A8
:1068C0004FEAD32303FA0CFC40EA0C0023FA02F34C
:1068D0004FEA4303CCE77FEA625307D150EA013322
:1068E0001EBF4FF0FE4040F44000704701F00040F2
:1068F00040F0FE4040F40000704700BF0023014616
:106900001A46184600F002B90A22002100F0F4B835
:106910000A44914200F1FF3300D1704710B511F8DD
:10692000014B03F8014F9142F9D110BD02440346D7
:10693000934200D1704703F8011BF9E738B5104BBB
:106940001D68AB6B0446B3B91820FEF72FF9024659
:10695000A86320B90B4B0C484221FEF75FF90B49A5
:106960000B4BC0E900130B4B83600B238381002189
:106970000120C2E90401AB6B00221C615A6138BDE1
:10698000C0E50320E96E0B00006F0B000E33CDABAA
:1069900034126DE6ECDE0500034611F8012B03F816
:1069A000012B002AF9D17047024B0146186800F00C
:1069B00003B800BFC0E5032037B5044608460D46BE
:1069C00000F00FF8421C114620460192FEF716F91E
:1069D000044618B1019A2946FFF79AFF204603B0F2
:1069E00030BD034613F8012B002AFBD1181A0138D9
:1069F00070470000012B2DE9F04701D0242B06D968
:106A0000FEF704F9162303600020BDE8F087DFF8E5
:106A1000E4C00D462E4615F8014B14F80C7017F023
:106A20000807F7D12D2C32D12C780127B51C002B6B
:106A30005BD0102B09D1302C07D12C7804F0DF0467
:106A4000582C4DD16C781023023507F1004808F11D
:106A5000FF384FF0000CB8FBF3F9664603FB198AC8
:106A6000A4F1300EBEF1090F16D87446A34224DDFE
:106A7000BCF1000F1EDBB1451CD301D1A24519DBCF
:106A800006FB03464FF0010C15F8014BE8E72B2CF1
:106A900004BF2C78B51CCAE7A4F1410EBEF1190F52
:106AA00001D8373CE2E7A4F1610EBEF1190F04D81A
:106AB000573CDBE74FF0FF3CE6E7BCF1000F05DA9F
:106AC00022230360464642B930469EE707B176422C
:106AD000002AF9D0BCF1000F00D0691E1160F3E765
:106AE0003024002BB1D10823AFE7302CA5D00A23E6
:106AF000ABE700BF7E6F0B0013460A460146024813
:106B00000068FFF777BF00BFC0E503202DE9F84319
:106B1000DFF8B8800646D8F800001F460D469146BB
:106B200000F056F8254B1C6834B9254C1C60254BE9
:106B300013B11B68C4F8883063681F2B07DDD8F8D1
:106B4000000000F047F84FF0FF30BDE8F8834EB387
:106B5000D4F8880088B91C4B23B9D8F8000000F09D
:106B600038F8F0E74FF48470FEF720F80028F4D0EE
:106B70000023C0E94033C4F88800636840F82390DC
:106B800001229A4000EB8301D0F800311343C0F892
:106B90000031022EC1F8807002BFD0F804311343D7
:106BA000C0F804316368D8F800005A1C02336260F0
:106BB00044F8235000F00EF80020C6E7E8E7032071
:106BC0005CE7032000000000AD4B0B0024E603202F
:106BD000704770477047000021400B005D400B007C
:106BE00085400B0089400B0000000000434F4E46DB
:106BF0003A424153005468726573686F6C643A207E
:106C000025642C205265736574205468726573681E
:106C10006F6C643A2025642C20426173656C696E48
:106C20006520256600496E697469616C697A6564DE
:106C300000434F4E463A544852202564004E657733
:106C4000205468726573686F6C64205365740043E8
:106C50004F4E463A524553202564004E65772052E8
:106C600065736574205468726573686F6C64205333
:106C7000657400546F74616C2056656869636C6557
:106C800020436F756E7400436F756E742052657487
:106C900072696576656400436F756E742052657322
:106CA000657400000000000000000000B3400B000D
:106CB000B5400B004C61737420436F756E740054C3
:106CC0006F74616C2056656869636C65730052650A
:106CD00063616C69627261746520426173656C699D
:106CE0006E6500536574207468652054687265731E
:106CF000686F6C6400536574207468652052657316
:106D00006574205468726573686F6C64005B6D61B4
:106D1000675F524D533A2025662C206D61675F787E
:106D20003A2025662C206D61675F793A2025662C14
:106D3000206D61675F7A3A2025665D004465746561
:106D40006374696E672056656869636C65210052DB
:106D5000656C65617365642E000000000000000032
:106D6000000000009B4C0B00914C0B00874C0B006B
:106D70007D4C0B00714C0B00654C0B00C15D0B0092
:106D8000C95D0B00594C0B00514C0B00474C0B00DC
:106D90003D4C0B00F95D0B006170700025592D25ED
:106DA0006D2D25645425483A254D3A2553257A0002
:106DB00061736374696D65000000000000000000ED
:106DC0000D540B0013540B0051540B0021540B00B5
:106DD0000F540B00000000000000000099590B0048
:106DE00089590B008B590B000000000000000000C7
:106DF0007F5A0B00E75A0B00BD5A0B00B14F0B0036
:106E0000AF5A0B00815A0B00915A0B00E15A0B004C
:106E1000A15A0B00795A0B0000000000000000008E
:106E2000D75B0B00CD5B0B00C35B0B00795B0B00EA
:106E3000B75B0B00AB5B0B00C15D0B00C95D0B00CA
:106E40009F5B0B00975B0B008D5B0B00835B0B0064
:106E5000F95D0B000000000000000000115C0B0059
:106E60007D5C0B00555C0B00B14F0B00255C0B00EB
:106E7000415C0B00335C0B004F5C0B00135C0B00A0
:106E8000175C0B000000000000000000EB5C0B0032
:106E9000355D0B000D5D0B00ED5C0B00155D0B000F
:106EA0001D5D0B00255D0B002D5D0B00000000003B
:106EB00000000000815D0B008B5D0B00955D0B00F9
:106EC0009F5D0B00A95D0B00B55D0B00C15D0B0064
:106ED000C95D0B00D15D0B00DD5D0B00E55D0B00B6
:106EE000EF5D0B00F95D0B00005245454E54206DDF
:106EF000616C6C6F632073756363656564656400C2
:106F00002F6D6E742F776F726B73706163652F775F
:106F10006F726B73706163652F4743432D31302D62
:106F2000706970656C696E652F6A656E6B696E73EA
:106F30002D4743432D31302D706970656C696E6546
:106F40002D34385F32303230313132345F313630C7
:106F5000363138303634312F7372632F6E65776C6B
:106F600069622F6E65776C69622F6C6962632F733B
:106F700074646C69622F72616E642E63000020205D
:106F800020202020202020282828282820202020D9
:106F90002020202020202020202020202020881099
:106FA00010101010101010101010101010100404F9
:106FB0000404040404040404101010101010104100
:106FC0004141414141010101010101010101010171
:106FD0000101010101010101011010101010104206
:106FE0004242424242020202020202020202020241
:106FF000020202020202020202101010102000001F
:107000000000000000000000000000000000000080
:107010000000000000000000000000000000000070
:107020000000000000000000000000000000000060
:107030000000000000000000000000000000000050
:107040000000000000000000000000000000000040
:107050000000000000000000000000000000000030
:107060000000000000000000000000000000000020
:107070000000000000000000000000000000000010
:1070800021450B00E5470B00A54C0B00CD4C0B0038
:10709000A14F0B009D520B00AD520B00C9520B00CB
:1070A000E15B0B00D15E0B0000000000000000005F
:1070B000040000001400000003000000474E5500CB
:1070C000FA05F533FBA52DFCCDC0D1681A4249FD68
:0470D000E5826548A8
:0470D40000000000B8
:1070D80007000000B06D0B00C4E5032000000000AD
:1070E8000000000000000000000000000000000098
:1070F8000000000000000000000000000000000088
:107108000000000000000000000000000000000077
:107118000000000000000000000000000000000067
:107128000000000000000000000000000000000057
:10713800000000000000000000000000ECE7032051
:10714800FFFFFFFF00000102030405060708090A04
:107158000B0C0D0E0F101112131415161718191AFF
:087168001B1C1D1E1F20280046
:047170007856341207
:04000003B0004020E9
:00000001FF
