:02000002B0004C
:1040000000400B005C880B00000006000D0005025C
:0840100004010410000000008F
:0440180030810B00E8
:1040200009480A49884208B505D0094A824202D0A7
:10403000121A03F0B5FE0748074A0021121A03F0CE
:10404000D7FE014808BD00BF60E50320B8870B001C
:10405000D8E50320D8E50320EDE7032070B5074E2F
:10406000074C03F033F9A41BA4080025AC4200D18F
:1040700070BD56F8043B98470135F7E760870B00A1
:104080008C870B0000F022B808B500F02BF8BDE8D3
:10409000084003F0D3B800F081BE00F07FBE00F00E
:1040A00085BE000008B5034A03490C2000F092FDCC
:1040B000FEE700BFA5490B0044810B000078B0FA71
:1040C00080F04009704701230370704708B500F085
:1040D000A5F800F047F900F0F7FABDE8084000F055
:1040E00005BB000070B5314C314EAAB000F096F817
:1040F00000F0A6F8E368002B37D03368002B38D1E6
:10410000A06903F081FBCDE90601606903F07CFB47
:10411000CDE90401206903F077FBCDE90201E069F4
:1041200003F072FB234ACDE9000180210AA800F0C8
:104130004DFE214B21491B788DF800300AAA3C2303
:1041400008A801F077F8099D7DB16B68013B6B60B1
:104150005BB92B6828469B689847AB68013BAB600E
:104160001BB92B682846DB689847E36833602AB0A0
:1041700070BD012BDDD1A06A03F046FBCDE906013D
:10418000606A03F041FBCDE90401206A03F03CFBC7
:10419000CDE90201E06A03F037FB6368084ACDE924
:1041A000000180210AA800F011FEC2E7E0E503202B
:1041B000DCE5032059810B00D8E50320F6810B00D4
:1041C000A6810B00094B10B501241C7003F0B0F858
:1041D00000231A46214603F0BBF803F0A9F8002398
:1041E000BDE810401A460D2103F0AAB8D8E5032017
:1041F000704710B504210446FFF751FF204610BD5B
:104200000EB403B503AB012153F8042B019302F064
:10421000DAFC02B05DF804EB03B0704710B5064C51
:10422000236833B90420FFF736FF08B1034B03605E
:104230002060206810BD00BF24E60320A4820B008C
:1042400030B585B003F050F90A220146684602F005
:10425000C9FD684602F0DEFD03F046F902F05DFD9F
:104260002D4C2E4DA06003F03FF902F056FDA860E2
:1042700003F03AF902F051FDE86003F035F902F07D
:10428000ADFD10EE100A03F0BFFAE368012BC5E99B
:10429000000117D103F028F902F0A0FD84ED040A13
:1042A00003F022F902F09AFD84ED050A03F01CF9EF
:1042B00002F094FD84ED060A03F016F902F08EFD7B
:1042C00084ED070AE168012908D0022917D019B93D
:1042D000A368012B00D1E36005B030BD104B1888F6
:1042E00003F08DF8A368002BF6D12369236263697C
:1042F0006362A369A362E369E3620223EBE7084B0D
:104300000021188803F07BF8236801332360636879
:10431000013363600023DEE7E0E5032010E60320BD
:1043200060E5032008B503F0DFF8024902F023FC42
:10433000012008BDFE810B0038B5046805467CB13C
:104340006368013B63605BB9236820469B689847BC
:10435000A368013BA3601BB923682046DB6898472C
:10436000284638BD10B5304B0121188888B003F0BD
:1043700035F803F0B9F84FF4E13102F0AFFE03F085
:10438000B3F803681B69984718B90A2000F056FD76
:10439000F5E74FF47A7000F051FD03F0A5F80A221A
:1043A000014604A802F01EFD04A802F033FD03F04C
:1043B0009BF802F0B2FC1D4B1D4C0022DA6003F0AA
:1043C00093F802F0AAFCA06003F08EF802F0A5FCBE
:1043D000E06003F089F802F001FD10EE100A03F02E
:1043E00013FAC4E900014FF4FA6000F027FDD4E9A4
:1043F000002304A8CDE900230E49D4E9022302F0EA
:10440000D3FD0D4B049A1B780C498DF8003002A89F
:104410003C2300F00FFF03A8FFF78EFF04A802F073
:10442000F9FC08B010BD00BF60E50320E0E5032003
:1044300010E6032007820B0020E6032037820B00E2
:1044400010B5642994B00C461BDC03F04DF80E49FE
:104450002246FFF7D5FE0D4A2346402104A800F06E
:10446000B5FC0B4B0B491B788DF8003004AA3C239C
:1044700002A800F0DFFE03A8FFF75EFF012014B0E2
:1044800010BD4FF0FF30FAE743820B004F820B0064
:1044900021E6032067820B0010B5642994B00C4616
:1044A0001BDC03F021F80E492246FFF7A9FE0D4A56
:1044B0002346402104A800F089FC0B4B0B491B78D4
:1044C0008DF8003004AA3C2302A800F0B3FE03A834
:1044D000FFF732FF012014B010BD4FF0FF30FAE7B4
:1044E0006E820B007A820B0021E6032067820B00AC
:1044F000034B00221A70034B01221A70704700BF51
:1045000020E6032021E603207047006A0368DB6889
:104510001847704710B504210446FFF7C0FD204638
:1045200010BD38B50D46FFF779FE0446284602F067
:1045300036FD01462046BDE83840FFF781BF38B55B
:104540000D46FFF76BFE0446284602F028FD0146A3
:104550002046BDE83840FFF79FBF7FB5026853682B
:10456000906814685E1000EB6305DB0748BF835951
:10457000684648BF1C5902F0C9FC69462846A04756
:104580000446684602F046FC204604B070BD012A8D
:1045900038B5044602D10B68236003E0022A03D039
:1045A000032A0DD0002038BD0C200D68FFF773FDE5
:1045B00003460028F0D095E8070083E80700EBE702
:1045C00000680028EED00C21FFF769FDEAE7000043
:1045D000F0B58BB06C4684E80600064694E803000C
:1045E00003AD85E805001F460C2000230893FFF764
:1045F00052FD044620B195E8030084E80300A7605B
:10460000104B09931020104B06940893FFF743FDBD
:10461000044678B100238360089B33B1022206A9C7
:104620009847099BE360089BA360084832462146EF
:1046300000F009FD089B1BB106A903220846984714
:104640000BB0F0BD5B450B008F450B001F500B00FE
:104650000A4B10B50446036001F08CFB214601F0C3
:10466000C4FD02F0A3FD02F095FD2046044B40F886
:10467000043B01F055FC204610BD00BF54830B00E5
:104680003C830B0010B50446FFF7E2FF20462421CF
:10469000FFF705FD204610BD0EB400B58CB00DAA85
:1046A0004FF0200C52F8041B0392CDE900120023B6
:1046B000016804AA1E20CDE904C300F093FA0CB0EF
:1046C0005DF804EB03B0704710B5064C236833B9AE
:1046D0000420FFF7E0FC08B1034B03602060206872
:1046E00010BD00BF34E603206C830B0073B5214C72
:1046F000214905462148FFF7CFFF21460023092223
:104700001F4800F0C3FA04F108011E4C1E480023A4
:10471000022200F0BBFA2146002302221B4800F0CF
:10472000B5FA211D00230222194800F0AFFA002635
:10473000184B00936C46019694E806002B461648E9
:10474000FFF746FF154B1648CDE900362B4694E897
:104750000600FFF73DFFFFF761FDFFF7E3FD33467E
:104760008DF80000012221460E4800F08FFA02B0B9
:1047700070BD00BF10E60320AC820B00A4E603204E
:104780002A830B00E0E50320FC820B00DA820B0099
:10479000E5820B0023450B00F4820B003F450B0024
:1047A00006830B001E830B0070B5D0E9005314265E
:1047B000044606FB0356AE4204D0284602F02AFB0C
:1047C0001435F8E7206800F0F1FA204670BD884201
:1047D000F8B504460D46164616D9904215D2A2F1F8
:1047E0001406751AA1F114072C44B7421CD02CB141
:1047F0003146204602F08AFB337C2374304602F0B7
:1048000009FB143E143CF0E70ED0B5420CD02CB19D
:104810002946204602F07AFB2B7C2374284602F0BE
:10482000F9FA14351434F0E7F8BD2DE9F04100230E
:10483000C0E9003383604F689F4204460E4623DD83
:104840004FF0140808FB07F000F0A8FA0546D8B1AD
:10485000D4E9001208FB0212FFF7B9FF206800F04C
:10486000A5FA2560A760D6E9007308FB0378B84570
:1048700008D03946284602F063FB3B7C2B74143782
:104880001435F4E7736863602046BDE8F0810000EA
:1048900070B5264B264A9A6000248CB0C3E90044C8
:1048A000012000F0B7F92146012000F0C3F90121F1
:1048B000042000F067F8CDE90044029402F076FC91
:1048C0001C4C0546694603A8FFF7AFFF264603A91F
:1048D00006A8FFF7AAFF184B46F8043B06A909A84B
:1048E000FFF7A3FF09AA1E21304601F061FD09A8C8
:1048F000FFF75AFF06A8FFF757FF104B236025620A
:1049000003A8FFF751FF0E4B236002F04FFC4FF45A
:10491000165102F03BFC01F02DFA214601F01EFC7D
:104920006846FFF741FF0CB070BD00BF28E60320CA
:104930000000FFFF38E603203C830B00DC840B0003
:1049400054830B0008B5024B1B685B6C019308BDD8
:104950004802030008B5024B1B689B6C019308BD1D
:104960004802030008B5024B1B68DB6C019308BDCD
:104970004802030008B5024B1B685B6D019308BD3C
:104980004802030008B5024B1B685B6E019308BD2B
:104990003402030008B5024B1B685B68019308BD35
:1049A0001802030008B5024B1B68DB68019308BDC1
:1049B0001802030008B5024B1B685B69019308BD30
:1049C0001802030008B5024B1B689B68019308BDE1
:1049D0002C02030008B5024B1B68DB68019308BD7D
:1049E0002C02030008B5024B1B681B69019308BD2C
:1049F0002C02030008B5024B1B681B6A019308BD1B
:104A00002802030008B5024B1B685B6A019308BDCE
:104A10002802030008B5024B1B689B6A019308BD7E
:104A20002802030008B5024B1B68DB6A019308BD2E
:104A30002802030008B5024B1B681B6B019308BDDD
:104A40002802030008B5024B1B685B6B019308BD8D
:104A50002802030008B5024B1B681B6C019308BDBC
:104A60002802030008B5024B1B685B69019308BD6F
:104A70006402030008B5024B1B689B68019308BDE4
:104A80006802030008B5024B1B68DB68019308BD90
:104A90006802030008B5024B1B68DB69019308BD7F
:104AA0003002030008B5024B1B681B6A019308BD66
:104AB0003002030008B5024B1B689B68019308BDD8
:104AC0003C02030008B5024B1B68DB68019308BD7C
:104AD0003C02030008B5024B1B681B69019308BD2B
:104AE0003C02030008B5024B1B685B69019308BDDB
:104AF0003C02030008B5024B1B689B69019308BD8B
:104B00003C02030008B5024B1B68DB69019308BD3A
:104B10003C02030008B5024B1B681B6A019308BDE9
:104B20003C02030008B5024B1B689B6A019308BD59
:104B30003C02030008B5024B1B68DB6A019308BD09
:104B40003C02030008B5024B1B681B6C019308BDB7
:104B50003C02030008B5024B1B681B68019308BDAB
:104B60004C02030008B5024B1B685B68019308BD4B
:104B70004C02030008B5024B1B689B68019308BDFB
:104B80004C02030008B5024B1B681B69019308BD6A
:104B90004C02030008B5024B1B685B69019308BD1A
:104BA0004C02030008B5024B1B689B69019308BDCA
:104BB0004C02030008B5024B1B68DB69019308BD7A
:104BC0004C02030008B5024B1B681B6A019308BD29
:104BD0004C02030008B5024B1B685B6B019308BDD8
:104BE0006002030008B5024B1B685B6D019308BDB2
:104BF0006002030008B5024B1B68DB6E019308BD21
:104C00006002030008B5024B1B681B6F019308BDCF
:104C10006002030008B5024B1B685B68019308BD86
:104C20002002030008B5024B1B685B69019308BDB5
:104C30002002030008B5024B1B68DB6A019308BD24
:104C40002002030008B5024B1B68DB6C019308BD12
:104C50002002030008B5024B1B685B6D019308BD81
:104C60002002030008B5034B1B68D3F8883001937A
:104C700008BD00002002030008B5034B1B68D3F8F1
:104C80009430019308BD00002002030008B5024BD8
:104C90001B681B68019308BD4402030008B5024B62
:104CA0001B685B68019308BD4402030008B5024B12
:104CB0001B685B69019308BD4402030008B5024B01
:104CC0001B681B6A019308BD4402030008B5024B30
:104CD0001B68DB6B019308BD4402030008B5024B5F
:104CE0001B685B68019308BD4002030008B5024BD6
:104CF0001B689B68019308BD4002030008B5024B86
:104D00001B68DB68019308BD4002030008B5024B35
:104D10001B681B69019308BD4002030008B5024BE4
:104D20001B685B69019308BD4002030008B5024B94
:104D30001B689B69019308BD4002030008B5024B44
:104D40001B68DB69019308BD4002030008B5024BF4
:104D50001B681B6A019308BD4002030008B5024BA3
:104D60001B681B6B019308BD4002030008B5024B92
:104D70001B685B6B019308BD4002030008B5024B42
:104D80001B681B6C019308BD4002030008B5024B71
:104D90001B685B6C019308BD4002030008B5024B21
:104DA0001B681B68019308BD1C02030008B5024B79
:104DB0001B685B68019308BD1C02030008B5024B29
:104DC0001B689B68019308BD1C02030008B5024BD9
:104DD0001B68DB69019308BD1C02030008B5024B88
:104DE0001B685B6A019308BD1C02030008B5024BF7
:104DF0001B68DB6A019308BD1C02030008B5024B67
:104E00001B681B6B019308BD1C02030008B5024B15
:104E10001B68DB6B019308BD1C02030008B5024B45
:104E20001B681B6C019308BD1C02030008B5024BF4
:104E30001B685B6C019308BD1C0203000021FFF797
:104E4000F1BE10B5836804460BB902F075FBC36868
:104E50009847A3681BB10322214620469847204665
:104E60001021BDE81040FFF71AB910B58368044659
:104E700013B1032201469847204610BD10B5436880
:104E8000013B0446436063B903689B689847A36885
:104E9000013BA3602BB923682046DB68BDE81040C6
:104EA000184710BD70B5D0E90053044605EB031652
:104EB000AE4204D0284601F0ADFF1035F8E7206877
:104EC000FFF774FF204670BD13B50B460246D0E9CC
:104ED00000016C4684E8030093E8030082E80300C5
:104EE00094E8030083E8030002B010BD02480023E9
:104EF0000360FFF727BD00BF5CE603200022406887
:104F00001146FFF703BF002240681146FFF71EBF9E
:104F1000002240681146FFF729BF40680022FFF7D2
:104F20001DBF4068002281F00101FFF707BF002389
:104F300040681A461946FFF7F9BE002340681A4632
:104F40001946FFF7EBBE002240681146FFF7CEBEC0
:104F5000406800220221FFF7D1BE002340681A46B4
:104F6000FFF7BCBE084B10B5282422461846002186
:104F700002F03EFF054B04804FF0FF3242600422F6
:104F80005A60034A1A6010BD68E6032060E60320F9
:104F90007C830B0070470020704710B51021044639
:104FA000FFF77DF8204610BD08B5FFF7F6FF08BDF6
:104FB00030B500224FF69C74026084808D888C800E
:104FC0000C68858004600A6030BD10B50446006836
:104FD000FFF7ECFE204610BD38B5C468F4B1237865
:104FE000022B03D104F10C00FFF7EFFF656835B128
:104FF0002846FFF73AFF10212846FFF750F8A5682A
:1050000035B12846FFF731FF10212846FFF747F852
:1050100020461421BDE83840FFF741B838BD1FB520
:105020000446684601F041FFA3680BB902F084FA18
:10503000E3686946204698470446684601F0EAFE60
:10504000204604B010BD1FB50023CDE90201019236
:1050500010241A4669461846ADF80230ADF80040F3
:10506000FFF71CFE04B010BD0B6803604B68436083
:1050700013B15A6801325A60704737B50446684622
:105080000D46FFF7F1FF009B019A23606260002349
:1050900001A801930093FFF74FF935B1281DFFF7E1
:1050A0004BF908212846FEF7FAFF204603B030BD31
:1050B000826810B50AB902F03FFABDE81040C36833
:1050C000184708B5006800F11001FFF7F1FF08BDAF
:1050D000826810B50AB902F02FFABDE81040C36823
:1050E000184708B5006800F11001FFF7F1FF08BD8F
:1050F00038B500230446036010200D46FEF7CBFFB1
:1051000028B10123C0E90133024B0360C560206070
:10511000204638BDB8830B0038B5002383608B6808
:1051200004460D462BB102229847EB68E360AB685A
:10513000A360204638BD0000F0B589B00468684619
:10514000FFF736FF4FF00203D4E84F2F002A03D1B8
:10515000C4E8413F0029F7D125D104F10C05694687
:105160002846FFF725FFBFF35B8F01236370002004
:1051700004F10803BFF35B8F53E8006F43E80002BC
:10518000002AF9D1BFF35B8F6EB1FFF75BFD78B1F9
:1051900029463046FFF78CFF3046FFF766FE1021A8
:1051A0003046FEF77CFF6846FFF70FFF09B0F0BD01
:1051B000314602A8FFF7B0FFE068B4F9105008B11B
:1051C00002F076FE06901020ADF81C50FEF763FF4B
:1051D0000546E8B1002787601820FEF75CFF04460B
:1051E00088B10146876002A8FFF76EFE049BA268A3
:1051F000A360059B049206A9E268E36004F1100035
:105200000592FFF7D5FE084BEB60084B2C60AB60B6
:1052100006A8FFF7DAFE02A8FFF727FE00222946BC
:105220000348FFF717FDB7E7C3500B0045530B00CA
:10523000434E0B002DE9F04F8BB005469DF850A072
:105240000F4690469946FFF731FD07AE834638BBBF
:105250004FF62E73059005A93046ADF81830FFF7CC
:10526000A7FE1420FEF717FF044648B1022303707F
:105270000123C0E901BB437031460C30FFF798FEB3
:105280002846214640F8044BFFF732FF3046FFF72F
:105290009CFE05A8FFF799FE28460BB0BDE8F08FED
:1052A0000C2300241420CDE908440793FEF7F3FEF5
:1052B000014618B1C0E901440470447004A8039188
:1052C000FFF716FF1E4B08930820FEF7E4FE044686
:1052D00010B103A9FFF7C8FE00965FFA8AF34A46A9
:1052E000414638460994FFF7E9FCB8B9039B5B785F
:1052F00003F0FF0293B94FF69C7305A903A805922A
:10530000ADF81830FFF718FF05A8FFF75EFE05A8F7
:105310000999FFF7B2FE06A8FFF70EF803A905A842
:10532000FFF7A2FE059B069A2B606A60002306A881
:1053300006930593FFF700F804A8FEF7FDFFABE71F
:10534000C1530B00012AF8B5054603D10B68036071
:105350000020F8BD022A10D0032AF9D10468002CDD
:10536000F6D004F11000FFF730FE2046FFF77DFD78
:1053700018212046FEF793FEEAE718200E68FEF794
:105380008AFE044650B13146FFF7C6FE3069B6F9D1
:10539000147008B102F08CFD2061A7822C60D7E761
:1053A00038B5002383608B6804460D462BB102227A
:1053B0009847EB68E360AB68A360204638BD000007
:1053C000F0B589B004460D4601A81146FFF755FE19
:1053D000A4B124B21DB1284602F06AFD054601A819
:1053E00003A90395ADF81040FFF7A6FE03A8FFF749
:1053F000ECFD02A8FEF7A0FF09B0F0BD019D01235E
:10540000D5E84F2F002A03D1C5E8413F0029F7D145
:10541000EFD12B73BFF35B8F6B702B1DBFF35B8FD3
:1054200053E8006F43E80042002AF9D1BFF35B8FD5
:10543000002EDED02046FFF705FC074660B105F1DF
:105440000C013046FFF744FE3046FFF70EFD1021F9
:105450003046FEF724FECCE7314603A8FFF7A0FF55
:105460002B7B8DF81C301020FEF715FE0546D0B1C1
:1054700087601420FEF70FFE044678B1876001466E
:1054800003A8FFF721FD059BA268A360069B059278
:10549000E268E3609DF81C3006922374064BEB60D3
:1054A000064B2C60AB6003A8FFF7DFFC0022294607
:1054B0000348FFF7CFFBC7E7E3500B00C5540B00D1
:1054C000434E0B00012A70B5044603D10B680360FC
:1054D000002070BD022A0CD0032AF9D10468002CE8
:1054E000F6D02046FFF7C1FC14212046FEF7D7FD79
:1054F000EEE714200E68FEF7CEFD054620B13146DA
:10550000FFF74EFF337C2B742560E1E700224068F3
:105510001146FFF71BBC002240681146FFF726BC6E
:1055200040680022FFF71ABC4068002281F00101A8
:10553000FFF704BC002340681A461946FFF7F6BB84
:10554000002340681A461946FFF7E8BB002240686E
:105550001146FFF7DBBB002240681146FFF7C6BBD0
:10556000406800220221FFF7C9BB002340681A46A9
:10557000FFF7B4BB024B03225A60024A1A6070471D
:1055800090E60320D4830B007047F8B50646154615
:105590000C468F18BC4206D0336814F8011B9B6878
:1055A00030469847F6E72846F8BD007C0022FFF712
:1055B00021BA007C0021FFF725BA007C0021FFF70B
:1055C00029BA007C0021FFF72DBA007C0021FFF7EB
:1055D00031BA10B514210446FEF761FD204610BD16
:1055E00038B5044615464FF47A730022C4E9012306
:1055F000094B2174084623602946FFF72BFABF3078
:1056000008D16B69DB0705D56868FFF7CFFBE86851
:10561000FFF7CCFB204638BD10840B00704710B557
:1056200018210446FEF73BFD204610BDF0B5037D72
:10563000062B8DB00E4600F104074FF0000412D087
:1056400000F1080515F8011D0A22304601F09DFA07
:10565000AF42044419D0002CF4D02E21304601F082
:105660007BFA0444EEE72F236A4639460A208DF878
:105670000040FFF7F7F9684602F037FC336802464E
:10568000DB68694630469847044620460DB0F0BDB9
:1056900010B5054B0446112240F8043B002102F0EE
:1056A000A7FB204610BD00BF38840B000346074A05
:1056B00010B543F8042B01F1100251F8044B43F8E4
:1056C000044B9142F9D10A781A7010BD38840B004E
:1056D00010B59DF8084044EA032343EA024242EA37
:1056E000016104234160037510BD000007B5064B3E
:1056F0000360CB7800938B784A780978FFF7E8FF4E
:1057000003B05DF804FB00BF38840B0000F1100308
:10571000012213F8101C0129184608D153F8041C63
:1057200002EB4102013A03F11003F2D17047022962
:1057300004BF53F8041C5218F4E70EB4F0B588B057
:1057400000AF07F13405102155F8042B7A600446A8
:105750002B467818FD60FFF741FB0F287A681AD9AD
:1057600000F1080323F007036E46ADEB030D411C67
:105770002B466846FD60FFF731FB021E04DD2368FF
:1057800069469B6820469847B5462037BD46BDE828
:10579000F04003B070470028F7D0236802469B68AA
:1057A00007F1100120469847EFE738B50B68036012
:1057B0004D6843689D42044608D015B16B680133BB
:1057C0006B60606808B1FFF759FB656038BD07B5CD
:1057D00003688DF807109B6801220DF107019847B7
:1057E00003B05DF804FB0B461146002210B5C0E97A
:1057F0000022044683600BB9204610BDFFF7D5FF99
:10580000FAE78368EBB11A78032A1AD8DFE802F0C6
:105810000417021B0520704702685B685268D05C61
:105820002D2812D0A0F13003092B0ED974280ED0E8
:1058300066280CD0A0F16E035842584170470620EC
:1058400070470020704704207047032070470220F3
:10585000704710B50446FFF7D4FF02280ED0C31ED0
:10586000DBB2012B14D82268A36850685B68BDE8DE
:1058700010400A220021184402F0EABB2268A36803
:1058800052685B68D05CA0F174035842584110BD67
:105890000020FCE738B50023C0E9003304460E4879
:1058A000C4E90203A9B10B78032B06D08BB91368A6
:1058B00058684B68C35C6E2B07D013684D685868F6
:1058C0008B6828445B1BA060E36011462046FFF70D
:1058D0006CFF204638BD00BFA4840B0038B50025FE
:1058E0000B46C0E90055C0E90255C0E9045504461D
:1058F00011464BB11A78012A06D103F11002DB6878
:1059000082604361FFF751FF204638BD10B54369FF
:10591000044663B18068E060013B1030A060206104
:10592000636113B1FFF7F2FEA060012000E01846AA
:1059300010BD10B57D210446FFF749FF01232371F7
:10594000204610BD08B50379012B02D0022B04D0EC
:1059500008BD2C21FFF73BFFFAE73A21FAE710B523
:105960000446FFF7EFFF20467B21FFF730FF0023BF
:105970002371204610BD000013B504460191FFF7C6
:10598000E1FF2368019ADB68034920469847012319
:105990002046237102B010BD4C820B0013B50446A3
:1059A0000191FFF7CFFF2368019ADB680349204686
:1059B000984701232046237102B010BD44840B0098
:1059C0002DE9F0470D46222190460446FFF7FFFEE1
:1059D000DFF8A490A8442F464745BA463DD017F8B3
:1059E000016B222E06D05C2E04D0304602F0D0F996
:1059F0000028F1D12368AAEB05029B6829462046BE
:105A000098475C212046FFF7E2FE0D2E0AD8072EAC
:105A10001CD9A6F10803052B18D8DFE803F00D0FF9
:105A200011171315222E01D05C2E0FD131462046BE
:105A3000FFF7CDFE3D46CFE76221F8E77421F6E798
:105A40006E21F4E76621F2E77221F0E7236832461F
:105A5000DB68494620469847ECE7BD4205D02368FD
:105A60007A1B9B6829462046984722212046FFF74B
:105A7000AEFEBDE8F08700BF47840B0013B50446B7
:105A8000CDE90021FFF75EFF2046DDE90021FFF7A9
:105A900097FF02232046237102B010BD13B50446C0
:105AA000CDE90021FFF74EFF2046DDE90021FFF799
:105AB00087FF01232046237102B010BD8068036870
:105AC000DB6818477047084611B10B685B681847D8
:105AD0007047704770477047704738B504460D46A9
:105AE00000682E2102F0C7F92368C31A2B6023B186
:105AF000037803B1013023682060184638BD10B523
:105B00000C210446FEF7CBFA204610BD10B5042147
:105B10000446FEF7C4FA204610BD10B50421044621
:105B2000FEF7BDFA204610BDFEF71CBF08B502F017
:105B3000ACF9B0FA80F0400908BD704710B50C46CA
:105B400001F034FB844210D001F0CEFC844205D138
:105B500001F0CAFCBDE8104001F0C3BA2CB12368C3
:105B600020465B68BDE81040184710BD0B68036015
:105B70004B68436013B15A6801325A60704713B5DD
:105B800004460846019102F0B0F901990246204608
:105B900002B0BDE81040FFF781BF13B504460846C8
:105BA000019102F0A2F923680199DB6802462046C0
:105BB00002B0BDE81040184707B503688DF807101C
:105BC000DB6801220DF10701984703B05DF804FB83
:105BD0000EB403B503AB002153F8042B006A019304
:105BE00000F0F1FF02B05DF804EB03B070470A6803
:105BF00002604A6842600022C0E9022210B50261D8
:105C00008C688460CC68C4600C698A60CA60046176
:105C10000A6110BD2DE9F74FD0E900844FF0140A56
:105C200000930AFB04F4184BA41017465C43454646
:105C3000002C21DD66100AFB06F005EB00093A4650
:105C4000B9F804B0285801915F4528BF5A4602F0C0
:105C500054F9002801994FF001030BD15F4503D19E
:105C6000009A13703446E3E7FCD9A61B09F114052A
:105C7000013EF7E7F9DBF5E7A5EB08050248AD10B3
:105C8000684303B0BDE8F08FCDCCCCCC7FB50369C1
:105C9000057E019103B3F9B1002600F10C040396CF
:105CA00003A901A8FFF719FF0146A8B10DF10B03E5
:105CB000039A8DF80B602046FFF7ACFF9DF80B3080
:105CC00053B12368142404FB0034083434F9023C33
:105CD000002BA8BFDDB2E3E7284604B070BD00008A
:105CE00010B5094C2378BFF35B8FDB0709D420463E
:105CF000FEF7E4F928B12046FEF7E5F9034802F083
:105D00003DF8034810BD00BF9CE60320D35A0B00AA
:105D100064E5032010B5094C2378BFF35B8FDB07E4
:105D200009D42046FEF7CAF928B12046FEF7CBF980
:105D3000034802F023F8034810BD00BFA0E603208B
:105D40003B5B0B0068E5032038B500250446C0E93D
:105D50000055C0E904558560856140F8245FFEF771
:105D6000F1FDFFF7BDFFE061FFF7D4FF257320626F
:105D7000204638BD10B50A4C2378BFF35B8FDB0794
:105D80000CD42046FEF79AF940B10648FFF7DCFF35
:105D90002046FEF798F9044801F0F0FF014810BDD5
:105DA00098E60320A8E60320C9620B00024A0349D3
:105DB00003480023FEF726BFAD600B0039600B00DF
:105DC000B95F0B0000231A4619461846FEF71ABFA2
:105DD00037B58D6804466846FFF7C8FE6A4629460F
:105DE0002046FFF77BFD01A8FEF7A6FA204603B088
:105DF00030BD37B5CD6804466846FFF7B7FE6A4642
:105E000029462046FFF746FD01A8FEF795FA2046F1
:105E100003B030BD37B50D6904466846FFF7A6FEEE
:105E20006A4629462046FFF7DEFC01A8FEF784FA01
:105E3000204603B030BD000070B58AB00D46014663
:105E400004A8FFF7C5FF144E04A8FFF75FFDE8B1F3
:105E500004A96846FFF7CDFF02983146FFF766FEBA
:105E6000044610B12C1E18BF012401A8FEF764FAE5
:105E7000002CE9D004A96846FFF7CCFF6846FFF77D
:105E8000E8FC286001A8FEF757FADDE705A8FEF751
:105E900053FA0AB070BD00BF4D840B0037B50C46F5
:105EA00020461349154601F0F0FF50B901F07EF984
:105EB0004FF4165101F06AF903B0BDE8304001F02B
:105EC00075B90C49204601F0E0FF78B94FF416533C
:105ED00001A928460193FFF7AFFF01F005FB0199E7
:105EE00001F0FCF801F000FB03B030BD0020FBE73F
:105EF00052840B0059840B0070B5D0E9005314266E
:105F0000044606FB0356AE4205D005F10800FFF734
:105F1000F3FF1435F7E72068FEF748FF204670BD11
:105F200010B504460C30FFF7E7FF2046FEF7BAFF36
:105F3000204610BD10B5044B044640F8043BFFF763
:105F4000EFFF204610BD00BF3C830B0010B5044698
:105F5000FFF7F0FF20462421FEF7A1F8204610BDF0
:105F600010B5034B03600446FFF7E4FF204610BD65
:105F7000F4840B0010B50446FFF7F2FF20462421FD
:105F8000FEF78DF8204610BD0022C0E9002210B5B2
:105F900082600C6804604C6844608C680A604A60E7
:105FA00084608A6010BD10B5036804461868FEF767
:105FB000E1FC204610BD00002DE9F04F87B080467F
:105FC00003931C4B5B68C3F30803894616466BB901
:105FD000FFF7D0FE044600F12403406A0593FFF763
:105FE000A3FD237B2BB105A8FFF7DDFF07B0BDE8BC
:105FF000F08F01232373D4E900535FFA89F905EB8D
:10600000830AAA4512D055F8047B3146381DFFF7A4
:106010003DFE8145F5D33B68039A0092D3F808B062
:106020004A46334641463846D847EAE700232373B9
:10603000D9E700BF00ED00E02DE9F74F9B461A4B72
:106040005B68C3F308038046894616466BB9FFF7C1
:1060500091FE044600F12403406A0193FFF764FDBA
:10606000237B2BB101A8FFF79EFF03B0BDE8F08FA3
:1060700001232373D4E90053F6B205EB830A554597
:106080000ED055F8047B5946381DFFF7FFFD8642B8
:10609000F5D33B684A46DB68414638469847EEE709
:1060A00000232373DEE700BF00ED00E02DE9F3419C
:1060B000164B5B68C3F3080305460F461BBBFFF78F
:1060C00059FE00F124030446406A0193FFF72CFDBA
:1060D000D4E90063462406EB8308B04509D101A842
:1060E000FFF761FFA542B4BF0020012002B0BDE868
:1060F000F08156F8040B39460430FFF7C7FD84429F
:10610000A8BF0446E9E70020F0E700BF00ED00E08B
:10611000F8B5D0E901539D4204460E460DDB6F1CD5
:10612000002F006804DDB900FEF748FE18B9F8BD7D
:10613000FEF73CFE00202060A7602768626807EB3E
:1061400085019200A2EB8502081D01F037FE47F899
:1061500025606368013363600120E8E737B500F12B
:1061600024030446406A01930D46FFF7DDFCD4E9A1
:10617000003203EB8202934219460BD00968A94210
:1061800003F10403F7D101A8FFF70DFF002528460E
:1061900003B030BD29462046FFF7BAFF0546002868
:1061A000F1D06368012B01D1FFF700FE01A8FFF7D2
:1061B000FAFEECE770B50446D0E900020B4600EBAE
:1061C000820282420FD001461D6851F8046BAE4234
:1061D00007D1521A01F0F2FD6368013B63600120B0
:1061E00070BD0846EDE70020FAE71FB500F1240373
:1061F0000446406A01910393FFF796FC01A92046EB
:10620000FFF7D8FF18B163680BB9FFF7DBFD03A8F0
:10621000FFF7C9FE04B010BD70B5D0E904561823CD
:10622000044603FB0656AE4215D005F11001204688
:10623000FFF7C0FF63680BB9FFF7C4FDE069296988
:106240000368DB689847696919B1206A0368DB68ED
:1062500098471835E7E7D4E90453182606FB035698
:10626000AE4204D0284600F0D5FD1835F8E70023EB
:10627000636170BD73B50446FFF7A4FD04F1240308
:10628000606A0193FFF750FC2046FFF7C5FF01A8A5
:10629000FFF789FE606A08B1FEF75CFBD4E904539E
:1062A000182606FB0356AE4204D0284600F0B2FD85
:1062B0001835F8E72069FEF779FD2068FEF776FDCE
:1062C000204602B070BD00000148FFF7D3BF00BFF9
:1062D000A8E603208842F8B504460D46164615D9AF
:1062E000904214D2A2F11406751AA1F114072C449D
:1062F000B7421AD01CB131462046FFF778FC06F1B0
:106300000800FFF7F9FD143E143CF1E70DD0B5424B
:106310000BD01CB129462046FFF769FC05F10800A7
:10632000FFF7EAFD14351434F1E7F8BD8842F8B5FB
:1063300004460D46164614D9904213D2A2F1100617
:10634000751AA1F110072C44B74218D01CB1314680
:10635000204600F0DBFD304600F05CFD103E103CB6
:10636000F2E70CD0B5420AD01CB12946204600F015
:10637000CDFD284600F04EFD10351034F2E7F8BD93
:1063800070B50E1E054611DD3001FEF707FD04460F
:1063900058B1D5E9001201EB0212FFF7C7FF2868D8
:1063A000FEF704FD2C60AE60012070BD0024F6E70E
:1063B0002DE9F04F904695B000230391D8F80410D2
:1063C0000A9346229942C0E90033C0E90233C0E98A
:1063D0000433CDE908330446027623DCD8E90057BC
:1063E000142303FB0757AF423BD029460BA800F00C
:1063F0008DFD0BA90FA8099E00F088FDDDE90913AA
:1064000099421BDA089B099A03EB061603EB02126A
:10641000314606F11000FFF789FFEEB9099B013301
:10642000099311E008A8FFF7ABFF0028D6D108A810
:10643000FEF738FD204615B0BDE8F08F013108A801
:10644000FFF79EFF0028DDD10FA800F0E3FC0BA8AA
:1064500000F0E0FC1435C6E70FA9304600F056FD09
:10646000DCE70026CDE90B660D964FF01409DDE957
:1064700008239E427CDA3301D35806930BB90136C8
:10648000F5E70023079309FB06F302930BAD07A979
:1064900006A8FFF722FB82460028F0D04FF0000349
:1064A0008DF817300146079A0DF117032846FFF7BC
:1064B000B1FB9DF817700190002F4AD1BDF81C3038
:1064C000ADF84030CDE911774FF6FF73CDF83CA021
:1064D000ADF842301397D5E90132934217DB03F14F
:1064E000010ABAF1000F30DD09FB0AF0FEF756FC95
:1064F000834660B3D5E9001209FB0212FFF7EAFEFA
:106500002868FEF753FCC5F800B0C5F808A02B6852
:10651000019A09FB023A6A68514609FB02320AF104
:106520001400FFF7D7FEBAF1000F03D00FA95046B1
:10653000FFF75DFB6B6801336B6011A8FFF7DCFCB4
:106540003FB10BA8FFF7D8FC71E7BB46D8E701279E
:10655000F3E7019B2D6809FB0355069B1B782BB9BC
:10656000D8F80030029A13441B7CEB8008358EE784
:106570002168226062686360A36809920A9A0A939C
:10658000E368A2600B9A0B932369E2600C9A0C9368
:10659000636922610D9A0D93039B089162612376D2
:1065A000CFE70000F0B5044687B00D4626461946F1
:1065B00068461746FEF739F90B4B46F8043B694627
:1065C00003A8FEF732F903AA39463046FFF7F0FE7A
:1065D00003A8FEF7E9F86846FEF7E6F8034B2360E8
:1065E0002046256207B0F0BD3C830B00DC840B0025
:1065F000F0B50F4685B01D490A9C384616461D4623
:1066000001F043FCC0B9A4B1294601A8FFF7BCFCC6
:106610001749242000F08CFF054630B101AB32460B
:106620002146FFF7BFFF134B2B6001A8FEF7BCF814
:106630002C46204605B0F0BD0F49384601F025FC38
:1066400090B9002CF5D0294601A8FFF79DFC084918
:10665000242000F06DFF05460028E6D001AB32464D
:106660002146FFF79FFFE0E70024E2E761840B008B
:10667000EC850B00F4840B0065840B00014B024A8F
:106680001A607047A4E6032076840B002DE9F047DA
:10669000089DD0F8209004460E461746984600F014
:1066A00085FD81454CD02B79190704D56A69544979
:1066B0002046FFF78DFAB8F1000F0DD05B21204680
:1066C000FFF77AFA41462046FFF767FA23684D49FB
:1066D000DB680222204698472B79DA0723D5D5F8C4
:1066E00008802F21404601F01CFC08B100F1010890
:1066F00041462046FFF751FA2B799B0708D53A21EE
:106700002046FFF759FAEA683F492046FFF760FA4A
:106710002A79236812F0040FDB6814BF3B493C4917
:106720000222204698472B7958071DD529690B4628
:106730001A4613F8010B60B1202808D11946F7E773
:10674000344800F066F90028ADD0BDE8F08728286D
:10675000EED12368521ADB682046984723682E49F9
:10676000DB6804222046984700213846FEF742FAAB
:1067700001462046FFF711FA23682549DB6802220B
:10678000204698471EB131462046FFF706FA2B797E
:1067900013F0300F2CD023682049DB6802222046FA
:1067A00098472B79D9060AD523681D49DB6807224B
:1067B00020469847AA691B492046FFF709FA2B791A
:1067C0009A0611D5DB0605D523681049DB6802223D
:1067D0002046984723681449DB6820460A229847D8
:1067E000E9692046FFF7D9F95D212046FFF7E4F972
:1067F00023680E49DB6820460222BDE8F0471847AF
:106800007A840B0081840B004C820B0084840B0083
:1068100089840B00D0E6032087840B008C840B0056
:106820008F840B0096820B0097840B00A2840B00D0
:106830002DE9F04385B0D0F820900C9C05460F461A
:1068400090461E4600F0B2FC814505D1494800F053
:10685000E0F8002840F08A802B6A474A01924FF006
:10686000000901A803938DF80890FFF778F84946CE
:106870004046FEF7BFF941498046012201A8FFF7D3
:10688000FDF84146FFF77BF93FB13D49012201A8E0
:10689000FFF7F4F83946FFF772F93EB139490122A2
:1068A00001A8FFF7EBF83146FFF769F92379DF0715
:1068B0000ED5A6682F21304601F033FB00B1461CEF
:1068C0003149012201A8FFF7D9F83146FFF757F9FE
:1068D00023799E0707D52D49022201A8FFF7CEF89C
:1068E000E168FFF749F82379580714D5266933463C
:1068F0001F4613F8012B2AB1202A01D11E46F7E7C3
:10690000282AF5D12249022201A8FFF7B7F8BA1BBD
:106910003146FFF7C3F82379190707D51D4901222E
:1069200001A8FFF7ABF86169FFF738F82379DA06B9
:1069300008D5042218490DEB0200FFF79FF8A16962
:10694000FFF71AF823799B0607D51449062201A8F8
:10695000FFF794F8E169FFF712F901A8FEF7E9FFE4
:10696000286A0F4903680222DB68984705B0BDE832
:10697000F08300BFD0E60320C4840B0057840B00D3
:10698000A5840B005B860B0035820B00A7840B00EF
:10699000AA840B00E3820B00AD840B00B2840B00D1
:1069A000A2840B00002340681A46FEF797B940689E
:1069B00000220221FEF7A2B9002240681146FEF72C
:1069C00095B9002240681146FEF7A0B9002340683F
:1069D0001A461946FEF7A2B9002340681A4619461E
:1069E000FEF7A4B940680021FEF7C8B9406800214D
:1069F000FEF7CCB94068002281F00101FEF79EB994
:106A000040680022FEF7AAB9002240681146FEF74E
:106A1000ADB9002240681146FEF798B92DE9F04360
:106A200095B014460D460746FEF732FE00211C22A3
:106A30000DA8009101F0DCF940230C9320466B4631
:106A40000CAA0021FEF71EF8044600284BD102468E
:106A500001216868FEF75AF90221804622466868DB
:106A6000FEF754F9009E81462146002E3BD00029B6
:106A700039D17368022B03D00A2B11D0F669F4E7E1
:106A8000B8F1000FFAD0716906A8043107ADFEF71E
:106A90002DFE0FCD3C1D0FC42B6823704146EDE742
:106AA000B9F1000FEAD07469102201A801F0A0F931
:106AB00006238DF8143001AD04F10803183418686A
:106AC00059682A4603C20833A3421546F7D101A9E3
:106AD00006A807ADFEF7EAFD0FCD3C1D0FC42B68DD
:106AE00023704946CAE70098FDF7C4FF384615B041
:106AF000BDE8F083024B034A1A6000225A607047D7
:106B0000D0E603203C850B00F8B506460D468F18ED
:106B10000024BD420CD0336815F8011B9B68304639
:106B20009847031E01DB1C44F3E7002C08BF1C46FA
:106B30002046F8BD13B50446084659B1019101F04D
:106B4000D4F923680199DB680246204602B0BDE80B
:106B50001040184702B010BD03689B68184738B54D
:106B60000D210546FFF7F8FF0A2104462846FFF7E6
:106B7000F3FF204438BD38B50546FFF7DBFF044678
:106B80002846FFF7ECFF204438BD30B58BB000231A
:106B9000012A8DF8243098BF0A2209AC0D46B1FBBA
:106BA000F2F101FB125303F0FF03092B94BF3033C2
:106BB0003733DBB2AA4204F8013DEFD92146FFF793
:106BC000B9FF0BB030BD2DE9F04186B000AF0546EE
:106BD0000E46381D142114463B60FEF7FFF81328BB
:106BE0000ED8391D2846FFF7A5FF04461EB12846DA
:106BF000FFF7B5FF044420461837BD46BDE8F081D5
:106C000000F1080323F00703E846ADEB030D22462D
:106C1000411C3B686846FEF7E1F869462846FFF7E5
:106C200089FF0446C546E1E7014B00229A607047A0
:106C3000D8E6032010B5044608462170FDF72AFF68
:106C400000236360204610BD10B50446FDF7B2FE78
:106C5000E060236820465B699847002808DAFDF762
:106C6000A9FEE368C01AA3689842F2D34FF0FF3040
:106C700010BD10B50446FDF79DFEE0602368204678
:106C80009B699847002808DAFDF794FEE368C01A6C
:106C9000A3689842F2D34FF0FF3010BD10B5044600
:106CA0002046FFF7E6FF00280ADB2D2808D0A0F1D8
:106CB0003003092B04D9236820465B699847EFE726
:106CC00010BD2DE9F04105460E46FFF7E7FF00280D
:106CD0004FF000041CDB27464FF00A08864208D01C
:106CE0002D2818D0A0F13003092B02D808FB04048A
:106CF000303C2B6828465B6998472846FFF7B9FF68
:106D0000A0F13003092BE9D98642F2D007B16442E1
:106D10002046BDE8F0810127EBE70121FFF7D1BF55
:106D20002DE9F84F2DED028B05460E46FFF7B6FF15
:106D3000002847DB0FF29C09D9E900890024B7EE4F
:106D4000008A2746A2464FF00A0B864217D02D280C
:106D500033D02E2834D0A0F13003092B0FD80BFBF1
:106D60000404303C5FB118EE100A00F04DFD4246BD
:106D70004B4600F0A1FD00F0B1FF08EE100A2B68B1
:106D800028465B6998472846FFF773FFA0F1300358
:106D9000092BDAD92E28D8D08642F0D0BAF1000FCC
:106DA00000D0644207EE904AB8EEE70A0FB120EE39
:106DB000080ABDEC028BBDE8F88F4FF0010ADEE750
:106DC0000127DCE79FED020AF3E700BFAFF3008085
:106DD000000000009A9999999999B93F0121FFF70C
:106DE0009FBF000070B50D4609490446164600F0E5
:106DF0005CF82846FFF728FF002806DB864204D00F
:106E0000C1B2204600F0BEF8F3E7204670BD00BFD7
:106E1000A4840B0010B504460068FDF7C7FF2046A8
:106E200010BD10B50446006808B1FDF7BFFF002390
:106E3000C4E90133236010BD38B504460D4600682F
:106E40000131FDF7BBFF10B1C4E90005012038BDD9
:106E500010B50368044623B143688B4201D3012077
:106E600010BD2046FFF7E8FF0028F9D0A368002BEB
:106E7000F5D122681370F2E737B50D46114601923D
:106E80000446FFF7E5FF019A28B92046FFF7C9FF3E
:106E9000204603B030BDA2602946206800F080FF84
:106EA0002268A3680021D154F2E7002313B5C0E99A
:106EB000003304468360037341B10846019101F039
:106EC00014F8019902462046FFF7D6FF204602B08B
:106ED00010BD38B5054600680C4668B16A688B6815
:106EE0009A4207D3096800F0DAFFA368AB60002379
:106EF000A36038BDFDF75AFF23682B6063686B60A1
:106F0000A368AB600023C4E90033F1E710B50023A8
:106F1000C0E90033044683600373FFF7DAFF2046BD
:106F200010BD884210B5044605D00B682BB18A68A5
:106F30001946FFF7A1FF204610BDFFF772FFFAE7E1
:106F400010B500230446C0E9003383600373FFF7E4
:106F5000E8FF204610BD70B505460E4609B9002071
:106F600070BD6AB1846814442146FFF771FF0028A0
:106F7000F5D02868AB683146184400F090FFAC604B
:106F80000120EDE707B500238DF80410012201A9C7
:106F90008DF80530FFF7DFFF03B05DF804FB0068F4
:106FA00008B100F0F1BE70470EB470B587B00BADFC
:106FB000044655F8042B01922B46052104A803959D
:106FC000FDF70CFF0B4906462046FFF76EFF3146E2
:106FD0002046FFF73DFF206830B1019A03952B460C
:106FE000711CFDF7FBFEA060204607B0BDE87040B5
:106FF00003B07047A4840B00054B02221A60054BB6
:10700000054A9A600020C3E90000FDF703BE00BFF7
:10701000F4E60320E8E603200000FFFF024B1A68B5
:10702000024B1A60704700BF6CE50320F8E60320AE
:1070300070474174704708B5007CFDF773FD20EA86
:10704000E07008BD08B5007CFDF744FD20EAE07063
:1070500008BD08B5007CFDF74DFD40EAE07008BDB5
:1070600008B5007CFDF73EFD40EAE07008BD007CFD
:10707000FDF748BD37B5457C04462DB1207C03B0F3
:10708000BDE83040FDF71EBD007C0191FDF74AFDD3
:1070900000280199F2DC284603B030BD10B5142158
:1070A0000446FCF7FCFF204610BD000010B54FF46D
:1070B0007A730446084611460022C4E90123044BB2
:1070C0002360012320746374FDF73CFD204610BD4E
:1070D00094850B00007C0023FDF72CBD0022FFF7F8
:1070E000F9BF007CFDF7E6BC4174704770477047FC
:1070F00008B50021007CFDF755FD40EAE07008BDB1
:1071000008B50121007CFDF74DFD40EAE07008BDA7
:1071100008B5007CFDF73EFD20EAE07008BD08B52B
:10712000007CFDF72FFD20EAE07008BD13B5044692
:10713000007C0191FDF72EFD0028019901DC607CA7
:1071400020B1207CFDF736FD20EAE07002B010BDD2
:10715000007CFDF737BD10B514210446FCF79FFFF6
:10716000204610BD10B54FF47A730446084600213E
:10717000C4E90113044B2360012320746374114696
:10718000FDF7E8FC204610BDC4850B00007C002202
:10719000FDF7E8BC007CFDF7EDBC10B514220446F9
:1071A000002100F025FE204610BD000010B50F4C58
:1071B00088B003A8FFF7F1FF2178BFF35B8F11F0D0
:1071C00001010FD120460191FCF778FF019948B1E8
:1071D00003AA0748FFF7C6FF2046FCF774FF0548DF
:1071E00000F0CCFD024808B010BD00BFFCE6032053
:1071F00000E70320ED700B00014B1860704700BFE3
:1072000070E5032008B50B4B43B1FFF7CFFF0368D0
:107210001B699847002801DDAFF30080064B43B19E
:1072200000F062F903681B699847002801DDAFF39D
:10723000008008BD000000000000000008B5FFF756
:10724000E1FFFDF7B7FB014B186008BD28E70320FD
:107250000548064A064908B5121A00F0A1FD054B7B
:10726000054A1A6008BD00BF00F4032004F403209F
:10727000B4870B0000F403201E1C279A07B50023D7
:1072800000931A466FF07701FDF7F6FC03B05DF846
:1072900004FB000007B543880A2B08D0502B0BD104
:1072A000094B1B684BB103B05DF804EB1847FFF7BF
:1072B000E5FF03B05DF804FB002300931A466FF06E
:1072C0007701FDF7D9FCF4E718E7032010B5124861
:1072D0000021FDF7ABFD114B1A68114B9A42114B7F
:1072E0000CBF012200221A7001D0FFF7B1FFFDF799
:1072F00051FB044600F084FD0B4B13B12046AFF365
:10730000008000210848FDF7E1FCBDE81040074877
:107310000021FDF7A7BC00BFF9710B0000F40320AA
:107320001E1C279A14E703200000000095720B0032
:1073300008B5024B1B681B68019308BD5C02030083
:1073400008B5024B1B685B68019308BD5C02030033
:1073500008B5024B1B689B68019308BD5C020300E3
:10736000232813B502D9002002B010BDA0F10B03F1
:10737000022B1AD8174C2178BFF35B8F11F0010153
:107380000BD120460191FCF799FE019928B11248D2
:10739000FFF750FC2046FCF796FE0F4B1878FDF7E0
:1073A00081FB0028DFD10120DEE7012809D800F0A9
:1073B0005BF80021007CFDF745FB80F00100C0B2C6
:1073C000D2E709380128EED800F08EF8007CFDF7EE
:1073D000A1FBF2E71CE7032020E70320232838B5B0
:1073E00004460D460AD8FF2908D0FFF7B9FF28B197
:1073F00029462046BDE83840FDF7E4BA38BD38B527
:1074000004460D46FDF7E6FAFF2810D0062804D8FA
:107410004D2323FA00F0C30709D42046FFF7A0FF4D
:1074200028B129462046BDE83840FDF7DBBA38BD13
:107430007047000038B50A4B0360012304464361DE
:107440000849202000F076F8202560600549A560F5
:10745000284600F06FF8C4E90305204638BD00BF98
:1074600018000100EC850B0030B50E4D2978BFF3F4
:107470005B8F11F0010487B011D12846FCF71EFE86
:1074800068B16846FFF7D6FF6A4621460648FEF710
:10749000A7F82846FCF717FE044800F06FFC0248E6
:1074A00007B030BD2CE7032030E7032031740B0018
:1074B0007047000038B5044614252A46002100F024
:1074C00097FC25804025074925812846258200F024
:1074D00031F804496060284600F02CF8E06020464E
:1074E00038BD00BFEC850B0030B50E4D2978BFF3D9
:1074F0005B8F11F0010487B011D12846FCF7DEFD47
:1075000068B101A8FFF7D6FF01AA21460648FFF798
:10751000CDFD2846FCF7D7FD044800F02FFC0248BB
:1075200007B030BD44E7032048E70320B1740B00E7
:10753000FCF7B1BDFCF7B1BD08B5FDF757FC000085
:1075400081F0004102E000BF83F0004330B54FEA14
:1075500041044FEA430594EA050F08BF90EA020F81
:107560001FBF54EA000C55EA020C7FEA645C7FEA14
:10757000655C00F0E2804FEA5454D4EB5555B8BF37
:107580006D420CDD2C4480EA020281EA030382EAA8
:10759000000083EA010180EA020281EA0303362D3A
:1075A00088BF30BD11F0004F4FEA01314FF4801C0D
:1075B0004CEA113102D0404261EB410113F0004F1F
:1075C0004FEA03334CEA133302D0524263EB4303D6
:1075D00094EA050F00F0A780A4F10104D5F1200E74
:1075E0000DDB02FA0EFC22FA05F2801841F10001CF
:1075F00003FA0EF2801843FA05F359410EE0A5F1A3
:1076000020050EF1200E012A03FA0EFC28BF4CF0D3
:10761000020C43FA05F3C01851EBE37101F0004589
:1076200007D54FF0000EDCF1000C7EEB00006EEB96
:107630000101B1F5801F1BD3B1F5001F0CD3490820
:107640005FEA30004FEA3C0C04F101044FEA445277
:1076500012F5800F80F09A80BCF1004F08BF5FEAFE
:10766000500C50F1000041EB045141EA050130BDDE
:107670005FEA4C0C404141EB0101013C28BFB1F5F0
:10768000801FE9D291F0000F04BF01460020B1FA3B
:1076900081F308BF2033A3F10B03B3F120020CDA0E
:1076A0000C3208DD02F1140CC2F10C0201FA0CF0EC
:1076B00021FA02F10CE002F11402D8BFC2F1200C51
:1076C00001FA02F120FA0CFCDCBF41EA0C01904007
:1076D000E41AA2BF01EB0451294330BD6FEA040450
:1076E0001F3C1CDA0C340EDC04F11404C4F120023B
:1076F00020FA04F001FA02F340EA030021FA04F34D
:1077000045EA030130BDC4F10C04C4F1200220FAA3
:1077100002F001FA04F340EA0300294630BD21FAE1
:1077200004F0294630BD94F0000F83F4801306BFA7
:1077300081F480110134013D4EE77FEA645C18BF9B
:107740007FEA655C29D094EA050F08BF90EA020F32
:1077500005D054EA000C04BF1946104630BD91EA2A
:10776000030F1EBF0021002030BD5FEA545C05D12D
:107770004000494128BF41F0004130BD14F580046C
:107780003CBF01F5801130BD01F0004545F0FE41E0
:1077900041F470014FF0000030BD7FEA645C1ABF15
:1077A000194610467FEA655C1CBF0B46024650EA4C
:1077B000013406BF52EA033591EA030F41F4002178
:1077C00030BD00BF90F0000F04BF0021704730B5FE
:1077D0004FF4806404F132044FF000054FF00001D3
:1077E00050E700BF90F0000F04BF0021704730B594
:1077F0004FF4806404F1320410F0004548BF404269
:107800004FF000013EE700BF42004FEAE2014FEABD
:1078100031014FEA02701FBF12F07F4393F07F4F98
:1078200081F06051704732F07F4208BF704793F09B
:107830007F4F04BF41F40021704730B54FF46074AE
:1078400001F0004521F000411CE700BF50EA0102B1
:1078500008BF704730B54FF000050AE050EA01025A
:1078600008BF704730B511F0004502D5404261EBCA
:1078700041014FF4806404F132045FEA915C3FF40B
:10788000D8AE4FF003025FEADC0C18BF03325FEAA8
:10789000DC0C18BF033202EBDC02C2F1200300FA59
:1078A00003FC20FA02F001FA03FE40EA0E0021FA7E
:1078B00002F11444BDE600BF70B54FF0FF0C4CF46C
:1078C000E06C1CEA11541DBF1CEA135594EA0C0F1E
:1078D00095EA0C0F00F0DEF82C4481EA030621EA59
:1078E0004C5123EA4C5350EA013518BF52EA033594
:1078F00041F4801143F4801338D0A0FB02CE4FF046
:107900000005E1FB02E506F00042E0FB03E54FF075
:107910000006E1FB03569CF0000F18BF4EF0010E6D
:10792000A4F1FF04B6F5007F64F5407404D25FEA69
:107930004E0E6D4146EB060642EAC62141EA55511C
:107940004FEAC52040EA5E504FEACE2EB4F1FD0C5E
:1079500088BFBCF5E06F1ED8BEF1004F08BF5FEADC
:10796000500E50F1000041EB045170BD06F000468E
:1079700046EA010140EA020081EA0301B4EB5C043B
:10798000C2BFD4EB0C0541EA045170BD41F4801133
:107990004FF0000E013C00F3AB8014F1360FDEBF58
:1079A000002001F0004170BDC4F10004203C35DA34
:1079B0000C341BDC04F11404C4F1200500FA05F3B7
:1079C00020FA04F001FA05F240EA020001F0004258
:1079D00021F0004110EBD37021FA04F642EB0601CE
:1079E0005EEA430E08BF20EAD37070BDC4F10C04F8
:1079F000C4F1200500FA04F320FA05F001FA04F2BC
:107A000040EA020001F0004110EBD37041F10001A7
:107A10005EEA430E08BF20EAD37070BDC4F12005B2
:107A200000FA05F24EEA020E20FA04F301FA05F21A
:107A300043EA020321FA04F001F0004121FA04F2C2
:107A400020EA020000EBD3705EEA430E08BF20EA92
:107A5000D37070BD94F0000F0FD101F000464000CC
:107A600041EB010111F4801F08BF013CF7D041EA4E
:107A7000060195F0000F18BF704703F00046520052
:107A800043EB030313F4801F08BF013DF7D043EA23
:107A90000603704794EA0C0F0CEA135518BF95EAD9
:107AA0000C0F0CD050EA410618BF52EA4306D1D160
:107AB00081EA030101F000414FF0000070BD50EA7F
:107AC000410606BF1046194652EA430619D094EA09
:107AD0000C0F02D150EA013613D195EA0C0F05D1F3
:107AE00052EA03361CBF104619460AD181EA030147
:107AF00001F0004141F0FE4141F470014FF00000FF
:107B000070BD41F0FE4141F4780170BD70B54FF099
:107B1000FF0C4CF4E06C1CEA11541DBF1CEA135519
:107B200094EA0C0F95EA0C0F00F0A7F8A4EB0504FB
:107B300081EA030E52EA03354FEA013100F08880F2
:107B40004FEA03334FF0805545EA131343EA1263BB
:107B50004FEA022245EA111545EA10654FEA002670
:107B60000EF000419D4208BF964244F1FD0404F529
:107B7000407402D25B084FEA3202B61A65EB030585
:107B80005B084FEA32024FF480104FF4002CB6EB42
:107B9000020E75EB030E22BFB61A754640EA0C00C2
:107BA0005B084FEA3202B6EB020E75EB030E22BF02
:107BB000B61A754640EA5C005B084FEA3202B6EB43
:107BC000020E75EB030E22BFB61A754640EA9C0002
:107BD0005B084FEA3202B6EB020E75EB030E22BFD2
:107BE000B61A754640EADC0055EA060E18D04FEA90
:107BF000051545EA16754FEA06164FEAC30343EA30
:107C000052734FEAC2025FEA1C1CC0D111F4801FFC
:107C10000BD141EA00014FF000004FF0004CB6E7F5
:107C200011F4801F04BF01430020B4F1FD0C88BF94
:107C3000BCF5E06F3FF6AFAEB5EB030C04BFB6EB9F
:107C4000020C5FEA500C50F1000041EB045170BD92
:107C50000EF0004E4EEA113114EB5C04C2BFD4EBBF
:107C60000C0541EA045170BD41F480114FF0000E43
:107C7000013C90E645EA060E8DE60CEA135594EABF
:107C80000C0F08BF95EA0C0F3FF43BAF94EA0C0FC2
:107C90000AD150EA01347FF434AF95EA0C0F7FF437
:107CA00025AF104619462CE795EA0C0F06D152EA8B
:107CB00003353FF4FDAE1046194622E750EA41066F
:107CC00018BF52EA43067FF4C5AE50EA41047FF480
:107CD0000DAF52EA43057FF4EBAE12E74FEA4102E3
:107CE000B2F1E04324BFB3F5001CDCF1FE5C0DD91A
:107CF00001F0004C4FEAC0024CEA5070B2F1004F64
:107D000040EB830008BF20F00100704711F0804F66
:107D100021D113F13872BCBF01F00040704741F42B
:107D200080114FEA5252C2F11802C2F1200C10FA2F
:107D30000CF320FA02F018BF40F001004FEAC12313
:107D40004FEAD32303FA0CFC40EA0C0023FA02F3B7
:107D50004FEA4303CCE77FEA625307D150EA01338D
:107D60001EBF4FF0FE4040F44000704701F000405D
:107D700040F0FE4040F40000704700BF0023014681
:107D80001A46184600F06EB90A22002100F060B9C8
:107D9000024B1844407800F0970070475D860B0056
:107DA0000A44914200F1FF3300D1704710B511F839
:107DB000014B03F8014F9142F9D110BD884210B533
:107DC00001EB020402D98442234607D8431EA14294
:107DD00008D011F8012B03F8012FF8E702440146FF
:107DE0008A4200D110BD13F8014D02F8014DF7E7AA
:107DF00002440346934200D1704703F8011BF9E7A0
:107E000038B5104B1D68AB6B0446B3B91820FCF7AE
:107E1000C5FF0246A86320B90B4B0C484221FCF772
:107E2000FDFF0B490B4BC0E900130B4B83600B2389
:107E3000838100210120C2E90401AB6B00221C6197
:107E40005A6138BD70E50320ED850B0004860B00F8
:107E50000E33CDAB34126DE6ECDE0500C9B203463D
:107E600010F8012B1AB18A42F9D11846704700293F
:107E700018BF0023F9E710B50446FFF7EFFF18B964
:107E8000204600F032F8204410BD10F8012B11F804
:107E9000013B012A28BF9A42F7D0D01A7047034607
:107EA00011F8012B03F8012B002AF9D170470000CB
:107EB000024B0146186800F003B800BF70E50320CC
:107EC00037B5044608460D4600F00FF8421C11462F
:107ED00020460192FCF792FF044618B1019A294608
:107EE000FFF75EFF204603B030BD034613F8012BB9
:107EF000002AFBD1181A0138704710B57AB1034631
:107F00000139841813F8010B11F8012F904201D1A7
:107F1000A34201D1801A10BD0028F3D1FAE7104620
:107F2000F9E738B503460C4669B9BDE83840FFF7B4
:107F300095BF431C054621461846FFF78FFF0028D2
:107F4000F7D1284638BD0025F5E70000012B2DE9C3
:107F5000F04701D0242B06D9FCF758FF1623036005
:107F60000020BDE8F087DFF8E4C00D462E4615F886
:107F7000014B14F80C7017F00807F7D12D2C32D1F3
:107F80002C780127B51C002B5BD0102B09D1302C8D
:107F900007D12C7804F0DF04582C4DD16C781023D5
:107FA000023507F1004808F1FF384FF0000CB8FB2C
:107FB000F3F9664603FB198AA4F1300EBEF1090FEE
:107FC00016D87446A34224DDBCF1000F1EDBB14578
:107FD0001CD301D1A24519DB06FB03464FF0010C6F
:107FE00015F8014BE8E72B2C04BF2C78B51CCAE729
:107FF000A4F1410EBEF1190F01D8373CE2E7A4F11C
:10800000610EBEF1190F04D8573CDBE74FF0FF3C7F
:10801000E6E7BCF1000F05DA22230360464642B9C9
:1080200030469EE707B17642002AF9D0BCF1000F36
:1080300000D0691E1160F3E73024002BB1D1082372
:10804000AFE7302CA5D00A23ABE700BF5E860B005C
:1080500013460A46014602480068FFF777BF00BF93
:1080600070E503202DE9F843DFF8B8800646D8F81C
:1080700000001F460D46914600F056F8254B1C683F
:1080800034B9254C1C60254B13B11B68C4F88830EB
:1080900063681F2B07DDD8F8000000F047F84FF0A9
:1080A000FF30BDE8F8834EB3D4F8880088B91C4B84
:1080B00023B9D8F8000000F038F8F0E74FF48470E6
:1080C000FCF76CFE0028F4D00023C0E94033C4F86C
:1080D0008800636840F8239001229A4000EB8301F6
:1080E000D0F800311343C0F80031022EC1F880707F
:1080F00002BFD0F804311343C0F804316368D8F8E4
:1081000000005A1C0233626044F8235000F00EF85D
:108110000020C6E7E8E703205CE70320000000003A
:108120009D4D0B00D4E50320704770477047000059
:1081300021400B005D400B0085400B0089400B0087
:108140000000000043616C6C206F6E2070757265DA
:10815000207669727475616C0056656869636C6538
:1081600020446574656374656421205B6D61675F9D
:10817000524D533A2025342E32662C206D61675FB4
:10818000783A2025342E32662C206D61675F793A6B
:108190002025342E32662C206D61675F7A3A2025C7
:1081A000342E32665D0056656869636C6520636FC6
:1081B000756E7465643A2025692C205B6D61675F7C
:1081C000524D533A2025342E32662C206D61675F64
:1081D000783A2025342E32662C206D61675F793A1B
:1081E0002025342E32662C206D61675F7A3A202577
:1081F000342E32665D0056656869636C6500434FD6
:108200004E463A424153005468726573686F6C641D
:108210003A2025642C205265736574205468726579
:1082200073686F6C643A2025642C20426173656C1E
:10823000696E6520256600496E697469616C697AAA
:10824000656400434F4E463A544852202564004E20
:108250006577205468726573686F6C642053657429
:1082600020746F2025690055706461746500434F68
:108270004E463A524553202564004E65772052659C
:10828000736574205468726573686F6C64205365FD
:108290007420746F3A20256900000000000000007F
:1082A00000000000F1410B00F3410B00496E6974BE
:1082B00069616C697A696E67205061727469636C78
:1082C000652066756E6374696F6E7320616E6420DD
:1082D0007661726961626C6573004C6173742043EE
:1082E0006F756E7400546F74616C205665686963B5
:1082F0006C657300536574207468652054687265FA
:1083000073686F6C640053657420746865205265EF
:10831000736574205468726573686F6C640052658D
:1083200063616C69627261746520426173656C6936
:108330006E6500000000000000000000000000006A
:1083400000000000A5400B0009450B0000000000E4
:108350000000000051460B0085460B008D660B00A7
:108360000B450B00000000000000000013450B004F
:1083700015450B0000000000000000005B4F0B00E3
:10838000514F0B00474F0B00FD4E0B003B4F0B00B6
:108390002F4F0B00E5690B00ED690B00234F0B001D
:1083A0001B4F0B00114F0B00074F0B001D6A0B00FA
:1083B0000000000000000000954F0B009B4F0B00D9
:1083C000D94F0B00A94F0B00974F0B000000000086
:1083D000000000006B550B0061550B0057550B005A
:1083E0004D550B0041550B0035550B00E5690B0051
:1083F000ED690B0029550B0021550B0017550B009B
:108400000D550B001D6A0B0000000000000000006D
:1084100089550B00D3550B00AB550B008B550B004A
:10842000B3550B00BB550B00C3550B00CB550B00D0
:1084300000000000000000002D560B001D560B0030
:108440001F560B0025750075253034780062617564
:10845000640053657269616C0053657269616C31C7
:10846000004A534F4E53747265616D4C6F6748619B
:108470006E646C657200617070002530313075205B
:10848000005D20002C200028293A2000205B00639A
:108490006F6465203D200064657461696C73203DE4
:1084A00020000D0A006D006C6E00666E00636F6444
:1084B000650064657461696C0000000000000000E4
:1084C00000000000D95A0B00FF5A0B00BD5A0B00E8
:1084D0003B570B000000000000000000355F0B0060
:1084E0004D5F0B008D660B000B450B00000000007C
:1084F00000000000615F0B00755F0B0031680B002E
:10850000C55A0B000000000000000000D75A0B0005
:108510000D5B0B00F1650B00C75A0B00000000005B
:1085200000000000D55A0B001B5B0B009D5E0B008A
:108530003D5B0B000000000000000000A5690B007F
:10854000AF690B00B9690B00C3690B00CD690B0063
:10855000D9690B00E5690B00ED690B00F5690B00AB
:10856000016A0B00096A0B00136A0B001D6A0B00FD
:1085700025592D256D2D25645425483A254D3A253C
:1085800053257A0061736374696D65000000000013
:108590000000000031700B009D700B0075700B0027
:1085A000096B0B0045700B0061700B0053700B00E2
:1085B0006F700B0033700B0037700B000000000071
:1085C00000000000EF700B0057710B002D710B00C5
:1085D000096B0B001F710B00F1700B0001710B0098
:1085E00051710B0011710B00E9700B0000524545F1
:1085F0004E54206D616C6C6F6320737563636565A9
:10860000646564002F746D702F6A656E6B696E739C
:108610002D4743432D31302D706970656C696E654F
:108620002D34385F32303230313132345F313630D0
:10863000363138303633392F7372632F6E65776C6D
:1086400069622F6E65776C69622F6C6962632F7344
:1086500074646C69622F72616E642E630000202066
:1086600020202020202020282828282820202020E2
:1086700020202020202020202020202020208810A2
:108680001010101010101010101010101010040402
:108690000404040404040404101010101010104109
:1086A000414141414101010101010101010101017A
:1086B000010101010101010101101010101010420F
:1086C000424242424202020202020202020202024A
:1086D0000202020202020202021010101020000028
:1086E000000000000000000000000000000000008A
:1086F000000000000000000000000000000000007A
:108700000000000000000000000000000000000069
:108710000000000000000000000000000000000059
:108720000000000000000000000000000000000049
:108730000000000000000000000000000000000039
:108740000000000000000000000000000000000029
:108750000000000000000000000000000000000019
:10876000C5410B00F1440B0091480B00ED4E0B008E
:10877000654F0B0075550B007D660B00F56A0B000D
:10878000296C0B00F96F0B001D700B00000000003E
:10879000040000001400000003000000474E5500D4
:1087A0008464E85ECE8A21DF46A2FB6EA12A09A47A
:0487B0001C99BD4112
:0487B40000000000C1
:1087B800070000000C850B0024850B0084850B0046
:1087C80074E5032000000000000000000000000025
:1087D8000000000000000000000000000000000091
:1087E8000000000000000000000000000000000081
:1087F8000000000000000000000000000000000071
:108808000000000000000000000000000000000060
:108818000000000000000000000000000000000050
:0888280000000000ECE7032052
:10883000FFFFFFFF0D000100000001020304050619
:108840000708090A0B0C0D0E0F1011121314151640
:0C8850001718191A1B1C1D1E1F202800E1
:04885C007856341204
:04000003B0004020E9
:00000001FF
