:02000002B0004C
:1040000000400B00406A0B00000006000D00050296
:0840100004010410000000008F
:0440180054660B00DF
:1040200009480A49884208B505D0094A824202D0A7
:10403000121A02F037FA0748074A0021121A02F052
:104040003FFA014808BD00BFB4E50320A8690B0092
:1040500024E6032024E60320EDE7032070B5074E95
:10406000074C00F095FFA41BA4080025AC4200D12A
:1040700070BD56F8043B98470135F7E74C690B00D3
:1040800074690B0000F058B908B500F077F9BDE885
:10409000084000F035BF00F0E9BB00F0E7BB00F0DE
:1040A000EDBB0078B0FA80F040097047012303703F
:1040B0007047704710B504210446FFF7F0FF204613
:1040C00010BD000010B5064C236833B90420FFF77B
:1040D000E2FF08B1034B03602060206810BD00BF01
:1040E00070E60320B4660B0030B5344B012118880C
:1040F00089B001F003FD01F047FD4FF4E13101F01B
:10410000ABFB01F041FD03681B69984718B90A2011
:1041100000F0CAFEF5E74FF47A7000F0C5FE01F03A
:1041200033FD0A22014604A800F094FE04A800F022
:1041300083FC01F029FD00F025FE01F025FD00F0D3
:1041400021FE1F4C1F4D206001F01EFD00F01AFEE5
:10415000286001F019FD00F079FE1B4B10EE100AEB
:1041600083ED000A01F0DEFECDE900012B68226834
:10417000164904A800F008FD154B049A1B788DF829
:10418000003014493C2302A801F060F8039C7CB184
:104190006368013B63605BB9236820469B6898476E
:1041A000A368013BA3601BB923682046DB689847DE
:1041B00004A800F041FC09B030BD00BFB4E5032005
:1041C0006CE6032028E6032068E6032068660B00FF
:1041D00060E6032097660B002DE9F04FDFF808A199
:1041E000DAF8005085B0002D51D101F0CDFC0A2243
:1041F0000146684600F02EFE684600F01DFC01F006
:10420000C3FC00F0BFFDDFF8E490DFF8E480C9F8FC
:10421000000001F0B9FC00F0B5FD01F0B5FC00F0C4
:10422000B1FD01F0B1FC00F011FE01F0ADFC00F0B9
:104230000DFE88ED000A01F0A7FC00F007FE254FF7
:10424000254E87ED000A01F09FFC00F0FFFD234C96
:1042500086ED000A01F098FC00F0F8FD2168DFF817
:1042600094B001298BED000A14D0022928D071B92D
:10427000D9F80020012A0AD1194BD8F8001019608A
:10428000396859603168996083ED030A226005B08E
:10429000BDE8F08F134B188801F041FCD9F80030CD
:1042A000002BF4D10E4BD8F800201A613A685A61FD
:1042B00032689A61DBF80020DA6102232360E6E7C6
:1042C000084B2946188801F02AFC0123CAF800305F
:1042D0002560DCE750E6032054E603205CE603207B
:1042E0002CE60320B4E5032058E6032024E603204F
:1042F0004CE6032064E60320034B1A680020012AE1
:1043000004BF18600148704758E603202CE60320DC
:10431000014B00221A70704760E6032013B5054B6D
:104320001B788DF800303C23044600F08FFF2046B8
:1043300002B010BD80E6032008B5FFF7C3FEFFF70B
:10434000D3FE00F0B5F8BDE8084000F0C3B838B5BA
:10435000046805467CB16368013B63605BB9236810
:1043600020469B689847A368013BA3601BB923685C
:104370002046DB689847284638BD000010B58EB04F
:10438000FFF7A0FEFFF7B8FF0446FFF79BFEFFF71D
:1043900023FF002C61D0E06801F0C4FD02460B460B
:1043A000A068CDE9062301F0BDFDCDE904016068F8
:1043B00001F0B8FDCDE90201206801F0B3FDDDE9AF
:1043C0000623CDE9000126490AA800F0DDFB0A9A80
:1043D000244908A8FFF7A2FF09A8FFF7B8FF0AA819
:1043E00000F02AFBE06901F09DFD02460B46A06942
:1043F000CDE9062301F096FDCDE90401606901F0E5
:1044000091FDCDE90201206901F08CFDDDE9062373
:10441000CDE9000112490AA800F0B6FB0A9A124938
:1044200008A8FFF77BFF09A8FFF791FF0AA800F093
:1044300003FB00F03DF800F04FF80A2201460AA8FD
:1044400000F06BFB0A9A094908A8FFF767FF09A863
:10445000FFF77DFF0AA800F0EFFA0EB010BD00BF15
:10446000BC660B00EB660B00FE660B0008670B00DA
:1044700010B5084B084A00241C70084B0120C3E902
:1044800000449A6000F03EF921460120BDE810404A
:1044900000F048B980E603200000FFFF74E6032027
:1044A000704710B504210446FFF7F9FD204610BD02
:1044B00010B5064C236833B90420FFF7ECFD08B1B2
:1044C000034B03602060206810BD00BF8CE6032012
:1044D00020670B0070470000044A13680133136023
:1044E000034B186801301860704700BF84E6032052
:1044F00088E6032008B5024B1B689B68019308BD42
:104500006802030008B5024B1B68DB68019308BD15
:104510006802030008B5024B1B689B68019308BD45
:104520002C02030008B5024B1B68DB68019308BD31
:104530002C02030008B5024B1B681B69019308BDE0
:104540002C02030008B5024B1B685B68019308BD91
:104550001802030008B5024B1B685B69019308BD94
:104560001802030008B5024B1B685B6C019308BD81
:104570004802030008B5024B1B685B69019308BD44
:104580006402030008B5024B1B68DB68019308BD99
:104590003C02030008B5024B1B681B69019308BD70
:1045A0003C02030008B5024B1B685B69019308BD20
:1045B0003C02030008B5024B1B689B69019308BDD0
:1045C0003C02030008B5024B1B68DB69019308BD80
:1045D0003C02030008B5024B1B681B6A019308BD2F
:1045E0003C02030008B5024B1B689B6A019308BD9F
:1045F0003C02030008B5024B1B68DB6A019308BD4F
:104600003C02030008B5024B1B681B6C019308BDFC
:104610003C02030008B5024B1B681B6A019308BDEE
:104620002802030008B5024B1B685B6A019308BDB2
:104630002802030008B5024B1B689B6A019308BD62
:104640002802030008B5024B1B68DB6A019308BD12
:104650002802030008B5024B1B681B6B019308BDC1
:104660002802030008B5024B1B685B6B019308BD71
:104670002802030008B5024B1B681B6C019308BDA0
:104680002802030008B5024B1B68DB69019308BDD3
:104690003002030008B5024B1B681B6A019308BD7A
:1046A0003002030008B5024B1B681B68019308BD6C
:1046B0004C02030008B5024B1B681B69019308BD3F
:1046C0004C02030008B5024B1B685B69019308BDEF
:1046D0004C02030008B5024B1B689B69019308BD9F
:1046E0004C02030008B5024B1B68DB69019308BD4F
:1046F0004C02030008B5024B1B681B6A019308BDFE
:104700004C02030008B5024B1B685B68019308BDAF
:104710002002030008B5024B1B685B69019308BDCA
:104720002002030008B5024B1B68DB6A019308BD39
:104730002002030008B5024B1B68DB6C019308BD27
:104740002002030008B5024B1B685B6D019308BD96
:104750002002030008B5034B1B68D3F8883001938F
:1047600008BD00002002030008B5034B1B68D3F806
:104770009430019308BD00002002030008B5024BED
:104780001B685B68019308BD4002030008B5024B3B
:104790001B689B68019308BD4002030008B5024BEB
:1047A0001B68DB68019308BD4002030008B5024B9B
:1047B0001B681B69019308BD4002030008B5024B4A
:1047C0001B685B69019308BD4002030008B5024BFA
:1047D0001B689B69019308BD4002030008B5024BAA
:1047E0001B68DB69019308BD4002030008B5024B5A
:1047F0001B681B6A019308BD4002030008B5024B09
:104800001B681B6B019308BD4002030008B5024BF7
:104810001B685B6B019308BD4002030008B5024BA7
:104820001B681B6C019308BD4002030008B5024BD6
:104830001B685B6C019308BD4002030008B5024B86
:104840001B685B69019308BD4402030008B5024B75
:104850001B681B6A019308BD4402030008B5024BA4
:104860001B68DB6B019308BD4402030008B5024BD3
:104870001B681B68019308BD1C02030008B5024BAE
:104880001B685B68019308BD1C02030008B5024B5E
:104890001B689B68019308BD1C02030008B5024B0E
:1048A0001B685B6A019308BD1C02030008B5024B3C
:1048B0001B68DB6A019308BD1C02030008B5024BAC
:1048C0001B681B6B019308BD1C02030008B5024B5B
:1048D0001B681B6C019308BD1C02030008B5024B4A
:1048E0001B685B6C019308BD1C020300002240683A
:1048F0001146FFF77BBF002240681146FFF786BFD5
:1049000040680022FFF77ABF4068002281F0010171
:10491000FFF764BF002340681A461946FFF756BFE9
:10492000002340681A461946FFF748BF0022406836
:104930001146FFF73BBF002240681146FFF726BF34
:10494000406800220221FFF729BF002340681A4671
:10495000FFF714BF024B03225A60024A1A607047E5
:1049600090E6032030670B0010B50446084621701E
:10497000FFF788FE00236360204610BD054B02222E
:104980001A60054B054A9A600020C3E90000FFF752
:10499000B9BE00BFA4E6032098E603200000FFFF95
:1049A00010B5044601F0E7FD013823182046834284
:1049B00006D90278197800F8011B03F80129F6E7F7
:1049C00010BD70B50C46911E22291DD8254630B960
:1049D000234430229D4210D205F8012BFAE7B0FBA8
:1049E000F2F602FB1600C1B2092894BF30315731EC
:1049F000C9B205F8011B3046E9E7002320462B70B9
:104A0000FFF7CEFF204670BD0020FCE738B5031E3F
:104A10000C4615460EDAB3F1004F4FF02D0214BFCD
:104A20005842184601230A702A461944FFF7C9FF65
:104A3000204638BD0123F9E710B504460068FFF7AA
:104A40001DFF204610BD10B50446006808B1FFF7F1
:104A500015FF0023C4E90133236010BD38B50446B7
:104A60000D4600680131FFF711FF10B1C4E90005E0
:104A7000012038BD10B50368044623B143688B425A
:104A800001D3012010BD2046FFF7E8FF0028F9D030
:104A9000A368002BF5D122681370F2E737B50D46F5
:104AA000114601920446FFF7E5FF019A28B9204616
:104AB000FFF7C9FF204603B030BDA2602946206839
:104AC00001F0F0FC2268A3680021D154F2E7002332
:104AD00013B5C0E9003304468360037341B108464F
:104AE000019101F048FD019902462046FFF7D6FFEB
:104AF000204602B010BD13B5044659B108460191D5
:104B000001F039FD019902462046FFF7C7FF204614
:104B100002B010BDFFF797FFF9E710B504468AB061
:104B20000023C4E90033A3602373084601A9FFF7FB
:104B30006DFF01A92046FFF7DEFF20460AB010BD39
:104B400070B505460E4609B9002070BD6AB184688B
:104B500014442146FFF78EFF0028F5D02868AB6883
:104B60003146184401F0E2FCAC600120EDE707B5E6
:104B700000238DF80410012201A98DF80530FFF7FC
:104B8000DFFF03B05DF804FB0EB470B587B00BAD6A
:104B9000044655F8042B01922B46052104A80395E1
:104BA000FFF77CFE0B4906462046FFF790FF314693
:104BB0002046FFF75FFF206830B1019A03952B462E
:104BC000711CFFF76BFEA060204607B0BDE8704087
:104BD00003B07047FD660B0010B58368044613B13F
:104BE000032201469847204610BD13B50B460246E6
:104BF000D0E900016C4684E8030093E8030082E8F2
:104C0000030094E8030083E8030002B010BD000035
:104C1000024800230360FFF7A5BC00BFA8E60320FD
:104C2000F8B506460D468F180024BD420CD03368F7
:104C300015F8011B9B6830469847031E01DB1C4496
:104C4000F3E7002C08BF1C462046F8BD13B5044608
:104C5000084659B1019101F08EFC23680199DB6887
:104C60000246204602B0BDE81040184702B010BD11
:104C700003689B68184730B58BB00023012A8DF874
:104C8000243098BF0A2209AC0D46B1FBF2F101FBBA
:104C9000125303F0FF03092B94BF30333733DBB2D9
:104CA000AA4204F8013DEFD92146FFF7CFFF0BB030
:104CB00030BD10B50446FFF74DFCE0602368204688
:104CC0005B699847002808DAFFF744FCE368C01ADC
:104CD000A3689842F2D34FF0FF3010BD10B50446E0
:104CE000FFF738FCE060236820469B69984700285E
:104CF00008DAFFF72FFCE368C01AA3689842F2D3E2
:104D00004FF0FF3010BD10B504462046FFF7E6FF18
:104D100000280ADB2D2808D0A0F13003092B04D984
:104D2000236820465B699847EFE710BD2DE9F04105
:104D300005460E46FFF7E7FF00284FF000041CDB96
:104D400027464FF00A08864208D02D2818D0A0F137
:104D50003003092B02D808FB0404303C2B6828469A
:104D60005B6998472846FFF7B9FFA0F13003092B8C
:104D7000E9D98642F2D007B164422046BDE8F0810D
:104D80000127EBE70121FFF7D1BF00000000000081
:104D90002DE9F84F2DED028B05460E46FFF7B3FFC8
:104DA000002847DB0FF29C09D9E900890024B7EEFF
:104DB000008A2746A2464FF00A0B864217D02D28BC
:104DC00033D02E2834D0A0F13003092B0FD80BFBA1
:104DD0000404303C5FB118EE100A01F0A3F842461B
:104DE0004B4601F0F7F801F007FB08EE100A2B68BC
:104DF00028465B6998472846FFF770FFA0F130030B
:104E0000092BDAD92E28D8D08642F0D0BAF1000F7B
:104E100000D0644207EE904AB8EEE70A0FB120EEE8
:104E2000080ABDEC028BBDE8F88F4FF0010ADEE7FF
:104E30000127DCE79FED020AF3E700BFAFF3008034
:104E4000000000009A9999999999B93F0121FFF7BB
:104E50009FBF000070B50D46094904461646FFF78E
:104E600036FE2846FFF725FF002806DB864204D0E1
:104E7000C1B22046FFF77BFEF3E7204670BD00BFBE
:104E8000FD660B00014B024A1A607047ACE6032036
:104E900064670B00024B1A68024B1A60704700BF30
:104EA000B8E50320B0E603200021FFF733BC000083
:104EB000014B00229A607047B4E60320014B186052
:104EC000704700BFBCE5032008B50B4B43B100F0B1
:104ED000FBFB03681B699847002801DDAFF30080E6
:104EE000064B43B100F050FE03681B699847002849
:104EF00001DDAFF3008008BD0000000000000000ED
:104F000008B5FFF7E1FFFFF725FB014B186008BD6F
:104F100040E703200548064A064908B5121A01F081
:104F2000C1FA054B054A1A6008BD00BF00F4032012
:104F300004F40320A4690B0000F403201E1C279A2C
:104F400007B5002300931A466FF07701FFF70CFCBA
:104F500003B05DF804FB000007B543880A2B08D0B6
:104F6000502B0BD1094B1B684BB103B05DF804EB20
:104F70001847FFF7E5FF03B05DF804FB002300933B
:104F80001A466FF07701FFF7EFFBF4E7C8E603205E
:104F900010B512480021FFF7A1FC114B1A68114B04
:104FA0009A42114B0CBF012200221A7001D0FFF768
:104FB000B1FFFFF7C7FA044601F08AFA0B4B13B1B1
:104FC0002046AFF3008000210848FFF747FCBDE80A
:104FD000104007480021FFF7BDBB00BFBD4E0B00CE
:104FE00000F403201E1C279AC4E6032000000000E2
:104FF000594F0B0070470020704710B51021044630
:10500000FFF74DF8204610BD08B5FFF7F6FF08BDC5
:1050100030B500224FF69C74026084808D888C80AD
:105020000C68858004600A6030BD10B504460068D5
:10503000FFF724FC204610BD38B5C468F4B12378CE
:10504000022B03D104F10C00FFF7EFFF656835B1C7
:105050002846FFF7C1FD10212846FFF720F8A56874
:1050600035B12846FFF7B8FD10212846FFF717F89D
:1050700020461421BDE83840FFF711B838BD0B6851
:1050800003604B68436013B15A6801325A6070473D
:1050900037B5044668460D46FFF7F1FF009B019ABD
:1050A00023606260002301A801930093FFF74FF98A
:1050B00035B1281DFFF74BF908212846FEF7EFFF11
:1050C000204603B030BD826810B50AB900F0C2FDB9
:1050D000BDE81040C368184708B5006800F110012A
:1050E000FFF7F1FF08BD826810B50AB900F0B2FD04
:1050F000BDE81040C368184708B5006800F110010A
:10510000FFF7F1FF08BD000038B500230446036037
:1051100010200D46FEF7BFFF28B10123C0E901337F
:10512000024B0360C5602060204638BD8C670B00D1
:1051300038B5002383608B6804460D462BB10222EC
:105140009847EB68E360AB68A360204638BD000079
:10515000F0B589B004686846FFF75AFF4FF00203C4
:10516000D4E84F2F002A03D1C4E8413F0029F7D1EA
:1051700025D104F10C0569462846FFF749FFBFF326
:105180005B8F01236370002004F10803BFF35B8F82
:1051900053E8006F43E80002002AF9D1BFF35B8FA8
:1051A0006EB1FFF7C7FA78B129463046FFF78BFF9B
:1051B0003046FFF711FD10213046FEF770FF6846BC
:1051C000FFF733FF09B0F0BD314602A8FFF7B0FF8B
:1051D000E068B4F9105008B101F0B0F90690102061
:1051E000ADF81C50FEF757FF0546E8B10027876071
:1051F0001820FEF750FF044688B10146876002A8D8
:10520000FFF7F3FC049BA268A360059B049206A928
:10521000E268E36004F110000592FFF7F9FE084B25
:10522000EB60084B2C60AB6006A8FFF7FEFE02A8FF
:10523000FFF7D2FC002229460348FFF783FAB7E7BD
:10524000D9500B005D530B005F580B002DE9F04F58
:105250008BB005469DF850A00F4690469946FFF743
:10526000EDFA07AE834638BB4FF62E73059005A9BD
:105270003046ADF81830FFF7CBFE1420FEF70BFFD9
:10528000044648B1022303700123C0E901BB437007
:1052900031460C30FFF7BCFE2846214640F8044B4F
:1052A000FFF732FF3046FFF7C0FE05A8FFF7BDFE4F
:1052B00028460BB0BDE8F08F0C2300241420CDE964
:1052C00008440793FEF7E7FE014618B1C0E9014420
:1052D0000470447004A80391FFF716FF1E4B089357
:1052E0000820FEF7D8FE044610B103A9FFF7C7FE59
:1052F00000965FFA8AF34A46414638460994FFF71A
:10530000A5FAB8B9039B5B7803F0FF0293B94FF697
:105310009C7305A903A80592ADF81830FFF718FF94
:1053200005A8FFF782FE05A80999FFF7B1FE06A8B8
:10533000FFF70DF803A905A8FFF7A1FE059B069A44
:105340002B606A60002306A806930593FEF7FFFF13
:1053500004A8FEF7FCFFABE7D9530B00012AF8B510
:10536000054603D10B6803600020F8BD022A10D067
:10537000032AF9D10468002CF6D004F11000FFF7DD
:1053800054FE2046FFF728FC18212046FEF787FE32
:10539000EAE718200E68FEF77EFE044650B131465B
:1053A000FFF7C6FE3069B6F9147008B101F0C6F80F
:1053B0002061A7822C60D7E738B5002383608B6813
:1053C00004460D462BB102229847EB68E360AB68B8
:1053D000A360204638BD0000F0B589B004460D46F4
:1053E00001A81146FFF754FEA4B124B21DB128460E
:1053F00001F0A4F8054601A803A90395ADF81040F3
:10540000FFF7A6FE03A8FFF710FE02A8FEF79FFF16
:1054100009B0F0BD019D0123D5E84F2F002A03D12B
:10542000C5E8413F0029F7D1EFD12B73BFF35B8F64
:105430006B702B1DBFF35B8F53E8006F43E8004296
:10544000002AF9D1BFF35B8F002EDED02046FFF794
:1054500071F9074660B105F10C013046FFF743FED4
:105460003046FFF7B9FB10213046FEF718FECCE7B7
:10547000314603A8FFF7A0FF2B7B8DF81C301020CE
:10548000FEF709FE0546D0B187601420FEF703FE43
:10549000044678B18760014603A8FFF7A6FB059B89
:1054A000A268A360069B0592E268E3609DF81C3049
:1054B00006922374064BEB60064B2C60AB6003A88E
:1054C000FFF78AFB002229460348FFF73BF9C7E7AD
:1054D000F9500B00DD540B005F580B00012A70B52A
:1054E000044603D10B680360002070BD022A0CD073
:1054F000032AF9D10468002CF6D02046FFF76CFB94
:1055000014212046FEF7CBFDEEE714200E68FEF7CF
:10551000C2FD054620B13146FFF74EFF337C2B74A8
:105520002560E1E7704710B518210446FEF7B7FD86
:10553000204610BDF0B5037D062B8DB00E4600F160
:1055400004074FF0000412D000F1080515F8011D02
:105550000A223046FFF78FFBAF42044419D0002CDB
:10556000F4D02E213046FFF783FB0444EEE72F23CF
:105570006A4639460A208DF80040FEF7FBFF684670
:1055800000F0F9FF33680246DB6869463046984709
:10559000044620460DB0F0BD10B5054B044611225F
:1055A00040F8043B002100F08BFF204610BD00BFF7
:1055B000A8670B000346074A10B543F8042B01F116
:1055C000100251F8044B43F8044B9142F9D10A7888
:1055D0001A7010BDA8670B0010B59DF8084044EA8A
:1055E000032343EA024242EA016104234160037556
:1055F00010BD000007B5064B0360CB7800938B7895
:105600004A780978FFF7E8FF03B05DF804FB00BFB4
:10561000A8670B00417470477047704708B50021B8
:10562000007CFFF757F840EAE07008BD08B501219B
:10563000007CFFF74FF840EAE07008BD08B5007C39
:10564000FFF740F820EAE07008BD08B5007CFFF7DE
:1056500031F820EAE07008BD13B50446007C0191E2
:10566000FFF730F80028019901DC607C20B1207C34
:10567000FFF738F820EAE07002B010BD007CFFF7B9
:1056800039B810B514210446FEF709FD204610BDB7
:1056900010B54FF47A73044608460021C4E901139B
:1056A000044B23600123207463741146FEF7FAFF54
:1056B000204610BDBC670B0010B514220446002123
:1056C00000F0FEFE204610BD10B50F4C88B003A8B8
:1056D000FFF7F2FF2178BFF35B8F11F001010FD1CB
:1056E00020460191FEF7DDFC019948B103AA074865
:1056F000FFF7CEFF2046FEF7D9FC054800F0CCFEB0
:10570000024808B010BD00BFCCE60320D0E603205D
:1057100019560B00002240681146FFF747B80022D7
:1057200040681146FFF762B8002240681146FFF753
:105730006DB840680022FFF761B84068002281F030
:105740000101FFF74BB8002340681A461946FFF7DE
:105750003DB8002340681A461946FFF72FB80022CB
:1057600040681146FFF712B8406800220221FFF797
:1057700015B8002340681A46FFF700B8084B10B56B
:10578000282422461846002100F09AFE054B04808A
:105790004FF0FF32426004225A60034A1A6010BD83
:1057A000ECE60320E4E60320EC670B00704741744D
:1057B000704708B5007CFEF715FF20EAE07008BDD1
:1057C00008B5007CFEF7E6FE20EAE07008BD08B5EB
:1057D000007CFEF7EFFE40EAE07008BD08B5007CF3
:1057E000FEF7E0FE40EAE07008BD007CFEF7EABE8E
:1057F00037B5457C04462DB1207C03B0BDE8304070
:10580000FEF7C0BE007C0191FEF7ECFE0028019976
:10581000F2DC284603B030BD10B514210446FEF773
:105820003EFC204610BD000010B54FF47A730446CC
:10583000084611460022C4E90123044B23600123DA
:1058400020746374FEF7DEFE204610BD28680B004E
:10585000007C0023FEF7CEBE0022FFF7F9BF10B593
:10586000836804460BB900F0F5F9C3689847A3684C
:105870001BB1032221462046984720461021BDE84F
:105880001040FEF70CBC7047F8B5064615460C46AE
:105890008F18BC4206D0336814F8011B9B68304651
:1058A0009847F6E72846F8BD007C0022FEF7B2BE16
:1058B000007C0021FEF7B6BE007C0021FEF7BABED8
:1058C000007C0021FEF7BEBE007C0021FEF7C2BEB8
:1058D00010B514210446FEF7E2FB204610BD00007F
:1058E00038B5044615464FF47A730022C4E9012303
:1058F000094B2174084623602946FEF7BBFEBF30E2
:1059000008D16B69DB0705D56868FEF7B7FFE86863
:10591000FEF7B4FF204638BD58680B0000234068EE
:105920001A46FEF72BBF406800220221FEF736BF61
:10593000002240681146FEF729BF00224068114648
:10594000FEF734BF002340681A461946FEF736BFFB
:10595000002340681A461946FEF738BF4068002108
:10596000FEF75CBF40680021FEF760BF4068002280
:1059700081F00101FEF732BF40680022FEF73EBF12
:10598000002240681146FEF741BF002240681146E0
:10599000FEF72CBF2DE9F04395B014460D4607469F
:1059A000FFF7FAFD00211C220DA8009100F088FDF0
:1059B00040230C9320466B460CAA0021FEF7A2FD63
:1059C000044600284BD1024601216868FEF7EEFE2E
:1059D0000221804622466868FEF7E8FE009E814666
:1059E0002146002E3BD0002939D17368022B03D009
:1059F0000A2B11D0F669F4E7B8F1000FFAD07169FB
:105A000006A8043107ADFFF7F5FD0FCD3C1D0FC40F
:105A10002B6823704146EDE7B9F1000FEAD07469B5
:105A2000102201A800F04CFD06238DF8143001ADC2
:105A300004F108031834186859682A4603C2083369
:105A4000A3421546F7D101A906A807ADFFF7B2FD9D
:105A50000FCD3C1D0FC42B6823704946CAE7009840
:105A6000FEF748FD384615B0BDE8F083024B034A07
:105A70001A6000225A60704714E7032080680B0008
:105A8000232813B502D9002002B010BDA0F10B03EA
:105A9000022B1AD8174C2178BFF35B8F11F001014C
:105AA0000BD120460191FEF7FCFA019928B112486A
:105AB000FEF75AFF2046FEF7F9FA0F4B1878FEF76B
:105AC000E9FD0028DFD10120DEE7012809D800F038
:105AD0009BF80021007CFEF7C5FD80F00100C0B2FC
:105AE000D2E709380128EED800F04EF8007CFEF726
:105AF00071FDF2E71CE7032020E70320232838B5D7
:105B000004460D460AD8FF2908D0FFF7B9FF28B18F
:105B100029462046BDE83840FEF7FCBC38BD38B504
:105B200004460D46FEF7FEFCFF2810D0062804D8D8
:105B30004D2323FA00F0C30709D42046FFF7A0FF46
:105B400028B129462046BDE83840FEF7F3BC38BDF1
:105B50007047000038B5044614252A46002100F09D
:105B6000AFFC25804025074925812846258200F085
:105B70006FF804496060284600F06AF8E06020464B
:105B800038BD00BFB4680B0030B50E4D2978BFF3A7
:105B90005B8F11F0010487B011D12846FEF781FA1E
:105BA00068B101A8FFF7D6FF01AA21460648FFF712
:105BB0003BFE2846FEF77AFA044800F06DFC0248E6
:105BC00007B030BD28E703202CE70320515B0B0012
:105BD0007047000038B50A4B036001230446436157
:105BE0000849202000F034F8202560600549A560B0
:105BF000284600F02DF8C4E90305204638BD00BF53
:105C000018000100B4680B0030B50E4D2978BFF3C1
:105C10005B8F11F0010487B011D12846FEF741FADD
:105C200068B16846FFF7D6FF6A4621460648FFF787
:105C300057FE2846FEF73AFA044800F02DFC0248C9
:105C400007B030BD44E7032048E70320D15B0B00D9
:105C5000FEF723BA08B5FEF729FE000081F00041E7
:105C600002E000BF83F0004330B54FEA41044FEA41
:105C7000430594EA050F08BF90EA020F1FBF54EADC
:105C8000000C55EA020C7FEA645C7FEA655C00F078
:105C9000E2804FEA5454D4EB5555B8BF6D420CDD49
:105CA0002C4480EA020281EA030382EA000083EACC
:105CB000010180EA020281EA0303362D88BF30BD6C
:105CC00011F0004F4FEA01314FF4801C4CEA1131C2
:105CD00002D0404261EB410113F0004F4FEA033321
:105CE0004CEA133302D0524263EB430394EA050FAC
:105CF00000F0A780A4F10104D5F1200E0DDB02FA1B
:105D00000EFC22FA05F2801841F1000103FA0EF2AE
:105D1000801843FA05F359410EE0A5F120050EF174
:105D2000200E012A03FA0EFC28BF4CF0020C43FAA5
:105D300005F3C01851EBE37101F0004507D54FF0B2
:105D4000000EDCF1000C7EEB00006EEB0101B1F502
:105D5000801F1BD3B1F5001F0CD349085FEA300048
:105D60004FEA3C0C04F101044FEA445212F5800F53
:105D700080F09A80BCF1004F08BF5FEA500C50F1F0
:105D8000000041EB045141EA050130BD5FEA4C0CD3
:105D9000404141EB0101013C28BFB1F5801FE9D230
:105DA00091F0000F04BF01460020B1FA81F308BF53
:105DB0002033A3F10B03B3F120020CDA0C3208DD1F
:105DC00002F1140CC2F10C0201FA0CF021FA02F1FA
:105DD0000CE002F11402D8BFC2F1200C01FA02F16A
:105DE00020FA0CFCDCBF41EA0C019040E41AA2BF8F
:105DF00001EB0451294330BD6FEA04041F3C1CDA57
:105E00000C340EDC04F11404C4F1200220FA04F076
:105E100001FA02F340EA030021FA04F345EA030120
:105E200030BDC4F10C04C4F1200220FA02F001FAE2
:105E300004F340EA0300294630BD21FA04F0294664
:105E400030BD94F0000F83F4801306BF81F48011FD
:105E50000134013D4EE77FEA645C18BF7FEA655C70
:105E600029D094EA050F08BF90EA020F05D054EA42
:105E7000000C04BF1946104630BD91EA030F1EBF47
:105E80000021002030BD5FEA545C05D1400049414B
:105E900028BF41F0004130BD14F580043CBF01F53E
:105EA000801130BD01F0004545F0FE4141F4700124
:105EB0004FF0000030BD7FEA645C1ABF19461046FF
:105EC0007FEA655C1CBF0B46024650EA013406BF00
:105ED00052EA033591EA030F41F4002130BD00BFBF
:105EE00090F0000F04BF0021704730B54FF480647C
:105EF00004F132044FF000054FF0000150E700BFFD
:105F000090F0000F04BF0021704730B54FF480645B
:105F100004F1320410F0004548BF40424FF0000148
:105F20003EE700BF42004FEAE2014FEA31014FEA8B
:105F300002701FBF12F07F4393F07F4F81F06051DA
:105F4000704732F07F4208BF704793F07F4F04BF25
:105F500041F40021704730B54FF4607401F0004502
:105F600021F000411CE700BF50EA010208BF704762
:105F700030B54FF000050AE050EA010208BF704753
:105F800030B511F0004502D5404261EB41014FF4BC
:105F9000806404F132045FEA915C3FF4D8AE4FF0C4
:105FA00003025FEADC0C18BF03325FEADC0C18BFA7
:105FB000033202EBDC02C2F1200300FA03FC20FAF8
:105FC00002F001FA03FE40EA0E0021FA02F1144445
:105FD000BDE600BF70B54FF0FF0C4CF4E06C1CEA5E
:105FE00011541DBF1CEA135594EA0C0F95EA0C0FCF
:105FF00000F0DEF82C4481EA030621EA4C5123EA42
:106000004C5350EA013518BF52EA033541F4801170
:1060100043F4801338D0A0FB02CE4FF00005E1FB23
:1060200002E506F00042E0FB03E54FF00006E1FB6D
:1060300003569CF0000F18BF4EF0010EA4F1FF04B0
:10604000B6F5007F64F5407404D25FEA4E0E6D41F0
:1060500046EB060642EAC62141EA55514FEAC52001
:1060600040EA5E504FEACE2EB4F1FD0C88BFBCF57D
:10607000E06F1ED8BEF1004F08BF5FEA500E50F12E
:10608000000041EB045170BD06F0004646EA0101F4
:1060900040EA020081EA0301B4EB5C04C2BFD4EB26
:1060A0000C0541EA045170BD41F480114FF0000E1F
:1060B000013C00F3AB8014F1360FDEBF002001F08D
:1060C000004170BDC4F10004203C35DA0C341BDC07
:1060D00004F11404C4F1200500FA05F320FA04F0D9
:1060E00001FA05F240EA020001F0004221F000410D
:1060F00010EBD37021FA04F642EB06015EEA430E80
:1061000008BF20EAD37070BDC4F10C04C4F12005AF
:1061100000FA04F320FA05F001FA04F240EA020062
:1061200001F0004110EBD37041F100015EEA430E33
:1061300008BF20EAD37070BDC4F1200500FA05F253
:106140004EEA020E20FA04F301FA05F243EA0203D2
:1061500021FA04F001F0004121FA04F220EA0200E1
:1061600000EBD3705EEA430E08BF20EAD37070BD27
:1061700094F0000F0FD101F00046400041EB010107
:1061800011F4801F08BF013CF7D041EA060195F0E9
:10619000000F18BF704703F00046520043EB0303A3
:1061A00013F4801F08BF013DF7D043EA0603704790
:1061B00094EA0C0F0CEA135518BF95EA0C0F0CD09B
:1061C00050EA410618BF52EA4306D1D181EA0301E1
:1061D00001F000414FF0000070BD50EA410606BFDB
:1061E0001046194652EA430619D094EA0C0F02D120
:1061F00050EA013613D195EA0C0F05D152EA033665
:106200001CBF104619460AD181EA030101F0004182
:1062100041F0FE4141F470014FF0000070BD41F0CB
:10622000FE4141F4780170BD70B54FF0FF0C4CF4A5
:10623000E06C1CEA11541DBF1CEA135594EA0C0FC4
:1062400095EA0C0F00F0A7F8A4EB050481EA030E11
:1062500052EA03354FEA013100F088804FEA0333F8
:106260004FF0805545EA131343EA12634FEA0222C6
:1062700045EA111545EA10654FEA00260EF0004187
:106280009D4208BF964244F1FD0404F5407402D2D9
:106290005B084FEA3202B61A65EB03055B084FEA6A
:1062A00032024FF480104FF4002CB6EB020E75EB67
:1062B000030E22BFB61A754640EA0C005B084FEA8F
:1062C0003202B6EB020E75EB030E22BFB61A75460C
:1062D00040EA5C005B084FEA3202B6EB020E75EB57
:1062E000030E22BFB61A754640EA9C005B084FEACF
:1062F0003202B6EB020E75EB030E22BFB61A7546DC
:1063000040EADC0055EA060E18D04FEA051545EACA
:1063100016754FEA06164FEAC30343EA52734FEA73
:10632000C2025FEA1C1CC0D111F4801F0BD141EAEC
:1063300000014FF000004FF0004CB6E711F4801F51
:1063400004BF01430020B4F1FD0C88BFBCF5E06F31
:106350003FF6AFAEB5EB030C04BFB6EB020C5FEA41
:10636000500C50F1000041EB045170BD0EF0004E96
:106370004EEA113114EB5C04C2BFD4EB0C0541EAC8
:10638000045170BD41F480114FF0000E013C90E6C5
:1063900045EA060E8DE60CEA135594EA0C0F08BF89
:1063A00095EA0C0F3FF43BAF94EA0C0F0AD150EA88
:1063B00001347FF434AF95EA0C0F7FF425AF10461B
:1063C00019462CE795EA0C0F06D152EA03353FF443
:1063D000FDAE1046194622E750EA410618BF52EAC0
:1063E00043067FF4C5AE50EA41047FF40DAF52EA94
:1063F00043057FF4EBAE12E74FEA4102B2F1E0430E
:1064000024BFB3F5001CDCF1FE5C0DD901F0004C9B
:106410004FEAC0024CEA5070B2F1004F40EB8300EB
:1064200008BF20F00100704711F0804F21D113F117
:106430003872BCBF01F00040704741F480114FEA50
:106440005252C2F11802C2F1200C10FA0CF320FAD9
:1064500002F018BF40F001004FEAC1234FEAD323F6
:1064600003FA0CFC40EA0C0023FA02F34FEA430360
:10647000CCE77FEA625307D150EA01331EBF4FF0E9
:10648000FE4040F44000704701F0004040F0FE4004
:1064900040F40000704700BF002301461A4618462A
:1064A00000F072B80A44914200F1FF3300D1704706
:1064B00010B511F8014B03F8014F9142F9D110BD0D
:1064C00002440346934200D1704703F8011BF9E7E9
:1064D00038B5104B1D68AB6B0446B3B91820FEF7F6
:1064E000C5F90246A86320B90B4B0C484221FEF7C0
:1064F000EDF90B490B4BC0E900130B4B83600B23E9
:10650000838100210120C2E90401AB6B00221C61E0
:106510005A6138BDBCE50320B5680B00CC680B00A0
:106520000E33CDAB34126DE6ECDE0500034611F8F8
:10653000012B03F8012B002AF9D17047024B0146C9
:10654000186800F003B800BFBCE5032037B5044667
:1065500008460D4600F00FF8421C114620460192F5
:10656000FEF7ACF9044618B1019A2946FFF79AFFE5
:10657000204603B030BD034613F8012B002AFBD19F
:10658000181A0138704700002DE9F843DFF8B88089
:106590000646D8F800001F460D46914600F056F812
:1065A000254B1C6834B9254C1C60254B13B11B6866
:1065B000C4F8883063681F2B07DDD8F8000000F0AE
:1065C00047F84FF0FF30BDE8F8834EB3D4F88800A9
:1065D00088B91C4B23B9D8F8000000F038F8F0E770
:1065E0004FF48470FEF742F90028F4D00023C0E98C
:1065F0004033C4F88800636840F8239001229A4031
:1066000000EB8301D0F800311343C0F80031022EB3
:10661000C1F8807002BFD0F804311343C0F80431D0
:106620006368D8F800005A1C0233626044F82350B3
:1066300000F00EF80020C6E7E8E703205CE703203F
:10664000000000006D480B0020E6032070477047F3
:106650007047000021400B005D400B0085400B009F
:1066600089400B00000000005468726573686F6C0D
:10667000643A2025642C20526573657454687265F1
:1066800073686F6C643A2025642C20426173656CDA
:10669000696E652025660044657669636520636FD1
:1066A0006E66696775726564000000000000000096
:1066B00000000000B3400B00B5400B005B6D61674C
:1066C0005F524D533A2025662C206D61675F783A02
:1066D0002025662C206D61675F793A2025662C2085
:1066E0006D61675F7A3A2025665D00446574656375
:1066F00074696E672056656869636C652100526530
:106700006C65617365642E00546F74616C2056650E
:106710006869636C65730000000000000000000001
:10672000A1440B00A3440B00000000000000000087
:106730004B490B0041490B0037490B002D490B0019
:1067400021490B0015490B005D590B0065590B00E1
:1067500009490B0001490B00F7480B00ED480B00FD
:1067600095590B006170700025592D256D2D2564FC
:106770005425483A254D3A2553257A0061736374B0
:10678000696D65000000000000000000F54F0B007F
:10679000FB4F0B0039500B0009500B00F74F0B005B
:1067A000000000000000000035550B0025550B00CF
:1067B00027550B0000000000000000001B560B00D6
:1067C00083560B0059560B00214C0B004B560B0007
:1067D0001D560B002D560B007D560B003D560B0031
:1067E00015560B00000000000000000073570B005E
:1067F00069570B005F570B0015570B0053570B00E1
:1068000047570B005D590B0065590B003B570B00B8
:1068100033570B0029570B001F570B0095590B00DE
:106820000000000000000000AD570B0019580B00DD
:10683000F1570B00214C0B00C1570B00DD570B002B
:10684000CF570B00EB570B00AF570B00B3570B00A4
:10685000000000000000000087580B00D1580B001A
:10686000A9580B0089580B00B1580B00B9580B0000
:10687000C1580B00C9580B000000000000000000C8
:106880001D590B0027590B0031590B003B590B00C8
:1068900045590B0051590B005D590B0065590B0010
:1068A0006D590B0079590B0081590B008B590B0066
:1068B00095590B00005245454E54206D616C6C6F2C
:1068C0006320737563636565646564002F6D6E7422
:1068D0002F776F726B73706163652F776F726B7355
:1068E000706163652F4743432D31302D70697065AA
:1068F0006C696E652F6A656E6B696E732D474343D5
:106900002D31302D706970656C696E652D34385F7E
:1069100032303230313132345F3136303631383026
:106920003634312F7372632F6E65776C69622F6E08
:1069300065776C69622F6C6962632F7374646C692C
:10694000622F72616E642E630000000011430B0021
:1069500071440B0055490B007D490B00114C0B0095
:10696000854E0B00954E0B00B14E0B007D570B0072
:106970006D5A0B0000000000000000000000000045
:10698000040000001400000003000000474E550002
:10699000D8C0ECDBF2A33C35D929998660930C6B07
:0469A000540553291E
:0469A40000000000EF
:1069A800070000007C670B00C0E503200000000022
:1069B80000000000000000000000000000000000CF
:1069C80000000000000000000000000000000000BF
:1069D80000000000000000000000000000000000AF
:1069E800000000000000000000000000000000009F
:1069F800000000000000000000000000000000008F
:106A0800000000000000000000000000ECE7032088
:106A1800FFFFFFFF00000102030405060708090A3B
:106A28000B0C0D0E0F101112131415161718191A36
:086A38001B1C1D1E1F2028007D
:046A4000785634123E
:04000003B0004020E9
:00000001FF
