:02000002B0004C
:1040000000400B0040710B00000006000D0005028F
:0840100004010410000000008F
:04401800D46B0B005A
:1040200009480A49884208B505D0094A824202D0A7
:10403000121A02F06BFC0748074A0021121A02F01C
:1040400073FC014808BD00BFB8E50320A8700B0051
:1040500028E6032028E60320EDE7032070B5074E8D
:10406000074C01F00BFFA41BA4080025AC4200D1B3
:1040700070BD56F8043B98470135F7E754700B00C4
:104080007C700B0000F09CB808B500F00FF9BDE89B
:10409000084001F0ABBE00F089BD00F087BD00F024
:1040A0008DBD0078B0FA80F040097047012303709D
:1040B000704708B500F0ACF9BDE8084000F070BAF0
:1040C00008B500F0A5F9BDE8084000F077BA08B5DA
:1040D00000F09EF9BDE8084000F082BA38B5054608
:1040E00000F096F90446284601F0EEFC0146204611
:1040F000BDE8384000F0E4BA08B500F089F9BDE841
:10410000084000F073BA38B5054600F081F904465E
:10411000284601F0D9FC01462046BDE8384000F0B1
:10412000FDBA08B500F074F9BDE8084000F03EBBE8
:1041300008B500F06DF9BDE8084000F01DBB0000B7
:104140001FB50023CDE901330C23ADF80430044B37
:104150000393022201AB00F0A1FC05B05DF804FB63
:1041600065410B0070B50D46164680470446042095
:10417000306000F01BFD286010B10460002070BDAD
:104180000048FCE7FCFEFFFF37B515460C468047AC
:1041900010EE100A02F0F6F8CDE9000108202860C0
:1041A00000F004FD0346206030B16A4603CA18607F
:1041B0005960002003B030BD0048FBE7FCFEFFFF64
:1041C0007FB500F025F900F017FA1B4D1B491C487C
:1041D000039501AB092200240C26CDE90144ADF87A
:1041E000046000F05BFC17491748FFF7A9FF174967
:1041F0001748FFF7A5FF17491748FFF7A1FF174911
:104200001748FFF79DFFCDE90144164C16491748A2
:10421000ADF8046001AB0922039500F03FFC144A9D
:104220001449204600F0EBFD134A1449204604B01F
:10423000BDE8704000F0E3BD89410B00B3400B00C6
:104240000E6C0B00CF400B001F6C0B00F9400B00F5
:10425000316C0B0023410B00E86B0B0031410B006C
:10426000F36B0B00D34D0B00C1400B00026C0B0035
:10427000176C0B00DD400B00296C0B0007410B0095
:1042800038B5046805467CB16368013B63605BB97F
:10429000236820469B689847A368013BA3601BB92D
:1042A00023682046DB689847284638BD30B58FB074
:1042B00000F0AEF800F068F9044600F0A9F800F04C
:1042C000B9F8002C5DD0E0682F4D02F05BF8024693
:1042D0000B46A068CDE9062302F054F8CDE90401AD
:1042E000606802F04FF8CDE90201206802F04AF858
:1042F000DDE90623CDE900010AA8244901F0EAFB23
:104300002B780A9A22498DF8003008A83C2300F047
:104310006DFE09A8FFF7B4FF0AA801F013FBE069DE
:1043200002F030F802460B46A069CDE9062302F000
:1043300029F8CDE90401606902F024F8CDE9020111
:10434000206902F01FF8DDE90623CDE900010AA883
:104350000E4901F0BFFB2B780A9A0E498DF8003008
:1043600008A83C2300F042FE09A8FFF789FF0AA82D
:1043700001F0E8FA00F04CF80FB0BDE8304000F072
:10438000FBB90FB030BD00BF34E60320416C0B0019
:10439000706C0B00836C0B0010B5084B084A0024AE
:1043A0001C70084B0120C3E900449A6000F03AFBFE
:1043B00021460120BDE8104000F044BB34E6032054
:1043C0000000FFFF28E60320704710B504210446D3
:1043D000FFF765FE204610BD13B5054B1B788DF821
:1043E00000303C23044600F001FE204602B010BD20
:1043F0005CE603200EB403B503AB012153F8042B94
:10440000019301F078F902B05DF804EB03B0704756
:1044100010B5064C236833B90420FFF73CFE08B101
:10442000034B03602060206810BD00BF8CE60320B2
:104430004C6D0B002DE9F04F454E356885B0002DD1
:104440005AD101F011FE0A220146684601F062FAD3
:10445000684601F077FA01F007FE01F0F6F9DFF89F
:1044600018A1DFF81891CAF8000001F0FDFD01F075
:10447000ECF9384BDFF80881186001F0F5FD01F028
:10448000E4F9354B354F186001F0EEFD01F03EFACE
:10449000334B344C83ED000A01F0E6FD01F036FAAF
:1044A00089ED000A01F0E0FD01F030FA88ED000A24
:1044B00001F0DAFD01F02AFA87ED000A01F0D4FDDF
:1044C00001F024FA2168DFF8BCB001298BED000A65
:1044D00015D002292AD079B9DAF80020012A0BD1A7
:1044E000214BD9F800101960D8F8001059603968CC
:1044F000996083ED030A226005B0BDE8F08F1B4B85
:10450000188801F03CFDDAF80030002BF4D1164B8E
:10451000D9F800201A61D8F800205A613A689A61E7
:10452000DBF80020DA6102232360E5E70F4B294620
:10453000188801F024FD0E4A2560136801331360CA
:104540000C4A13680133136001233360D4E700BFC2
:1045500054E6032088E6032040E6032050E60320CB
:1045600064E6032058E6032068E60320B8E503204C
:1045700038E6032044E603203CE6032048E6032017
:104580004CE6032060E60320034B1A680020012A52
:1045900004BF18600148704754E6032068E6032012
:1045A000054B93ED000AB5EE400AF1EE10FA08BF94
:1045B000BFEE000A704700BF64E6032010B5044652
:1045C00001F052FD044901F06EF82046FFF732FF7A
:1045D000024B93ED000A10BD8D6C0B0064E60320C6
:1045E000014B1868704700BF88E60320014B18682C
:1045F000704700BF40E6032070B52B4B012118889F
:1046000088B001F0ABFC01F02FFD4FF4E13101F077
:10461000FBFA01F029FD03681B69984718B90A20C5
:1046200000F00CFBF5E74FF47A7000F007FB01F0A7
:104630001BFD0A22014604A801F06CF904A801F050
:1046400081F901F011FD01F000F901F00DFD01F01B
:10465000FCF8164C164D206001F006FD01F0F5F84F
:10466000286001F001FD01F051F9124E4FF4FA609B
:1046700086ED000A00F0E2FA306801F083FE2B6854
:104680002268CDE9000104A80B4901F023FA049A3D
:104690000A4902A8FFF7A0FE03A8FFF7F1FD04A84E
:1046A00001F050F908B070BDB8E5032088E603209A
:1046B00040E6032064E60320966C0B00C66C0B00FA
:1046C00030B5642987B005460C461DDC01F0CCFCF2
:1046D00022460F49FFF78EFE2846FFF7ABFE0D4B33
:1046E0001C680A22214602A801F0B7F9029A0A4979
:1046F0006846FFF771FE01A8FFF7C2FD02A801F0AE
:1047000021F9204607B030BD4FF0FF34F9E700BF74
:10471000D26C0B0088E60320DE6C0B0030B56429F8
:1047200087B005460C461DDC01F09EFC22460F4971
:10473000FFF760FE2846FFF77DFE0D4B1C680A223E
:10474000214602A801F089F9029A0A496846FFF752
:1047500043FE01A8FFF794FD02A801F0F3F82046FC
:1047600007B030BD4FF0FF34F9E700BFF06C0B002D
:1047700040E60320FC6C0B0010B50A4C86B02168A3
:104780000A2202A801F069F9029A07496846FFF770
:1047900023FE01A8FFF774FD02A801F0D3F82068FA
:1047A00006B010BD44E60320146D0B0030B5124B6B
:1047B0001C6889B0002521460A2204A81D6001F06A
:1047C0004CF9049A0D4902A8FFF706FE03A8FFF76B
:1047D00057FD04A801F0B6F8094B0A491B788DF87B
:1047E00000302A463C2304A800F000FC05A8FFF78F
:1047F00047FD204609B030BD38E60320286D0B0088
:104800005CE60320386D0B00014B00221A707047E4
:104810005CE6032008B5024B1B685B6C019308BD86
:104820004802030008B5024B1B685B68019308BD92
:104830001802030008B5024B1B685B69019308BDB1
:104840001802030008B5024B1B689B68019308BD62
:104850002C02030008B5024B1B68DB68019308BDFE
:104860002C02030008B5024B1B681B69019308BDAD
:104870002C02030008B5024B1B681B6A019308BD9C
:104880002802030008B5024B1B685B6A019308BD50
:104890002802030008B5024B1B689B6A019308BD00
:1048A0002802030008B5024B1B68DB6A019308BDB0
:1048B0002802030008B5024B1B681B6B019308BD5F
:1048C0002802030008B5024B1B685B6B019308BD0F
:1048D0002802030008B5024B1B681B6C019308BD3E
:1048E0002802030008B5024B1B685B69019308BDF1
:1048F0006402030008B5024B1B689B68019308BD66
:104900006802030008B5024B1B68DB68019308BD11
:104910006802030008B5024B1B68DB69019308BD00
:104920003002030008B5024B1B681B6A019308BDE7
:104930003002030008B5024B1B68DB68019308BD19
:104940003C02030008B5024B1B681B69019308BDBC
:104950003C02030008B5024B1B685B69019308BD6C
:104960003C02030008B5024B1B689B69019308BD1C
:104970003C02030008B5024B1B68DB69019308BDCC
:104980003C02030008B5024B1B681B6A019308BD7B
:104990003C02030008B5024B1B689B6A019308BDEB
:1049A0003C02030008B5024B1B68DB6A019308BD9B
:1049B0003C02030008B5024B1B681B6C019308BD49
:1049C0003C02030008B5024B1B681B68019308BD3D
:1049D0004C02030008B5024B1B681B69019308BD1C
:1049E0004C02030008B5024B1B685B69019308BDCC
:1049F0004C02030008B5024B1B689B69019308BD7C
:104A00004C02030008B5024B1B68DB69019308BD2B
:104A10004C02030008B5024B1B681B6A019308BDDA
:104A20004C02030008B5024B1B685B68019308BD8C
:104A30002002030008B5024B1B685B69019308BDA7
:104A40002002030008B5024B1B68DB6A019308BD16
:104A50002002030008B5024B1B68DB6C019308BD04
:104A60002002030008B5024B1B685B6D019308BD73
:104A70002002030008B5034B1B68D3F8883001936C
:104A800008BD00002002030008B5034B1B68D3F8E3
:104A90009430019308BD00002002030008B5024BCA
:104AA0001B681B68019308BD4402030008B5024B54
:104AB0001B685B68019308BD4402030008B5024B04
:104AC0001B685B69019308BD4402030008B5024BF3
:104AD0001B681B6A019308BD4402030008B5024B22
:104AE0001B68DB6B019308BD4402030008B5024B51
:104AF0001B685B68019308BD4002030008B5024BC8
:104B00001B689B68019308BD4002030008B5024B77
:104B10001B68DB68019308BD4002030008B5024B27
:104B20001B681B69019308BD4002030008B5024BD6
:104B30001B685B69019308BD4002030008B5024B86
:104B40001B689B69019308BD4002030008B5024B36
:104B50001B68DB69019308BD4002030008B5024BE6
:104B60001B681B6A019308BD4002030008B5024B95
:104B70001B681B6B019308BD4002030008B5024B84
:104B80001B685B6B019308BD4002030008B5024B34
:104B90001B681B6C019308BD4002030008B5024B63
:104BA0001B685B6C019308BD4002030008B5024B13
:104BB0001B681B68019308BD1C02030008B5024B6B
:104BC0001B685B68019308BD1C02030008B5024B1B
:104BD0001B689B68019308BD1C02030008B5024BCB
:104BE0001B685B6A019308BD1C02030008B5024BF9
:104BF0001B68DB6A019308BD1C02030008B5024B69
:104C00001B681B6B019308BD1C02030008B5024B17
:104C10001B68DB6B019308BD1C02030008B5024B47
:104C20001B681B6C019308BD1C02030008B5024BF6
:104C30001B685B6C019308BD1C0203000021FFF799
:104C4000F9BE10B5836804460BB901F033FAC368A6
:104C50009847A3681BB10322214620469847204667
:104C60001021BDE81040FFF71ABA10B5836804465A
:104C700013B1032201469847204610BD13B50B46D9
:104C80000246D0E900016C4684E8030093E8030083
:104C900082E8030094E8030083E8030002B010BD3B
:104CA000024800230360FFF7B5BD00BF90E6032074
:104CB000002240681146FFF731BF002240681146CC
:104CC000FFF74CBF002240681146FFF757BF40680E
:104CD0000022FFF74BBF4068002281F00101FFF77F
:104CE00035BF002340681A461946FFF727BF002347
:104CF00040681A461946FFF719BF0022406811465E
:104D0000FFF7FCBE406800220221FFF7FFBE002330
:104D100040681A46FFF7EABE084B10B52824224621
:104D20001846002101F000FE054B04804FF0FF32D1
:104D3000426004225A60034A1A6010BD9CE60320B8
:104D400094E603205C6D0B0070470020704710B59F
:104D500010210446FFF7A3F9204610BD08B5FFF760
:104D6000F6FF08BD30B500224FF69C7402608480C7
:104D70008D888C800C68858004600A6030BD10B519
:104D800004460068FFF71AFF204610BD38B5C46816
:104D9000F4B12378022B03D104F10C00FFF7EFFFED
:104DA000656835B12846FFF760FF10212846FFF7F8
:104DB00076F9A56835B12846FFF757FF1021284638
:104DC000FFF76DF920461421BDE83840FFF767B9B9
:104DD00038BD10B588B00446684600F0FEFD69464F
:104DE00004A800F01DFE04A8A047044604A800F093
:104DF000A9FD684600F0A6FD204608B010BD1FB50D
:104E00000023CDE90201019210241A466946184692
:104E1000ADF80230ADF80040FFF748FE04B010BD19
:104E20000B6803604B68436013B15A6801325A60E3
:104E3000704737B5044668460D46FFF7F1FF009B03
:104E4000019A23606260002301A801930093FFF799
:104E500017FA35B1281DFFF713FA08212846FFF786
:104E60001EF9204603B030BD826810B50AB901F0C2
:104E700021F9BDE81040C368184708B5006800F183
:104E80001001FFF7F1FF08BD826810B50AB901F003
:104E900011F9BDE81040C368184708B5006800F173
:104EA0001001FFF7F1FF08BD38B500230446036089
:104EB00010200D46FFF7EFF828B10123C0E90133B8
:104EC000024B0360C5602060204638BD986D0B0022
:104ED00038B5002383608B6804460D462BB102224F
:104EE0009847EB68E360AB68A360204638BD0000DC
:104EF000F0B589B004686846FFF734FF4FF002034D
:104F0000D4E84F2F002A03D1C4E8413F0029F7D14C
:104F100025D104F10C0569462846FFF723FFBFF3AE
:104F20005B8F01236370002004F10803BFF35B8FE4
:104F300053E8006F43E80002002AF9D1BFF35B8F0A
:104F40006EB1FFF787FD78B129463046FFF78CFF39
:104F50003046FFF78AFE10213046FFF7A0F868467A
:104F6000FFF70DFF09B0F0BD314602A8FFF7B0FF13
:104F7000E068B4F9105008B101F014FD069010205B
:104F8000ADF81C50FFF787F80546E8B100278760A9
:104F90001820FFF780F8044688B10146876002A810
:104FA000FFF76CFE049BA268A360059B049206A910
:104FB000E268E36004F110000592FFF7D3FE084BAE
:104FC000EB60084B2C60AB6006A8FFF7D8FE02A888
:104FD000FFF74BFE002229460348FFF743FDB7E7E2
:104FE0007B4E0B00FD500B00434C0B002DE9F04FA6
:104FF0008BB005469DF850A00F4690469946FFF7A6
:105000005DFD07AE834638BB4FF62E73059005A9AC
:105010003046ADF81830FFF7A5FE1420FFF73BF837
:10502000044648B1022303700123C0E901BB437069
:1050300031460C30FFF796FE2846214640F8044BD7
:10504000FFF732FF3046FFF79AFE05A8FFF797FEFD
:1050500028460BB0BDE8F08F0C2300241420CDE9C6
:1050600008440793FFF717F8014618B1C0E9014457
:105070000470447004A80391FFF716FF1E4B0893B9
:105080000820FFF708F8044610B103A9FFF7C8FE8F
:1050900000965FFA8AF34A46414638460994FFF77C
:1050A00015FDB8B9039B5B7803F0FF0293B94FF687
:1050B0009C7305A903A80592ADF81830FFF718FFF7
:1050C00005A8FFF75CFE05A80999FFF7B2FE06A840
:1050D000FFF7D6F803A905A8FFF7A2FE059B069ADD
:1050E0002B606A60002306A806930593FFF7C8F8B3
:1050F00004A8FFF7C5F8ABE779510B00012AF8B512
:10510000054603D10B6803600020F8BD022A10D0C9
:10511000032AF9D10468002CF6D004F11000FFF73F
:105120002EFE2046FFF7A1FD18212046FEF7B7FF0F
:10513000EAE718200E68FEF7AEFF044650B131468C
:10514000FFF7C6FE3069B6F9147008B101F02AFC09
:105150002061A7822C60D7E738B5002383608B6875
:1051600004460D462BB102229847EB68E360AB681A
:10517000A360204638BD0000F0B589B004460D4656
:1051800001A81146FFF755FEA4B124B21DB128466F
:1051900001F008FC054601A803A90395ADF81040ED
:1051A000FFF7A6FE03A8FFF7EAFD02A8FFF768F8DD
:1051B00009B0F0BD019D0123D5E84F2F002A03D18E
:1051C000C5E8413F0029F7D1EFD12B73BFF35B8FC7
:1051D0006B702B1DBFF35B8F53E8006F43E80042F9
:1051E000002AF9D1BFF35B8F002EDED02046FFF7F7
:1051F00031FC074660B105F10C013046FFF744FE73
:105200003046FFF732FD10213046FEF748FFCCE76D
:10521000314603A8FFF7A0FF2B7B8DF81C30102030
:10522000FEF739FF0546D0B187601420FEF733FF43
:10523000044678B18760014603A8FFF71FFD059B70
:10524000A268A360069B0592E268E3609DF81C30AB
:1052500006922374064BEB60064B2C60AB6003A8F0
:10526000FFF703FD002229460348FFF7FBFBC7E7D2
:105270009B4E0B007D520B00434C0B00012A70B576
:10528000044603D10B680360002070BD022A0CD0D5
:10529000032AF9D10468002CF6D02046FFF7E5FC7C
:1052A00014212046FEF7FBFEEEE714200E68FEF701
:1052B000F2FE054620B13146FFF74EFF337C2B74DA
:1052C0002560E1E7002240681146FFF747BC002255
:1052D00040681146FFF752BC40680022FFF746BC09
:1052E0004068002281F00101FFF730BC00234068D4
:1052F0001A461946FFF722BC002340681A46194691
:10530000FFF714BC002240681146FFF707BC0022DB
:1053100040681146FFF7F2BB406800220221FFF708
:10532000F5BB002340681A46FFF7E0BB024B03229F
:105330005A60024A1A607047C4E60320B46D0B003D
:105340007047F8B5064615460C468F18BC4206D085
:10535000336814F8011B9B6830469847F6E72846E7
:10536000F8BD007C0022FFF785BA007C0021FFF722
:1053700089BA007C0021FFF78DBA007C0021FFF77D
:1053800091BA007C0021FFF795BA10B514210446AC
:10539000FEF785FE204610BD38B5044615464FF48D
:1053A0007A730022C4E90123094B21740846236063
:1053B0002946FFF78FFABF3008D16B69DB0705D5A7
:1053C0006868FFF7FBFBE868FFF7F8FB204638BD8D
:1053D000F06D0B00704710B518210446FEF75FFE14
:1053E000204610BDF0B5037D062B8DB00E4600F1B2
:1053F00004074FF0000412D000F1080515F8011D54
:105400000A22304600F059F9AF42044419D0002C6A
:10541000F4D02E21304600F037F90444EEE72F2374
:105420006A4639460A208DF80040FFF75BFA684665
:1054300001F0D5FA33680246DB6869463046984782
:10544000044620460DB0F0BD10B5054B04461122B0
:1054500040F8043B002101F067FA204610BD00BF70
:10546000186E0B000346074A10B543F8042B01F1F0
:10547000100251F8044B43F8044B9142F9D10A78D9
:105480001A7010BD186E0B0010B59DF8084044EA64
:10549000032343EA024242EA0161042341600375A7
:1054A00010BD000007B5064B0360CB7800938B78E6
:1054B0004A780978FFF7E8FF03B05DF804FB00BF06
:1054C000186E0B00014B024A1A607047CCE60320AD
:1054D000246E0B00002340681A46FFF707BB4068A4
:1054E00000220221FFF712BB002240681146FFF79D
:1054F00005BB002240681146FFF710BB002340683F
:105500001A461946FFF712BB002340681A4619468F
:10551000FFF714BB40680021FFF738BB406800214B
:10552000FFF73CBB4068002281F00101FFF70EBB92
:1055300040680022FFF71ABB002240681146FFF7BF
:105540001DBB002240681146FFF708BB2DE9F04360
:1055500095B014460D460746FFF776FF00211C2242
:105560000DA8009101F0E0F940230C9320466B4612
:105570000CAA0021FFF7C6F9044600284BD10246C9
:1055800001216868FFF7CAFA02218046224668684E
:10559000FFF7C4FA009E81462146002E3BD0002929
:1055A00039D17368022B03D00A2B11D0F669F4E7C6
:1055B000B8F1000FFAD0716906A8043107ADFFF702
:1055C00071FF0FCD3C1D0FC42B6823704146EDE7E2
:1055D000B9F1000FEAD07469102201A801F0A4F912
:1055E00006238DF8143001AD04F10803183418684F
:1055F00059682A4603C20833A3421546F7D101A9C8
:1056000006A807ADFFF72EFF0FCD3C1D0FC42B687A
:1056100023704946CAE70098FFF76CF9384615B081
:10562000BDE8F083024B034A1A6000225A607047BB
:10563000D0E60320306E0B00F8B506460D468F18F5
:105640000024BD420CD0336815F8011B9B6830461E
:105650009847031E01DB1C44F3E7002C08BF1C46DF
:105660002046F8BD13B50446084659B1019101F032
:10567000B6F923680199DB680246204602B0BDE80E
:105680001040184702B010BD03689B68184738B532
:105690000D210546FFF7F8FF0A2104462846FFF7CB
:1056A000F3FF204438BD38B50546FFF7DBFF04465D
:1056B0002846FFF7ECFF204438BD30B58BB00023FF
:1056C000012A8DF8243098BF0A2209AC0D46B1FB9F
:1056D000F2F101FB125303F0FF03092B94BF3033A7
:1056E0003733DBB2AA4204F8013DEFD92146FFF778
:1056F000B9FF0BB030BD2DE9F04186B000AF0546D3
:105700000E46381D142114463B60FFF767FA132834
:105710000ED8391D2846FFF7A5FF04461EB12846BE
:10572000FFF7B5FF044420461837BD46BDE8F081B9
:1057300000F1080323F00703E846ADEB030D224612
:10574000411C3B686846FFF749FA69462846FFF75F
:1057500089FF0446C546E1E7014B00229A60704785
:10576000D8E6032010B5044608462170FFF7D2F8AA
:1057700000236360204610BD10B50446FFF75AF8B9
:10578000E060236820465B699847002808DAFFF745
:1057900051F8E368C01AA3689842F2D34FF0FF3083
:1057A00010BD10B50446FFF745F8E06023682046B9
:1057B0009B699847002808DAFFF73CF8E368C01AAD
:1057C000A3689842F2D34FF0FF3010BD10B50446E5
:1057D0002046FFF7E6FF00280ADB2D2808D0A0F1BD
:1057E0003003092B04D9236820465B699847EFE70B
:1057F00010BD2DE9F04105460E46FFF7E7FF0028F2
:105800004FF000041CDB27464FF00A08864208D000
:105810002D2818D0A0F13003092B02D808FB04046E
:10582000303C2B6828465B6998472846FFF7B9FF4C
:10583000A0F13003092BE9D98642F2D007B16442C6
:105840002046BDE8F0810127EBE70121FFF7D1BF3A
:105850002DE9F84F2DED028B05460E46FFF7B6FFFA
:10586000002847DB0FF29C09D9E900890024B7EE34
:10587000008A2746A2464FF00A0B864217D02D28F1
:1058800033D02E2834D0A0F13003092B0FD80BFBD6
:105890000404303C5FB118EE100A00F073FD42467C
:1058A0004B4600F0C7FD00F0D7FF08EE100A2B684A
:1058B00028465B6998472846FFF773FFA0F130033D
:1058C000092BDAD92E28D8D08642F0D0BAF1000FB1
:1058D00000D0644207EE904AB8EEE70A0FB120EE1E
:1058E000080ABDEC028BBDE8F88F4FF0010ADEE735
:1058F0000127DCE79FED020AF3E700BFAFF300806A
:10590000000000009A9999999999B93F0121FFF7F0
:105910009FBF000070B50D4609490446164600F0C9
:105920005CF82846FFF728FF002806DB864204D0F3
:10593000C1B2204600F0BBF8F3E7204670BD00BFBF
:10594000826C0B0010B504460068FFF737F920465B
:1059500010BD10B50446006808B1FFF72FF9002309
:10596000C4E90133236010BD38B504460D46006814
:105970000131FFF72BF910B1C4E90005012038BD52
:1059800010B50368044623B143688B4201D301205C
:1059900010BD2046FFF7E8FF0028F9D0A368002BD0
:1059A000F5D122681370F2E737B50D461146019222
:1059B0000446FFF7E5FF019A28B92046FFF7C9FF23
:1059C000204603B030BDA2602946206800F09EFF4B
:1059D0002268A3680021D154F2E7002313B5C0E97F
:1059E000003304468360037341B10846019100F01F
:1059F000F6FF019902462046FFF7D6FF204602B087
:105A000010BD884210B5044605D00B682BB18A68DA
:105A10001946FFF7C9FF204610BDFFF79AFFFAE7C6
:105A200010B500230446C0E9003383600373FFF719
:105A3000E8FF204610BD13B5044659B10846019150
:105A400000F0CDFF019902462046FFF7ADFF20464A
:105A500002B010BDFFF77DFFF9E710B504468AB02C
:105A60000023C4E90033A3602373084601A900F0B2
:105A700085F901A92046FFF7DEFF20460AB010BDD8
:105A800070B505460E4609B9002070BD6AB184683C
:105A900014442146FFF774FF0028F5D02868AB684E
:105AA0003146184400F076FFAC600120EDE707B501
:105AB00000238DF80410012201A98DF80530FFF7AD
:105AC000DFFF03B05DF804FB006808B100F01ABF07
:105AD000704700000EB470B587B00BAD044655F8A2
:105AE000042B01922B46052104A80395FFF776F8B5
:105AF0000B4906462046FFF770FF31462046FFF768
:105B00003FFF206830B1019A03952B46711CFFF7C7
:105B100065F8A060204607B0BDE8704003B070474C
:105B2000826C0B00054B02221A60054B054A9A60F5
:105B30000020C3E90000FEF775BF00BFF4E60320B4
:105B4000E8E603200000FFFF024B1A68024B1A60D0
:105B5000704700BFBCE50320F8E60320704741749E
:105B6000704708B5007CFEF715FF20EAE07008BD1D
:105B700008B5007CFEF7E6FE20EAE07008BD08B537
:105B8000007CFEF7EFFE40EAE07008BD08B5007C3F
:105B9000FEF7E0FE40EAE07008BD007CFEF7EABEDA
:105BA00037B5457C04462DB1207C03B0BDE83040BC
:105BB000FEF7C0BE007C0191FEF7ECFE00280199C3
:105BC000F2DC284603B030BD10B514210446FEF7C0
:105BD00066FA204610BD000010B54FF47A730446F3
:105BE000084611460022C4E90123044B2360012327
:105BF00020746374FEF7DEFE204610BD886E0B0035
:105C0000007C0023FEF7CEBE0022FFF7F9BF4174EF
:105C100070477047704708B50021007CFEF7EAFE28
:105C200040EAE07008BD08B50121007CFEF7E2FE05
:105C300040EAE07008BD08B5007CFEF7D3FE20EA1C
:105C4000E07008BD08B5007CFEF7C4FE20EAE070F5
:105C500008BD13B50446007C0191FEF7C3FE002881
:105C6000019901DC607C20B1207CFEF7CBFE20EAAC
:105C7000E07002B010BD007CFEF7CCBE10B5142160
:105C80000446FEF70CFA204610BD000010B54FF494
:105C90007A73044608460021C4E90113044B2360CB
:105CA0000123207463741146FEF78CFE204610BD5C
:105CB000B86E0B0010B514220446002100F034FE2B
:105CC000204610BD10B50F4C88B003A8FFF7F2FFB7
:105CD0002178BFF35B8F11F001010FD120460191B4
:105CE000FEF7DFF9019948B103AA0748FFF7CEFF95
:105CF0002046FEF7DBF9054800F0FEFD024808B03B
:105D000010BD00BFFCE6032000E70320135C0B007E
:105D100010B5044600F063FE013823182046834284
:105D200006D90278197800F8011B03F80129F6E773
:105D300010BD70B50C46911E22291DD8254630B9DC
:105D4000234430229D4210D205F8012BFAE7B0FB24
:105D5000F2F602FB1600C1B2092894BF3031573168
:105D6000C9B205F8011B3046E9E7002320462B7035
:105D7000FFF7CEFF204670BD0020FCE738B5031EBC
:105D80000C4615460EDAB3F1004F4FF02D0214BF4A
:105D90005842184601230A702A461944FFF7C9FFE2
:105DA000204638BD0123F9E7014B1860704700BF5A
:105DB000C0E5032008B50B4B43B1FFF783FF036831
:105DC0001B699847002801DDAFF30080064B43B103
:105DD00000F04AF903681B699847002801DDAFF31A
:105DE000008008BD000000000000000008B5FFF7BB
:105DF000E1FFFEF71FFD014B186008BD28E70320F7
:105E00000548064A064908B5121A00F07FFD054B01
:105E1000054A1A6008BD00BF00F4032004F4032003
:105E2000A4700B0000F403201E1C279A07B5002362
:105E300000931A466FF07701FEF726FE03B05DF877
:105E400004FB000007B543880A2B08D0502B0BD168
:105E5000094B1B684BB103B05DF804EB1847FFF723
:105E6000E5FF03B05DF804FB002300931A466FF0D2
:105E70007701FEF709FEF4E718E7032010B5124892
:105E80000021FEF7D3FE114B1A68114B9A42114BB9
:105E90000CBF012200221A7001D0FFF7B1FFFEF7FC
:105EA000C1FC044600F048FD0B4B13B12046AFF394
:105EB000008000210848FEF711FEBDE810400748A9
:105EC0000021FEF7D7BD00BFA95D0B0000F4032041
:105ED0001E1C279A14E7032000000000455E0B00FB
:105EE000232813B502D9002002B010BDA0F10B0386
:105EF000022B1AD8174C2178BFF35B8F11F00101E8
:105F00000BD120460191FEF7CCF8019928B1124837
:105F1000FFF728FC2046FEF7C9F80F4B1878FEF76C
:105F200001FD0028DFD10120DEE7012809D800F0BB
:105F30005BF80021007CFEF7C5FC80F00100C0B2D8
:105F4000D2E709380128EED800F08EF8007CFEF781
:105F500019FDF2E71CE7032020E70320232838B5CA
:105F600004460D460AD8FF2908D0FFF7B9FF28B12B
:105F700029462046BDE83840FEF764BC38BD38B538
:105F800004460D46FEF766FCFF2810D0062804D80C
:105F90004D2323FA00F0C30709D42046FFF7A0FFE2
:105FA00028B129462046BDE83840FEF75BBC38BD25
:105FB0007047000038B50A4B036001230446436173
:105FC0000849202000F074F8202560600549A5608C
:105FD000284600F06DF8C4E90305204638BD00BF2F
:105FE00018000100E06E0B0030B50E4D2978BFF3AC
:105FF0005B8F11F0010487B011D12846FEF751F8EC
:1060000068B16846FFF7D6FF6A4621460648FFF7A3
:10601000C3F92846FEF74AF8044800F06DFC024830
:1060200007B030BD2CE7032030E70320B15F0B0041
:106030007047000038B5044614252A46002100F0B8
:1060400073FC25804025074925812846258200F0DC
:106050002FF804496060284600F02AF8E0602046E6
:1060600038BD00BFE06E0B0030B50E4D2978BFF390
:106070005B8F11F0010487B011D12846FEF711F8AB
:1060800068B101A8FFF7D6FF01AA21460648FFF72D
:10609000A3FD2846FEF70AF8044800F02DFC02484C
:1060A00007B030BD44E7032048E7032031600B0010
:1060B000FDF7F3BF08B5FEF799FD000081F0004140
:1060C00002E000BF83F0004330B54FEA41044FEADD
:1060D000430594EA050F08BF90EA020F1FBF54EA78
:1060E000000C55EA020C7FEA645C7FEA655C00F014
:1060F000E2804FEA5454D4EB5555B8BF6D420CDDE5
:106100002C4480EA020281EA030382EA000083EA67
:10611000010180EA020281EA0303362D88BF30BD07
:1061200011F0004F4FEA01314FF4801C4CEA11315D
:1061300002D0404261EB410113F0004F4FEA0333BC
:106140004CEA133302D0524263EB430394EA050F47
:1061500000F0A780A4F10104D5F1200E0DDB02FAB6
:106160000EFC22FA05F2801841F1000103FA0EF24A
:10617000801843FA05F359410EE0A5F120050EF110
:10618000200E012A03FA0EFC28BF4CF0020C43FA41
:1061900005F3C01851EBE37101F0004507D54FF04E
:1061A000000EDCF1000C7EEB00006EEB0101B1F59E
:1061B000801F1BD3B1F5001F0CD349085FEA3000E4
:1061C0004FEA3C0C04F101044FEA445212F5800FEF
:1061D00080F09A80BCF1004F08BF5FEA500C50F18C
:1061E000000041EB045141EA050130BD5FEA4C0C6F
:1061F000404141EB0101013C28BFB1F5801FE9D2CC
:1062000091F0000F04BF01460020B1FA81F308BFEE
:106210002033A3F10B03B3F120020CDA0C3208DDBA
:1062200002F1140CC2F10C0201FA0CF021FA02F195
:106230000CE002F11402D8BFC2F1200C01FA02F105
:1062400020FA0CFCDCBF41EA0C019040E41AA2BF2A
:1062500001EB0451294330BD6FEA04041F3C1CDAF2
:106260000C340EDC04F11404C4F1200220FA04F012
:1062700001FA02F340EA030021FA04F345EA0301BC
:1062800030BDC4F10C04C4F1200220FA02F001FA7E
:1062900004F340EA0300294630BD21FA04F0294600
:1062A00030BD94F0000F83F4801306BF81F4801199
:1062B0000134013D4EE77FEA645C18BF7FEA655C0C
:1062C00029D094EA050F08BF90EA020F05D054EADE
:1062D000000C04BF1946104630BD91EA030F1EBFE3
:1062E0000021002030BD5FEA545C05D140004941E7
:1062F00028BF41F0004130BD14F580043CBF01F5DA
:10630000801130BD01F0004545F0FE4141F47001BF
:106310004FF0000030BD7FEA645C1ABF194610469A
:106320007FEA655C1CBF0B46024650EA013406BF9B
:1063300052EA033591EA030F41F4002130BD00BF5A
:1063400090F0000F04BF0021704730B54FF4806417
:1063500004F132044FF000054FF0000150E700BF98
:1063600090F0000F04BF0021704730B54FF48064F7
:1063700004F1320410F0004548BF40424FF00001E4
:106380003EE700BF42004FEAE2014FEA31014FEA27
:1063900002701FBF12F07F4393F07F4F81F0605176
:1063A000704732F07F4208BF704793F07F4F04BFC1
:1063B00041F40021704730B54FF4607401F000459E
:1063C00021F000411CE700BF50EA010208BF7047FE
:1063D00030B54FF000050AE050EA010208BF7047EF
:1063E00030B511F0004502D5404261EB41014FF458
:1063F000806404F132045FEA915C3FF4D8AE4FF060
:1064000003025FEADC0C18BF03325FEADC0C18BF42
:10641000033202EBDC02C2F1200300FA03FC20FA93
:1064200002F001FA03FE40EA0E0021FA02F11444E0
:10643000BDE600BF70B54FF0FF0C4CF4E06C1CEAF9
:1064400011541DBF1CEA135594EA0C0F95EA0C0F6A
:1064500000F0DEF82C4481EA030621EA4C5123EADD
:106460004C5350EA013518BF52EA033541F480110C
:1064700043F4801338D0A0FB02CE4FF00005E1FBBF
:1064800002E506F00042E0FB03E54FF00006E1FB09
:1064900003569CF0000F18BF4EF0010EA4F1FF044C
:1064A000B6F5007F64F5407404D25FEA4E0E6D418C
:1064B00046EB060642EAC62141EA55514FEAC5209D
:1064C00040EA5E504FEACE2EB4F1FD0C88BFBCF519
:1064D000E06F1ED8BEF1004F08BF5FEA500E50F1CA
:1064E000000041EB045170BD06F0004646EA010190
:1064F00040EA020081EA0301B4EB5C04C2BFD4EBC2
:106500000C0541EA045170BD41F480114FF0000EBA
:10651000013C00F3AB8014F1360FDEBF002001F028
:10652000004170BDC4F10004203C35DA0C341BDCA2
:1065300004F11404C4F1200500FA05F320FA04F074
:1065400001FA05F240EA020001F0004221F00041A8
:1065500010EBD37021FA04F642EB06015EEA430E1B
:1065600008BF20EAD37070BDC4F10C04C4F120054B
:1065700000FA04F320FA05F001FA04F240EA0200FE
:1065800001F0004110EBD37041F100015EEA430ECF
:1065900008BF20EAD37070BDC4F1200500FA05F2EF
:1065A0004EEA020E20FA04F301FA05F243EA02036E
:1065B00021FA04F001F0004121FA04F220EA02007D
:1065C00000EBD3705EEA430E08BF20EAD37070BDC3
:1065D00094F0000F0FD101F00046400041EB0101A3
:1065E00011F4801F08BF013CF7D041EA060195F085
:1065F000000F18BF704703F00046520043EB03033F
:1066000013F4801F08BF013DF7D043EA060370472B
:1066100094EA0C0F0CEA135518BF95EA0C0F0CD036
:1066200050EA410618BF52EA4306D1D181EA03017C
:1066300001F000414FF0000070BD50EA410606BF76
:106640001046194652EA430619D094EA0C0F02D1BB
:1066500050EA013613D195EA0C0F05D152EA033600
:106660001CBF104619460AD181EA030101F000411E
:1066700041F0FE4141F470014FF0000070BD41F067
:10668000FE4141F4780170BD70B54FF0FF0C4CF441
:10669000E06C1CEA11541DBF1CEA135594EA0C0F60
:1066A00095EA0C0F00F0A7F8A4EB050481EA030EAD
:1066B00052EA03354FEA013100F088804FEA033394
:1066C0004FF0805545EA131343EA12634FEA022262
:1066D00045EA111545EA10654FEA00260EF0004123
:1066E0009D4208BF964244F1FD0404F5407402D275
:1066F0005B084FEA3202B61A65EB03055B084FEA06
:1067000032024FF480104FF4002CB6EB020E75EB02
:10671000030E22BFB61A754640EA0C005B084FEA2A
:106720003202B6EB020E75EB030E22BFB61A7546A7
:1067300040EA5C005B084FEA3202B6EB020E75EBF2
:10674000030E22BFB61A754640EA9C005B084FEA6A
:106750003202B6EB020E75EB030E22BFB61A754677
:1067600040EADC0055EA060E18D04FEA051545EA66
:1067700016754FEA06164FEAC30343EA52734FEA0F
:10678000C2025FEA1C1CC0D111F4801F0BD141EA88
:1067900000014FF000004FF0004CB6E711F4801FED
:1067A00004BF01430020B4F1FD0C88BFBCF5E06FCD
:1067B0003FF6AFAEB5EB030C04BFB6EB020C5FEADD
:1067C000500C50F1000041EB045170BD0EF0004E32
:1067D0004EEA113114EB5C04C2BFD4EB0C0541EA64
:1067E000045170BD41F480114FF0000E013C90E661
:1067F00045EA060E8DE60CEA135594EA0C0F08BF25
:1068000095EA0C0F3FF43BAF94EA0C0F0AD150EA23
:1068100001347FF434AF95EA0C0F7FF425AF1046B6
:1068200019462CE795EA0C0F06D152EA03353FF4DE
:10683000FDAE1046194622E750EA410618BF52EA5B
:1068400043067FF4C5AE50EA41047FF40DAF52EA2F
:1068500043057FF4EBAE12E74FEA4102B2F1E043A9
:1068600024BFB3F5001CDCF1FE5C0DD901F0004C37
:106870004FEAC0024CEA5070B2F1004F40EB830087
:1068800008BF20F00100704711F0804F21D113F1B3
:106890003872BCBF01F00040704741F480114FEAEC
:1068A0005252C2F11802C2F1200C10FA0CF320FA75
:1068B00002F018BF40F001004FEAC1234FEAD32392
:1068C00003FA0CFC40EA0C0023FA02F34FEA4303FC
:1068D000CCE77FEA625307D150EA01331EBF4FF085
:1068E000FE4040F44000704701F0004040F0FE40A0
:1068F00040F40000704700BF002301461A461846C6
:1069000000F002B90A22002100F0F4B80A449142D2
:1069100000F1FF3300D1704710B511F8014B03F8B7
:10692000014F9142F9D110BD02440346934200D178
:10693000704703F8011BF9E738B5104B1D68AB6BC6
:106940000446B3B91820FEF731F90246A86320B90E
:106950000B4B0C484221FEF761F90B490B4BC0E988
:1069600000130B4B83600B23838100210120C2E9BC
:106970000401AB6B00221C615A6138BDC0E50320E5
:10698000E16E0B00F86E0B000E33CDAB34126DE6EA
:10699000ECDE0500034611F8012B03F8012B002A59
:1069A000F9D17047024B0146186800F003B800BFE8
:1069B000C0E5032037B5044608460D4600F00FF841
:1069C000421C114620460192FEF718F9044618B100
:1069D000019A2946FFF79AFF204603B030BD0346CF
:1069E00013F8012B002AFBD1181A01387047000058
:1069F000012B2DE9F04701D0242B06D9FEF706F92B
:106A0000162303600020BDE8F087DFF8E4C00D46E0
:106A10002E4615F8014B14F80C7017F00807F7D143
:106A20002D2C32D12C780127B51C002B5BD0102BDC
:106A300009D1302C07D12C7804F0DF04582C4DD12B
:106A40006C781023023507F1004808F1FF384FF049
:106A5000000CB8FBF3F9664603FB198AA4F1300E6B
:106A6000BEF1090F16D87446A34224DDBCF1000F15
:106A70001EDBB1451CD301D1A24519DB06FB034641
:106A80004FF0010C15F8014BE8E72B2C04BF2C78D4
:106A9000B51CCAE7A4F1410EBEF1190F01D8373C6D
:106AA000E2E7A4F1610EBEF1190F04D8573CDBE711
:106AB0004FF0FF3CE6E7BCF1000F05DA222303604C
:106AC000464642B930469EE707B17642002AF9D0E1
:106AD000BCF1000F00D0691E1160F3E73024002BD9
:106AE000B1D10823AFE7302CA5D00A23ABE700BF14
:106AF000526F0B0013460A46014602480068FFF732
:106B000077BF00BFC0E503202DE9F843DFF8B88068
:106B10000646D8F800001F460D46914600F056F88C
:106B2000254B1C6834B9254C1C60254B13B11B68E0
:106B3000C4F8883063681F2B07DDD8F8000000F028
:106B400047F84FF0FF30BDE8F8834EB3D4F8880023
:106B500088B91C4B23B9D8F8000000F038F8F0E7EA
:106B60004FF48470FEF722F80028F4D00023C0E927
:106B70004033C4F88800636840F8239001229A40AB
:106B800000EB8301D0F800311343C0F80031022E2E
:106B9000C1F8807002BFD0F804311343C0F804314B
:106BA0006368D8F800005A1C0233626044F823502E
:106BB00000F00EF80020C6E7E8E703205CE70320BA
:106BC00000000000AD4B0B0024E603207047704727
:106BD0007047000021400B005D400B0085400B001A
:106BE00089400B00000000004C61737420436F75F6
:106BF0006E7400546F74616C2056656869636C65CF
:106C00007300526563616C696272617465204261F0
:106C100073656C696E6500536574207468652054F3
:106C200068726573686F6C6400536574207468657E
:106C3000205265736574205468726573686F6C6464
:106C4000005B6D61675F524D533A2025662C206DC5
:106C500061675F783A2025662C206D61675F793A1D
:106C60002025662C206D61675F7A3A2025665D00DD
:106C7000446574656374696E672056656869636C02
:106C800065210052656C65617365642E00434F4E4B
:106C9000463A424153005468726573686F6C643AB7
:106CA0002025642C205265736574205468726573C6
:106CB000686F6C643A2025642C20426173656C69AE
:106CC0006E6520256600496E697469616C697A6534
:106CD0006400434F4E463A544852202564004E65A6
:106CE00077205468726573686F6C64205365740014
:106CF000434F4E463A524553202564004E65772057
:106D00005265736574205468726573686F6C642093
:106D100053657400546F74616C2056656869636CC8
:106D20006520436F756E7400436F756E74205265F5
:106D30007472696576656400436F756E7420526580
:106D4000736574000000000000000000C9430B00E0
:106D5000CB430B0000000000000000000F4D0B00B3
:106D6000054D0B00FB4C0B00B14C0B00EF4C0B0026
:106D7000E34C0B0015550B001D550B00D74C0B00B9
:106D8000CF4C0B00C54C0B00BB4C0B004D550B0002
:106D90000000000000000000494D0B004F4D0B00AB
:106DA0008D4D0B005D4D0B004B4D0B0000000000A6
:106DB0000000000023530B0019530B000F530B006E
:106DC00005530B00F9520B00ED520B0015550B004B
:106DD0001D550B00E1520B00D9520B00CF520B0096
:106DE000C5520B004D550B000000000000000000D4
:106DF00041530B008B530B0063530B0043530B00A9
:106E00006B530B0073530B007B530B0083530B002E
:106E10000000000000000000E5530B00D5530B00FC
:106E2000D7530B00617070000000000000000000EC
:106E3000D5540B00DF540B00E9540B00F3540B0046
:106E4000FD540B0009550B0015550B001D550B008B
:106E500025550B0031550B0039550B0043550B00E0
:106E60004D550B0025592D256D2D25645425483A87
:106E7000254D3A2553257A0061736374696D650069
:106E800000000000000000005D5B0B00C95B0B0010
:106E9000A15B0B0039560B00715B0B008D5B0B0087
:106EA0007F5B0B009B5B0B005F5B0B00635B0B006E
:106EB0000000000000000000155C0B007D5C0B0072
:106EC000535C0B0039560B00455C0B00175C0B0044
:106ED000275C0B00775C0B00375C0B000F5C0B0032
:106EE000005245454E54206D616C6C6F6320737584
:106EF00063636565646564002F746D702F6A656EE9
:106F00006B696E732D4743432D31302D7069706569
:106F10006C696E652D34385F323032303131323445
:106F20005F313630363138303633392F7372632F54
:106F30006E65776C69622F6E65776C69622F6C691C
:106F400062632F7374646C69622F72616E642E6366
:106F50000000202020202020202020282828282849
:106F60002020202020202020202020202020202021
:106F70002020881010101010101010101010101079
:106F80001010040404040404040404041010101079
:106F90001010104141414141410101010101010134
:106FA00001010101010101010101010101101010A4
:106FB0001010104242424242420202020202020207
:106FC0000202020202020202020202020210101077
:106FD0001020000000000000000000000000000081
:106FE00000000000000000000000000000000000A1
:106FF0000000000000000000000000000000000091
:107000000000000000000000000000000000000080
:107010000000000000000000000000000000000070
:107020000000000000000000000000000000000060
:107030000000000000000000000000000000000050
:107040000000000000000000000000000000000040
:107050000000000099430B0009480B00A14C0B00F5
:10706000194D0B002D530B00C5540B0025560B007A
:1070700059570B00255B0B00495B0B00000000001B
:10708000040000001400000003000000474E5500FB
:10709000F29F9183CCDB599C83422F55FED3E014A1
:0470A0003328D69A21
:0470A40000000000E8
:1070A80007000000786E0B00C4E503200000000014
:1070B80000000000000000000000000000000000C8
:1070C80000000000000000000000000000000000B8
:1070D80000000000000000000000000000000000A8
:1070E8000000000000000000000000000000000098
:1070F8000000000000000000000000000000000088
:10710800000000000000000000000000ECE7032081
:10711800FFFFFFFF00000102030405060708090A34
:107128000B0C0D0E0F101112131415161718191A2F
:087138001B1C1D1E1F20280076
:047140007856341237
:04000003B0004020E9
:00000001FF
