:02000002B0004C
:1040000000400B0080530B00000006000D0005026D
:0840100004010410000000008F
:0440180090500B00B9
:10401C0009480A49884208B505D0094A824202D0AB
:10402C00121A00F07DFF0748074A0021121A00F00F
:10403C0085FF014808BD00BF14E60320E8520B00C1
:10404C0084E6032084E60320EDE7032070B5074ED9
:10405C00074C00F031FEA41BA4080025AC4200D193
:10406C0070BD56F8043B98470135F7E79C520B009E
:10407C00C0520B0000F014B808B500F03BF8BDE8D6
:10408C00084000F0D1BD00F011BA00F017BA00786A
:10409C00B0FA80F0400970470123037070470000AC
:1040AC0008B500F079FD4FF4E13100F065FD00F04A
:1040BC000BFF4FF4E13100F009FD00F06DFD00F055
:1040CC005FFD10B900F082F9F7E700F065FD00F034
:1040DC0057FD00F061FD054900F04DFC044B01213A
:1040EC001888BDE8084000F057BE00BFA4500B0074
:1040FC0014E6032038B500F0E7FE03681B69984707
:10410C00C8B100F049FD036804469D6800F0DCFE70
:10411C0003685B699847C1B22046A847064B1C88C8
:10412C00204600F063FEB0FA80F149092046BDE854
:10413C00384000F042BE38BD14E60320044B002288
:10414C00C3E90022A2F580329A60032000F022B964
:10415C0084E6032008B5024B1B685B6C019308BD19
:10416C004802030008B5024B1B685B68019308BD4D
:10417C001802030008B5024B1B685B69019308BD6C
:10418C001802030008B5024B1B689B68019308BD1D
:10419C002C02030008B5024B1B68DB68019308BDB9
:1041AC002C02030008B5024B1B681B69019308BD68
:1041BC002C02030008B5024B1B685B69019308BD18
:1041CC002C02030008B5024B1B681B6A019308BD47
:1041DC002802030008B5024B1B685B6A019308BDFB
:1041EC002802030008B5024B1B689B6A019308BDAB
:1041FC002802030008B5024B1B68DB6A019308BD5B
:10420C002802030008B5024B1B681B6B019308BD09
:10421C002802030008B5024B1B685B6B019308BDB9
:10422C002802030008B5024B1B681B6C019308BDE8
:10423C002802030008B5024B1B685B69019308BD9B
:10424C006402030008B5024B1B689B68019308BD10
:10425C006802030008B5024B1B68DB68019308BDBC
:10426C006802030008B5024B1B68DB69019308BDAB
:10427C003002030008B5024B1B681B6A019308BD92
:10428C003002030008B5024B1B68DB68019308BDC4
:10429C003C02030008B5024B1B681B69019308BD67
:1042AC003C02030008B5024B1B685B69019308BD17
:1042BC003C02030008B5024B1B689B69019308BDC7
:1042CC003C02030008B5024B1B68DB69019308BD77
:1042DC003C02030008B5024B1B681B6A019308BD26
:1042EC003C02030008B5024B1B689B6A019308BD96
:1042FC003C02030008B5024B1B68DB6A019308BD46
:10430C003C02030008B5024B1B681B6C019308BDF3
:10431C003C02030008B5024B1B681B68019308BDE7
:10432C004C02030008B5024B1B685B68019308BD87
:10433C004C02030008B5024B1B681B69019308BDB6
:10434C004C02030008B5024B1B685B69019308BD66
:10435C004C02030008B5024B1B689B69019308BD16
:10436C004C02030008B5024B1B68DB69019308BDC6
:10437C004C02030008B5024B1B681B6A019308BD75
:10438C004C02030008B5024B1B689B6A019308BDE5
:10439C004C02030008B5024B1B685B68019308BD17
:1043AC002002030008B5034B1B68D3F88830019337
:1043BC0008BD00002002030008B5034B1B68D3F8AE
:1043CC009430019308BD00002002030008B5024B95
:1043DC001B689B68019308BD4402030008B5024B9F
:1043EC001B68DB6B019308BD4402030008B5024B4C
:1043FC001B685B68019308BD4002030008B5024BC3
:10440C001B689B68019308BD4002030008B5024B72
:10441C001B68DB68019308BD4002030008B5024B22
:10442C001B681B69019308BD4002030008B5024BD1
:10443C001B685B69019308BD4002030008B5024B81
:10444C001B689B69019308BD4002030008B5024B31
:10445C001B68DB69019308BD4002030008B5024BE1
:10446C001B681B6A019308BD4002030008B5024B90
:10447C001B681B6B019308BD4002030008B5024B7F
:10448C001B685B6B019308BD4002030008B5024B2F
:10449C001B681B6C019308BD4002030008B5024B5E
:1044AC001B685B6C019308BD4002030008B5024B0E
:1044BC001B681B68019308BD1C02030008B5024B66
:1044CC001B685B68019308BD1C02030008B5024B16
:1044DC001B681B6C019308BD1C02030008B5024B42
:1044EC001B685B6C019308BD1C020300024800238F
:1044FC000360FFF72FBE00BF90E603200022406848
:10450C001146FFF78BBF002240681146FFF7A6BF8C
:10451C00002240681146FFF7B1BF40680022FFF748
:10452C00A5BF4068002281F00101FFF78FBF002377
:10453C0040681A461946FFF781BF002340681A46A7
:10454C001946FFF773BF002240681146FFF756BFAC
:10455C00406800220221FFF759BF002340681A4629
:10456C00FFF744BF084B10B52824224618460021FB
:10457C0000F0E4FC054B04804FF0FF324260042253
:10458C005A60034A1A6010BD9CE6032094E603208F
:10459C00C0500B00002240681146FFF75FBF00229D
:1045AC0040681146FFF76ABF40680022FFF75EBF04
:1045BC004068002281F00101FFF748BF00234068EA
:1045CC001A461946FFF73ABF002340681A461946A7
:1045DC00FFF72CBF002240681146FFF71FBF0022D7
:1045EC0040681146FFF70ABF406800220221FFF71E
:1045FC000DBF002340681A46FFF7F8BE024B03229A
:10460C005A60024A1A607047C4E60320FC500B0043
:10461C007047F8B5064615460C468F18BC4206D0B6
:10462C00336814F8011B9B6830469847F6E7284618
:10463C00F8BD007C0022FFF7C5BD007C0021FFF710
:10464C00C9BD007C0021FFF7CDBD007C0021FFF728
:10465C00D1BD007C0021FFF7D5BD10B51421044657
:10466C00FFF713FD204610BD38B5044615464FF430
:10467C007A730022C4E90123094B21740846236094
:10468C002946FFF7CFFDBF3008D16B69DB0705D595
:10469C006868FFF713FFE868FFF710FF204638BD86
:1046AC0038510B00704710B518210446FFF7EDFC8C
:1046BC00204610BDF0B5037D062B8DB00E4600F1E3
:1046CC0004074FF0000412D000F1080515F8011D85
:1046DC000A22304600F059F9AF42044419D0002C9C
:1046EC00F4D02E21304600F037F90444EEE72F23A6
:1046FC006A4639460A208DF80040FFF79BFD684654
:10470C0000F052FC33680246DB6869463046984735
:10471C00044620460DB0F0BD10B5054B04461122E1
:10472C0040F8043B002100F009FC204610BD00BFFE
:10473C0060510B000346074A10B543F8042B01F1F6
:10474C00100251F8044B43F8044B9142F9D10A780A
:10475C001A7010BD60510B0010B59DF8084044EA6A
:10476C00032343EA024242EA0161042341600375D8
:10477C0010BD000007B5064B0360CB7800938B7817
:10478C004A780978FFF7E8FF03B05DF804FB00BF37
:10479C0060510B00014B024A1A607047CCE60320B3
:1047AC006C510B00002340681A46FFF71FBE40688F
:1047BC0000220221FFF72ABE002240681146FFF7B3
:1047CC001DBE002240681146FFF728BE002340683A
:1047DC001A461946FFF72ABE002340681A461946A6
:1047EC00FFF72CBE40680021FFF750BE4068002147
:1047FC00FFF754BE4068002281F00101FFF726BE8E
:10480C0040680022FFF732BE002240681146FFF7D5
:10481C0035BE002240681146FFF720BE2DE9F0435B
:10482C0095B014460D460746FFF776FF00211C2273
:10483C000DA8009100F082FB40230C9320466B46A0
:10484C000CAA0021FFF706FD044600284BD10246B6
:10485C0001216868FFF7E2FD022180462246686864
:10486C00FFF7DCFD009E81462146002E3BD000293F
:10487C0039D17368022B03D00A2B11D0F669F4E7F7
:10488C00B8F1000FFAD0716906A8043107ADFFF733
:10489C0071FF0FCD3C1D0FC42B6823704146EDE713
:1048AC00B9F1000FEAD07469102201A800F046FBA0
:1048BC0006238DF8143001AD04F108031834186880
:1048CC0059682A4603C20833A3421546F7D101A9F9
:1048DC0006A807ADFFF72EFF0FCD3C1D0FC42B68AC
:1048EC0023704946CAE70098FFF7ACFC384615B070
:1048FC00BDE8F083024B034A1A6000225A607047ED
:10490C00D0E6032078510B00F8B506460D468F18FB
:10491C000024BD420CD0336815F8011B9B6830464F
:10492C009847031E01DB1C44F3E7002C08BF1C4610
:10493C002046F8BD13B50446084659B1019100F064
:10494C0033FB23680199DB680246204602B0BDE8C0
:10495C001040184702B010BD03689B68184738B563
:10496C000D210546FFF7F8FF0A2104462846FFF7FC
:10497C00F3FF204438BD38B50546FFF7DBFF04468E
:10498C002846FFF7ECFF204438BD30B58BB0002330
:10499C00012A8DF8243098BF0A2209AC0D46B1FBD0
:1049AC00F2F101FB125303F0FF03092B94BF3033D8
:1049BC003733DBB2AA4204F8013DEFD92146FFF7A9
:1049CC00B9FF0BB030BD0000014B00229A6070475C
:1049DC00D8E6032010B5044608462170FFF742FCC8
:1049EC0000236360204610BD054B02221A60054B64
:1049FC00054A9A600020C3E90000FFF7CBBC00BF5A
:104A0C00F4E60320E8E603200000FFFF024B1A68DF
:104A1C00024B1A60704700BF18E60320F8E603202B
:104A2C0070474174704708B5007CFFF75BFC20EAC7
:104A3C00E07008BD08B5007CFFF72CFC20EAE070A4
:104A4C0008BD08B5007CFFF735FC40EAE07008BDF6
:104A5C0008B5007CFFF726FC40EAE07008BD007C3E
:104A6C00FFF730BC37B5457C04462DB1207C03B034
:104A7C00BDE83040FFF706BC007C0191FFF732FC2B
:104A8C0000280199F2DC284603B030BD10B5142182
:104A9C000446FFF7FAFA204610BD000010B54FF49B
:104AAC007A730446084611460022C4E90123044BDC
:104ABC002360012320746374FFF724FC204610BD8F
:104ACC00D0510B00007C0023FFF714BC0022FFF731
:104ADC00F9BF417470477047704708B50021007CDE
:104AEC00FFF738FC40EAE07008BD08B50121007CF6
:104AFC00FFF730FC40EAE07008BD08B5007CFFF71A
:104B0C0021FC20EAE07008BD08B5007CFFF712FC20
:104B1C0020EAE07008BD13B50446007C0191FFF754
:104B2C0011FC0028019901DC607C20B1207CFFF78E
:104B3C0019FC20EAE07002B010BD007CFFF71ABC33
:104B4C0010B514210446FFF7A0FA204610BD000052
:104B5C0010B54FF47A73044608460021C4E90113DA
:104B6C00044B23600123207463741146FFF7D2FBBE
:104B7C00204610BD00520B00007C0022FFF7D2BB78
:104B8C00007CFFF7FFBB10B514220446002100F097
:104B9C00D5F9204610BD000010B50F4C88B003A805
:104BAC00FFF7F1FF2178BFF35B8F11F001010FD1FB
:104BBC0020460191FFF76BFA019948B103AA074807
:104BCC00FFF7C6FF2046FFF767FA054800F0A2F989
:104BDC00024808B010BD00BFFCE6032000E703202C
:104BEC00E34A0B00014B1860704700BF1CE6032022
:104BFC0008B50B4B43B1FFF7CFFF03681B69984710
:104C0C00002801DDAFF30080064B43B100F05CF9E6
:104C1C0003681B699847002801DDAFF3008008BDCD
:104C2C00000000000000000008B5FFF7E1FFFFF7EF
:104C3C00A1FA014B186008BD28E703200548064A75
:104C4C00064908B5121A00F06BF9054B054A1A60B3
:104C5C0008BD00BF00F4032004F40320E4520B0051
:104C6C0000F403201E1C279A07B5002300931A4654
:104C7C006FF07701FFF7A0FB03B05DF804FB0000B9
:104C8C0007B543880A2B08D0502B0BD1094B1B6856
:104C9C004BB103B05DF804EB1847FFF7E5FF03B029
:104CAC005DF804FB002300931A466FF07701FFF7C1
:104CBC0083FBF4E718E7032010B512480021FFF737
:104CCC000DFC114B1A68114B9A42114B0CBF01226F
:104CDC0000221A7001D0FFF7B1FFFFF743FA044628
:104CEC0000F034F90B4B13B12046AFF300800021D8
:104CFC000848FFF773FBBDE8104007480021FFF799
:104D0C0051BB00BFF14B0B0000F403201E1C279A73
:104D1C0014E70320000000008D4C0B00232813B572
:104D2C0002D9002002B010BDA0F10B03022B1AD83F
:104D3C00174C2178BFF35B8F11F001010BD120468A
:104D4C000191FFF7A4F9019928B11248FFF742FE2F
:104D5C002046FFF7A1F90F4B1878FFF78BFA0028C4
:104D6C00DFD10120DEE7012809D800F06DF8002121
:104D7C00007CFFF74FFA80F00100C0B2D2E709388F
:104D8C000128EED800F0A0F8007CFFF7A3FAF2E7B8
:104D9C001CE7032020E70320232838B504460D46E2
:104DAC000AD8FF2908D0FFF7B9FF28B129462046B9
:104DBC00BDE83840FFF7E6B938BD38B504460D46B6
:104DCC00FFF7E8F9FF2810D0062804D84D2323FA62
:104DDC0000F0C30709D42046FFF7A0FF28B12946ED
:104DEC002046BDE83840FFF7DDB938BD10B50446A4
:104DFC00FFF7D0F9031FDBB2012B08D92046FFF7D0
:104E0C008DFF20B12046BDE81040FFF7D3B900203C
:104E1C0010BD704738B50A4B03600123044643614B
:104E2C000849202000F074F8202560600549A56031
:104E3C00284600F06DF8C4E90305204638BD00BFD4
:104E4C001800010028520B0030B50E4D2978BFF325
:104E5C005B8F11F0010487B011D12846FFF717F9C9
:104E6C0068B16846FFF7D6FF6A4621460648FFF749
:104E7C00FBFB2846FFF710F9044800F04BF80248FA
:104E8C0007B030BD2CE7032030E703201F4E0B008A
:104E9C007047000038B5044614252A46002100F05E
:104EAC004DF825804025074925812846258200F0AC
:104EBC002FF804496060284600F02AF8E06020468C
:104ECC0038BD00BF28520B0030B50E4D2978BFF30A
:104EDC005B8F11F0010487B011D12846FFF7D7F88A
:104EEC0068B101A8FFF7D6FF01AA21460648FFF7D3
:104EFC00D5FD2846FFF7D0F8044800F00BF802481F
:104F0C0007B030BD44E7032048E703209D4E0B005B
:104F1C00FFF7B9B8002301461A46184600F04CB802
:104F2C000A44914200F1FF3300D1704710B511F8DB
:104F3C00014B03F8014F9142F9D110BD02440346D5
:104F4C00934200D1704703F8011BF9E738B5104BB9
:104F5C001D68AB6B0446B3B91820FFF7A7FA0246DD
:104F6C00A86320B90B4B0C484221FFF7AFFA0B4951
:104F7C000B4BC0E900130B4B83600B238381002187
:104F8C000120C2E90401AB6B00221C615A6138BDDF
:104F9C001CE6032029520B0040520B000E33CDAB04
:104FAC0034126DE6ECDE0500034613F8012B002AE3
:104FBC00FBD1181A013870472DE9F843DFF8B88097
:104FCC000646D8F800001F460D46914600F056F8EC
:104FDC00254B1C6834B9254C1C60254B13B11B6840
:104FEC00C4F8883063681F2B07DDD8F8000000F088
:104FFC0047F84FF0FF30BDE8F8834EB3D4F8880083
:10500C0088B91C4B23B9D8F8000000F038F8F0E749
:10501C004FF48470FFF74AFA0028F4D00023C0E95B
:10502C004033C4F88800636840F8239001229A400A
:10503C0000EB8301D0F800311343C0F80031022E8D
:10504C00C1F8807002BFD0F804311343C0F80431AA
:10505C006368D8F800005A1C0233626044F823508D
:10506C0000F00EF80020C6E7E8E703205CE7032019
:10507C0000000000B9440B0080E603207047704725
:10508C00704700001D400B0059400B0081400B0085
:10509C0085400B000000000053657269616C20694B
:1050AC007320636F6E6E65637465640000000000AE
:1050BC000000000067450B005D450B0053450B00DD
:1050CC0009450B0047450B003B450B00F1470B0016
:1050DC00F9470B002F450B0027450B001D450B0016
:1050EC0013450B0029480B000000000000000000D5
:1050FC00FF450B00F5450B00EB450B00E1450B00A4
:10510C00D5450B00C9450B00F1470B00F9470B00C7
:10511C00BD450B00B5450B00AB450B00A1450B0085
:10512C0029480B0000000000000000001D460B0089
:10513C0067460B003F460B001F460B0047460B0013
:10514C004F460B0057460B005F460B00000000005B
:10515C0000000000C1460B00B1460B00B3460B002B
:10516C00617070000000000000000000B1470B00EF
:10517C00BB470B00C5470B00CF470B00D9470B00B3
:10518C00E5470B00F1470B00F9470B0001480B00FA
:10519C000D480B0015480B001F480B0029480B004D
:1051AC0025592D256D2D25645425483A254D3A2534
:1051BC0053257A0061736374696D6500000000000B
:1051CC00000000002D4A0B00994A0B00714A0B009D
:1051DC0015490B00414A0B005D4A0B004F4A0B006E
:1051EC006B4A0B002F4A0B00334A0B0000000000E7
:1051FC0000000000E54A0B004D4B0B00234B0B004D
:10520C0015490B00154B0B00E74A0B00F74A0B0036
:10521C00474B0B00074B0B00DF4A0B000052454578
:10522C004E54206D616C6C6F6320737563636565A0
:10523C00646564002F746D702F6A656E6B696E7394
:10524C002D4743432D31302D706970656C696E6547
:10525C002D34385F32303230313132345F313630C8
:10526C00363138303633392F7372632F6E65776C65
:10527C0069622F6E65776C69622F6C6962632F733C
:10528C0074646C69622F72616E642E63000000009E
:10529C0049410B00F9440B0071450B0009460B000A
:1052AC00A1470B0001490B00D5490B00F5490B0038
:0452BC00194A0B0080
:1052C000040000001400000003000000474E5500D9
:1052D00056EE3880C11FA38B172C8956A609F59767
:0452E000E2389BE134
:0452E40000000000C6
:1052E80007000000C0510B0020E60320000000006A
:1052F80000000000000000000000000000000000A6
:105308000000000000000000000000000000000095
:105318000000000000000000000000000000000085
:105328000000000000000000000000000000000075
:105338000000000000000000000000000000000065
:10534800000000000000000000000000ECE703205F
:10535800FFFFFFFF00000102030405060708090A12
:105368000B0C0D0E0F101112131415161718191A0D
:085378001B1C1D1E1F20280054
:045380007856341215
:04000003B000401CED
:00000001FF
