:02000002B0004C
:1040000000400B002C880B00000006000D0005028C
:0840100004010410000000008F
:0440180024810B00F4
:1040200009480A49884208B505D0094A824202D0A7
:10403000121A03F0AFFE0748074A0021121A03F0D4
:10404000D1FE014808BD00BF84E5032088870B002E
:10405000FCE50320FCE50320EDE7032070B5074EE7
:10406000074C02F0E1F9A41BA4080025AC4200D1E2
:1040700070BD56F8043B98470135F7E728870B00D9
:1040800054870B0000F0AAB908B500F0B3F9BDE8F9
:10409000084002F081B900F079BE00F077BE00F070
:1040A0007DBE000008B5034A03490C2000F08AFDDC
:1040B000FEE700BF95490B0038810B000078B0FA8D
:1040C00080F040097047012303707047704710B5B6
:1040D00004210446FFF7E3FF204610BD0EB403B5EC
:1040E00003AB012153F8042B019301F094F802B0C3
:1040F0005DF804EB03B0704710B5064C236833B984
:104100000420FFF7C8FF08B1034B0360206020685C
:1041100010BD00BF00E60320FC810B0030B585B068
:1041200003F09CF90A220146684601F073F96846DB
:1041300000F0D6FE03F092F901F007F9204C214D72
:10414000A06003F08BF901F000F9686003F086F9D4
:1041500001F0FBF8A86003F081F901F057F9E1687C
:10416000BDEEC00A012985ED000A0BD0022916D048
:1041700031B9A368012B03D1227C0AB9E36023740F
:1041800005B030BD104B188803F033F9A368002B3D
:10419000F6D1637C002BF3D10223E360F0E70A4BF6
:1041A0000021188803F025F9236801332360636830
:1041B000013363600023E36001236374E0E700BF21
:1041C00008E603201CE6032084E5032008B503F07D
:1041D00045F9024900F0F7FF012008BD4D810B00B1
:1041E00038B5046805467CB16368013B63605BB920
:1041F000236820469B689847A368013BA3601BB9CE
:1042000023682046DB689847284638BD10B52E4BFA
:104210000121188888B003F0DBF803F01FF94FF490
:10422000E13102F091FD03F019F903681B69984729
:1042300018B90A2002F084F8F5E74FF47A7002F01A
:104240007FF803F00BF90A22014604A801F0E2F816
:1042500004A800F045FE03F001F901F076F81B4BCD
:104260001B4C0022DA6003F0F9F801F06EF8606090
:1042700003F0F4F801F069F8A06003F0EFF801F042
:10428000C5F8BDEEC00A4FF4FA6084ED000A02F0F2
:1042900057F82368009304A8D4E901230D4900F0DE
:1042A000E9FE0D4B049A1B780C498DF8003002A8EA
:1042B0003C2302F03BFA03A8FFF792FF04A800F0AA
:1042C0000FFE08B010BD00BF84E5032008E6032000
:1042D0001CE6032056810B00FCE5032086810B00C1
:1042E00010B5642994B00C461BDC03F0B7F80E49F6
:1042F0002246FFF7F3FE0D4A2346402104A800F0B2
:104300005DFD0B4B0B491B788DF8003004AA3C2354
:1043100002A802F00BFA03A8FFF762FF012014B015
:1043200010BD4FF0FF30FAE792810B009E810B0029
:10433000FDE50320B6810B0010B5642994B00C464E
:104340001BDC03F08BF80E492246FFF7C7FE0D4A2F
:104350002346402104A800F031FD0B4B0B491B788C
:104360008DF8003004AA3C2302A802F0DFF903A86C
:10437000FFF736FF012014B010BD4FF0FF30FAE711
:10438000BD810B00C9810B00FDE50320B6810B0048
:104390001FB5094B094900221A60094B1B788DF89B
:1043A000003002A83C2302F0C1F903A8FFF718FF70
:1043B000012005B05DF804FB08E60320E8810B004E
:1043C000FCE50320034B00221A70034B01221A70F4
:1043D000704700BFFCE50320FDE5032008B5FFF7AB
:1043E0008BFEFFF713FF00F059F9BDE8084000F01D
:1043F00067B9000010B5204CA4B0FFF77DFEFFF7B1
:104400008DFE237C002B2DD1637C4BB3636800931E
:1044100023681A4A802104A800F0D0FC002340F64B
:10442000C410637401F08CFF154B16491B788DF88E
:10443000003004AA3C2302A802F078F9039C7CB166
:104440006368013B63605BB9236820469B689847BB
:10445000A368013BA3601BB923682046DB6898472B
:1044600024B010BD084904A803F013FD00232374F1
:10447000637C002BD8D0C9E708E6032004820B0038
:1044800004E6032032820B001F820B00094B10B59B
:1044900001241C7002F046FF00231A46214602F058
:1044A00051FF02F03FFF0023BDE810401A460D21E6
:1044B00002F040BF04E603207047006A0368DB682F
:1044C0001847704710B504210446FFF7E8FD204661
:1044D00010BD38B50D46FFF70FFE0446284600F024
:1044E000C4FD01462046BDE83840FFF7F9BE38B5A7
:1044F0000D46FFF701FE0446284600F0B6FD0146D2
:104500002046BDE83840FFF717BF08B5FFF7F4FDB8
:10451000BDE80840FFF75ABE08B5FFF7EDFDBDE85E
:104520000840FFF735BF7FB502685368906814688C
:104530005E1000EB6305DB0748BF8359684648BF40
:104540001C5900F049FD69462846A04704466846C4
:1045500000F0C6FC204604B070BD012A38B5044600
:1045600002D10B68236003E0022A03D0032A0DD096
:10457000002038BD0C200D68FFF78DFD0346002894
:10458000F0D095E8070083E80700EBE70068002813
:10459000EED00C21FFF783FDEAE70000F0B58BB009
:1045A0006C4684E80600064694E8030003AD85E8FF
:1045B00005001F460C2000230893FFF76CFD0446FE
:1045C00020B195E8030084E80300A760104B09932D
:1045D0001020104B06940893FFF75DFD044678B158
:1045E00000238360089B33B1022206A99847099BE8
:1045F000E360089BA36008483246214601F09FFF14
:10460000089B1BB106A90322084698470BB0F0BDD2
:1046100027450B005B450B0017650B0000230222AA
:1046200000F08CBB0A4B10B50446036001F066F83D
:10463000214601F09EFA02F0BFFA02F0B1FA2046DC
:10464000044B40F8043B01F02FF9204610BD00BF99
:10465000FC820B00E4820B0010B50446FFF7E2FF7A
:1046600020462421FFF71BFD204610BD0EB400B5E7
:104670008CB00DAA4FF0200C52F8041B0392CDE928
:1046800000120023016804AA1E20CDE904C300F033
:10469000A1FA0CB05DF804EB03B0704710B5064CFE
:1046A000236833B90420FFF7F6FC08B1034B03601D
:1046B0002060206810BD00BF34E6032014830B0087
:1046C000F7B5244F24493E4605462448FFF7CEFF60
:1046D0006C4656F8043B224800932146FFF79EFFA4
:1046E00031462048204EFFF799FF07F108011F4887
:1046F000FFF794FF31461E48FFF790FF311D1D481C
:10470000FFF78CFF00261C4B0093019694E80600EF
:104710002B461A48FFF742FF194B1A48CDE90036DD
:104720002B4694E80600FFF739FF174B1748CDE9F1
:1047300000362B4694E80600FFF730FF144B15486F
:10474000CDE9003694E806002B4603B0BDE8F04002
:10475000FFF724BF1CE603203A820B0084E6032007
:10476000D1820B008A820B0008E603209C820B009A
:1047700068820B0073820B00D3440B0082820B0013
:10478000EF440B0094820B0019450B00AC820B0028
:104790000B450B00C5820B0070B5D0E90053142601
:1047A000044606FB0356AE4204D0284600F098FBB0
:1047B0001435F8E7206800F0F1FA204670BD884211
:1047C000F8B504460D46164616D9904215D2A2F108
:1047D0001406751AA1F114072C44B7421CD02CB151
:1047E0003146204600F0F8FB337C2374304600F05D
:1047F00077FB143E143CF0E70ED0B5420CD02CB140
:104800002946204600F0E8FB2B7C2374284600F064
:1048100067FB14351434F0E7F8BD2DE9F0410023AF
:10482000C0E9003383604F689F4204460E4623DD93
:104830004FF0140808FB07F000F0A8FA0546D8B1BD
:10484000D4E9001208FB0212FFF7B9FF206800F05C
:10485000A5FA2560A760D6E9007308FB0378B84580
:1048600008D03946284600F0D1FB3B7C2B74143726
:104870001435F4E7736863602046BDE8F0810000FA
:1048800070B5264B264A9A6000248CB0C3E90044D8
:10489000012000F0B7F92146012000F0C3F9012101
:1048A000042000F087F8CDE90044029402F084F976
:1048B0001C4C0546694603A8FFF7AFFF264603A92F
:1048C00006A8FFF7AAFF184B46F8043B06A909A85B
:1048D000FFF7A3FF09AA1E21304601F02DFA09A80F
:1048E000FFF75AFF06A8FFF757FF104B236025621A
:1048F00003A8FFF751FF0E4B236002F05DF94FF460
:10490000165102F049F900F0F9FE214601F0EAF8EB
:104910006846FFF741FF0CB070BD00BF28E60320DA
:104920000000FFFF38E60320E4820B00E4830B0065
:10493000FC820B0008B5024B1B689B68019308BD05
:104940006802030008B5024B1B68DB68019308BDD1
:104950006802030008B5024B1B689B68019308BD01
:104960002C02030008B5024B1B68DB68019308BDED
:104970002C02030008B5024B1B681B69019308BD9C
:104980002C02030008B5024B1B685B68019308BD4D
:104990001802030008B5024B1B68DB68019308BDD1
:1049A0001802030008B5024B1B685B69019308BD40
:1049B0001802030008B5024B1B685B6E019308BD2B
:1049C0003402030008B5024B1B685B6C019308BD01
:1049D0004802030008B5024B1B689B6C019308BD9D
:1049E0004802030008B5024B1B68DB6C019308BD4D
:1049F0004802030008B5024B1B685B6D019308BDBC
:104A00004802030008B5024B1B685B69019308BDAF
:104A10006402030008B5024B1B689B68019308BD44
:104A20003C02030008B5024B1B68DB68019308BD1C
:104A30003C02030008B5024B1B681B69019308BDCB
:104A40003C02030008B5024B1B685B69019308BD7B
:104A50003C02030008B5024B1B689B69019308BD2B
:104A60003C02030008B5024B1B68DB69019308BDDB
:104A70003C02030008B5024B1B681B6A019308BD8A
:104A80003C02030008B5024B1B689B6A019308BDFA
:104A90003C02030008B5024B1B68DB6A019308BDAA
:104AA0003C02030008B5024B1B681B6C019308BD58
:104AB0003C02030008B5024B1B681B6A019308BD4A
:104AC0002802030008B5024B1B685B6A019308BD0E
:104AD0002802030008B5024B1B689B6A019308BDBE
:104AE0002802030008B5024B1B68DB6A019308BD6E
:104AF0002802030008B5024B1B681B6B019308BD1D
:104B00002802030008B5024B1B685B6B019308BDCC
:104B10002802030008B5024B1B681B6C019308BDFB
:104B20002802030008B5024B1B68DB69019308BD2E
:104B30003002030008B5024B1B681B6A019308BDD5
:104B40003002030008B5024B1B681B68019308BDC7
:104B50004C02030008B5024B1B685B68019308BD5B
:104B60004C02030008B5024B1B689B68019308BD0B
:104B70004C02030008B5024B1B681B69019308BD7A
:104B80004C02030008B5024B1B685B69019308BD2A
:104B90004C02030008B5024B1B689B69019308BDDA
:104BA0004C02030008B5024B1B68DB69019308BD8A
:104BB0004C02030008B5024B1B681B6A019308BD39
:104BC0004C02030008B5024B1B685B6B019308BDE8
:104BD0006002030008B5024B1B685B6D019308BDC2
:104BE0006002030008B5024B1B68DB6E019308BD31
:104BF0006002030008B5024B1B681B6F019308BDE0
:104C00006002030008B5024B1B685B68019308BD96
:104C10002002030008B5024B1B685B69019308BDC5
:104C20002002030008B5024B1B68DB6A019308BD34
:104C30002002030008B5024B1B68DB6C019308BD22
:104C40002002030008B5024B1B685B6D019308BD91
:104C50002002030008B5034B1B68D3F8883001938A
:104C600008BD00002002030008B5034B1B68D3F801
:104C70009430019308BD00002002030008B5024BE8
:104C80001B685B68019308BD4002030008B5024B36
:104C90001B689B68019308BD4002030008B5024BE6
:104CA0001B68DB68019308BD4002030008B5024B96
:104CB0001B681B69019308BD4002030008B5024B45
:104CC0001B685B69019308BD4002030008B5024BF5
:104CD0001B689B69019308BD4002030008B5024BA5
:104CE0001B68DB69019308BD4002030008B5024B55
:104CF0001B681B6A019308BD4002030008B5024B04
:104D00001B681B6B019308BD4002030008B5024BF2
:104D10001B685B6B019308BD4002030008B5024BA2
:104D20001B681B6C019308BD4002030008B5024BD1
:104D30001B685B6C019308BD4002030008B5024B81
:104D40001B681B68019308BD4402030008B5024BB1
:104D50001B685B68019308BD4402030008B5024B61
:104D60001B685B69019308BD4402030008B5024B50
:104D70001B681B6A019308BD4402030008B5024B7F
:104D80001B68DB6B019308BD4402030008B5024BAE
:104D90001B681B68019308BD1C02030008B5024B89
:104DA0001B685B68019308BD1C02030008B5024B39
:104DB0001B689B68019308BD1C02030008B5024BE9
:104DC0001B68DB69019308BD1C02030008B5024B98
:104DD0001B685B6A019308BD1C02030008B5024B07
:104DE0001B68DB6A019308BD1C02030008B5024B77
:104DF0001B681B6B019308BD1C02030008B5024B26
:104E00001B68DB6B019308BD1C02030008B5024B55
:104E10001B681B6C019308BD1C02030008B5024B04
:104E20001B685B6C019308BD1C02030000224068F4
:104E30001146FFF75BBF002240681146FFF766BFCF
:104E400040680022FFF75ABF4068002281F001014C
:104E5000FFF744BF002340681A461946FFF736BFE4
:104E6000002340681A461946FFF728BF0022406811
:104E70001146FFF71BBF002240681146FFF706BF2F
:104E8000406800220221FFF709BF002340681A464C
:104E9000FFF7F4BE024B03225A60024A1A607047C1
:104EA0005CE6032024830B0010B5044608462170FD
:104EB000FFF738FE00236360204610BD054B022239
:104EC0001A60054B054A9A600020C3E90000FFF70D
:104ED00099BE00BF70E6032064E603200000FFFFD8
:104EE00010B504460068FFF759FF204610BD10B505
:104EF0000446006808B1FFF751FF0023C4E90133FD
:104F0000236010BD38B504460D4600680131FFF737
:104F10004DFF10B1C4E90005012038BD10B503688C
:104F2000044623B143688B4201D3012010BD2046C3
:104F3000FFF7E8FF0028F9D0A368002BF5D122681D
:104F40001370F2E737B50D46114601920446FFF79C
:104F5000E5FF019A28B92046FFF7C9FF204603B0B4
:104F600030BDA2602946206802F014FF2268A368C1
:104F70000021D154F2E7002313B5C0E90033044601
:104F80008360037341B10846019102F0A8FF0199C3
:104F900002462046FFF7D6FF204602B010BD38B5C6
:104FA000054600680C4668B16A688B689A4207D368
:104FB000096802F06EFFA368AB600023A36038BDF0
:104FC000FFF7ECFE23682B6063686B60A368AB603F
:104FD0000023C4E90033F1E710B50023C0E9003332
:104FE000044683600373FFF7DAFF204610BD884252
:104FF00010B5044605D00B682BB18A681946FFF737
:10500000A1FF204610BDFFF772FFFAE710B500239D
:105010000446C0E9003383600373FFF7E8FF2046CE
:1050200010BD70B505460E4609B9002070BD6AB1C5
:10503000846814442146FFF771FF0028F5D02868E2
:10504000AB683146184402F024FFAC600120EDE764
:1050500007B500238DF80410012201A98DF8053051
:10506000FFF7DFFF03B05DF804FB006808B102F052
:1050700085BE70470EB470B587B00BAD044655F8C9
:10508000042B01922B46052104A80395FFF79EFEF1
:105090000B4906462046FFF76EFF31462046FFF7D4
:1050A0003DFF206830B1019A03952B46711CFFF734
:1050B0008DFEA060204607B0BDE8704003B0704789
:1050C000AF830B0010B58368044613B10322014679
:1050D0009847204610BD10B54368013B0446436025
:1050E00063B903689B689847A368013BA3602BB929
:1050F00023682046DB68BDE81040184710BD70B536
:10510000D0E90053044605EB0316AE4204D028460E
:10511000FFF7E6FE1035F8E72068FFF73FFE204670
:1051200070BD13B50B460246D0E900016C4684E819
:10513000030093E8030082E8030094E8030083E897
:10514000030002B010BD0000024800230360FFF717
:1051500039BC00BF74E60320F8B506460D468F182B
:105160000024BD420CD0336815F8011B9B68304603
:105170009847031E01DB1C44F3E7002C08BF1C46C4
:105180002046F8BD13B50446084659B1019102F016
:10519000A6FE23680199DB680246204602B0BDE8FE
:1051A0001040184702B010BD03689B68184738B517
:1051B0000D210546FFF7F8FF0A2104462846FFF7B0
:1051C000F3FF204438BD38B50546FFF7DBFF044642
:1051D0002846FFF7ECFF204438BD30B58BB00023E4
:1051E000012A8DF8243098BF0A2209AC0D46B1FB84
:1051F000F2F101FB125303F0FF03092B94BF30338C
:105200003733DBB2AA4204F8013DEFD92146FFF75C
:10521000B9FF0BB030BD2DE9F04186B000AF0546B7
:105220000E46381D142114463B60FFF7CFFD1328AE
:105230000ED8391D2846FFF7A5FF04461EB12846A3
:10524000FFF7B5FF044420461837BD46BDE8F0819E
:1052500000F1080323F00703E846ADEB030D2246F7
:10526000411C3B686846FFF7B1FD69462846FFF7D9
:1052700089FF0446C546E1E710B50446FFF792FBF7
:10528000E060236820465B699847002808DAFFF74A
:1052900089FBE368C01AA3689842F2D34FF0FF304D
:1052A00010BD10B50446FFF77DFBE0602368204683
:1052B0009B699847002808DAFFF774FBE368C01A77
:1052C000A3689842F2D34FF0FF3010BD10B50446EA
:1052D0002046FFF7E6FF00280ADB2D2808D0A0F1C2
:1052E0003003092B04D9236820465B699847EFE710
:1052F00010BD2DE9F04105460E46FFF7E7FF0028F7
:105300004FF000041CDB27464FF00A08864208D005
:105310002D2818D0A0F13003092B02D808FB040473
:10532000303C2B6828465B6998472846FFF7B9FF51
:10533000A0F13003092BE9D98642F2D007B16442CB
:105340002046BDE8F0810127EBE70121FFF7D1BF3F
:105350002DE9F84F2DED028B05460E46FFF7B6FFFF
:10536000002847DB0FF29C09D9E900890024B7EE39
:10537000008A2746A2464FF00A0B864217D02D28F6
:1053800033D02E2834D0A0F13003092B0FD80BFBDB
:105390000404303C5FB118EE100A02F02FFA4246C6
:1053A0004B4602F083FA02F093FC08EE100A2B68D9
:1053B00028465B6998472846FFF773FFA0F1300342
:1053C000092BDAD92E28D8D08642F0D0BAF1000FB6
:1053D00000D0644207EE904AB8EEE70A0FB120EE23
:1053E000080ABDEC028BBDE8F88F4FF0010ADEE73A
:1053F0000127DCE79FED020AF3E700BFAFF300806F
:10540000000000009A9999999999B93F0121FFF7F5
:105410009FBF000070B50D46094904461646FFF7C8
:10542000AAFD2846FFF728FF002806DB864204D0A5
:10543000C1B22046FFF70CFEF3E7204670BD00BF67
:10544000AF830B0080680368DB6818477047084625
:1054500011B10B685B681847704770477047704719
:10546000704738B504460D4600682E2102F0FDFC59
:105470002368C31A2B6023B1037803B1013023687A
:105480002060184638BD10B50C210446FEF707FE13
:10549000204610BD10B504210446FEF700FE20464C
:1054A00010BD10B504210446FEF7F9FD204610BDDD
:1054B000FFF798BA08B502F0E2FCB0FA80F04009B4
:1054C00008BD704710B50C4601F076FB844210D041
:1054D00001F0C4FF844205D101F0C0FFBDE81040D7
:1054E00001F035BC2CB1236820465B68BDE8104054
:1054F000184710BD0B6803604B68436013B15A68CE
:1055000001325A60704713B504460846019102F013
:10551000E6FC01990246204602B0BDE8104001F0C9
:10552000F1BE13B504460846019102F0D8FC236889
:105530000199DB680246204602B0BDE810401847DA
:1055400007B503688DF80710DB6801220DF107012C
:10555000984703B05DF804FB0EB403B503AB00211C
:1055600053F8042B006A0193FFF755FE02B05DF873
:1055700004EB03B070470A6802604A684260002288
:10558000C0E9022210B502618C688460CC68C460F6
:105590000C698A60CA6004610A6110BD2DE9F74F89
:1055A000D0E900844FF0140A00930AFB04F4184B6E
:1055B000A41017465C434546002C21DD66100AFB0B
:1055C00006F005EB00093A46B9F804B028580191F5
:1055D0005F4528BF5A4602F08AFC002801994FF027
:1055E00001030BD15F4503D1009A13703446E3E702
:1055F000FCD9A61B09F11405013EF7E7F9DBF5E735
:10560000A5EB08050248AD10684303B0BDE8F08F74
:10561000CDCCCCCC7FB50369057E019103B3F9B144
:10562000002600F10C04039603A901A8FFF719FF57
:105630000146A8B10DF10B03039A8DF80B602046CB
:10564000FFF7ACFF9DF80B3053B12368142404FB23
:105650000034083434F9023C002BA8BFDDB2E3E784
:10566000284604B070BD000010B5094C2378BFF384
:105670005B8FDB0709D42046FEF720FD28B12046CA
:10568000FEF721FD034802F073FB034810BD00BF85
:105690007CE603205B540B0088E5032010B5094C21
:1056A0002378BFF35B8FDB0709D42046FEF706FDA6
:1056B00028B12046FEF707FD034802F059FB0348D6
:1056C00010BD00BF80E60320C3540B008CE503200F
:1056D00038B500250446C0E90055C0E90455856089
:1056E000856140F8245FFFF76DF9FFF7BDFFE061CA
:1056F000FFF7D4FF25732062204638BD10B50A4C51
:105700002378BFF35B8FDB070CD42046FEF7D6FC73
:1057100040B10648FFF7DCFF2046FEF7D4FC044802
:1057200002F026FB014810BD78E6032088E603203E
:10573000515C0B00024A034903480023FFF75ABAA1
:10574000355A0B00C1590B0041590B0000231A4672
:1057500019461846FFF74EBA37B58D6804466846B5
:10576000FFF7C8FE6A462946204601F0EBFC01A877
:10577000FEF736FD204603B030BD37B5CD68044690
:105780006846FFF7B7FE6A462946204601F0B6FC98
:1057900001A8FEF725FD204603B030BD37B50D69E1
:1057A00004466846FFF7A6FE6A462946204601F0F1
:1057B0004EFC01A8FEF714FD204603B030BD0000EA
:1057C00070B58AB00D46014604A8FFF7C5FF144E18
:1057D00004A801F0CFFCE8B104A96846FFF7CDFFAB
:1057E00002983146FFF766FE044610B12C1E18BF22
:1057F000012401A8FEF7F4FC002CE9D004A96846B6
:10580000FFF7CCFF684601F058FC286001A8FEF7BE
:10581000E7FCDDE705A8FEF7E3FC0AB070BD00BFBA
:1058200058830B0037B50C4620461349154602F045
:1058300026FB50B901F0C0F94FF4165101F0ACF954
:1058400003B0BDE8304001F0B7B90C49204602F082
:1058500016FB78B94FF4165301A928460193FFF7B8
:10586000AFFF01F0FBFD019901F06EFA01F0F6FDCA
:1058700003B030BD0020FBE75D830B0064830B00A9
:1058800070B5D0E900531426044606FB0356AE4219
:1058900005D005F10800FFF7F3FF1435F7E720689E
:1058A000FFF77CFA204670BD10B504460C30FFF7B8
:1058B000E7FF2046FFF723FC204610BD10B5044B40
:1058C000044640F8043BFFF7EFFF204610BD00BF41
:1058D000E4820B0010B50446FFF7F0FF20462421B8
:1058E000FEF7DDFB204610BD10B5034B03600446F8
:1058F000FFF7E4FF204610BDFC830B0010B5044603
:10590000FFF7F2FF20462421FEF7C9FB204610BD19
:105910000022C0E9002210B582600C6804604C6867
:1059200044608C680A604A6084608A6010BD10B56B
:10593000036804461868FFF75DF8204610BD0000B4
:105940002DE9F04F87B0804603931C4B5B68C3F38F
:105950000803894616466BB9FFF7D0FE044600F1EE
:105960002403406A0593FFF7A3FD237B2BB105A811
:10597000FFF7DDFF07B0BDE8F08F01232373D4E903
:1059800000535FFA89F905EB830AAA4512D055F84E
:10599000047B3146381DFFF73DFE8145F5D33B685A
:1059A000039A0092D3F808B04A4633464146384637
:1059B000D847EAE700232373D9E700BF00ED00E0F2
:1059C0002DE9F74F9B461A4B5B68C3F308038046EB
:1059D000894616466BB9FFF791FE044600F1240391
:1059E000406A0193FFF764FD237B2BB101A8FFF709
:1059F0009EFF03B0BDE8F08F01232373D4E9005369
:105A0000F6B205EB830A55450ED055F8047B59468E
:105A1000381DFFF7FFFD8642F5D33B684A46DB6839
:105A2000414638469847EEE700232373DEE700BF80
:105A300000ED00E02DE9F341164B5B68C3F308036A
:105A400005460F461BBBFFF759FE00F12403044631
:105A5000406A0193FFF72CFDD4E90063462406EB6E
:105A60008308B04509D101A8FFF761FFA542B4BF83
:105A70000020012002B0BDE8F08156F8040B394641
:105A80000430FFF7C7FD8442A8BF0446E9E70020C1
:105A9000F0E700BF00ED00E0F8B5D0E901539D420A
:105AA00004460E460DDB6F1C002F006804DDB900B4
:105AB000FFF77CF918B9F8BDFFF770F900202060F6
:105AC000A7602768626807EB85019200A2EB850258
:105AD000081D02F06DF947F82560636801336360C3
:105AE0000120E8E737B500F124030446406A01933A
:105AF0000D46FFF7DDFCD4E9003203EB820293424E
:105B000019460BD00968A94203F10403F7D101A893
:105B1000FFF70DFF0025284603B030BD294620467B
:105B2000FFF7BAFF05460028F1D06368012B01D1C9
:105B3000FFF700FE01A8FFF7FAFEECE770B5044698
:105B4000D0E900020B4600EB820282420FD00146F0
:105B50001D6851F8046BAE4207D1521A02F028F9C1
:105B60006368013B6360012070BD0846EDE70020DB
:105B7000FAE71FB500F124030446406A019103933C
:105B8000FFF796FC01A92046FFF7D8FF18B163681C
:105B90000BB9FFF7DBFD03A8FFF7C9FE04B010BD8A
:105BA00070B5D0E904561823044603FB0656AE42EE
:105BB00015D005F110012046FFF7C0FF63680BB94F
:105BC000FFF7C4FDE06929690368DB6898476969E4
:105BD00019B1206A0368DB6898471835E7E7D4E90C
:105BE0000453182606FB0356AE4204D02846FFF79E
:105BF00077F91835F8E70023636170BD73B5044683
:105C0000FFF7A4FD04F12403606A0193FFF750FC41
:105C10002046FFF7C5FF01A8FFF789FE606A08B1BB
:105C2000FEF7D8FED4E90453182606FB0356AE420D
:105C300004D02846FFF754F91835F8E72069FFF734
:105C4000ADF82068FFF7AAF8204602B070BD00004A
:105C50000148FFF7D3BF00BF88E603208842F8B5AC
:105C600004460D46164615D9904214D2A2F11406E8
:105C7000751AA1F114072C44B7421AD01CB1314651
:105C80002046FFF778FC06F10800FFF7F9FD143E07
:105C9000143CF1E70DD0B5420BD01CB1294620468B
:105CA000FFF769FC05F10800FFF7EAFD143514342D
:105CB000F1E7F8BD8842F8B504460D46164614D9FA
:105CC000904213D2A2F11006751AA1F110072C44CC
:105CD000B74218D01CB131462046FFF77DF9304657
:105CE000FFF7FEF8103E103CF2E70CD0B5420AD0A8
:105CF0001CB129462046FFF76FF92846FFF7F0F858
:105D000010351034F2E7F8BD70B50E1E054611DDF2
:105D10003001FFF73BF8044658B1D5E9001201EB1A
:105D20000212FFF7C7FF2868FFF738F82C60AE6053
:105D3000012070BD0024F6E72DE9F04F904695B0A4
:105D400000230391D8F804100A9346229942C0E92F
:105D50000033C0E90233C0E90433CDE90833044617
:105D6000027623DCD8E90057142303FB0757AF4220
:105D70003BD029460BA8FFF72FF90BA90FA8099EC6
:105D8000FFF72AF9DDE9091399421BDA089B099A02
:105D900003EB061603EB0212314606F11000FFF783
:105DA00089FFEEB9099B0133099311E008A8FFF7B9
:105DB000ABFF0028D6D108A8FFF7A1F9204615B0FF
:105DC000BDE8F08F013108A8FFF79EFF0028DDD164
:105DD0000FA8FFF785F80BA8FFF782F81435C6E780
:105DE0000FA93046FFF7F8F8DCE70026CDE90B668F
:105DF0000D964FF01409DDE908239E427CDA330149
:105E0000D35806930BB90136F5E70023079309FB36
:105E100006F302930BAD07A906A8FFF722FB824603
:105E20000028F0D04FF000038DF817300146079A94
:105E30000DF117032846FFF7B1FB9DF8177001908D
:105E4000002F4AD1BDF81C30ADF84030CDE91177B4
:105E50004FF6FF73CDF83CA0ADF842301397D5E96B
:105E60000132934217DB03F1010ABAF1000F30DD72
:105E700009FB0AF0FEF78AFF834660B3D5E90012FA
:105E800009FB0212FFF7EAFE2868FEF787FFC5F854
:105E900000B0C5F808A02B68019A09FB023A6A68AD
:105EA000514609FB02320AF11400FFF7D7FEBAF19E
:105EB000000F03D00FA95046FFF75DFB6B6801335D
:105EC0006B6011A8FFF7DCFC3FB10BA8FFF7D8FC13
:105ED00071E7BB46D8E70127F3E7019B2D6809FB73
:105EE0000355069B1B782BB9D8F80030029A13444F
:105EF0001B7CEB8008358EE7216822606268636056
:105F0000A36809920A9A0A93E368A2600B9A0B931A
:105F10002369E2600C9A0C93636922610D9A0D93D8
:105F2000039B089162612376CFE70000F0B5044639
:105F300087B00D462646194668461746FEF76DFCA3
:105F40000B4B46F8043B694603A8FEF766FC03AA20
:105F500039463046FFF7F0FE03A8FEF71DFC684601
:105F6000FEF71AFC034B23602046256207B0F0BD04
:105F7000E4820B00E4830B00F0B50F4685B01D49A9
:105F80000A9C384616461D4601F079FFC0B9A4B1F7
:105F9000294601A8FFF7BCFC1749242001F0C2FAEA
:105FA000054630B101AB32462146FFF7BFFF134B28
:105FB0002B6001A8FEF7F0FB2C46204605B0F0BD93
:105FC0000F49384601F05BFF90B9002CF5D0294607
:105FD00001A8FFF79DFC0849242001F0A3FA05461B
:105FE0000028E6D001AB32462146FFF79FFFE0E7ED
:105FF0000024E2E76C830B0091850B00FC830B000F
:1060000070830B00014B024A1A60704784E603203C
:1060100081830B002DE9F047089DD0F820900446BD
:106020000E461746984600F0C7FD81454CD02B79A7
:10603000190704D56A6954492046FFF78DFAB8F16B
:10604000000F0DD05B212046FFF77AFA414620462B
:10605000FFF767FA23684D49DB680222204698471C
:106060002B79DA0723D5D5F808802F21404601F097
:1060700052FF08B100F1010841462046FFF751FAEE
:106080002B799B0708D53A212046FFF759FAEA6891
:106090003F492046FFF760FA2A79236812F0040F7F
:1060A000DB6814BF3B493C490222204698472B79C4
:1060B00058071DD529690B461A4613F8010B60B124
:1060C000202808D11946F7E7344800F0D8FE002808
:1060D000ADD0BDE8F0872828EED12368521ADB68DE
:1060E0002046984723682E49DB68042220469847BB
:1060F00000213846FEF776FD01462046FFF711FAEB
:1061000023682549DB680222204698471EB13146A4
:106110002046FFF706FA2B7913F0300F2CD02368B6
:106120002049DB680222204698472B79D9060AD5F8
:1061300023681D49DB68072220469847AA691B4946
:106140002046FFF709FA2B799A0611D5DB0605D50B
:1061500023681049DB6802222046984723681449C7
:10616000DB6820460A229847E9692046FFF7D9F9FB
:106170005D212046FFF7E4F923680E49DB682046DD
:106180000222BDE8F047184785830B008C830B0083
:106190009B810B008F830B0094830B0014E703207B
:1061A00092830B0097830B009A830B00E5810B0011
:1061B000A2830B00AD830B002DE9F04385B0D0F82E
:1061C00020900C9C05460F4690461E4600F0F4FCBD
:1061D000814505D1494800F052FE002840F08A80F0
:1061E0002B6A474A01924FF0000901A803938DF8EA
:1061F000089000F0E8FF49464046FEF7F3FC4149AD
:106200008046012201A801F06DF84146FFF77BF9B5
:106210003FB13D49012201A801F064F83946FFF77A
:1062200072F93EB13949012201A801F05BF831460B
:10623000FFF769F92379DF070ED5A6682F213046CD
:1062400001F069FE00B1461C3149012201A801F0AC
:1062500049F83146FFF757F923799E0707D52D49AD
:10626000022201A801F03EF8E16800F0B9FF2379AD
:10627000580714D5266933461F4613F8012B2AB157
:10628000202A01D11E46F7E7282AF5D12249022209
:1062900001A801F027F8BA1B314601F033F8237941
:1062A000190707D51D49012201A801F01BF86169F2
:1062B00000F0A8FF2379DA0608D5042218490DEB6F
:1062C000020001F00FF8A16900F08AFF23799B0614
:1062D00007D51449062201A801F004F8E169FFF787
:1062E00012F901A800F059FF286A0F490368022239
:1062F000DB68984705B0BDE8F08300BF14E70320D2
:10630000CC830B0062830B00B0830B0024860B0050
:1063100084810B00B2830B00B5830B00F2810B006C
:10632000B8830B00BD830B00AD830B00024B1A68D2
:10633000024B1A60704700BF90E50320B0E60320CF
:106340000021FEF767BC0000014B00229A607047F5
:10635000B4E60320014B1860704700BF94E50320AA
:1063600008B50B4B43B100F027FC03681B69984745
:10637000002801DDAFF30080064B43B101F06EF859
:1063800003681B699847002801DDAFF3008008BD52
:10639000000000000000000008B5FFF7E1FFFEF775
:1063A00001FB014B186008BD40E703200548064A81
:1063B000064908B5121A01F0EDFC054B054A1A60B2
:1063C00008BD00BF00F4032004F4032084870B0001
:1063D00000F403201E1C279A07B5002300931A46D9
:1063E0006FF07701FEF740FC03B05DF804FB00009E
:1063F00007B543880A2B08D0502B0BD1094B1B68DB
:106400004BB103B05DF804EB1847FFF7E5FF03B0AD
:106410005DF804FB002300931A466FF07701FEF746
:1064200023FCF4E7C8E6032010B512480021FEF76C
:10643000F5FC114B1A68114B9A42114B0CBF01220B
:1064400000221A7001D0FFF7B1FFFEF79BFA044655
:1064500001F0D0FC0B4B13B12046AFF300800021BC
:106460000848FEF78BFCBDE8104007480021FEF706
:10647000F1BB00BF55630B0000F403201E1C279ADC
:10648000C4E6032000000000F1630B007047002009
:10649000704710B510210446FDF701FE204610BDDF
:1064A00008B5FFF7F6FF08BD30B500224FF69C7423
:1064B000026084808D888C800C68858004600A600E
:1064C00030BD10B504460068FEF768FC204610BDDC
:1064D00038B5C468F4B12378022B03D104F10C0061
:1064E000FFF7EFFF656835B12846FEF7EBFD102199
:1064F0002846FDF7D4FDA56835B12846FEF7E2FD34
:1065000010212846FDF7CBFD20461421BDE8384078
:10651000FDF7C5BD38BD1FB504466846FEF72BFD27
:10652000A3680BB901F002F8E36869462046984772
:1065300004466846FEF7D4FC204604B010BD1FB5E3
:106540000023CDE90201019210241A46694618463B
:10655000ADF80230ADF80040FEF7F8FB04B010BD16
:106560000B6803604B68436013B15A6801325A608C
:10657000704737B5044668460D46FFF7F1FF009BAC
:10658000019A23606260002301A801930093FDF744
:1065900027FE35B1281DFDF723FE08212846FDF70B
:1065A0007EFD204603B030BD826810B50AB900F008
:1065B000BDFFBDE81040C368184708B5006800F18A
:1065C0001001FFF7F1FF08BD826810B50AB900F0AD
:1065D000ADFFBDE81040C368184708B5006800F17A
:1065E0001001FFF7F1FF08BD38B500230446036032
:1065F00010200D46FDF74FFD28B10123C0E90133FE
:10660000024B0360C5602060204638BD60840B00EB
:1066100038B5002383608B6804460D462BB10222F7
:106620009847EB68E360AB68A360204638BD000084
:10663000F0B589B004686846FFF736FF4FF00203F3
:10664000D4E84F2F002A03D1C4E8413F0029F7D1F5
:1066500025D104F10C0569462846FFF725FFBFF355
:106660005B8F01236370002004F10803BFF35B8F8D
:1066700053E8006F43E80002002AF9D1BFF35B8FB3
:106680006EB1FEF7D7FA78B129463046FFF78CFF96
:106690003046FEF717FD10213046FDF700FD684635
:1066A000FFF70FFF09B0F0BD314602A8FFF7B0FFBA
:1066B000E068B4F9105008B101F0F4FB0690102026
:1066C000ADF81C50FDF7E7FC0546E8B100278760F0
:1066D0001820FDF7E0FC044688B10146876002A857
:1066E000FEF71FFD049BA268A360059B049206A908
:1066F000E268E36004F110000592FFF7D5FE084B55
:10670000EB60084B2C60AB6006A8FFF7DAFE02A82E
:10671000FEF7D8FC002229460348FEF793FAB7E7B4
:10672000BB650B003D680B00556D0B002DE9F04F6C
:106730008BB005469DF850A00F4690469946FEF74F
:106740000DFB07AE834638BB4FF62E73059005A9A7
:106750003046ADF81830FFF7A7FE1420FDF79BFC7C
:10676000044648B1022303700123C0E901BB437012
:1067700031460C30FFF798FE2846214640F8044B7E
:10678000FFF732FF3046FFF79CFE05A8FFF799FEA2
:1067900028460BB0BDE8F08F0C2300241420CDE96F
:1067A00008440793FDF777FC014618B1C0E901449E
:1067B0000470447004A80391FFF716FF1E4B089362
:1067C0000820FDF768FC044610B103A9FFF7C8FED6
:1067D00000965FFA8AF34A46414638460994FEF726
:1067E000C5FAB8B9039B5B7803F0FF0293B94FF683
:1067F0009C7305A903A80592ADF81830FFF718FFA0
:1068000005A8FFF75EFE05A80999FFF7B2FE06A8E6
:10681000FDF7E6FC03A905A8FFF7A2FE059B069A73
:106820002B606A60002306A806930593FDF7D8FC49
:1068300004A8FDF7D5FCABE7B9680B00012AF8B551
:10684000054603D10B6803600020F8BD022A10D072
:10685000032AF9D10468002CF6D004F11000FFF7E8
:1068600030FE2046FEF72EFC18212046FDF717FCCF
:10687000EAE718200E68FDF70EFC044650B13146D9
:10688000FFF7C6FE3069B6F9147008B101F00AFBD3
:106890002061A7822C60D7E738B5002383608B681E
:1068A00004460D462BB102229847EB68E360AB68C3
:1068B000A360204638BD0000F0B589B004460D46FF
:1068C00001A81146FFF755FEA4B124B21DB1284618
:1068D00001F0E8FA054601A803A90395ADF81040B8
:1068E000FFF7A6FE03A8FFF7ECFD02A8FDF778FC72
:1068F00009B0F0BD019D0123D5E84F2F002A03D137
:10690000C5E8413F0029F7D1EFD12B73BFF35B8F6F
:106910006B702B1DBFF35B8F53E8006F43E80042A1
:10692000002AF9D1BFF35B8F002EDED02046FEF7A0
:1069300081F9074660B105F10C013046FFF744FECE
:106940003046FEF7BFFB10213046FDF7A8FBCCE731
:10695000314603A8FFF7A0FF2B7B8DF81C301020D9
:10696000FDF799FB0546D0B187601420FDF793FB36
:10697000044678B18760014603A8FEF7D2FB059B69
:10698000A268A360069B0592E268E3609DF81C3054
:1069900006922374064BEB60064B2C60AB6003A899
:1069A000FEF790FB002229460348FEF74BF9C7E7A4
:1069B000DB650B00BD690B00556D0B00012A70B53E
:1069C000044603D10B680360002070BD022A0CD07E
:1069D000032AF9D10468002CF6D02046FEF772FB9A
:1069E00014212046FDF75BFBEEE714200E68FDF74F
:1069F00052FB054620B13146FFF74EFF337C2B7426
:106A00002560E1E7704710B518210446FDF747FB04
:106A1000204610BDF0B5037D062B8DB00E4600F16B
:106A200004074FF0000412D000F1080515F8011D0D
:106A30000A223046FEF7D1FBAF42044419D0002CA5
:106A4000F4D02E213046FEF7AFFB0444EEE72F23AF
:106A50006A4639460A208DF80040FDF7D3FF6846A4
:106A600001F03DFA33680246DB68694630469847D4
:106A7000044620460DB0F0BD10B5054B044611226A
:106A800040F8043B002101F0ADF9204610BD00BFE5
:106A90007C840B000346074A10B543F8042B01F130
:106AA000100251F8044B43F8044B9142F9D10A7893
:106AB0001A7010BD7C840B0010B59DF8084044EAA4
:106AC000032343EA024242EA016104234160037561
:106AD00010BD000007B5064B0360CB7800938B78A0
:106AE0004A780978FFF7E8FF03B05DF804FB00BFC0
:106AF0007C840B00417470477047704708B50021D3
:106B0000007CFEF747F840EAE07008BD08B50121B7
:106B1000007CFEF73FF840EAE07008BD08B5007C55
:106B2000FEF730F820EAE07008BD08B5007CFEF7FB
:106B300021F820EAE07008BD13B50446007C0191FD
:106B4000FEF720F80028019901DC607C20B1207C50
:106B5000FEF728F820EAE07002B010BD007CFEF7D6
:106B600029B810B514210446FDF799FA204610BD46
:106B700010B54FF47A73044608460021C4E90113A6
:106B8000044B23600123207463741146FDF7DAFF80
:106B9000204610BD90840B00007C0022FDF7DABF78
:106BA000007CFDF7DFBF10B514220446002101F080
:106BB00019F9204610BD000010B50F4C88B003A88D
:106BC000FFF7F1FF2178BFF35B8F11F001010FD1C7
:106BD00020460191FDF772FA019948B103AA0748CE
:106BE000FFF7C6FF2046FDF76EFA054801F0C0F832
:106BF000024808B010BD00BFCCE60320D0E6032059
:106C0000F96A0B00002240681146FEF74FB80022D7
:106C100040681146FEF76AB8002240681146FEF748
:106C200075B840680022FEF769B84068002281F01C
:106C30000101FEF753B8002340681A461946FEF7D3
:106C400045B8002340681A461946FEF737B80022B7
:106C500040681146FEF71AB8406800220221FEF78C
:106C60001DB8002340681A46FEF708B8084B10B557
:106C7000282422461846002101F0B4F8054B048070
:106C80004FF0FF32426004225A60034A1A6010BD7E
:106C9000ECE60320E4E60320C0840B007047417457
:106CA000704708B5007CFDF7EDFE20EAE07008BDF6
:106CB00008B5007CFDF7BEFE20EAE07008BD08B50F
:106CC000007CFDF7C7FE40EAE07008BD08B5007C17
:106CD000FDF7B8FE40EAE07008BD007CFDF7C2BEDB
:106CE00037B5457C04462DB1207C03B0BDE830406B
:106CF000FDF798BE007C0191FDF7C4FE00280199C4
:106D0000F2DC284603B030BD10B514210446FDF76F
:106D1000C6F9204610BD000010B54FF47A73044642
:106D2000084611460022C4E90123044B23600123D5
:106D300020746374FDF7B6FE204610BDFC840B0082
:106D4000007C0023FDF7A6BE0022FFF7F9BF007C00
:106D5000FDF760BE10B5836804460BB900F0E6FB92
:106D6000C3689847A3681BB1032221462046984771
:106D700020461021BDE81040FDF791B97047F8B5E5
:106D8000064615460C468F18BC4206D0336814F8E8
:106D9000011B9B6830469847F6E72846F8BD007C03
:106DA0000022FDF787BE007C0021FDF78BBE007C32
:106DB0000021FDF78FBE007C0021FDF793BE007C13
:106DC0000021FDF797BE10B514210446FDF767F9C1
:106DD000204610BD38B5044615464FF47A7300229C
:106DE000C4E90123094B2174084623602946FDF7B5
:106DF00091FEBF3008D16B69DB0705D56868FDF7E8
:106E0000CDFFE868FDF7CAFF204638BD2C850B0092
:106E1000002340681A46FDF731BF40680022022176
:106E2000FDF73CBF002240681146FDF72FBF00224E
:106E300040681146FDF73ABF002340681A461946DC
:106E4000FDF73CBF002340681A461946FDF73EBFD8
:106E500040680021FDF762BF40680021FDF766BF72
:106E60004068002281F00101FDF738BF4068002230
:106E7000FDF744BF002240681146FDF747BF0022DE
:106E800040681146FDF732BF2DE9F04395B0144636
:106E90000D460746FFF7F0FD00211C220DA80091CA
:106EA00000F0A0FF40230C9320466B460CAA002163
:106EB000FDF748FD044600284BD1024601216868D1
:106EC000FDF7F4FE0221804622466868FDF7EEFEDB
:106ED000009E81462146002E3BD0002939D173689F
:106EE000022B03D00A2B11D0F669F4E7B8F1000F9A
:106EF000FAD0716906A8043107ADFFF7EBFD0FCD9D
:106F00003C1D0FC42B6823704146EDE7B9F1000F1B
:106F1000EAD07469102201A800F064FF06238DF8FE
:106F2000143001AD04F108031834186859682A4672
:106F300003C20833A3421546F7D101A906A807AD3D
:106F4000FFF7A8FD0FCD3C1D0FC42B6823704946E9
:106F5000CAE70098FDF7EEFC384615B0BDE8F083AF
:106F6000024B034A1A6000225A60704714E703205C
:106F700054850B0000F11003012213F8101C0129A5
:106F8000184608D153F8041C02EB4102013A03F100
:106F90001003F2D17047022904BF53F8041C5218A1
:106FA000F4E70EB4F0B588B000AF07F13405102156
:106FB00055F8042B7A6004462B467818FD60FDF7DF
:106FC00005FF0F287A681AD900F1080323F0070398
:106FD0006E46ADEB030D411C2B466846FD60FDF788
:106FE000F5FE021E04DD236869469B68204698472B
:106FF000B5462037BD46BDE8F04003B070470028D5
:10700000F7D0236802469B6807F110012046984795
:10701000EFE738B50B6803604D6843689D4204464E
:1070200008D015B16B6801336B60606808B1FEF77A
:1070300052F8656038BD07B503688DF807109B6886
:1070400001220DF10701984703B05DF804FB0B46E0
:107050001146002210B5C0E90022044683600BB936
:10706000204610BDFFF7D5FFFAE78368EBB11A7829
:10707000032A1AD8DFE802F00417021B0520704724
:1070800002685B685268D05C2D2812D0A0F13003F2
:10709000092B0ED974280ED066280CD0A0F16E03EF
:1070A000584258417047062070470020704704201E
:1070B0007047032070470220704710B50446FFF761
:1070C000D4FF02280ED0C31EDBB2012B14D82268D5
:1070D000A36850685B68BDE810400A22002118448C
:1070E00000F0B0BF2268A36852685B68D05CA0F172
:1070F00074035842584110BD0020FCE738B5002306
:10710000C0E9003304460E48C4E90203A9B10B7874
:10711000032B06D08BB9136858684B68C35C6E2B81
:1071200007D013684D6858688B6828445B1BA060C3
:10713000E36011462046FFF76CFF204638BD00BFD4
:10714000AF830B0038B500250B46C0E90055C0E9F8
:107150000255C0E90455044611464BB11A78012A7C
:1071600006D103F11002DB6882604361FFF751FF33
:10717000204638BD10B54369044663B18068E060BD
:10718000013B1030A0602061636113B1FFF7F2FE94
:10719000A060012000E0184610BD10B57D21044616
:1071A000FFF749FF01232371204610BD08B503797D
:1071B000012B02D0022B04D008BD2C21FFF73BFF8E
:1071C000FAE73A21FAE710B50446FFF7EFFF204649
:1071D0007B21FFF730FF00232371204610BD000004
:1071E00013B504460191FFF7E1FF2368019ADB68BC
:1071F00003492046984701232046237102B010BD61
:107200009B810B0013B504460191FFF7CFFF236864
:10721000019ADB68034920469847012320462371E1
:1072200002B010BD88850B002DE9F0470D462221E4
:1072300090460446FFF7FFFEDFF8A490A8442F46CF
:107240004745BA463DD017F8016B222E06D05C2E7A
:1072500004D0304600F096FD0028F1D12368AAEB57
:1072600005029B682946204698475C212046FFF787
:10727000E2FE0D2E0AD8072E1CD9A6F10803052B15
:1072800018D8DFE803F00D0F11171315222E01D0C7
:107290005C2E0FD131462046FFF7CDFE3D46CFE7AD
:1072A0006221F8E77421F6E76E21F4E76621F2E740
:1072B0007221F0E723683246DB684946204698474A
:1072C000ECE7BD4205D023687A1B9B68294620461F
:1072D000984722212046FFF7AEFEBDE8F08700BFA9
:1072E0008B850B0013B50446CDE90021FFF75EFF47
:1072F0002046DDE90021FFF797FF02232046237196
:1073000002B010BD13B50446CDE90021FFF74EFFD2
:107310002046DDE90021FFF787FF01232046237186
:1073200002B010BD08B5024B1B681B68019308BD75
:107330005C02030008B5024B1B685B68019308BD43
:107340005C02030008B5024B1B689B68019308BDF3
:107350005C020300232813B502D9002002B010BD3F
:10736000A0F10B03022B1AD8174C2178BFF35B8FC7
:1073700011F001010BD120460191FCF79FFE01990C
:1073800028B11248FDF790FD2046FCF79CFE0F4BFC
:107390001878FDF7CFFB0028DFD10120DEE70128B8
:1073A00009D800F09BF80021007CFDF7ABFB80F0D2
:1073B0000100C0B2D2E709380128EED800F04EF83B
:1073C000007CFDF757FBF2E71CE7032020E70320D2
:1073D000232838B504460D460AD8FF2908D0FFF700
:1073E000B9FF28B129462046BDE83840FDF7B2BABA
:1073F00038BD38B504460D46FDF7B4FAFF2810D065
:10740000062804D84D2323FA00F0C30709D42046E8
:10741000FFF7A0FF28B129462046BDE83840FDF718
:10742000A9BA38BD7047000038B5044614252A466D
:10743000002100F0D7FC25804025074925812846FA
:10744000258200F071F804496060284600F06CF86D
:10745000E060204638BD00BF91850B0030B50E4D71
:107460002978BFF35B8F11F0010487B011D1284652
:10747000FCF724FE68B101A8FFF7D6FF01AA214658
:107480000648FFF749FC2846FCF71DFE044800F0BB
:107490006FFC024807B030BD28E703202CE703202B
:1074A00025740B007047000038B50A4B03600123B8
:1074B000044643610849202000F036F8202560602A
:1074C0000549A560284600F02FF8C4E903052046C9
:1074D00038BD00BF1800010091850B0030B50E4D7E
:1074E0002978BFF35B8F11F0010487B011D12846D2
:1074F000FCF7E4FD68B16846FFF7D6FF6A4621460F
:107500000648FFF767FC2846FCF7DDFD044800F05D
:107510002FFC024807B030BD44E7032048E70320B2
:10752000A5740B00FCF7B7BDFCF7B7BD08B5FDF7B8
:1075300055FC000081F0004102E000BF83F00043F1
:1075400030B54FEA41044FEA430594EA050F08BFFE
:1075500090EA020F1FBF54EA000C55EA020C7FEAC2
:10756000645C7FEA655C00F0E2804FEA5454D4EB3F
:107570005555B8BF6D420CDD2C4480EA020281EA09
:10758000030382EA000083EA010180EA020281EA41
:107590000303362D88BF30BD11F0004F4FEA013193
:1075A0004FF4801C4CEA113102D0404261EB4101A2
:1075B00013F0004F4FEA03334CEA133302D0524228
:1075C00063EB430394EA050F00F0A780A4F10104E4
:1075D000D5F1200E0DDB02FA0EFC22FA05F280181E
:1075E00041F1000103FA0EF2801843FA05F3594104
:1075F0000EE0A5F120050EF1200E012A03FA0EFC83
:1076000028BF4CF0020C43FA05F3C01851EBE371AC
:1076100001F0004507D54FF0000EDCF1000C7EEBC9
:1076200000006EEB0101B1F5801F1BD3B1F5001F07
:107630000CD349085FEA30004FEA3C0C04F1010426
:107640004FEA445212F5800F80F09A80BCF1004F4F
:1076500008BF5FEA500C50F1000041EB045141EAD1
:10766000050130BD5FEA4C0C404141EB0101013C9A
:1076700028BFB1F5801FE9D291F0000F04BF014689
:107680000020B1FA81F308BF2033A3F10B03B3F15B
:1076900020020CDA0C3208DD02F1140CC2F10C02EB
:1076A00001FA0CF021FA02F10CE002F11402D8BF49
:1076B000C2F1200C01FA02F120FA0CFCDCBF41EA15
:1076C0000C019040E41AA2BF01EB0451294330BDE4
:1076D0006FEA04041F3C1CDA0C340EDC04F11404C1
:1076E000C4F1200220FA04F001FA02F340EA030098
:1076F00021FA04F345EA030130BDC4F10C04C4F1DE
:10770000200220FA02F001FA04F340EA03002946BD
:1077100030BD21FA04F0294630BD94F0000F83F407
:10772000801306BF81F480110134013D4EE77FEAEA
:10773000645C18BF7FEA655C29D094EA050F08BF36
:1077400090EA020F05D054EA000C04BF1946104617
:1077500030BD91EA030F1EBF0021002030BD5FEA5B
:10776000545C05D14000494128BF41F0004130BD83
:1077700014F580043CBF01F5801130BD01F00045D7
:1077800045F0FE4141F470014FF0000030BD7FEA4A
:10779000645C1ABF194610467FEA655C1CBF0B4645
:1077A000024650EA013406BF52EA033591EA030F5C
:1077B00041F4002130BD00BF90F0000F04BF002154
:1077C000704730B54FF4806404F132044FF0000587
:1077D0004FF0000150E700BF90F0000F04BF002100
:1077E000704730B54FF4806404F1320410F0004566
:1077F00048BF40424FF000013EE700BF42004FEA61
:10780000E2014FEA31014FEA02701FBF12F07F43DD
:1078100093F07F4F81F06051704732F07F4208BF94
:10782000704793F07F4F04BF41F40021704730B59B
:107830004FF4607401F0004521F000411CE700BFE7
:1078400050EA010208BF704730B54FF000050AE06A
:1078500050EA010208BF704730B511F0004502D56B
:10786000404261EB41014FF4806404F132045FEA6D
:10787000915C3FF4D8AE4FF003025FEADC0C18BF16
:1078800003325FEADC0C18BF033202EBDC02C2F108
:10789000200300FA03FC20FA02F001FA03FE40EA9A
:1078A0000E0021FA02F11444BDE600BF70B54FF09E
:1078B000FF0C4CF4E06C1CEA11541DBF1CEA13557C
:1078C00094EA0C0F95EA0C0F00F0DEF82C4481EAE4
:1078D000030621EA4C5123EA4C5350EA013518BF04
:1078E00052EA033541F4801143F4801338D0A0FBF1
:1078F00002CE4FF00005E1FB02E506F00042E0FB9E
:1079000003E54FF00006E1FB03569CF0000F18BFA3
:107910004EF0010EA4F1FF04B6F5007F64F540744B
:1079200004D25FEA4E0E6D4146EB060642EAC621DE
:1079300041EA55514FEAC52040EA5E504FEACE2E4B
:10794000B4F1FD0C88BFBCF5E06F1ED8BEF1004F4E
:1079500008BF5FEA500E50F1000041EB045170BDCA
:1079600006F0004646EA010140EA020081EA03010E
:10797000B4EB5C04C2BFD4EB0C0541EA045170BD0A
:1079800041F480114FF0000E013C00F3AB8014F184
:10799000360FDEBF002001F0004170BDC4F10004CD
:1079A000203C35DA0C341BDC04F11404C4F120054E
:1079B00000FA05F320FA04F001FA05F240EA0200A9
:1079C00001F0004221F0004110EBD37021FA04F6DF
:1079D00042EB06015EEA430E08BF20EAD37070BD99
:1079E000C4F10C04C4F1200500FA04F320FA05F0F8
:1079F00001FA04F240EA020001F0004110EBD370FA
:107A000041F100015EEA430E08BF20EAD37070BD69
:107A1000C4F1200500FA05F24EEA020E20FA04F342
:107A200001FA05F243EA020321FA04F001F00041F1
:107A300021FA04F220EA020000EBD3705EEA430E62
:107A400008BF20EAD37070BD94F0000F0FD101F091
:107A50000046400041EB010111F4801F08BF013CCA
:107A6000F7D041EA060195F0000F18BF704703F008
:107A70000046520043EB030313F4801F08BF013D8F
:107A8000F7D043EA0603704794EA0C0F0CEA13554B
:107A900018BF95EA0C0F0CD050EA410618BF52EA05
:107AA0004306D1D181EA030101F000414FF000000B
:107AB00070BD50EA410606BF1046194652EA430619
:107AC00019D094EA0C0F02D150EA013613D195EA8D
:107AD0000C0F05D152EA03361CBF104619460AD1D5
:107AE00081EA030101F0004141F0FE4141F47001DF
:107AF0004FF0000070BD41F0FE4141F4780170BDCF
:107B000070B54FF0FF0C4CF4E06C1CEA11541DBF33
:107B10001CEA135594EA0C0F95EA0C0F00F0A7F835
:107B2000A4EB050481EA030E52EA03354FEA013162
:107B300000F088804FEA03334FF0805545EA131375
:107B400043EA12634FEA022245EA111545EA10653D
:107B50004FEA00260EF000419D4208BF964244F1D4
:107B6000FD0404F5407402D25B084FEA3202B61AF3
:107B700065EB03055B084FEA32024FF480104FF4C7
:107B8000002CB6EB020E75EB030E22BFB61A75463B
:107B900040EA0C005B084FEA3202B6EB020E75EBCE
:107BA000030E22BFB61A754640EA5C005B084FEA36
:107BB0003202B6EB020E75EB030E22BFB61A754603
:107BC00040EA9C005B084FEA3202B6EB020E75EB0E
:107BD000030E22BFB61A754640EADC0055EA060ECF
:107BE00018D04FEA051545EA16754FEA06164FEA12
:107BF000C30343EA52734FEAC2025FEA1C1CC0D1BE
:107C000011F4801F0BD141EA00014FF000004FF04A
:107C1000004CB6E711F4801F04BF01430020B4F10B
:107C2000FD0C88BFBCF5E06F3FF6AFAEB5EB030CC3
:107C300004BFB6EB020C5FEA500C50F1000041EBC0
:107C4000045170BD0EF0004E4EEA113114EB5C048D
:107C5000C2BFD4EB0C0541EA045170BD41F4801160
:107C60004FF0000E013C90E645EA060E8DE60CEA68
:107C7000135594EA0C0F08BF95EA0C0F3FF43BAF85
:107C800094EA0C0F0AD150EA01347FF434AF95EA3C
:107C90000C0F7FF425AF104619462CE795EA0C0F20
:107CA00006D152EA03353FF4FDAE1046194622E7ED
:107CB00050EA410618BF52EA43067FF4C5AE50EAC7
:107CC00041047FF40DAF52EA43057FF4EBAE12E7B7
:107CD0004FEA4102B2F1E04324BFB3F5001CDCF1EE
:107CE000FE5C0DD901F0004C4FEAC0024CEA507026
:107CF000B2F1004F40EB830008BF20F00100704755
:107D000011F0804F21D113F13872BCBF01F0004057
:107D1000704741F480114FEA5252C2F11802C2F189
:107D2000200C10FA0CF320FA02F018BF40F001000A
:107D30004FEAC1234FEAD32303FA0CFC40EA0C00BC
:107D400023FA02F34FEA4303CCE77FEA625307D1F9
:107D500050EA01331EBF4FF0FE4040F44000704730
:107D600001F0004040F0FE4040F40000704700BFCA
:107D7000002301461A46184600F06EB90A22002177
:107D800000F060B9024B1844407800F0970070474B
:107D900026860B000A44914200F1FF3300D1704760
:107DA00010B511F8014B03F8014F9142F9D110BD04
:107DB000884210B501EB020402D98442234607D859
:107DC000431EA14208D011F8012B03F8012FF8E758
:107DD000024401468A4200D110BD13F8014D02F859
:107DE000014DF7E702440346934200D1704703F880
:107DF000011BF9E738B5104B1D68AB6B0446B3B9EE
:107E00001820FCF7C3FF0246A86320B90B4B0C48AF
:107E10004221FCF7FBFF0B490B4BC0E900130B4B56
:107E200083600B23838100210120C2E90401AB6B35
:107E300000221C615A6138BD94E5032092850B0035
:107E4000A9850B000E33CDAB34126DE6ECDE0500D8
:107E5000C9B2034610F8012B1AB18A42F9D118466B
:107E60007047002918BF0023F9E710B50446FFF753
:107E7000EFFF18B9204600F032F8204410BD10F88A
:107E8000012B11F8013B012A28BF9A42F7D0D01AE2
:107E90007047034611F8012B03F8012B002AF9D192
:107EA00070470000024B0146186800F003B800BF9D
:107EB00094E5032037B5044608460D4600F00FF858
:107EC000421C114620460192FCF790FF044618B16F
:107ED000019A2946FFF75EFF204603B030BD0346F6
:107EE00013F8012B002AFBD1181A0138704710B57E
:107EF0007AB103460139841813F8010B11F8012FE8
:107F0000904201D1A34201D1801A10BD0028F3D1C3
:107F1000FAE71046F9E738B503460C4669B9BDE8FB
:107F20003840FFF795BF431C054621461846FFF72A
:107F30008FFF0028F7D1284638BD0025F5E700005F
:107F4000012B2DE9F04701D0242B06D9FCF756FF71
:107F5000162303600020BDE8F087DFF8E4C00D467B
:107F60002E4615F8014B14F80C7017F00807F7D1DE
:107F70002D2C32D12C780127B51C002B5BD0102B77
:107F800009D1302C07D12C7804F0DF04582C4DD1C6
:107F90006C781023023507F1004808F1FF384FF0E4
:107FA000000CB8FBF3F9664603FB198AA4F1300E06
:107FB000BEF1090F16D87446A34224DDBCF1000FB0
:107FC0001EDBB1451CD301D1A24519DB06FB0346DC
:107FD0004FF0010C15F8014BE8E72B2C04BF2C786F
:107FE000B51CCAE7A4F1410EBEF1190F01D8373C08
:107FF000E2E7A4F1610EBEF1190F04D8573CDBE7AC
:108000004FF0FF3CE6E7BCF1000F05DA22230360E6
:10801000464642B930469EE707B17642002AF9D07B
:10802000BCF1000F00D0691E1160F3E73024002B73
:10803000B1D10823AFE7302CA5D00A23ABE700BFAE
:1080400027860B0013460A46014602480068FFF7E0
:1080500077BF00BF94E503202DE9F843DFF8B8802F
:108060000646D8F800001F460D46914600F056F827
:10807000254B1C6834B9254C1C60254B13B11B687B
:10808000C4F8883063681F2B07DDD8F8000000F0C3
:1080900047F84FF0FF30BDE8F8834EB3D4F88800BE
:1080A00088B91C4B23B9D8F8000000F038F8F0E785
:1080B0004FF48470FCF76AFE0028F4D00023C0E976
:1080C0004033C4F88800636840F8239001229A4046
:1080D00000EB8301D0F800311343C0F80031022EC9
:1080E000C1F8807002BFD0F804311343C0F80431E6
:1080F0006368D8F800005A1C0233626044F82350C9
:1081000000F00EF80020C6E7E8E703205CE7032054
:10811000000000008D4D0B00F8E50320704770470C
:108120007047000021400B005D400B0085400B00B4
:1081300089400B000000000043616C6C206F6E20D2
:1081400070757265207669727475616C00434F4E6C
:10815000463A424153005468726573686F6C643AE2
:108160002025642C205265736574205468726573F1
:10817000686F6C643A2025642C20426173656C69D9
:108180006E6520256600496E697469616C697A655F
:108190006400434F4E463A544852202564004E65D1
:1081A00077205468726573686F6C6420536574201F
:1081B000746F2025690055706461746500434F4EEB
:1081C000463A524553202564004E65772052657328
:1081D0006574205468726573686F6C6420536574AD
:1081E00020746F3A20256900436F756E74205265C4
:1081F000736574000000000000000000CD400B001B
:10820000CF400B00436F756E743A2025692C2054C3
:108210006F74616C20436F756E743A202569004459
:108220006574656374696E672056656869636C651B
:10823000210056656869636C6500496E69746961FF
:108240006C697A696E67205061727469636C65202D
:1082500066756E6374696F6E7320616E64207661FB
:10826000726961626C6573004C61737420436F7551
:108270006E7400546F74616C2056656869636C6538
:108280007300536574207468652054687265736860
:108290006F6C640053657420746865205265736563
:1082A00074205468726573686F6C640052657365FE
:1082B00074204C6173742056656869636C65204353
:1082C0006F756E7400526563616C6962726174658A
:1082D00020426173656C696E65000000000000005B
:1082E000000000000000000000000000A5400B009E
:1082F000B9440B00000000000000000025460B0000
:1083000059460B0015600B00BB440B000000000039
:1083100000000000C3440B00C5440B000000000037
:10832000000000008B4E0B00814E0B00774E0B00BF
:108330006D4E0B00614E0B00554E0B00516E0B0045
:10834000596E0B00494E0B00414E0B00374E0B008F
:108350002D4E0B00896E0B006261756400536572CF
:1083600069616C0053657269616C31004A534F4E0C
:1083700053747265616D4C6F6748616E646C6572B1
:108380000061707000253031307520005D20002CB8
:10839000200028293A2000205B00636F6465203D9F
:1083A000200064657461696C73203D20000D0A0033
:1083B0006D006C6E00666E00636F646500646574CA
:1083C00061696C00000000000000000061540B00B7
:1083D00087540B0045540B00A36F0B0000000000F6
:1083E00000000000BD580B00D5580B0015600B00B5
:1083F000BB440B000000000000000000E9580B0027
:10840000FD580B00B9610B004D540B00000000003B
:10841000000000005F540B0095540B00795F0B00C7
:108420004F540B0000000000000000005D540B00E2
:10843000A3540B0025580B00C5540B0025592D25BE
:108440006D2D25645425483A254D3A2553257A004B
:1084500061736374696D6500000000000000000036
:108460008D640B0093640B00D1640B00A1640B00BE
:108470008F640B000000000000000000156A0B0074
:10848000056A0B00076A0B000000000000000000F6
:10849000FB6A0B00636B0B00396B0B0059510B002F
:1084A0002B6B0B00FD6A0B000D6B0B005D6B0B0063
:1084B0001D6B0B00F56A0B000000000000000000BF
:1084C000636C0B00596C0B004F6C0B00056C0B00C0
:1084D000436C0B00376C0B00516E0B00596E0B0098
:1084E0002B6C0B00236C0B00196C0B000F6C0B003A
:1084F000896E0B0000000000000000009D6C0B0066
:10850000096D0B00E16C0B0059510B00B16C0B00B5
:10851000CD6C0B00BF6C0B00DB6C0B009F6C0B0079
:10852000A36C0B0000000000000000007D6D0B003C
:10853000C76D0B009F6D0B007F6D0B00A76D0B00CF
:10854000AF6D0B00B76D0B00BF6D0B00000000009E
:1085500000000000116E0B001B6E0B00256E0B005F
:108560002F6E0B00396E0B00456E0B00516E0B0029
:10857000596E0B00616E0B006D6E0B00756E0B007B
:108580007F6E0B00896E0B002575007525303478E1
:1085900000005245454E54206D616C6C6F63207332
:1085A0007563636565646564002F6D6E742F776F06
:1085B000726B73706163652F776F726B7370616339
:1085C000652F4743432D31302D706970656C696E9E
:1085D000652F6A656E6B696E732D4743432D31308D
:1085E0002D706970656C696E652D34385F3230327C
:1085F00030313132345F3136303631383036343123
:108600002F7372632F6E65776C69622F6E65776C5E
:1086100069622F6C6962632F7374646C69622F7274
:10862000616E642E63000020202020202020202066
:108630002828282828202020202020202020202012
:108640002020202020202088101010101010101042
:108650001010101010101004040404040404040486
:10866000041010101010101041414141414101010E
:1086700001010101010101010101010101010101EA
:1086800001011010101010104242424242420202F8
:1086900002020202020202020202020202020202BA
:1086A0000202101010102000000000000000000066
:1086B00000000000000000000000000000000000BA
:1086C00000000000000000000000000000000000AA
:1086D000000000000000000000000000000000009A
:1086E000000000000000000000000000000000008A
:1086F000000000000000000000000000000000007A
:108700000000000000000000000000000000000069
:108710000000000000000000000000000000000059
:108720000000000000000000C5430B008D440B005A
:1087300081480B00954E0B00BD4E0B0049510B00BC
:1087400005600B002D630B0049630B006D6C0B0083
:10875000616F0B000000000000000000000000003E
:10876000040000001400000003000000474E550004
:10877000D0D2908E9262FF5BD3B09D74E43D160B15
:04878000F1E7414E8E
:0487840000000000F1
:108788000700000014840B002C840B0050840B009D
:1087980098E5032000000000000000000000000031
:1087A80000000000000000000000000000000000C1
:1087B80000000000000000000000000000000000B1
:1087C80000000000000000000000000000000000A1
:1087D8000000000000000000000000000000000091
:1087E8000000000000000000000000000000000081
:0887F80000000000ECE7032083
:10880000FFFFFFFF0D000100000001020304050649
:108810000708090A0B0C0D0E0F1011121314151670
:0C8820001718191A1B1C1D1E1F20280011
:04882C007856341234
:04000003B0004020E9
:00000001FF
