:02000002B0004C
:1040000000400B00A0630B00000006000D0005023D
:0840100004010410000000008F
:04401800405F0B00FA
:1040200009480A49884208B505D0094A824202D0A7
:10403000121A01F0CBFE0748074A0021121A01F0BC
:10404000D3FE014808BD00BFD8E5032008630B007C
:1040500048E6032048E60320EDE7032070B5074E4D
:10406000074C00F0D1FEA41BA4080025AC4200D1EF
:1040700070BD56F8043B98470135F7E7B8620B006E
:10408000DC620B0000F086B908B500F091F9BDE8DC
:10409000084000F071BE00F0A5BB00F0A3BB00F02B
:1040A000A9BB0078B0FA80F0400970470123037083
:1040B0007047704710B504210446FFF7F0FF204613
:1040C00010BD0EB403B503AB012153F8042B0193CB
:1040D00000F0FDFC02B05DF804EB03B07047000097
:1040E00010B5064C236833B90420FFF7D4FF08B19C
:1040F000034B03602060206810BD00BF70E6032002
:1041000030600B007FB500F08BFF4FF4E13100F021
:1041100077FF01F0D1F94FF4E13101F049F800F0F7
:104120007FFF00F071FF10B900F04CFBF7E700F0E3
:1041300077FF00F069FF00F073FF274900F09FFC54
:1041400001F0BAF903681B69984718B90A2000F012
:10415000E7FDF5E74FF47A7000F0E2FD01F0ACF90D
:104160000D220146684600F0B1FD684600F0C4FB30
:1041700001F0A2F900F045FD184E194C306001F035
:104180009BF900F03EFD206001F096F900F09AFDE9
:10419000144D85ED000A00F043FF32681249FFF725
:1041A00090FF00F03DFF22681049FFF78AFF00F002
:1041B00037FF0446286801F049FB02460B462046BB
:1041C0000B49FFF77EFF0B4B1888012104B0BDE8B7
:1041D000704001F02BB900BF545F0B006CE6032068
:1041E00050E6032068E603206E5F0B00685F0B005B
:1041F000865F0B00D8E503202DE9F04F2DED028BF3
:1042000089B001F059F900F0FCFC01F055F900F01B
:10421000F8FC01F051F900F055FD01F04DF900F006
:1042200051FDDFF864B1504E8BED000A01F044F906
:1042300000F048FD86ED000A01F03EF900F042FD75
:104240004A4FDFF8488187ED000A01F035F900F0A8
:1042500039FD474D88ED000A01F02EF900F0D1FC40
:104260002C68DFF82CA1012CCAF800001BD0022C0E
:1042700050D06CB93F4E336833B900F0D1FE3E499F
:1042800000F0FDFB01233360DAF80030012B01D090
:10429000002402E0002232602B60204609B0BDEC11
:1042A000028BBDE8F08FDFF8CC90D9F8003023BB4B
:1042B00000F0B6FE08EE100AD8F8000001F0C6FAC9
:1042C00002460B463868CDE9062301F0BFFACDE976
:1042D0000401306801F0BAFACDE90201DBF8000010
:1042E00001F0B4FADDE90623CDE90001234918EE17
:1042F000100AFFF7E6FEC9F80040214B012118889B
:1043000001F0A5F8DAF80040002CC1D1C9F800404E
:104310000223C1E71A4B0021188801F098F800F039
:104320007FFE0446D8F8000001F090FA02460B46E2
:104330003868CDE9062301F089FACDE90401306837
:1043400001F084FACDE90201DBF8000001F07EFA09
:10435000DDE90623CDE9000120460A49FFF7B1FE59
:1043600000232B60012498E758E603205CE6032035
:1043700060E6032048E603209C5F0B00A75F0B006C
:10438000D8E50320E95F0B0054E6032064E6032030
:104390004CE6032008B500F03BF800F04BF800F0C5
:1043A0003FFEBDE80840014900F069BB38600B00E2
:1043B00010B500F02DF800F04BF8054C00282060F7
:1043C00005DD00F02DFE22680249FFF77AFE10BDE0
:1043D00080E6032052600B0010B5074B074A9A6035
:1043E0000024C3E90044032000F060F921460120C5
:1043F000BDE8104000F06AB974E603200000FFFF3A
:10440000704710B504210446FFF749FE204610BD51
:1044100010B5064C236833B90420FFF73CFE08B101
:10442000034B03602060206810BD00BF8CE60320B2
:10443000A8600B0008B5FFF753FEFFF763FE00F01E
:10444000EFFDBDE80840014900F019BB7E600B009C
:1044500008B5FFF745FEFFF7CFFE012808D1054A52
:10446000136801331360044B18680130186008BDED
:104470000020FCE784E6032088E6032008B5024B11
:104480001B689B68019308BD6802030008B5024BD6
:104490001B68DB68019308BD6802030008B5024B86
:1044A0001B689B68019308BD2C02030008B5024BF2
:1044B0001B68DB68019308BD2C02030008B5024BA2
:1044C0001B681B69019308BD2C02030008B5024B51
:1044D0001B685B68019308BD1802030008B5024B16
:1044E0001B685B69019308BD1802030008B5024B05
:1044F0001B685B6C019308BD4802030008B5024BC2
:104500001B685B69019308BD6402030008B5024B98
:104510001B68DB68019308BD3C02030008B5024B31
:104520001B681B69019308BD3C02030008B5024BE0
:104530001B685B69019308BD3C02030008B5024B90
:104540001B689B69019308BD3C02030008B5024B40
:104550001B68DB69019308BD3C02030008B5024BF0
:104560001B681B6A019308BD3C02030008B5024B9F
:104570001B689B6A019308BD3C02030008B5024B0F
:104580001B68DB6A019308BD3C02030008B5024BBF
:104590001B681B6C019308BD3C02030008B5024B6D
:1045A0001B681B6A019308BD2802030008B5024B73
:1045B0001B685B6A019308BD2802030008B5024B23
:1045C0001B689B6A019308BD2802030008B5024BD3
:1045D0001B68DB6A019308BD2802030008B5024B83
:1045E0001B681B6B019308BD2802030008B5024B32
:1045F0001B685B6B019308BD2802030008B5024BE2
:104600001B681B6C019308BD2802030008B5024B10
:104610001B68DB69019308BD3002030008B5024B3B
:104620001B681B6A019308BD3002030008B5024BEA
:104630001B681B68019308BD4C02030008B5024BC0
:104640001B685B68019308BD4C02030008B5024B70
:104650001B681B69019308BD4C02030008B5024B9F
:104660001B685B69019308BD4C02030008B5024B4F
:104670001B689B69019308BD4C02030008B5024BFF
:104680001B68DB69019308BD4C02030008B5024BAF
:104690001B681B6A019308BD4C02030008B5024B5E
:1046A0001B689B6A019308BD4C02030008B5024BCE
:1046B0001B685B68019308BD2002030008B5024B2C
:1046C0001B685B69019308BD2002030008B5024B1B
:1046D0001B68DB6A019308BD2002030008B5034B89
:1046E0001B68D3F88830019308BD00002002030046
:1046F00008B5034B1B68D3F89430019308BD000044
:104700002002030008B5024B1B685B68019308BDDB
:104710004002030008B5024B1B689B68019308BD6B
:104720004002030008B5024B1B68DB68019308BD1B
:104730004002030008B5024B1B681B69019308BDCA
:104740004002030008B5024B1B685B69019308BD7A
:104750004002030008B5024B1B689B69019308BD2A
:104760004002030008B5024B1B68DB69019308BDDA
:104770004002030008B5024B1B681B6A019308BD89
:104780004002030008B5024B1B681B6B019308BD78
:104790004002030008B5024B1B685B6B019308BD28
:1047A0004002030008B5024B1B681B6C019308BD57
:1047B0004002030008B5024B1B685B6C019308BD07
:1047C0004002030008B5024B1B689B68019308BDBB
:1047D0004402030008B5024B1B68DB6B019308BD64
:1047E0004402030008B5024B1B681B68019308BD17
:1047F0001C02030008B5024B1B685B68019308BDEF
:104800001C02030008B5024B1B689B68019308BD9E
:104810001C02030008B5024B1B685B6A019308BDCC
:104820001C02030008B5024B1B681B6C019308BDFA
:104830001C02030008B5024B1B685B6C019308BDAA
:104840001C020300002240681146FFF793BF0022BC
:1048500040681146FFF79EBF40680022FFF792BFF5
:104860004068002281F00101FFF77CBF002340680F
:104870001A461946FFF76EBF002340681A461946CC
:10488000FFF760BF002240681146FFF753BF0022C8
:1048900040681146FFF73EBF406800220221FFF743
:1048A00041BF002340681A46FFF72CBF024B03228A
:1048B0005A60024A1A60704790E60320B8600B0005
:1048C00010B5044608462170FFF7A0FE0023636080
:1048D000204610BD054B02221A60054B054A9A601E
:1048E0000020C3E90000FFF7E1BE00BFA4E60320FB
:1048F00098E603200000FFFF10B504460068FFF7AC
:1049000079FF204610BD10B50446006808B1FFF7D6
:1049100071FF0023C4E90133236010BD38B504469C
:104920000D4600680131FFF76DFF10B1C4E90005C5
:10493000012038BD10B50368044623B143688B429B
:1049400001D3012010BD2046FFF7E8FF0028F9D071
:10495000A368002BF5D122681370F2E737B50D4636
:10496000114601920446FFF7E5FF019A28B9204657
:10497000FFF7C9FF204603B030BDA260294620687A
:1049800001F024FA2268A3680021D154F2E7002341
:1049900013B5C0E9003304468360037341B1084690
:1049A000019101F05FFA019902462046FFF7D6FF18
:1049B000204602B010BD70B505460E4609B900206C
:1049C00070BD6AB1846814442146FFF7B3FF002824
:1049D000F5D02868AB683146184401F03BFAAC606A
:1049E0000120EDE707B500238DF80410012201A98D
:1049F0008DF80530FFF7DFFF03B05DF804FB000022
:104A0000024800230360FFF771BD00BFA8E6032042
:104A1000F8B506460D468F180024BD420CD0336809
:104A200015F8011B9B6830469847031E01DB1C44A8
:104A3000F3E7002C08BF1C462046F8BD13B504461A
:104A4000084659B1019101F00DFA23680199DB681C
:104A50000246204602B0BDE81040184702B010BD23
:104A600003689B68184738B50D210546FFF7F8FF26
:104A70000A2104462846FFF7F3FF204438BD38B525
:104A80000546FFF7DBFF04462846FFF7ECFF20440E
:104A900038BD30B58BB00023012A8DF8243098BF83
:104AA0000A2209AC0D46B1FBF2F101FB125303F0EF
:104AB000FF03092B94BF30333733DBB2AA4204F82B
:104AC000013DEFD92146FFF7B9FF0BB030BD2DE90D
:104AD000F04186B000AF05460E46381D142114463D
:104AE0003B60FFF797FE13280ED8391D2846FFF7C5
:104AF000A5FF04461EB12846FFF7B5FF0444204633
:104B00001837BD46BDE8F08100F1080323F0070324
:104B1000E846ADEB030D2246411C3B686846FFF7B3
:104B200079FE69462846FFF789FF0446C546E1E756
:104B300010B50446FFF7D2FCE060236820465B69AD
:104B40009847002808DAFFF7C9FCE368C01AA36891
:104B50009842F2D34FF0FF3010BD10B50446FFF776
:104B6000BDFCE060236820469B699847002808DA6E
:104B7000FFF7B4FCE368C01AA3689842F2D34FF081
:104B8000FF3010BD10B504462046FFF7E6FF0028B1
:104B90000ADB2D2808D0A0F13003092B04D92368A3
:104BA00020465B699847EFE710BD2DE9F0410546C7
:104BB0000E46FFF7E7FF00284FF000041CDB2746F6
:104BC0004FF00A08864208D02D2818D0A0F13003F3
:104BD000092B02D808FB0404303C2B6828465B698B
:104BE00098472846FFF7B9FFA0F13003092BE9D910
:104BF0008642F2D007B164422046BDE8F081012729
:104C0000EBE70121FFF7D1BF2DE9F84F2DED028B26
:104C100005460E46FFF7B6FF002847DB0FF29C095A
:104C2000D9E900890024B7EE008A2746A2464FF052
:104C30000A0B864217D02D2833D02E2834D0A0F16D
:104C40003003092B0FD80BFB0404303C5FB118EE86
:104C5000100A00F0FBFD42464B4600F04FFE01F00B
:104C60005FF808EE100A2B6828465B6998472846CB
:104C7000FFF773FFA0F13003092BDAD92E28D8D023
:104C80008642F0D0BAF1000F00D0644207EE904A9D
:104C9000B8EEE70A0FB120EE080ABDEC028BBDE8C2
:104CA000F88F4FF0010ADEE70127DCE79FED020AEB
:104CB000F3E700BFAFF30080000000009A999999D4
:104CC0009999B93F0121FFF79FBF000070B50D46CC
:104CD000094904461646FFF75AFE2846FFF728FF03
:104CE000002806DB864204D0C1B22046FFF77AFED8
:104CF000F3E7204670BD00BF7D600B00014B024A08
:104D00001A607047ACE60320EC600B00024B1A6897
:104D1000024B1A60704700BFDCE50320B0E60320B9
:104D20000021FFF7CBBC0000014B00229A607047C6
:104D3000B4E60320014B1860704700BFE0E5032094
:104D400008B50B4B43B100F06BF903681B6998473A
:104D5000002801DDAFF30080064B43B100F0ACFB4F
:104D600003681B699847002801DDAFF3008008BD88
:104D7000000000000000000008B5FFF7E1FFFFF7AA
:104D8000ADFB014B186008BD40E703200548064A0B
:104D9000064908B5121A01F019F8054B054A1A60C0
:104DA00008BD00BF00F4032004F4032004630B00DB
:104DB00000F403201E1C279A07B5002300931A460F
:104DC0006FF07701FFF794FC03B05DF804FB00007F
:104DD00007B543880A2B08D0502B0BD1094B1B6811
:104DE0004BB103B05DF804EB1847FFF7E5FF03B0E4
:104DF0005DF804FB002300931A466FF07701FFF77C
:104E000077FCF4E7C8E6032010B512480021FFF74D
:104E100011FD114B1A68114B9A42114B0CBF012224
:104E200000221A7001D0FFF7B1FFFFF74FFB0446D5
:104E300000F0E2FF0B4B13B12046AFF300800021DE
:104E40000848FFF7C7FCBDE8104007480021FFF7FE
:104E500045BC00BF354D0B0000F403201E1C279AF3
:104E6000C4E6032000000000D14D0B00704710B5D0
:104E700018210446FFF713F9204610BDF0B5037D55
:104E8000062B8DB00E4600F104074FF0000412D03F
:104E900000F1080515F8011D0A223046FFF7F9FD5B
:104EA000AF42044419D0002CF4D02E213046FFF735
:104EB000D7FD0444EEE72F236A4639460A208DF8D1
:104EC0000040FFF71BFB684600F0CCFF336802464A
:104ED000DB68694630469847044620460DB0F0BD71
:104EE00010B5054B0446112240F8043B002100F0A8
:104EF0007BFF204610BD00BF14610B000346074A2C
:104F000010B543F8042B01F1100251F8044B43F89B
:104F1000044B9142F9D10A781A7010BD14610B004C
:104F200010B59DF8084044EA032343EA024242EAEE
:104F3000016104234160037510BD000007B5064BF5
:104F40000360CB7800938B784A780978FFF7E8FF05
:104F500003B05DF804FB00BF14610B00417470479F
:104F60007047704708B50021007CFFF77FFB40EADF
:104F7000E07008BD08B50121007CFFF777FB40EA2F
:104F8000E07008BD08B5007CFFF768FB20EAE07020
:104F900008BD08B5007CFFF759FB20EAE07008BDAA
:104FA00013B50446007C0191FFF758FB00280199D6
:104FB00001DC607C20B1207CFFF760FB20EAE07020
:104FC00002B010BD007CFFF761BB10B51421044690
:104FD000FFF765F8204610BD10B54FF47A7304460C
:104FE00008460021C4E90113044B23600123207407
:104FF00063741146FFF71AFB204610BD28610B00B1
:10500000007C0022FFF71ABB007CFFF747BB10B5FE
:1050100014220446002100F0E7FE204610BD0000E7
:1050200010B50F4C88B003A8FFF7F1FF2178BFF34C
:105030005B8F11F001010FD120460191FFF731F88C
:10504000019948B103AA0748FFF7C6FF2046FFF7BA
:105050002DF8054800F0B4FE024808B010BD00BFAE
:10506000CCE60320D0E60320614F0B00002240680D
:105070001146FFF75FBB002240681146FFF77ABB7D
:10508000002240681146FFF785BB40680022FFF709
:1050900079BB4068002281F00101FFF763BB002368
:1050A00040681A461946FFF755BB002340681A4668
:1050B0001946FFF747BB002240681146FFF72ABB9D
:1050C000406800220221FFF72DBB002340681A46EA
:1050D000FFF718BB084B10B52824224618460021BC
:1050E00000F082FE054B04804FF0FF324260042244
:1050F0005A60034A1A6010BDECE60320E4E6032080
:1051000058610B0070474174704708B5007CFFF789
:105110002DFA20EAE07008BD08B5007CFFF7FEF923
:1051200020EAE07008BD08B5007CFFF707FA40EA06
:10513000E07008BD08B5007CFFF7F8F940EAE070C0
:1051400008BD007CFFF702BA37B5457C04462DB197
:10515000207C03B0BDE83040FFF7D8B9007C019156
:10516000FFF704FA00280199F2DC284603B030BDAD
:1051700010B514210446FEF792FF204610BD000032
:1051800010B54FF47A730446084611460022C4E96C
:105190000123044B2360012320746374FFF7F6F9A5
:1051A000204610BD94610B00007C0023FFF7E6B998
:1051B0000022FFF7F9BF7047F8B5064615460C46C2
:1051C0008F18BC4206D0336814F8011B9B68304628
:1051D0009847F6E72846F8BD007C0022FFF7DEB9C5
:1051E000007C0021FFF7E2B9007C0021FFF7E6B95F
:1051F000007C0021FFF7EAB9007C0021FFF7EEB93F
:1052000010B514210446FEF74AFF204610BD0000E9
:1052100038B5044615464FF47A730022C4E90123D9
:10522000094B2174084623602946FFF7E7F9BF3090
:1052300008D16B69DB0705D56868FFF7DBFAE8681A
:10524000FFF7D8FA204638BDC4610B000023406840
:105250001A46FFF757BA406800220221FFF762BAE8
:10526000002240681146FFF755BA002240681146F7
:10527000FFF760BA002340681A461946FFF762BA82
:10528000002340681A461946FFF764BA40680021B7
:10529000FFF788BA40680021FFF78CBA4068002207
:1052A00081F00101FFF75EBA40680022FFF76ABA99
:1052B000002240681146FFF76DBA0022406811468F
:1052C000FFF758BA2DE9F04395B014460D4607464E
:1052D000FFF706FE00211C220DA8009100F084FDBE
:1052E00040230C9320466B460CAA0021FFF7CEF812
:1052F000044600284BD1024601216868FFF71AFADC
:105300000221804622466868FFF714FA009E814613
:105310002146002E3BD0002939D17368022B03D0DF
:105320000A2B11D0F669F4E7B8F1000FFAD07169D1
:1053300006A8043107ADFFF701FE0FCD3C1D0FC4D9
:105340002B6823704146EDE7B9F1000FEAD074698C
:10535000102201A800F048FD06238DF8143001AD9D
:1053600004F108031834186859682A4603C2083340
:10537000A3421546F7D101A906A807ADFFF7BEFD68
:105380000FCD3C1D0FC42B6823704946CAE7009817
:10539000FFF774F8384615B0BDE8F083024B034AB6
:1053A0001A6000225A60704714E70320EC610B007A
:1053B000232813B502D9002002B010BDA0F10B03C1
:1053C000022B1AD8174C2178BFF35B8F11F0010123
:1053D0000BD120460191FEF764FE019928B11248D5
:1053E000FFF76EFA2046FEF761FE0F4B1878FFF7C5
:1053F00015F90028DFD10120DEE7012809D800F0E7
:105400009BF80021007CFFF7F1F880F00100C0B2AA
:10541000D2E709380128EED800F04EF8007CFFF7FB
:105420009DF8F2E71CE7032020E70320232838B586
:1054300004460D460AD8FF2908D0FFF7B9FF28B166
:1054400029462046BDE83840FFF728B838BD38B5B2
:1054500004460D46FFF72AF8FF2810D0062804D886
:105460004D2323FA00F0C30709D42046FFF7A0FF1D
:1054700028B129462046BDE83840FFF71FB838BD9F
:105480007047000038B5044614252A46002100F074
:10549000ABFC25804025074925812846258200F060
:1054A0006FF804496060284600F06AF8E060204622
:1054B00038BD00BF20620B0030B50E4D2978BFF318
:1054C0005B8F11F0010487B011D12846FEF7E9FD8A
:1054D00068B101A8FFF7D6FF01AA21460648FFF7E9
:1054E0004FFE2846FEF7E2FD044800F069FC024842
:1054F00007B030BD28E703202CE7032081540B00C0
:105500007047000038B50A4B03600123044643612D
:105510000849202000F034F8202560600549A56086
:10552000284600F02DF8C4E90305204638BD00BF29
:105530001800010020620B0030B50E4D2978BFF332
:105540005B8F11F0010487B011D12846FEF7A9FD49
:1055500068B16846FFF7D6FF6A4621460648FFF75E
:1055600057FE2846FEF7A2FD044800F029FC024839
:1055700007B030BD44E7032048E7032001550B0086
:10558000FEF78BBD81F0004102E000BF83F00043D5
:1055900030B54FEA41044FEA430594EA050F08BFCE
:1055A00090EA020F1FBF54EA000C55EA020C7FEA92
:1055B000645C7FEA655C00F0E2804FEA5454D4EB0F
:1055C0005555B8BF6D420CDD2C4480EA020281EAD9
:1055D000030382EA000083EA010180EA020281EA11
:1055E0000303362D88BF30BD11F0004F4FEA013163
:1055F0004FF4801C4CEA113102D0404261EB410172
:1056000013F0004F4FEA03334CEA133302D05242F7
:1056100063EB430394EA050F00F0A780A4F10104B3
:10562000D5F1200E0DDB02FA0EFC22FA05F28018ED
:1056300041F1000103FA0EF2801843FA05F35941D3
:105640000EE0A5F120050EF1200E012A03FA0EFC52
:1056500028BF4CF0020C43FA05F3C01851EBE3717C
:1056600001F0004507D54FF0000EDCF1000C7EEB99
:1056700000006EEB0101B1F5801F1BD3B1F5001FD7
:105680000CD349085FEA30004FEA3C0C04F10104F6
:105690004FEA445212F5800F80F09A80BCF1004F1F
:1056A00008BF5FEA500C50F1000041EB045141EAA1
:1056B000050130BD5FEA4C0C404141EB0101013C6A
:1056C00028BFB1F5801FE9D291F0000F04BF014659
:1056D0000020B1FA81F308BF2033A3F10B03B3F12B
:1056E00020020CDA0C3208DD02F1140CC2F10C02BB
:1056F00001FA0CF021FA02F10CE002F11402D8BF19
:10570000C2F1200C01FA02F120FA0CFCDCBF41EAE4
:105710000C019040E41AA2BF01EB0451294330BDB3
:105720006FEA04041F3C1CDA0C340EDC04F1140490
:10573000C4F1200220FA04F001FA02F340EA030067
:1057400021FA04F345EA030130BDC4F10C04C4F1AD
:10575000200220FA02F001FA04F340EA030029468D
:1057600030BD21FA04F0294630BD94F0000F83F4D7
:10577000801306BF81F480110134013D4EE77FEABA
:10578000645C18BF7FEA655C29D094EA050F08BF06
:1057900090EA020F05D054EA000C04BF19461046E7
:1057A00030BD91EA030F1EBF0021002030BD5FEA2B
:1057B000545C05D14000494128BF41F0004130BD53
:1057C00014F580043CBF01F5801130BD01F00045A7
:1057D00045F0FE4141F470014FF0000030BD7FEA1A
:1057E000645C1ABF194610467FEA655C1CBF0B4615
:1057F000024650EA013406BF52EA033591EA030F2C
:1058000041F4002130BD00BF90F0000F04BF002123
:10581000704730B54FF4806404F132044FF0000556
:105820004FF0000150E700BF90F0000F04BF0021CF
:10583000704730B54FF4806404F1320410F0004535
:1058400048BF40424FF000013EE700BF42004FEA30
:10585000E2014FEA31014FEA02701FBF12F07F43AD
:1058600093F07F4F81F06051704732F07F4208BF64
:10587000704793F07F4F04BF41F40021704730B56B
:105880004FF4607401F0004521F000411CE700BFB7
:1058900050EA010208BF704730B54FF000050AE03A
:1058A00050EA010208BF704730B511F0004502D53B
:1058B000404261EB41014FF4806404F132045FEA3D
:1058C000915C3FF4D8AE4FF003025FEADC0C18BFE6
:1058D00003325FEADC0C18BF033202EBDC02C2F1D8
:1058E000200300FA03FC20FA02F001FA03FE40EA6A
:1058F0000E0021FA02F11444BDE600BF70B54FF06E
:10590000FF0C4CF4E06C1CEA11541DBF1CEA13554B
:1059100094EA0C0F95EA0C0F00F0DEF82C4481EAB3
:10592000030621EA4C5123EA4C5350EA013518BFD3
:1059300052EA033541F4801143F4801338D0A0FBC0
:1059400002CE4FF00005E1FB02E506F00042E0FB6D
:1059500003E54FF00006E1FB03569CF0000F18BF73
:105960004EF0010EA4F1FF04B6F5007F64F540741B
:1059700004D25FEA4E0E6D4146EB060642EAC621AE
:1059800041EA55514FEAC52040EA5E504FEACE2E1B
:10599000B4F1FD0C88BFBCF5E06F1ED8BEF1004F1E
:1059A00008BF5FEA500E50F1000041EB045170BD9A
:1059B00006F0004646EA010140EA020081EA0301DE
:1059C000B4EB5C04C2BFD4EB0C0541EA045170BDDA
:1059D00041F480114FF0000E013C00F3AB8014F154
:1059E000360FDEBF002001F0004170BDC4F100049D
:1059F000203C35DA0C341BDC04F11404C4F120051E
:105A000000FA05F320FA04F001FA05F240EA020078
:105A100001F0004221F0004110EBD37021FA04F6AE
:105A200042EB06015EEA430E08BF20EAD37070BD68
:105A3000C4F10C04C4F1200500FA04F320FA05F0C7
:105A400001FA04F240EA020001F0004110EBD370C9
:105A500041F100015EEA430E08BF20EAD37070BD39
:105A6000C4F1200500FA05F24EEA020E20FA04F312
:105A700001FA05F243EA020321FA04F001F00041C1
:105A800021FA04F220EA020000EBD3705EEA430E32
:105A900008BF20EAD37070BD94F0000F0FD101F061
:105AA0000046400041EB010111F4801F08BF013C9A
:105AB000F7D041EA060195F0000F18BF704703F0D8
:105AC0000046520043EB030313F4801F08BF013D5F
:105AD000F7D043EA0603704794EA0C0F0CEA13551B
:105AE00018BF95EA0C0F0CD050EA410618BF52EAD5
:105AF0004306D1D181EA030101F000414FF00000DB
:105B000070BD50EA410606BF1046194652EA4306E8
:105B100019D094EA0C0F02D150EA013613D195EA5C
:105B20000C0F05D152EA03361CBF104619460AD1A4
:105B300081EA030101F0004141F0FE4141F47001AE
:105B40004FF0000070BD41F0FE4141F4780170BD9E
:105B500070B54FF0FF0C4CF4E06C1CEA11541DBF03
:105B60001CEA135594EA0C0F95EA0C0F00F0A7F805
:105B7000A4EB050481EA030E52EA03354FEA013132
:105B800000F088804FEA03334FF0805545EA131345
:105B900043EA12634FEA022245EA111545EA10650D
:105BA0004FEA00260EF000419D4208BF964244F1A4
:105BB000FD0404F5407402D25B084FEA3202B61AC3
:105BC00065EB03055B084FEA32024FF480104FF497
:105BD000002CB6EB020E75EB030E22BFB61A75460B
:105BE00040EA0C005B084FEA3202B6EB020E75EB9E
:105BF000030E22BFB61A754640EA5C005B084FEA06
:105C00003202B6EB020E75EB030E22BFB61A7546D2
:105C100040EA9C005B084FEA3202B6EB020E75EBDD
:105C2000030E22BFB61A754640EADC0055EA060E9E
:105C300018D04FEA051545EA16754FEA06164FEAE1
:105C4000C30343EA52734FEAC2025FEA1C1CC0D18D
:105C500011F4801F0BD141EA00014FF000004FF01A
:105C6000004CB6E711F4801F04BF01430020B4F1DB
:105C7000FD0C88BFBCF5E06F3FF6AFAEB5EB030C93
:105C800004BFB6EB020C5FEA500C50F1000041EB90
:105C9000045170BD0EF0004E4EEA113114EB5C045D
:105CA000C2BFD4EB0C0541EA045170BD41F4801130
:105CB0004FF0000E013C90E645EA060E8DE60CEA38
:105CC000135594EA0C0F08BF95EA0C0F3FF43BAF55
:105CD00094EA0C0F0AD150EA01347FF434AF95EA0C
:105CE0000C0F7FF425AF104619462CE795EA0C0FF0
:105CF00006D152EA03353FF4FDAE1046194622E7BD
:105D000050EA410618BF52EA43067FF4C5AE50EA96
:105D100041047FF40DAF52EA43057FF4EBAE12E786
:105D20004FEA4102B2F1E04324BFB3F5001CDCF1BD
:105D3000FE5C0DD901F0004C4FEAC0024CEA5070F5
:105D4000B2F1004F40EB830008BF20F00100704724
:105D500011F0804F21D113F13872BCBF01F0004027
:105D6000704741F480114FEA5252C2F11802C2F159
:105D7000200C10FA0CF320FA02F018BF40F00100DA
:105D80004FEAC1234FEAD32303FA0CFC40EA0C008C
:105D900023FA02F34FEA4303CCE77FEA625307D1C9
:105DA00050EA01331EBF4FF0FE4040F44000704700
:105DB00001F0004040F0FE4040F40000704700BF9A
:105DC000002301461A46184600F054B80A4491428E
:105DD00000F1FF3300D1704710B511F8014B03F803
:105DE000014F9142F9D110BD02440346934200D1C4
:105DF000704703F8011BF9E738B5104B1D68AB6B12
:105E00000446B3B91820FEF7EDFC0246A86320B99A
:105E10000B4B0C484221FEF705FD0B490B4BC0E92B
:105E200000130B4B83600B23838100210120C2E907
:105E30000401AB6B00221C615A6138BDE0E5032010
:105E400021620B0038620B000E33CDAB34126DE6CD
:105E5000ECDE0500034611F8012B03F8012B002AA4
:105E6000F9D17047034613F8012B002AFBD1181A09
:105E7000013870472DE9F843DFF8B8800646D8F8B6
:105E800000001F460D46914600F056F8254B1C6851
:105E900034B9254C1C60254B13B11B68C4F88830FD
:105EA00063681F2B07DDD8F8000000F047F84FF0BB
:105EB000FF30BDE8F8834EB3D4F8880088B91C4B96
:105EC00023B9D8F8000000F038F8F0E74FF48470F8
:105ED000FEF788FC0028F4D00023C0E94033C4F862
:105EE0008800636840F8239001229A4000EB830108
:105EF000D0F800311343C0F80031022EC1F8807091
:105F000002BFD0F804311343C0F804316368D8F8F5
:105F100000005A1C0233626044F8235000F00EF86F
:105F20000020C6E7E8E703205CE70320000000004C
:105F3000E5470B0044E603207047704770470000B8
:105F400021400B005D400B0085400B0089400B0099
:105F50000000000053657269616C20697320636FF3
:105F60006E6E656374656400526573657420546871
:105F7000726573686F6C6420697320736574207434
:105F80006F3A20256400426173656C696E65207606
:105F9000616C75652069733A202566005741495444
:105FA000494E472E2E2E0053454E53494E472E2E16
:105FB0002028547269676765726564206174206D7A
:105FC00061675F524D533D25662C206D61675F7898
:105FD0003D25662C206D61675F793D25662C206D1F
:105FE00061675F7A3D25662900444F4E452E202883
:105FF000547269676765726564206174206D6167BA
:106000005F524D533D25662C206D61675F783D25BD
:10601000662C206D61675F793D25662C206D616778
:106020005F7A3D25662900000000000000000000A6
:10603000B3400B00B5400B0056656869636C652082
:10604000436F756E74657220496E69746961746519
:1060500064007E7E7E7E7E7E7E7E7E7E2025642027
:1060600056656869636C657320446574656374651F
:1060700064207E7E7E7E7E7E7E7E7E7E0A004D61F8
:106080006753656E736F7220696E7374616E6365BA
:1060900020696E697469616C697A65642E0000001C
:1060A000000000000000000001440B0003440B004E
:1060B0000000000000000000A3480B0099480B00FE
:1060C0008F480B0085480B0079480B006D480B008A
:1060D0008D520B0095520B0061480B0059480B0084
:1060E0004F480B0045480B00C5520B006170700013
:1060F00025592D256D2D25645425483A254D3A25E1
:1061000053257A0061736374696D650000000000B7
:10611000000000007D4E0B006D4E0B006F4E0B001B
:106120000000000000000000634F0B00CB4F0B008D
:10613000A14F0B00114A0B00934F0B00654F0B0052
:10614000754F0B00C54F0B00854F0B005D4F0B00CB
:106150000000000000000000CB500B00C1500B00FD
:10616000B7500B006D500B00AB500B009F500B0055
:106170008D520B0095520B0093500B008B500B006F
:1061800081500B0077500B00C5520B00000000003F
:106190000000000005510B0071510B0049510B002C
:1061A000114A0B0019510B0035510B0027510B0000
:1061B00043510B0007510B000B510B000000000076
:1061C00000000000B7510B0001520B00D9510B0029
:1061D000B9510B00E1510B00E9510B00F1510B00DB
:1061E000F9510B0000000000000000004D520B00B0
:1061F00057520B0061520B006B520B0075520B0093
:1062000081520B008D520B0095520B009D520B00DA
:10621000A9520B00B1520B00BB520B00C5520B0030
:10622000005245454E54206D616C6C6F6320737550
:1062300063636565646564002F6D6E742F776F729C
:106240006B73706163652F776F726B7370616365D9
:106250002F4743432D31302D706970656C696E6531
:106260002F6A656E6B696E732D4743432D31302D58
:10627000706970656C696E652D34385F323032300C
:10628000313132345F313630363138303634312FB7
:106290007372632F6E65776C69622F6E65776C69B8
:1062A000622F6C6962632F7374646C69622F726110
:1062B0006E642E6300000000D9430B00AD480B0054
:1062C000D5480B00014A0B00FD4C0B000D4D0B0097
:1062D000294D0B00D5500B009D530B000000000012
:1062E000040000001400000003000000474E5500A9
:1062F0009303FEEE970B171A2F55610C6F3C5D4A06
:04630000AAD1B7B8AF
:046304000000000095
:106308000700000004610B00E4E503200000000022
:106318000000000000000000000000000000000075
:106328000000000000000000000000000000000065
:106338000000000000000000000000000000000055
:106348000000000000000000000000000000000045
:106358000000000000000000000000000000000035
:10636800000000000000000000000000ECE703202F
:10637800FFFFFFFF00000102030405060708090AE2
:106388000B0C0D0E0F101112131415161718191ADD
:086398001B1C1D1E1F20280024
:0463A00078563412E5
:04000003B0004020E9
:00000001FF
